{
	"ProductContract.sol": {
		"ProductContract": {
			"abi": [
				{
					"inputs": [
						{
							"internalType": "address",
							"name": "stakeholderAddress",
							"type": "address"
						}
					],
					"stateMutability": "nonpayable",
					"type": "constructor"
				},
				{
					"anonymous": false,
					"inputs": [
						{
							"indexed": false,
							"internalType": "uint256",
							"name": "productId",
							"type": "uint256"
						},
						{
							"indexed": false,
							"internalType": "string",
							"name": "note",
							"type": "string"
						}
					],
					"name": "ManufacturingLogged",
					"type": "event"
				},
				{
					"anonymous": false,
					"inputs": [
						{
							"indexed": false,
							"internalType": "uint256",
							"name": "productId",
							"type": "uint256"
						},
						{
							"indexed": false,
							"internalType": "string",
							"name": "name",
							"type": "string"
						},
						{
							"indexed": false,
							"internalType": "string",
							"name": "origin",
							"type": "string"
						}
					],
					"name": "MaterialLogged",
					"type": "event"
				},
				{
					"anonymous": false,
					"inputs": [
						{
							"indexed": false,
							"internalType": "uint256",
							"name": "productId",
							"type": "uint256"
						},
						{
							"indexed": false,
							"internalType": "address",
							"name": "from",
							"type": "address"
						},
						{
							"indexed": false,
							"internalType": "address",
							"name": "to",
							"type": "address"
						}
					],
					"name": "OwnershipTransferred",
					"type": "event"
				},
				{
					"anonymous": false,
					"inputs": [
						{
							"indexed": false,
							"internalType": "uint256",
							"name": "productId",
							"type": "uint256"
						},
						{
							"indexed": false,
							"internalType": "address",
							"name": "by",
							"type": "address"
						}
					],
					"name": "ProductRegistered",
					"type": "event"
				},
				{
					"inputs": [
						{
							"internalType": "uint256",
							"name": "productId",
							"type": "uint256"
						},
						{
							"internalType": "address",
							"name": "user",
							"type": "address"
						},
						{
							"internalType": "enum ProductContract.Role",
							"name": "role",
							"type": "uint8"
						}
					],
					"name": "assignRole",
					"outputs": [],
					"stateMutability": "nonpayable",
					"type": "function"
				},
				{
					"inputs": [
						{
							"internalType": "uint256",
							"name": "productId",
							"type": "uint256"
						}
					],
					"name": "confirmTransfer",
					"outputs": [],
					"stateMutability": "nonpayable",
					"type": "function"
				},
				{
					"inputs": [
						{
							"internalType": "uint256",
							"name": "productId",
							"type": "uint256"
						}
					],
					"name": "getCurrentOwner",
					"outputs": [
						{
							"internalType": "address",
							"name": "",
							"type": "address"
						}
					],
					"stateMutability": "view",
					"type": "function"
				},
				{
					"inputs": [
						{
							"internalType": "uint256",
							"name": "productId",
							"type": "uint256"
						}
					],
					"name": "getMaterials",
					"outputs": [
						{
							"components": [
								{
									"internalType": "string",
									"name": "name",
									"type": "string"
								},
								{
									"internalType": "string",
									"name": "origin",
									"type": "string"
								},
								{
									"internalType": "uint256",
									"name": "timestamp",
									"type": "uint256"
								}
							],
							"internalType": "struct ProductContract.Material[]",
							"name": "",
							"type": "tuple[]"
						}
					],
					"stateMutability": "view",
					"type": "function"
				},
				{
					"inputs": [
						{
							"internalType": "uint256",
							"name": "productId",
							"type": "uint256"
						}
					],
					"name": "getProductHistory",
					"outputs": [
						{
							"internalType": "address[]",
							"name": "",
							"type": "address[]"
						}
					],
					"stateMutability": "view",
					"type": "function"
				},
				{
					"inputs": [
						{
							"internalType": "uint256",
							"name": "productId",
							"type": "uint256"
						}
					],
					"name": "getProductStatusString",
					"outputs": [
						{
							"internalType": "string",
							"name": "",
							"type": "string"
						}
					],
					"stateMutability": "view",
					"type": "function"
				},
				{
					"inputs": [
						{
							"internalType": "uint256",
							"name": "productId",
							"type": "uint256"
						},
						{
							"internalType": "address",
							"name": "user",
							"type": "address"
						}
					],
					"name": "getRoleString",
					"outputs": [
						{
							"internalType": "string",
							"name": "",
							"type": "string"
						}
					],
					"stateMutability": "view",
					"type": "function"
				},
				{
					"inputs": [
						{
							"internalType": "uint256",
							"name": "productId",
							"type": "uint256"
						},
						{
							"internalType": "address",
							"name": "to",
							"type": "address"
						}
					],
					"name": "initiateTransfer",
					"outputs": [],
					"stateMutability": "nonpayable",
					"type": "function"
				},
				{
					"inputs": [
						{
							"internalType": "uint256",
							"name": "",
							"type": "uint256"
						}
					],
					"name": "isProductRegistered",
					"outputs": [
						{
							"internalType": "bool",
							"name": "",
							"type": "bool"
						}
					],
					"stateMutability": "view",
					"type": "function"
				},
				{
					"inputs": [
						{
							"internalType": "uint256",
							"name": "productId",
							"type": "uint256"
						},
						{
							"internalType": "string",
							"name": "note",
							"type": "string"
						}
					],
					"name": "logManufacturing",
					"outputs": [],
					"stateMutability": "nonpayable",
					"type": "function"
				},
				{
					"inputs": [
						{
							"internalType": "uint256",
							"name": "productId",
							"type": "uint256"
						},
						{
							"internalType": "string",
							"name": "name",
							"type": "string"
						},
						{
							"internalType": "string",
							"name": "origin",
							"type": "string"
						}
					],
					"name": "logMaterialInput",
					"outputs": [],
					"stateMutability": "nonpayable",
					"type": "function"
				},
				{
					"inputs": [],
					"name": "nextProductId",
					"outputs": [
						{
							"internalType": "uint256",
							"name": "",
							"type": "uint256"
						}
					],
					"stateMutability": "view",
					"type": "function"
				},
				{
					"inputs": [],
					"name": "owner",
					"outputs": [
						{
							"internalType": "address",
							"name": "",
							"type": "address"
						}
					],
					"stateMutability": "view",
					"type": "function"
				},
				{
					"inputs": [
						{
							"internalType": "uint256",
							"name": "",
							"type": "uint256"
						},
						{
							"internalType": "address",
							"name": "",
							"type": "address"
						}
					],
					"name": "productRoles",
					"outputs": [
						{
							"internalType": "enum ProductContract.Role",
							"name": "",
							"type": "uint8"
						}
					],
					"stateMutability": "view",
					"type": "function"
				},
				{
					"inputs": [
						{
							"internalType": "uint256",
							"name": "",
							"type": "uint256"
						}
					],
					"name": "products",
					"outputs": [
						{
							"internalType": "uint256",
							"name": "productId",
							"type": "uint256"
						},
						{
							"internalType": "string",
							"name": "manufacturerNote",
							"type": "string"
						},
						{
							"internalType": "address",
							"name": "currentOwner",
							"type": "address"
						},
						{
							"internalType": "enum ProductContract.ProductStatus",
							"name": "status",
							"type": "uint8"
						}
					],
					"stateMutability": "view",
					"type": "function"
				},
				{
					"inputs": [],
					"name": "registerProduct",
					"outputs": [
						{
							"internalType": "uint256",
							"name": "",
							"type": "uint256"
						}
					],
					"stateMutability": "nonpayable",
					"type": "function"
				},
				{
					"inputs": [
						{
							"internalType": "enum ProductContract.ProductStatus",
							"name": "status",
							"type": "uint8"
						}
					],
					"name": "statusToString",
					"outputs": [
						{
							"internalType": "string",
							"name": "",
							"type": "string"
						}
					],
					"stateMutability": "pure",
					"type": "function"
				},
				{
					"inputs": [
						{
							"internalType": "uint256",
							"name": "productId",
							"type": "uint256"
						},
						{
							"internalType": "string",
							"name": "qualityNote",
							"type": "string"
						}
					],
					"name": "verifyMaterialQuality",
					"outputs": [],
					"stateMutability": "nonpayable",
					"type": "function"
				}
			],
			"devdoc": {
				"kind": "dev",
				"methods": {
					"assignRole(uint256,address,uint8)": {
						"details": "Only contract owner can use this function",
						"params": {
							"role": "The role enum value",
							"user": "Address to assign role to"
						}
					},
					"confirmTransfer(uint256)": {
						"details": "Called by new owner to confirm receipt",
						"params": {
							"productId": "ID of the product being confirmed"
						}
					},
					"getCurrentOwner(uint256)": {
						"params": {
							"productId": "ID of the product"
						},
						"returns": {
							"_0": "Address of the current owner"
						}
					},
					"getMaterials(uint256)": {
						"params": {
							"productId": "ID of the product"
						},
						"returns": {
							"_0": "Array of Material structs"
						}
					},
					"getProductHistory(uint256)": {
						"params": {
							"productId": "ID of the product"
						},
						"returns": {
							"_0": "Array of addresses who previously owned the product"
						}
					},
					"getRoleString(uint256,address)": {
						"details": "Converts internal enum to string for UI use",
						"params": {
							"user": "Address to retrieve role for"
						},
						"returns": {
							"_0": "The role as a string (\"Supplier\", \"Manufacturer\", etc.)"
						}
					},
					"initiateTransfer(uint256,address)": {
						"details": "Sender must be current owner",
						"params": {
							"productId": "ID of the product",
							"to": "Address of the next stakeholder"
						}
					},
					"logManufacturing(uint256,string)": {
						"details": "Used by the manufacturer to log actions taken on the product",
						"params": {
							"note": "Description of manufacturing or transformation",
							"productId": "ID of the product"
						}
					},
					"logMaterialInput(uint256,string,string)": {
						"details": "Only the product's current owner (typically the supplier) can log",
						"params": {
							"name": "Name of the material",
							"origin": "Geographic source of the material",
							"productId": "ID of the product"
						}
					},
					"registerProduct()": {
						"details": "Everyone can register a raw material product, and considered as Supplier for that product",
						"returns": {
							"_0": "productId Unique ID assigned to the product"
						}
					},
					"verifyMaterialQuality(uint256,string)": {
						"details": "Manufacturer must be the current owner",
						"params": {
							"productId": "ID of the product",
							"qualityNote": "Quality assurance or inspection note"
						}
					}
				},
				"version": 1
			},
			"evm": {
				"assembly": "    /* \"ProductContract.sol\":101:11457  contract ProductContract {... */\n  mstore(0x40, 0x80)\n    /* \"ProductContract.sol\":1329:1330  1 */\n  0x01\n    /* \"ProductContract.sol\":1301:1330  uint public nextProductId = 1 */\n  0x04\n  sstore\n    /* \"ProductContract.sol\":2082:2453  constructor(address stakeholderAddress) {... */\n  callvalue\n  dup1\n  iszero\n  tag_1\n  jumpi\n  0x00\n  dup1\n  revert\ntag_1:\n  pop\n  mload(0x40)\n  sub(codesize, bytecodeSize)\n  dup1\n  bytecodeSize\n  dup4\n  codecopy\n  dup2\n  dup2\n  add\n  0x40\n  mstore\n  dup2\n  add\n  swap1\n  tag_2\n  swap2\n  swap1\n  tag_3\n  jump\t// in\ntag_2:\n    /* \"ProductContract.sol\":2171:2172  0 */\n  0x00\n    /* \"ProductContract.sol\":2141:2173  stakeholderAddress != address(0) */\n  0xffffffffffffffffffffffffffffffffffffffff\n  and\n    /* \"ProductContract.sol\":2141:2159  stakeholderAddress */\n  dup2\n    /* \"ProductContract.sol\":2141:2173  stakeholderAddress != address(0) */\n  0xffffffffffffffffffffffffffffffffffffffff\n  and\n  eq\n  iszero\n    /* \"ProductContract.sol\":2133:2202  require(stakeholderAddress != address(0), \"Invalid address inputted\") */\n  tag_6\n  jumpi\n  mload(0x40)\n  0x08c379a000000000000000000000000000000000000000000000000000000000\n  dup2\n  mstore\n  0x04\n  add\n  tag_7\n  swap1\n  tag_8\n  jump\t// in\ntag_7:\n  mload(0x40)\n  dup1\n  swap2\n  sub\n  swap1\n  revert\ntag_6:\n    /* \"ProductContract.sol\":2222:2232  msg.sender */\n  caller\n    /* \"ProductContract.sol\":2214:2219  owner */\n  0x00\n  dup1\n    /* \"ProductContract.sol\":2214:2232  owner = msg.sender */\n  0x0100\n  exp\n  dup2\n  sload\n  dup2\n  0xffffffffffffffffffffffffffffffffffffffff\n  mul\n  not\n  and\n  swap1\n  dup4\n  0xffffffffffffffffffffffffffffffffffffffff\n  and\n  mul\n  or\n  swap1\n  sstore\n  pop\n    /* \"ProductContract.sol\":2082:2453  constructor(address stakeholderAddress) {... */\n  pop\n    /* \"ProductContract.sol\":101:11457  contract ProductContract {... */\n  jump(tag_9)\n    /* \"#utility.yul\":88:205   */\ntag_11:\n    /* \"#utility.yul\":197:198   */\n  0x00\n    /* \"#utility.yul\":194:195   */\n  dup1\n    /* \"#utility.yul\":187:199   */\n  revert\n    /* \"#utility.yul\":334:460   */\ntag_13:\n    /* \"#utility.yul\":371:378   */\n  0x00\n    /* \"#utility.yul\":411:453   */\n  0xffffffffffffffffffffffffffffffffffffffff\n    /* \"#utility.yul\":404:409   */\n  dup3\n    /* \"#utility.yul\":400:454   */\n  and\n    /* \"#utility.yul\":389:454   */\n  swap1\n  pop\n    /* \"#utility.yul\":334:460   */\n  swap2\n  swap1\n  pop\n  jump\t// out\n    /* \"#utility.yul\":466:562   */\ntag_14:\n    /* \"#utility.yul\":503:510   */\n  0x00\n    /* \"#utility.yul\":532:556   */\n  tag_26\n    /* \"#utility.yul\":550:555   */\n  dup3\n    /* \"#utility.yul\":532:556   */\n  tag_13\n  jump\t// in\ntag_26:\n    /* \"#utility.yul\":521:556   */\n  swap1\n  pop\n    /* \"#utility.yul\":466:562   */\n  swap2\n  swap1\n  pop\n  jump\t// out\n    /* \"#utility.yul\":568:690   */\ntag_15:\n    /* \"#utility.yul\":641:665   */\n  tag_28\n    /* \"#utility.yul\":659:664   */\n  dup2\n    /* \"#utility.yul\":641:665   */\n  tag_14\n  jump\t// in\ntag_28:\n    /* \"#utility.yul\":634:639   */\n  dup2\n    /* \"#utility.yul\":631:666   */\n  eq\n    /* \"#utility.yul\":621:684   */\n  tag_29\n  jumpi\n    /* \"#utility.yul\":680:681   */\n  0x00\n    /* \"#utility.yul\":677:678   */\n  dup1\n    /* \"#utility.yul\":670:682   */\n  revert\n    /* \"#utility.yul\":621:684   */\ntag_29:\n    /* \"#utility.yul\":568:690   */\n  pop\n  jump\t// out\n    /* \"#utility.yul\":696:839   */\ntag_16:\n    /* \"#utility.yul\":753:758   */\n  0x00\n    /* \"#utility.yul\":784:790   */\n  dup2\n    /* \"#utility.yul\":778:791   */\n  mload\n    /* \"#utility.yul\":769:791   */\n  swap1\n  pop\n    /* \"#utility.yul\":800:833   */\n  tag_31\n    /* \"#utility.yul\":827:832   */\n  dup2\n    /* \"#utility.yul\":800:833   */\n  tag_15\n  jump\t// in\ntag_31:\n    /* \"#utility.yul\":696:839   */\n  swap3\n  swap2\n  pop\n  pop\n  jump\t// out\n    /* \"#utility.yul\":845:1196   */\ntag_3:\n    /* \"#utility.yul\":915:921   */\n  0x00\n    /* \"#utility.yul\":964:966   */\n  0x20\n    /* \"#utility.yul\":952:961   */\n  dup3\n    /* \"#utility.yul\":943:950   */\n  dup5\n    /* \"#utility.yul\":939:962   */\n  sub\n    /* \"#utility.yul\":935:967   */\n  slt\n    /* \"#utility.yul\":932:1051   */\n  iszero\n  tag_33\n  jumpi\n    /* \"#utility.yul\":970:1049   */\n  tag_34\n  tag_11\n  jump\t// in\ntag_34:\n    /* \"#utility.yul\":932:1051   */\ntag_33:\n    /* \"#utility.yul\":1090:1091   */\n  0x00\n    /* \"#utility.yul\":1115:1179   */\n  tag_35\n    /* \"#utility.yul\":1171:1178   */\n  dup5\n    /* \"#utility.yul\":1162:1168   */\n  dup3\n    /* \"#utility.yul\":1151:1160   */\n  dup6\n    /* \"#utility.yul\":1147:1169   */\n  add\n    /* \"#utility.yul\":1115:1179   */\n  tag_16\n  jump\t// in\ntag_35:\n    /* \"#utility.yul\":1105:1179   */\n  swap2\n  pop\n    /* \"#utility.yul\":1061:1189   */\n  pop\n    /* \"#utility.yul\":845:1196   */\n  swap3\n  swap2\n  pop\n  pop\n  jump\t// out\n    /* \"#utility.yul\":1202:1371   */\ntag_17:\n    /* \"#utility.yul\":1286:1297   */\n  0x00\n    /* \"#utility.yul\":1320:1326   */\n  dup3\n    /* \"#utility.yul\":1315:1318   */\n  dup3\n    /* \"#utility.yul\":1308:1327   */\n  mstore\n    /* \"#utility.yul\":1360:1364   */\n  0x20\n    /* \"#utility.yul\":1355:1358   */\n  dup3\n    /* \"#utility.yul\":1351:1365   */\n  add\n    /* \"#utility.yul\":1336:1365   */\n  swap1\n  pop\n    /* \"#utility.yul\":1202:1371   */\n  swap3\n  swap2\n  pop\n  pop\n  jump\t// out\n    /* \"#utility.yul\":1377:1551   */\ntag_18:\n    /* \"#utility.yul\":1517:1543   */\n  0x496e76616c6964206164647265737320696e7075747465640000000000000000\n    /* \"#utility.yul\":1513:1514   */\n  0x00\n    /* \"#utility.yul\":1505:1511   */\n  dup3\n    /* \"#utility.yul\":1501:1515   */\n  add\n    /* \"#utility.yul\":1494:1544   */\n  mstore\n    /* \"#utility.yul\":1377:1551   */\n  pop\n  jump\t// out\n    /* \"#utility.yul\":1557:1923   */\ntag_19:\n    /* \"#utility.yul\":1699:1702   */\n  0x00\n    /* \"#utility.yul\":1720:1787   */\n  tag_39\n    /* \"#utility.yul\":1784:1786   */\n  0x18\n    /* \"#utility.yul\":1779:1782   */\n  dup4\n    /* \"#utility.yul\":1720:1787   */\n  tag_17\n  jump\t// in\ntag_39:\n    /* \"#utility.yul\":1713:1787   */\n  swap2\n  pop\n    /* \"#utility.yul\":1796:1889   */\n  tag_40\n    /* \"#utility.yul\":1885:1888   */\n  dup3\n    /* \"#utility.yul\":1796:1889   */\n  tag_18\n  jump\t// in\ntag_40:\n    /* \"#utility.yul\":1914:1916   */\n  0x20\n    /* \"#utility.yul\":1909:1912   */\n  dup3\n    /* \"#utility.yul\":1905:1917   */\n  add\n    /* \"#utility.yul\":1898:1917   */\n  swap1\n  pop\n    /* \"#utility.yul\":1557:1923   */\n  swap2\n  swap1\n  pop\n  jump\t// out\n    /* \"#utility.yul\":1929:2348   */\ntag_8:\n    /* \"#utility.yul\":2095:2099   */\n  0x00\n    /* \"#utility.yul\":2133:2135   */\n  0x20\n    /* \"#utility.yul\":2122:2131   */\n  dup3\n    /* \"#utility.yul\":2118:2136   */\n  add\n    /* \"#utility.yul\":2110:2136   */\n  swap1\n  pop\n    /* \"#utility.yul\":2182:2191   */\n  dup2\n    /* \"#utility.yul\":2176:2180   */\n  dup2\n    /* \"#utility.yul\":2172:2192   */\n  sub\n    /* \"#utility.yul\":2168:2169   */\n  0x00\n    /* \"#utility.yul\":2157:2166   */\n  dup4\n    /* \"#utility.yul\":2153:2170   */\n  add\n    /* \"#utility.yul\":2146:2193   */\n  mstore\n    /* \"#utility.yul\":2210:2341   */\n  tag_42\n    /* \"#utility.yul\":2336:2340   */\n  dup2\n    /* \"#utility.yul\":2210:2341   */\n  tag_19\n  jump\t// in\ntag_42:\n    /* \"#utility.yul\":2202:2341   */\n  swap1\n  pop\n    /* \"#utility.yul\":1929:2348   */\n  swap2\n  swap1\n  pop\n  jump\t// out\n    /* \"ProductContract.sol\":101:11457  contract ProductContract {... */\ntag_9:\n  dataSize(sub_0)\n  dup1\n  dataOffset(sub_0)\n  0x00\n  codecopy\n  0x00\n  return\nstop\n\nsub_0: assembly {\n        /* \"ProductContract.sol\":101:11457  contract ProductContract {... */\n      mstore(0x40, 0x80)\n      callvalue\n      dup1\n      iszero\n      tag_1\n      jumpi\n      0x00\n      dup1\n      revert\n    tag_1:\n      pop\n      jumpi(tag_2, lt(calldatasize, 0x04))\n      shr(0xe0, calldataload(0x00))\n      dup1\n      0x7acc0b20\n      gt\n      tag_21\n      jumpi\n      dup1\n      0xa552811b\n      gt\n      tag_22\n      jumpi\n      dup1\n      0xa552811b\n      eq\n      tag_16\n      jumpi\n      dup1\n      0xcb3cc377\n      eq\n      tag_17\n      jumpi\n      dup1\n      0xda9a6f3e\n      eq\n      tag_18\n      jumpi\n      dup1\n      0xdfd92f8a\n      eq\n      tag_19\n      jumpi\n      dup1\n      0xe2f94b56\n      eq\n      tag_20\n      jumpi\n      jump(tag_2)\n    tag_22:\n      dup1\n      0x7acc0b20\n      eq\n      tag_12\n      jumpi\n      dup1\n      0x7ace341b\n      eq\n      tag_13\n      jumpi\n      dup1\n      0x8da5cb5b\n      eq\n      tag_14\n      jumpi\n      dup1\n      0x8fc15dc3\n      eq\n      tag_15\n      jumpi\n      jump(tag_2)\n    tag_21:\n      dup1\n      0x4de91a63\n      gt\n      tag_23\n      jumpi\n      dup1\n      0x4de91a63\n      eq\n      tag_7\n      jumpi\n      dup1\n      0x57a096a1\n      eq\n      tag_8\n      jumpi\n      dup1\n      0x680a9283\n      eq\n      tag_9\n      jumpi\n      dup1\n      0x6d7b7fc9\n      eq\n      tag_10\n      jumpi\n      dup1\n      0x6db0168f\n      eq\n      tag_11\n      jumpi\n      jump(tag_2)\n    tag_23:\n      dup1\n      0x03f6dfbc\n      eq\n      tag_3\n      jumpi\n      dup1\n      0x2c48e7db\n      eq\n      tag_4\n      jumpi\n      dup1\n      0x3010cda7\n      eq\n      tag_5\n      jumpi\n      dup1\n      0x3a371b8e\n      eq\n      tag_6\n      jumpi\n    tag_2:\n      0x00\n      dup1\n      revert\n        /* \"ProductContract.sol\":10659:10811  function getProductStatusString(uint productId) public view returns (string memory) {... */\n    tag_3:\n      tag_24\n      0x04\n      dup1\n      calldatasize\n      sub\n      dup2\n      add\n      swap1\n      tag_25\n      swap2\n      swap1\n      tag_26\n      jump\t// in\n    tag_25:\n      tag_27\n      jump\t// in\n    tag_24:\n      mload(0x40)\n      tag_28\n      swap2\n      swap1\n      tag_29\n      jump\t// in\n    tag_28:\n      mload(0x40)\n      dup1\n      swap2\n      sub\n      swap1\n      return\n        /* \"ProductContract.sol\":8718:9209  function confirmTransfer(uint productId) public {... */\n    tag_4:\n      tag_30\n      0x04\n      dup1\n      calldatasize\n      sub\n      dup2\n      add\n      swap1\n      tag_31\n      swap2\n      swap1\n      tag_26\n      jump\t// in\n    tag_31:\n      tag_32\n      jump\t// in\n    tag_30:\n      stop\n        /* \"ProductContract.sol\":4362:4918  function logMaterialInput(uint productId, string memory name, string memory origin) public onlyRole(productId, Role.Supplier) {... */\n    tag_5:\n      tag_33\n      0x04\n      dup1\n      calldatasize\n      sub\n      dup2\n      add\n      swap1\n      tag_34\n      swap2\n      swap1\n      tag_35\n      jump\t// in\n    tag_34:\n      tag_36\n      jump\t// in\n    tag_33:\n      stop\n        /* \"ProductContract.sol\":7199:8528  function initiateTransfer(uint productId, address to) public {... */\n    tag_6:\n      tag_37\n      0x04\n      dup1\n      calldatasize\n      sub\n      dup2\n      add\n      swap1\n      tag_38\n      swap2\n      swap1\n      tag_39\n      jump\t// in\n    tag_38:\n      tag_40\n      jump\t// in\n    tag_37:\n      stop\n        /* \"ProductContract.sol\":1301:1330  uint public nextProductId = 1 */\n    tag_7:\n      tag_41\n      tag_42\n      jump\t// in\n    tag_41:\n      mload(0x40)\n      tag_43\n      swap2\n      swap1\n      tag_44\n      jump\t// in\n    tag_43:\n      mload(0x40)\n      dup1\n      swap2\n      sub\n      swap1\n      return\n        /* \"ProductContract.sol\":9429:9573  function getProductHistory(uint productId) public view returns (address[] memory) {... */\n    tag_8:\n      tag_45\n      0x04\n      dup1\n      calldatasize\n      sub\n      dup2\n      add\n      swap1\n      tag_46\n      swap2\n      swap1\n      tag_26\n      jump\t// in\n    tag_46:\n      tag_47\n      jump\t// in\n    tag_45:\n      mload(0x40)\n      tag_48\n      swap2\n      swap1\n      tag_49\n      jump\t// in\n    tag_48:\n      mload(0x40)\n      dup1\n      swap2\n      sub\n      swap1\n      return\n        /* \"ProductContract.sol\":10074:10207  function getMaterials(uint productId) public view returns (Material[] memory) {... */\n    tag_9:\n      tag_50\n      0x04\n      dup1\n      calldatasize\n      sub\n      dup2\n      add\n      swap1\n      tag_51\n      swap2\n      swap1\n      tag_26\n      jump\t// in\n    tag_51:\n      tag_52\n      jump\t// in\n    tag_50:\n      mload(0x40)\n      tag_53\n      swap2\n      swap1\n      tag_54\n      jump\t// in\n    tag_53:\n      mload(0x40)\n      dup1\n      swap2\n      sub\n      swap1\n      return\n        /* \"ProductContract.sol\":10819:11450  function statusToString(ProductStatus status) public pure returns (string memory) {... */\n    tag_10:\n      tag_55\n      0x04\n      dup1\n      calldatasize\n      sub\n      dup2\n      add\n      swap1\n      tag_56\n      swap2\n      swap1\n      tag_57\n      jump\t// in\n    tag_56:\n      tag_58\n      jump\t// in\n    tag_55:\n      mload(0x40)\n      tag_59\n      swap2\n      swap1\n      tag_29\n      jump\t// in\n    tag_59:\n      mload(0x40)\n      dup1\n      swap2\n      sub\n      swap1\n      return\n        /* \"ProductContract.sol\":2691:2884  function assignRole(uint productId, address user, Role role) public {... */\n    tag_11:\n      tag_60\n      0x04\n      dup1\n      calldatasize\n      sub\n      dup2\n      add\n      swap1\n      tag_61\n      swap2\n      swap1\n      tag_62\n      jump\t// in\n    tag_61:\n      tag_63\n      jump\t// in\n    tag_60:\n      stop\n        /* \"ProductContract.sol\":1199:1239  mapping(uint => Product) public products */\n    tag_12:\n      tag_64\n      0x04\n      dup1\n      calldatasize\n      sub\n      dup2\n      add\n      swap1\n      tag_65\n      swap2\n      swap1\n      tag_26\n      jump\t// in\n    tag_65:\n      tag_66\n      jump\t// in\n    tag_64:\n      mload(0x40)\n      tag_67\n      swap5\n      swap4\n      swap3\n      swap2\n      swap1\n      tag_68\n      jump\t// in\n    tag_67:\n      mload(0x40)\n      dup1\n      swap2\n      sub\n      swap1\n      return\n        /* \"ProductContract.sol\":9757:9886  function getCurrentOwner(uint productId) public view returns (address) {... */\n    tag_13:\n      tag_69\n      0x04\n      dup1\n      calldatasize\n      sub\n      dup2\n      add\n      swap1\n      tag_70\n      swap2\n      swap1\n      tag_26\n      jump\t// in\n    tag_70:\n      tag_71\n      jump\t// in\n    tag_69:\n      mload(0x40)\n      tag_72\n      swap2\n      swap1\n      tag_73\n      jump\t// in\n    tag_72:\n      mload(0x40)\n      dup1\n      swap2\n      sub\n      swap1\n      return\n        /* \"ProductContract.sol\":133:153  address public owner */\n    tag_14:\n      tag_74\n      tag_75\n      jump\t// in\n    tag_74:\n      mload(0x40)\n      tag_76\n      swap2\n      swap1\n      tag_73\n      jump\t// in\n    tag_76:\n      mload(0x40)\n      dup1\n      swap2\n      sub\n      swap1\n      return\n        /* \"ProductContract.sol\":1246:1294  mapping(uint => bool) public isProductRegistered */\n    tag_15:\n      tag_77\n      0x04\n      dup1\n      calldatasize\n      sub\n      dup2\n      add\n      swap1\n      tag_78\n      swap2\n      swap1\n      tag_26\n      jump\t// in\n    tag_78:\n      tag_79\n      jump\t// in\n    tag_77:\n      mload(0x40)\n      tag_80\n      swap2\n      swap1\n      tag_81\n      jump\t// in\n    tag_80:\n      mload(0x40)\n      dup1\n      swap2\n      sub\n      swap1\n      return\n        /* \"ProductContract.sol\":6051:6962  function logManufacturing(uint productId, string memory note) public onlyRole(productId, Role.Manufacturer) {... */\n    tag_16:\n      tag_82\n      0x04\n      dup1\n      calldatasize\n      sub\n      dup2\n      add\n      swap1\n      tag_83\n      swap2\n      swap1\n      tag_84\n      jump\t// in\n    tag_83:\n      tag_85\n      jump\t// in\n    tag_82:\n      stop\n        /* \"ProductContract.sol\":3144:3302  function getRoleString(uint productId, address user) public view returns (string memory) {... */\n    tag_17:\n      tag_86\n      0x04\n      dup1\n      calldatasize\n      sub\n      dup2\n      add\n      swap1\n      tag_87\n      swap2\n      swap1\n      tag_39\n      jump\t// in\n    tag_87:\n      tag_88\n      jump\t// in\n    tag_86:\n      mload(0x40)\n      tag_89\n      swap2\n      swap1\n      tag_29\n      jump\t// in\n    tag_89:\n      mload(0x40)\n      dup1\n      swap2\n      sub\n      swap1\n      return\n        /* \"ProductContract.sol\":1131:1192  mapping(uint => mapping(address => Role)) public productRoles */\n    tag_18:\n      tag_90\n      0x04\n      dup1\n      calldatasize\n      sub\n      dup2\n      add\n      swap1\n      tag_91\n      swap2\n      swap1\n      tag_39\n      jump\t// in\n    tag_91:\n      tag_92\n      jump\t// in\n    tag_90:\n      mload(0x40)\n      tag_93\n      swap2\n      swap1\n      tag_94\n      jump\t// in\n    tag_93:\n      mload(0x40)\n      dup1\n      swap2\n      sub\n      swap1\n      return\n        /* \"ProductContract.sol\":3571:4039  function registerProduct() public returns (uint) {... */\n    tag_19:\n      tag_95\n      tag_96\n      jump\t// in\n    tag_95:\n      mload(0x40)\n      tag_97\n      swap2\n      swap1\n      tag_44\n      jump\t// in\n    tag_97:\n      mload(0x40)\n      dup1\n      swap2\n      sub\n      swap1\n      return\n        /* \"ProductContract.sol\":5148:5762  function verifyMaterialQuality(uint productId, string memory qualityNote) public onlyRole(productId, Role.Manufacturer) {... */\n    tag_20:\n      tag_98\n      0x04\n      dup1\n      calldatasize\n      sub\n      dup2\n      add\n      swap1\n      tag_99\n      swap2\n      swap1\n      tag_84\n      jump\t// in\n    tag_99:\n      tag_100\n      jump\t// in\n    tag_98:\n      stop\n        /* \"ProductContract.sol\":10659:10811  function getProductStatusString(uint productId) public view returns (string memory) {... */\n    tag_27:\n        /* \"ProductContract.sol\":10728:10741  string memory */\n      0x60\n        /* \"ProductContract.sol\":10761:10803  statusToString(products[productId].status) */\n      tag_102\n        /* \"ProductContract.sol\":10776:10784  products */\n      0x02\n        /* \"ProductContract.sol\":10776:10795  products[productId] */\n      0x00\n        /* \"ProductContract.sol\":10785:10794  productId */\n      dup5\n        /* \"ProductContract.sol\":10776:10795  products[productId] */\n      dup2\n      mstore\n      0x20\n      add\n      swap1\n      dup2\n      mstore\n      0x20\n      add\n      0x00\n      keccak256\n        /* \"ProductContract.sol\":10776:10802  products[productId].status */\n      0x05\n      add\n      0x00\n      swap1\n      sload\n      swap1\n      0x0100\n      exp\n      swap1\n      div\n      0xff\n      and\n        /* \"ProductContract.sol\":10761:10775  statusToString */\n      tag_58\n        /* \"ProductContract.sol\":10761:10803  statusToString(products[productId].status) */\n      jump\t// in\n    tag_102:\n        /* \"ProductContract.sol\":10754:10803  return statusToString(products[productId].status) */\n      swap1\n      pop\n        /* \"ProductContract.sol\":10659:10811  function getProductStatusString(uint productId) public view returns (string memory) {... */\n      swap2\n      swap1\n      pop\n      jump\t// out\n        /* \"ProductContract.sol\":8718:9209  function confirmTransfer(uint productId) public {... */\n    tag_32:\n        /* \"ProductContract.sol\":8785:8804  isProductRegistered */\n      0x03\n        /* \"ProductContract.sol\":8785:8815  isProductRegistered[productId] */\n      0x00\n        /* \"ProductContract.sol\":8805:8814  productId */\n      dup3\n        /* \"ProductContract.sol\":8785:8815  isProductRegistered[productId] */\n      dup2\n      mstore\n      0x20\n      add\n      swap1\n      dup2\n      mstore\n      0x20\n      add\n      0x00\n      keccak256\n      0x00\n      swap1\n      sload\n      swap1\n      0x0100\n      exp\n      swap1\n      div\n      0xff\n      and\n        /* \"ProductContract.sol\":8777:8842  require(isProductRegistered[productId], \"Product not registered\") */\n      tag_104\n      jumpi\n      mload(0x40)\n      0x08c379a000000000000000000000000000000000000000000000000000000000\n      dup2\n      mstore\n      0x04\n      add\n      tag_105\n      swap1\n      tag_106\n      jump\t// in\n    tag_105:\n      mload(0x40)\n      dup1\n      swap2\n      sub\n      swap1\n      revert\n    tag_104:\n        /* \"ProductContract.sol\":8897:8907  msg.sender */\n      caller\n        /* \"ProductContract.sol\":8861:8907  products[productId].currentOwner == msg.sender */\n      0xffffffffffffffffffffffffffffffffffffffff\n      and\n        /* \"ProductContract.sol\":8861:8869  products */\n      0x02\n        /* \"ProductContract.sol\":8861:8880  products[productId] */\n      0x00\n        /* \"ProductContract.sol\":8870:8879  productId */\n      dup4\n        /* \"ProductContract.sol\":8861:8880  products[productId] */\n      dup2\n      mstore\n      0x20\n      add\n      swap1\n      dup2\n      mstore\n      0x20\n      add\n      0x00\n      keccak256\n        /* \"ProductContract.sol\":8861:8893  products[productId].currentOwner */\n      0x03\n      add\n      0x00\n      swap1\n      sload\n      swap1\n      0x0100\n      exp\n      swap1\n      div\n      0xffffffffffffffffffffffffffffffffffffffff\n      and\n        /* \"ProductContract.sol\":8861:8907  products[productId].currentOwner == msg.sender */\n      0xffffffffffffffffffffffffffffffffffffffff\n      and\n      eq\n        /* \"ProductContract.sol\":8853:8951  require(products[productId].currentOwner == msg.sender, \"Only current owner can confirm transfer\") */\n      tag_107\n      jumpi\n      mload(0x40)\n      0x08c379a000000000000000000000000000000000000000000000000000000000\n      dup2\n      mstore\n      0x04\n      add\n      tag_108\n      swap1\n      tag_109\n      jump\t// in\n    tag_108:\n      mload(0x40)\n      dup1\n      swap2\n      sub\n      swap1\n      revert\n    tag_107:\n        /* \"ProductContract.sol\":8993:9016  ProductStatus.Finalized */\n      0x06\n        /* \"ProductContract.sol\":8964:8972  products */\n      0x02\n        /* \"ProductContract.sol\":8964:8983  products[productId] */\n      0x00\n        /* \"ProductContract.sol\":8973:8982  productId */\n      dup4\n        /* \"ProductContract.sol\":8964:8983  products[productId] */\n      dup2\n      mstore\n      0x20\n      add\n      swap1\n      dup2\n      mstore\n      0x20\n      add\n      0x00\n      keccak256\n        /* \"ProductContract.sol\":8964:8990  products[productId].status */\n      0x05\n      add\n      0x00\n        /* \"ProductContract.sol\":8964:9016  products[productId].status = ProductStatus.Finalized */\n      0x0100\n      exp\n      dup2\n      sload\n      dup2\n      0xff\n      mul\n      not\n      and\n      swap1\n      dup4\n      0x06\n      dup2\n      gt\n      iszero\n      tag_110\n      jumpi\n      tag_111\n      tag_112\n      jump\t// in\n    tag_111:\n    tag_110:\n      mul\n      or\n      swap1\n      sstore\n      pop\n        /* \"ProductContract.sol\":9116:9171  OwnershipTransferred(productId, msg.sender, msg.sender) */\n      0x16b85f49bf01212961345d3016c9a531894accf62eb7680f2045d79185cc0ec0\n        /* \"ProductContract.sol\":9137:9146  productId */\n      dup2\n        /* \"ProductContract.sol\":9148:9158  msg.sender */\n      caller\n        /* \"ProductContract.sol\":9160:9170  msg.sender */\n      caller\n        /* \"ProductContract.sol\":9116:9171  OwnershipTransferred(productId, msg.sender, msg.sender) */\n      mload(0x40)\n      tag_113\n      swap4\n      swap3\n      swap2\n      swap1\n      tag_114\n      jump\t// in\n    tag_113:\n      mload(0x40)\n      dup1\n      swap2\n      sub\n      swap1\n      log1\n        /* \"ProductContract.sol\":8718:9209  function confirmTransfer(uint productId) public {... */\n      pop\n      jump\t// out\n        /* \"ProductContract.sol\":4362:4918  function logMaterialInput(uint productId, string memory name, string memory origin) public onlyRole(productId, Role.Supplier) {... */\n    tag_36:\n        /* \"ProductContract.sol\":4462:4471  productId */\n      dup3\n        /* \"ProductContract.sol\":4473:4486  Role.Supplier */\n      0x01\n        /* \"ProductContract.sol\":1507:1512  _role */\n      dup1\n        /* \"ProductContract.sol\":1468:1512  productRoles[productId][msg.sender] == _role */\n      0x04\n      dup2\n      gt\n      iszero\n      tag_116\n      jumpi\n      tag_117\n      tag_112\n      jump\t// in\n    tag_117:\n    tag_116:\n        /* \"ProductContract.sol\":1468:1480  productRoles */\n      0x01\n        /* \"ProductContract.sol\":1468:1491  productRoles[productId] */\n      0x00\n        /* \"ProductContract.sol\":1481:1490  productId */\n      dup5\n        /* \"ProductContract.sol\":1468:1491  productRoles[productId] */\n      dup2\n      mstore\n      0x20\n      add\n      swap1\n      dup2\n      mstore\n      0x20\n      add\n      0x00\n      keccak256\n        /* \"ProductContract.sol\":1468:1503  productRoles[productId][msg.sender] */\n      0x00\n        /* \"ProductContract.sol\":1492:1502  msg.sender */\n      caller\n        /* \"ProductContract.sol\":1468:1503  productRoles[productId][msg.sender] */\n      0xffffffffffffffffffffffffffffffffffffffff\n      and\n      0xffffffffffffffffffffffffffffffffffffffff\n      and\n      dup2\n      mstore\n      0x20\n      add\n      swap1\n      dup2\n      mstore\n      0x20\n      add\n      0x00\n      keccak256\n      0x00\n      swap1\n      sload\n      swap1\n      0x0100\n      exp\n      swap1\n      div\n      0xff\n      and\n        /* \"ProductContract.sol\":1468:1512  productRoles[productId][msg.sender] == _role */\n      0x04\n      dup2\n      gt\n      iszero\n      tag_118\n      jumpi\n      tag_119\n      tag_112\n      jump\t// in\n    tag_119:\n    tag_118:\n      eq\n        /* \"ProductContract.sol\":1460:1554  require(productRoles[productId][msg.sender] == _role, \"Access denied: wrong role for product\") */\n      tag_120\n      jumpi\n      mload(0x40)\n      0x08c379a000000000000000000000000000000000000000000000000000000000\n      dup2\n      mstore\n      0x04\n      add\n      tag_121\n      swap1\n      tag_122\n      jump\t// in\n    tag_121:\n      mload(0x40)\n      dup1\n      swap2\n      sub\n      swap1\n      revert\n    tag_120:\n        /* \"ProductContract.sol\":4507:4526  isProductRegistered */\n      0x03\n        /* \"ProductContract.sol\":4507:4537  isProductRegistered[productId] */\n      0x00\n        /* \"ProductContract.sol\":4527:4536  productId */\n      dup7\n        /* \"ProductContract.sol\":4507:4537  isProductRegistered[productId] */\n      dup2\n      mstore\n      0x20\n      add\n      swap1\n      dup2\n      mstore\n      0x20\n      add\n      0x00\n      keccak256\n      0x00\n      swap1\n      sload\n      swap1\n      0x0100\n      exp\n      swap1\n      div\n      0xff\n      and\n        /* \"ProductContract.sol\":4499:4564  require(isProductRegistered[productId], \"Product not registered\") */\n      tag_124\n      jumpi\n      mload(0x40)\n      0x08c379a000000000000000000000000000000000000000000000000000000000\n      dup2\n      mstore\n      0x04\n      add\n      tag_125\n      swap1\n      tag_106\n      jump\t// in\n    tag_125:\n      mload(0x40)\n      dup1\n      swap2\n      sub\n      swap1\n      revert\n    tag_124:\n        /* \"ProductContract.sol\":4619:4629  msg.sender */\n      caller\n        /* \"ProductContract.sol\":4583:4629  products[productId].currentOwner == msg.sender */\n      0xffffffffffffffffffffffffffffffffffffffff\n      and\n        /* \"ProductContract.sol\":4583:4591  products */\n      0x02\n        /* \"ProductContract.sol\":4583:4602  products[productId] */\n      0x00\n        /* \"ProductContract.sol\":4592:4601  productId */\n      dup8\n        /* \"ProductContract.sol\":4583:4602  products[productId] */\n      dup2\n      mstore\n      0x20\n      add\n      swap1\n      dup2\n      mstore\n      0x20\n      add\n      0x00\n      keccak256\n        /* \"ProductContract.sol\":4583:4615  products[productId].currentOwner */\n      0x03\n      add\n      0x00\n      swap1\n      sload\n      swap1\n      0x0100\n      exp\n      swap1\n      div\n      0xffffffffffffffffffffffffffffffffffffffff\n      and\n        /* \"ProductContract.sol\":4583:4629  products[productId].currentOwner == msg.sender */\n      0xffffffffffffffffffffffffffffffffffffffff\n      and\n      eq\n        /* \"ProductContract.sol\":4575:4660  require(products[productId].currentOwner == msg.sender, \"You don't own this product\") */\n      tag_126\n      jumpi\n      mload(0x40)\n      0x08c379a000000000000000000000000000000000000000000000000000000000\n      dup2\n      mstore\n      0x04\n      add\n      tag_127\n      swap1\n      tag_128\n      jump\t// in\n    tag_127:\n      mload(0x40)\n      dup1\n      swap2\n      sub\n      swap1\n      revert\n    tag_126:\n        /* \"ProductContract.sol\":4673:4692  Material memory mat */\n      0x00\n        /* \"ProductContract.sol\":4695:4734  Material(name, origin, block.timestamp) */\n      mload(0x40)\n      dup1\n      0x60\n      add\n      0x40\n      mstore\n      dup1\n        /* \"ProductContract.sol\":4704:4708  name */\n      dup7\n        /* \"ProductContract.sol\":4695:4734  Material(name, origin, block.timestamp) */\n      dup2\n      mstore\n      0x20\n      add\n        /* \"ProductContract.sol\":4710:4716  origin */\n      dup6\n        /* \"ProductContract.sol\":4695:4734  Material(name, origin, block.timestamp) */\n      dup2\n      mstore\n      0x20\n      add\n        /* \"ProductContract.sol\":4718:4733  block.timestamp */\n      timestamp\n        /* \"ProductContract.sol\":4695:4734  Material(name, origin, block.timestamp) */\n      dup2\n      mstore\n      pop\n        /* \"ProductContract.sol\":4673:4734  Material memory mat = Material(name, origin, block.timestamp) */\n      swap1\n      pop\n        /* \"ProductContract.sol\":4745:4753  products */\n      0x02\n        /* \"ProductContract.sol\":4745:4764  products[productId] */\n      0x00\n        /* \"ProductContract.sol\":4754:4763  productId */\n      dup8\n        /* \"ProductContract.sol\":4745:4764  products[productId] */\n      dup2\n      mstore\n      0x20\n      add\n      swap1\n      dup2\n      mstore\n      0x20\n      add\n      0x00\n      keccak256\n        /* \"ProductContract.sol\":4745:4774  products[productId].materials */\n      0x01\n      add\n        /* \"ProductContract.sol\":4780:4783  mat */\n      dup2\n        /* \"ProductContract.sol\":4745:4784  products[productId].materials.push(mat) */\n      swap1\n      dup1\n      0x01\n      dup2\n      sload\n      add\n      dup1\n      dup3\n      sstore\n      dup1\n      swap2\n      pop\n      pop\n      0x01\n      swap1\n      sub\n      swap1\n      0x00\n      mstore\n      keccak256(0x00, 0x20)\n      swap1\n      0x03\n      mul\n      add\n      0x00\n      swap1\n      swap2\n      swap1\n      swap2\n      swap1\n      swap2\n      pop\n      0x00\n      dup3\n      add\n      mload\n      dup2\n      0x00\n      add\n      swap1\n      dup1\n      mload\n      swap1\n      0x20\n      add\n      swap1\n      tag_130\n      swap3\n      swap2\n      swap1\n      tag_131\n      jump\t// in\n    tag_130:\n      pop\n      0x20\n      dup3\n      add\n      mload\n      dup2\n      0x01\n      add\n      swap1\n      dup1\n      mload\n      swap1\n      0x20\n      add\n      swap1\n      tag_132\n      swap3\n      swap2\n      swap1\n      tag_131\n      jump\t// in\n    tag_132:\n      pop\n      0x40\n      dup3\n      add\n      mload\n      dup2\n      0x02\n      add\n      sstore\n      pop\n      pop\n        /* \"ProductContract.sol\":4824:4853  ProductStatus.MaterialsLogged */\n      0x01\n        /* \"ProductContract.sol\":4795:4803  products */\n      0x02\n        /* \"ProductContract.sol\":4795:4814  products[productId] */\n      0x00\n        /* \"ProductContract.sol\":4804:4813  productId */\n      dup9\n        /* \"ProductContract.sol\":4795:4814  products[productId] */\n      dup2\n      mstore\n      0x20\n      add\n      swap1\n      dup2\n      mstore\n      0x20\n      add\n      0x00\n      keccak256\n        /* \"ProductContract.sol\":4795:4821  products[productId].status */\n      0x05\n      add\n      0x00\n        /* \"ProductContract.sol\":4795:4853  products[productId].status = ProductStatus.MaterialsLogged */\n      0x0100\n      exp\n      dup2\n      sload\n      dup2\n      0xff\n      mul\n      not\n      and\n      swap1\n      dup4\n      0x06\n      dup2\n      gt\n      iszero\n      tag_133\n      jumpi\n      tag_134\n      tag_112\n      jump\t// in\n    tag_134:\n    tag_133:\n      mul\n      or\n      swap1\n      sstore\n      pop\n        /* \"ProductContract.sol\":4871:4910  MaterialLogged(productId, name, origin) */\n      0x2e9abb49e8b9a29ba75d12b719df776b1b523eac921c6f1e773272ff48455bb8\n        /* \"ProductContract.sol\":4886:4895  productId */\n      dup7\n        /* \"ProductContract.sol\":4897:4901  name */\n      dup7\n        /* \"ProductContract.sol\":4903:4909  origin */\n      dup7\n        /* \"ProductContract.sol\":4871:4910  MaterialLogged(productId, name, origin) */\n      mload(0x40)\n      tag_135\n      swap4\n      swap3\n      swap2\n      swap1\n      tag_136\n      jump\t// in\n    tag_135:\n      mload(0x40)\n      dup1\n      swap2\n      sub\n      swap1\n      log1\n        /* \"ProductContract.sol\":4488:4918  {... */\n      pop\n        /* \"ProductContract.sol\":4362:4918  function logMaterialInput(uint productId, string memory name, string memory origin) public onlyRole(productId, Role.Supplier) {... */\n      pop\n      pop\n      pop\n      pop\n      pop\n      jump\t// out\n        /* \"ProductContract.sol\":7199:8528  function initiateTransfer(uint productId, address to) public {... */\n    tag_40:\n        /* \"ProductContract.sol\":7279:7298  isProductRegistered */\n      0x03\n        /* \"ProductContract.sol\":7279:7309  isProductRegistered[productId] */\n      0x00\n        /* \"ProductContract.sol\":7299:7308  productId */\n      dup4\n        /* \"ProductContract.sol\":7279:7309  isProductRegistered[productId] */\n      dup2\n      mstore\n      0x20\n      add\n      swap1\n      dup2\n      mstore\n      0x20\n      add\n      0x00\n      keccak256\n      0x00\n      swap1\n      sload\n      swap1\n      0x0100\n      exp\n      swap1\n      div\n      0xff\n      and\n        /* \"ProductContract.sol\":7271:7336  require(isProductRegistered[productId], \"Product not registered\") */\n      tag_138\n      jumpi\n      mload(0x40)\n      0x08c379a000000000000000000000000000000000000000000000000000000000\n      dup2\n      mstore\n      0x04\n      add\n      tag_139\n      swap1\n      tag_106\n      jump\t// in\n    tag_139:\n      mload(0x40)\n      dup1\n      swap2\n      sub\n      swap1\n      revert\n    tag_138:\n        /* \"ProductContract.sol\":7391:7401  msg.sender */\n      caller\n        /* \"ProductContract.sol\":7355:7401  products[productId].currentOwner == msg.sender */\n      0xffffffffffffffffffffffffffffffffffffffff\n      and\n        /* \"ProductContract.sol\":7355:7363  products */\n      0x02\n        /* \"ProductContract.sol\":7355:7374  products[productId] */\n      0x00\n        /* \"ProductContract.sol\":7364:7373  productId */\n      dup5\n        /* \"ProductContract.sol\":7355:7374  products[productId] */\n      dup2\n      mstore\n      0x20\n      add\n      swap1\n      dup2\n      mstore\n      0x20\n      add\n      0x00\n      keccak256\n        /* \"ProductContract.sol\":7355:7387  products[productId].currentOwner */\n      0x03\n      add\n      0x00\n      swap1\n      sload\n      swap1\n      0x0100\n      exp\n      swap1\n      div\n      0xffffffffffffffffffffffffffffffffffffffff\n      and\n        /* \"ProductContract.sol\":7355:7401  products[productId].currentOwner == msg.sender */\n      0xffffffffffffffffffffffffffffffffffffffff\n      and\n      eq\n        /* \"ProductContract.sol\":7347:7438  require(products[productId].currentOwner == msg.sender, \"Only owner can initiate transfer\") */\n      tag_140\n      jumpi\n      mload(0x40)\n      0x08c379a000000000000000000000000000000000000000000000000000000000\n      dup2\n      mstore\n      0x04\n      add\n      tag_141\n      swap1\n      tag_142\n      jump\t// in\n    tag_141:\n      mload(0x40)\n      dup1\n      swap2\n      sub\n      swap1\n      revert\n    tag_140:\n        /* \"ProductContract.sol\":7471:7472  0 */\n      0x00\n        /* \"ProductContract.sol\":7457:7473  to != address(0) */\n      0xffffffffffffffffffffffffffffffffffffffff\n      and\n        /* \"ProductContract.sol\":7457:7459  to */\n      dup2\n        /* \"ProductContract.sol\":7457:7473  to != address(0) */\n      0xffffffffffffffffffffffffffffffffffffffff\n      and\n      eq\n      iszero\n        /* \"ProductContract.sol\":7449:7495  require(to != address(0), \"Invalid recipient\") */\n      tag_143\n      jumpi\n      mload(0x40)\n      0x08c379a000000000000000000000000000000000000000000000000000000000\n      dup2\n      mstore\n      0x04\n      add\n      tag_144\n      swap1\n      tag_145\n      jump\t// in\n    tag_144:\n      mload(0x40)\n      dup1\n      swap2\n      sub\n      swap1\n      revert\n    tag_143:\n        /* \"ProductContract.sol\":7508:7523  Role senderRole */\n      0x00\n        /* \"ProductContract.sol\":7526:7538  productRoles */\n      0x01\n        /* \"ProductContract.sol\":7526:7549  productRoles[productId] */\n      0x00\n        /* \"ProductContract.sol\":7539:7548  productId */\n      dup5\n        /* \"ProductContract.sol\":7526:7549  productRoles[productId] */\n      dup2\n      mstore\n      0x20\n      add\n      swap1\n      dup2\n      mstore\n      0x20\n      add\n      0x00\n      keccak256\n        /* \"ProductContract.sol\":7526:7561  productRoles[productId][msg.sender] */\n      0x00\n        /* \"ProductContract.sol\":7550:7560  msg.sender */\n      caller\n        /* \"ProductContract.sol\":7526:7561  productRoles[productId][msg.sender] */\n      0xffffffffffffffffffffffffffffffffffffffff\n      and\n      0xffffffffffffffffffffffffffffffffffffffff\n      and\n      dup2\n      mstore\n      0x20\n      add\n      swap1\n      dup2\n      mstore\n      0x20\n      add\n      0x00\n      keccak256\n      0x00\n      swap1\n      sload\n      swap1\n      0x0100\n      exp\n      swap1\n      div\n      0xff\n      and\n        /* \"ProductContract.sol\":7508:7561  Role senderRole = productRoles[productId][msg.sender] */\n      swap1\n      pop\n        /* \"ProductContract.sol\":7572:7590  Role recipientRole */\n      0x00\n        /* \"ProductContract.sol\":7593:7605  productRoles */\n      0x01\n        /* \"ProductContract.sol\":7593:7616  productRoles[productId] */\n      0x00\n        /* \"ProductContract.sol\":7606:7615  productId */\n      dup6\n        /* \"ProductContract.sol\":7593:7616  productRoles[productId] */\n      dup2\n      mstore\n      0x20\n      add\n      swap1\n      dup2\n      mstore\n      0x20\n      add\n      0x00\n      keccak256\n        /* \"ProductContract.sol\":7593:7620  productRoles[productId][to] */\n      0x00\n        /* \"ProductContract.sol\":7617:7619  to */\n      dup5\n        /* \"ProductContract.sol\":7593:7620  productRoles[productId][to] */\n      0xffffffffffffffffffffffffffffffffffffffff\n      and\n      0xffffffffffffffffffffffffffffffffffffffff\n      and\n      dup2\n      mstore\n      0x20\n      add\n      swap1\n      dup2\n      mstore\n      0x20\n      add\n      0x00\n      keccak256\n      0x00\n      swap1\n      sload\n      swap1\n      0x0100\n      exp\n      swap1\n      div\n      0xff\n      and\n        /* \"ProductContract.sol\":7572:7620  Role recipientRole = productRoles[productId][to] */\n      swap1\n      pop\n        /* \"ProductContract.sol\":7748:7761  Role.Supplier */\n      0x01\n        /* \"ProductContract.sol\":7734:7761  senderRole == Role.Supplier */\n      0x04\n      dup2\n      gt\n      iszero\n      tag_146\n      jumpi\n      tag_147\n      tag_112\n      jump\t// in\n    tag_147:\n    tag_146:\n        /* \"ProductContract.sol\":7734:7744  senderRole */\n      dup3\n        /* \"ProductContract.sol\":7734:7761  senderRole == Role.Supplier */\n      0x04\n      dup2\n      gt\n      iszero\n      tag_148\n      jumpi\n      tag_149\n      tag_112\n      jump\t// in\n    tag_149:\n    tag_148:\n      eq\n        /* \"ProductContract.sol\":7730:8289  if (senderRole == Role.Supplier) {... */\n      iszero\n      tag_150\n      jumpi\n        /* \"ProductContract.sol\":7803:7820  Role.Manufacturer */\n      0x02\n        /* \"ProductContract.sol\":7786:7820  recipientRole == Role.Manufacturer */\n      0x04\n      dup2\n      gt\n      iszero\n      tag_151\n      jumpi\n      tag_152\n      tag_112\n      jump\t// in\n    tag_152:\n    tag_151:\n        /* \"ProductContract.sol\":7786:7799  recipientRole */\n      dup2\n        /* \"ProductContract.sol\":7786:7820  recipientRole == Role.Manufacturer */\n      0x04\n      dup2\n      gt\n      iszero\n      tag_153\n      jumpi\n      tag_154\n      tag_112\n      jump\t// in\n    tag_154:\n    tag_153:\n      eq\n        /* \"ProductContract.sol\":7778:7854  require(recipientRole == Role.Manufacturer, \"Must transfer to Manufacturer\") */\n      tag_155\n      jumpi\n      mload(0x40)\n      0x08c379a000000000000000000000000000000000000000000000000000000000\n      dup2\n      mstore\n      0x04\n      add\n      tag_156\n      swap1\n      tag_157\n      jump\t// in\n    tag_156:\n      mload(0x40)\n      dup1\n      swap2\n      sub\n      swap1\n      revert\n    tag_155:\n        /* \"ProductContract.sol\":7730:8289  if (senderRole == Role.Supplier) {... */\n      jump(tag_158)\n    tag_150:\n        /* \"ProductContract.sol\":7890:7907  Role.Manufacturer */\n      0x02\n        /* \"ProductContract.sol\":7876:7907  senderRole == Role.Manufacturer */\n      0x04\n      dup2\n      gt\n      iszero\n      tag_159\n      jumpi\n      tag_160\n      tag_112\n      jump\t// in\n    tag_160:\n    tag_159:\n        /* \"ProductContract.sol\":7876:7886  senderRole */\n      dup3\n        /* \"ProductContract.sol\":7876:7907  senderRole == Role.Manufacturer */\n      0x04\n      dup2\n      gt\n      iszero\n      tag_161\n      jumpi\n      tag_162\n      tag_112\n      jump\t// in\n    tag_162:\n    tag_161:\n      eq\n        /* \"ProductContract.sol\":7872:8289  if (senderRole == Role.Manufacturer) {... */\n      iszero\n      tag_163\n      jumpi\n        /* \"ProductContract.sol\":7949:7962  Role.Retailer */\n      0x03\n        /* \"ProductContract.sol\":7932:7962  recipientRole == Role.Retailer */\n      0x04\n      dup2\n      gt\n      iszero\n      tag_164\n      jumpi\n      tag_165\n      tag_112\n      jump\t// in\n    tag_165:\n    tag_164:\n        /* \"ProductContract.sol\":7932:7945  recipientRole */\n      dup2\n        /* \"ProductContract.sol\":7932:7962  recipientRole == Role.Retailer */\n      0x04\n      dup2\n      gt\n      iszero\n      tag_166\n      jumpi\n      tag_167\n      tag_112\n      jump\t// in\n    tag_167:\n    tag_166:\n      eq\n        /* \"ProductContract.sol\":7924:7992  require(recipientRole == Role.Retailer, \"Must transfer to Retailer\") */\n      tag_168\n      jumpi\n      mload(0x40)\n      0x08c379a000000000000000000000000000000000000000000000000000000000\n      dup2\n      mstore\n      0x04\n      add\n      tag_169\n      swap1\n      tag_170\n      jump\t// in\n    tag_169:\n      mload(0x40)\n      dup1\n      swap2\n      sub\n      swap1\n      revert\n    tag_168:\n        /* \"ProductContract.sol\":7872:8289  if (senderRole == Role.Manufacturer) {... */\n      jump(tag_171)\n    tag_163:\n        /* \"ProductContract.sol\":8028:8041  Role.Retailer */\n      0x03\n        /* \"ProductContract.sol\":8014:8041  senderRole == Role.Retailer */\n      0x04\n      dup2\n      gt\n      iszero\n      tag_172\n      jumpi\n      tag_173\n      tag_112\n      jump\t// in\n    tag_173:\n    tag_172:\n        /* \"ProductContract.sol\":8014:8024  senderRole */\n      dup3\n        /* \"ProductContract.sol\":8014:8041  senderRole == Role.Retailer */\n      0x04\n      dup2\n      gt\n      iszero\n      tag_174\n      jumpi\n      tag_175\n      tag_112\n      jump\t// in\n    tag_175:\n    tag_174:\n      eq\n        /* \"ProductContract.sol\":8010:8289  if (senderRole == Role.Retailer) {... */\n      iszero\n      tag_176\n      jumpi\n        /* \"ProductContract.sol\":8083:8096  Role.Consumer */\n      0x04\n        /* \"ProductContract.sol\":8066:8096  recipientRole == Role.Consumer */\n      dup1\n      dup2\n      gt\n      iszero\n      tag_177\n      jumpi\n      tag_178\n      tag_112\n      jump\t// in\n    tag_178:\n    tag_177:\n        /* \"ProductContract.sol\":8066:8079  recipientRole */\n      dup2\n        /* \"ProductContract.sol\":8066:8096  recipientRole == Role.Consumer */\n      0x04\n      dup2\n      gt\n      iszero\n      tag_179\n      jumpi\n      tag_180\n      tag_112\n      jump\t// in\n    tag_180:\n    tag_179:\n      eq\n        /* \"ProductContract.sol\":8058:8126  require(recipientRole == Role.Consumer, \"Must transfer to Consumer\") */\n      tag_181\n      jumpi\n      mload(0x40)\n      0x08c379a000000000000000000000000000000000000000000000000000000000\n      dup2\n      mstore\n      0x04\n      add\n      tag_182\n      swap1\n      tag_183\n      jump\t// in\n    tag_182:\n      mload(0x40)\n      dup1\n      swap2\n      sub\n      swap1\n      revert\n    tag_181:\n        /* \"ProductContract.sol\":8010:8289  if (senderRole == Role.Retailer) {... */\n      jump(tag_184)\n    tag_176:\n        /* \"ProductContract.sol\":8213:8237  roleToString(senderRole) */\n      tag_185\n        /* \"ProductContract.sol\":8226:8236  senderRole */\n      dup3\n        /* \"ProductContract.sol\":8213:8225  roleToString */\n      tag_186\n        /* \"ProductContract.sol\":8213:8237  roleToString(senderRole) */\n      jump\t// in\n    tag_185:\n        /* \"ProductContract.sol\":8248:8275  roleToString(recipientRole) */\n      tag_187\n        /* \"ProductContract.sol\":8261:8274  recipientRole */\n      dup3\n        /* \"ProductContract.sol\":8248:8260  roleToString */\n      tag_186\n        /* \"ProductContract.sol\":8248:8275  roleToString(recipientRole) */\n      jump\t// in\n    tag_187:\n        /* \"ProductContract.sol\":8166:8276  string.concat(\"Transfer not allowed between \", roleToString(senderRole), \" and \", roleToString(recipientRole)) */\n      add(0x20, mload(0x40))\n      tag_188\n      swap3\n      swap2\n      swap1\n      tag_189\n      jump\t// in\n    tag_188:\n      mload(0x40)\n      0x20\n      dup2\n      dup4\n      sub\n      sub\n      dup2\n      mstore\n      swap1\n      0x40\n      mstore\n        /* \"ProductContract.sol\":8159:8277  revert(string.concat(\"Transfer not allowed between \", roleToString(senderRole), \" and \", roleToString(recipientRole))) */\n      mload(0x40)\n      0x08c379a000000000000000000000000000000000000000000000000000000000\n      dup2\n      mstore\n      0x04\n      add\n      tag_190\n      swap2\n      swap1\n      tag_29\n      jump\t// in\n    tag_190:\n      mload(0x40)\n      dup1\n      swap2\n      sub\n      swap1\n      revert\n        /* \"ProductContract.sol\":8010:8289  if (senderRole == Role.Retailer) {... */\n    tag_184:\n        /* \"ProductContract.sol\":7872:8289  if (senderRole == Role.Manufacturer) {... */\n    tag_171:\n        /* \"ProductContract.sol\":7730:8289  if (senderRole == Role.Supplier) {... */\n    tag_158:\n        /* \"ProductContract.sol\":8330:8353  ProductStatus.InTransit */\n      0x04\n        /* \"ProductContract.sol\":8301:8309  products */\n      0x02\n        /* \"ProductContract.sol\":8301:8320  products[productId] */\n      0x00\n        /* \"ProductContract.sol\":8310:8319  productId */\n      dup7\n        /* \"ProductContract.sol\":8301:8320  products[productId] */\n      dup2\n      mstore\n      0x20\n      add\n      swap1\n      dup2\n      mstore\n      0x20\n      add\n      0x00\n      keccak256\n        /* \"ProductContract.sol\":8301:8327  products[productId].status */\n      0x05\n      add\n      0x00\n        /* \"ProductContract.sol\":8301:8353  products[productId].status = ProductStatus.InTransit */\n      0x0100\n      exp\n      dup2\n      sload\n      dup2\n      0xff\n      mul\n      not\n      and\n      swap1\n      dup4\n      0x06\n      dup2\n      gt\n      iszero\n      tag_191\n      jumpi\n      tag_192\n      tag_112\n      jump\t// in\n    tag_192:\n    tag_191:\n      mul\n      or\n      swap1\n      sstore\n      pop\n        /* \"ProductContract.sol\":8399:8401  to */\n      dup3\n        /* \"ProductContract.sol\":8364:8372  products */\n      0x02\n        /* \"ProductContract.sol\":8364:8383  products[productId] */\n      0x00\n        /* \"ProductContract.sol\":8373:8382  productId */\n      dup7\n        /* \"ProductContract.sol\":8364:8383  products[productId] */\n      dup2\n      mstore\n      0x20\n      add\n      swap1\n      dup2\n      mstore\n      0x20\n      add\n      0x00\n      keccak256\n        /* \"ProductContract.sol\":8364:8396  products[productId].currentOwner */\n      0x03\n      add\n      0x00\n        /* \"ProductContract.sol\":8364:8401  products[productId].currentOwner = to */\n      0x0100\n      exp\n      dup2\n      sload\n      dup2\n      0xffffffffffffffffffffffffffffffffffffffff\n      mul\n      not\n      and\n      swap1\n      dup4\n      0xffffffffffffffffffffffffffffffffffffffff\n      and\n      mul\n      or\n      swap1\n      sstore\n      pop\n        /* \"ProductContract.sol\":8412:8420  products */\n      0x02\n        /* \"ProductContract.sol\":8412:8431  products[productId] */\n      0x00\n        /* \"ProductContract.sol\":8421:8430  productId */\n      dup6\n        /* \"ProductContract.sol\":8412:8431  products[productId] */\n      dup2\n      mstore\n      0x20\n      add\n      swap1\n      dup2\n      mstore\n      0x20\n      add\n      0x00\n      keccak256\n        /* \"ProductContract.sol\":8412:8448  products[productId].ownershipHistory */\n      0x04\n      add\n        /* \"ProductContract.sol\":8454:8456  to */\n      dup4\n        /* \"ProductContract.sol\":8412:8457  products[productId].ownershipHistory.push(to) */\n      swap1\n      dup1\n      0x01\n      dup2\n      sload\n      add\n      dup1\n      dup3\n      sstore\n      dup1\n      swap2\n      pop\n      pop\n      0x01\n      swap1\n      sub\n      swap1\n      0x00\n      mstore\n      keccak256(0x00, 0x20)\n      add\n      0x00\n      swap1\n      swap2\n      swap1\n      swap2\n      swap1\n      swap2\n      0x0100\n      exp\n      dup2\n      sload\n      dup2\n      0xffffffffffffffffffffffffffffffffffffffff\n      mul\n      not\n      and\n      swap1\n      dup4\n      0xffffffffffffffffffffffffffffffffffffffff\n      and\n      mul\n      or\n      swap1\n      sstore\n      pop\n        /* \"ProductContract.sol\":8473:8520  OwnershipTransferred(productId, msg.sender, to) */\n      0x16b85f49bf01212961345d3016c9a531894accf62eb7680f2045d79185cc0ec0\n        /* \"ProductContract.sol\":8494:8503  productId */\n      dup5\n        /* \"ProductContract.sol\":8505:8515  msg.sender */\n      caller\n        /* \"ProductContract.sol\":8517:8519  to */\n      dup6\n        /* \"ProductContract.sol\":8473:8520  OwnershipTransferred(productId, msg.sender, to) */\n      mload(0x40)\n      tag_194\n      swap4\n      swap3\n      swap2\n      swap1\n      tag_114\n      jump\t// in\n    tag_194:\n      mload(0x40)\n      dup1\n      swap2\n      sub\n      swap1\n      log1\n        /* \"ProductContract.sol\":7260:8528  {... */\n      pop\n      pop\n        /* \"ProductContract.sol\":7199:8528  function initiateTransfer(uint productId, address to) public {... */\n      pop\n      pop\n      jump\t// out\n        /* \"ProductContract.sol\":1301:1330  uint public nextProductId = 1 */\n    tag_42:\n      sload(0x04)\n      dup2\n      jump\t// out\n        /* \"ProductContract.sol\":9429:9573  function getProductHistory(uint productId) public view returns (address[] memory) {... */\n    tag_47:\n        /* \"ProductContract.sol\":9493:9509  address[] memory */\n      0x60\n        /* \"ProductContract.sol\":9529:9537  products */\n      0x02\n        /* \"ProductContract.sol\":9529:9548  products[productId] */\n      0x00\n        /* \"ProductContract.sol\":9538:9547  productId */\n      dup4\n        /* \"ProductContract.sol\":9529:9548  products[productId] */\n      dup2\n      mstore\n      0x20\n      add\n      swap1\n      dup2\n      mstore\n      0x20\n      add\n      0x00\n      keccak256\n        /* \"ProductContract.sol\":9529:9565  products[productId].ownershipHistory */\n      0x04\n      add\n        /* \"ProductContract.sol\":9522:9565  return products[productId].ownershipHistory */\n      dup1\n      sload\n      dup1\n      0x20\n      mul\n      0x20\n      add\n      mload(0x40)\n      swap1\n      dup2\n      add\n      0x40\n      mstore\n      dup1\n      swap3\n      swap2\n      swap1\n      dup2\n      dup2\n      mstore\n      0x20\n      add\n      dup3\n      dup1\n      sload\n      dup1\n      iszero\n      tag_196\n      jumpi\n      0x20\n      mul\n      dup3\n      add\n      swap2\n      swap1\n      0x00\n      mstore\n      keccak256(0x00, 0x20)\n      swap1\n    tag_197:\n      dup2\n      0x00\n      swap1\n      sload\n      swap1\n      0x0100\n      exp\n      swap1\n      div\n      0xffffffffffffffffffffffffffffffffffffffff\n      and\n      0xffffffffffffffffffffffffffffffffffffffff\n      and\n      dup2\n      mstore\n      0x20\n      add\n      swap1\n      0x01\n      add\n      swap1\n      dup1\n      dup4\n      gt\n      tag_197\n      jumpi\n    tag_196:\n      pop\n      pop\n      pop\n      pop\n      pop\n      swap1\n      pop\n        /* \"ProductContract.sol\":9429:9573  function getProductHistory(uint productId) public view returns (address[] memory) {... */\n      swap2\n      swap1\n      pop\n      jump\t// out\n        /* \"ProductContract.sol\":10074:10207  function getMaterials(uint productId) public view returns (Material[] memory) {... */\n    tag_52:\n        /* \"ProductContract.sol\":10133:10150  Material[] memory */\n      0x60\n        /* \"ProductContract.sol\":10170:10178  products */\n      0x02\n        /* \"ProductContract.sol\":10170:10189  products[productId] */\n      0x00\n        /* \"ProductContract.sol\":10179:10188  productId */\n      dup4\n        /* \"ProductContract.sol\":10170:10189  products[productId] */\n      dup2\n      mstore\n      0x20\n      add\n      swap1\n      dup2\n      mstore\n      0x20\n      add\n      0x00\n      keccak256\n        /* \"ProductContract.sol\":10170:10199  products[productId].materials */\n      0x01\n      add\n        /* \"ProductContract.sol\":10163:10199  return products[productId].materials */\n      dup1\n      sload\n      dup1\n      0x20\n      mul\n      0x20\n      add\n      mload(0x40)\n      swap1\n      dup2\n      add\n      0x40\n      mstore\n      dup1\n      swap3\n      swap2\n      swap1\n      dup2\n      dup2\n      mstore\n      0x20\n      add\n      0x00\n      swap1\n    tag_199:\n      dup3\n      dup3\n      lt\n      iszero\n      tag_200\n      jumpi\n      dup4\n      dup3\n      swap1\n      0x00\n      mstore\n      keccak256(0x00, 0x20)\n      swap1\n      0x03\n      mul\n      add\n      mload(0x40)\n      dup1\n      0x60\n      add\n      0x40\n      mstore\n      swap1\n      dup2\n      0x00\n      dup3\n      add\n      dup1\n      sload\n      tag_202\n      swap1\n      tag_203\n      jump\t// in\n    tag_202:\n      dup1\n      0x1f\n      add\n      0x20\n      dup1\n      swap2\n      div\n      mul\n      0x20\n      add\n      mload(0x40)\n      swap1\n      dup2\n      add\n      0x40\n      mstore\n      dup1\n      swap3\n      swap2\n      swap1\n      dup2\n      dup2\n      mstore\n      0x20\n      add\n      dup3\n      dup1\n      sload\n      tag_204\n      swap1\n      tag_203\n      jump\t// in\n    tag_204:\n      dup1\n      iszero\n      tag_205\n      jumpi\n      dup1\n      0x1f\n      lt\n      tag_206\n      jumpi\n      0x0100\n      dup1\n      dup4\n      sload\n      div\n      mul\n      dup4\n      mstore\n      swap2\n      0x20\n      add\n      swap2\n      jump(tag_205)\n    tag_206:\n      dup3\n      add\n      swap2\n      swap1\n      0x00\n      mstore\n      keccak256(0x00, 0x20)\n      swap1\n    tag_207:\n      dup2\n      sload\n      dup2\n      mstore\n      swap1\n      0x01\n      add\n      swap1\n      0x20\n      add\n      dup1\n      dup4\n      gt\n      tag_207\n      jumpi\n      dup3\n      swap1\n      sub\n      0x1f\n      and\n      dup3\n      add\n      swap2\n    tag_205:\n      pop\n      pop\n      pop\n      pop\n      pop\n      dup2\n      mstore\n      0x20\n      add\n      0x01\n      dup3\n      add\n      dup1\n      sload\n      tag_208\n      swap1\n      tag_203\n      jump\t// in\n    tag_208:\n      dup1\n      0x1f\n      add\n      0x20\n      dup1\n      swap2\n      div\n      mul\n      0x20\n      add\n      mload(0x40)\n      swap1\n      dup2\n      add\n      0x40\n      mstore\n      dup1\n      swap3\n      swap2\n      swap1\n      dup2\n      dup2\n      mstore\n      0x20\n      add\n      dup3\n      dup1\n      sload\n      tag_209\n      swap1\n      tag_203\n      jump\t// in\n    tag_209:\n      dup1\n      iszero\n      tag_210\n      jumpi\n      dup1\n      0x1f\n      lt\n      tag_211\n      jumpi\n      0x0100\n      dup1\n      dup4\n      sload\n      div\n      mul\n      dup4\n      mstore\n      swap2\n      0x20\n      add\n      swap2\n      jump(tag_210)\n    tag_211:\n      dup3\n      add\n      swap2\n      swap1\n      0x00\n      mstore\n      keccak256(0x00, 0x20)\n      swap1\n    tag_212:\n      dup2\n      sload\n      dup2\n      mstore\n      swap1\n      0x01\n      add\n      swap1\n      0x20\n      add\n      dup1\n      dup4\n      gt\n      tag_212\n      jumpi\n      dup3\n      swap1\n      sub\n      0x1f\n      and\n      dup3\n      add\n      swap2\n    tag_210:\n      pop\n      pop\n      pop\n      pop\n      pop\n      dup2\n      mstore\n      0x20\n      add\n      0x02\n      dup3\n      add\n      sload\n      dup2\n      mstore\n      pop\n      pop\n      dup2\n      mstore\n      0x20\n      add\n      swap1\n      0x01\n      add\n      swap1\n      jump(tag_199)\n    tag_200:\n      pop\n      pop\n      pop\n      pop\n      swap1\n      pop\n        /* \"ProductContract.sol\":10074:10207  function getMaterials(uint productId) public view returns (Material[] memory) {... */\n      swap2\n      swap1\n      pop\n      jump\t// out\n        /* \"ProductContract.sol\":10819:11450  function statusToString(ProductStatus status) public pure returns (string memory) {... */\n    tag_58:\n        /* \"ProductContract.sol\":10886:10899  string memory */\n      0x60\n        /* \"ProductContract.sol\":10926:10947  ProductStatus.Created */\n      0x00\n        /* \"ProductContract.sol\":10916:10947  status == ProductStatus.Created */\n      0x06\n      dup2\n      gt\n      iszero\n      tag_214\n      jumpi\n      tag_215\n      tag_112\n      jump\t// in\n    tag_215:\n    tag_214:\n        /* \"ProductContract.sol\":10916:10922  status */\n      dup3\n        /* \"ProductContract.sol\":10916:10947  status == ProductStatus.Created */\n      0x06\n      dup2\n      gt\n      iszero\n      tag_216\n      jumpi\n      tag_217\n      tag_112\n      jump\t// in\n    tag_217:\n    tag_216:\n      eq\n        /* \"ProductContract.sol\":10912:10965  if (status == ProductStatus.Created) return \"Created\" */\n      iszero\n      tag_218\n      jumpi\n        /* \"ProductContract.sol\":10949:10965  return \"Created\" */\n      mload(0x40)\n      dup1\n      0x40\n      add\n      0x40\n      mstore\n      dup1\n      0x07\n      dup2\n      mstore\n      0x20\n      add\n      0x4372656174656400000000000000000000000000000000000000000000000000\n      dup2\n      mstore\n      pop\n      swap1\n      pop\n      jump(tag_213)\n        /* \"ProductContract.sol\":10912:10965  if (status == ProductStatus.Created) return \"Created\" */\n    tag_218:\n        /* \"ProductContract.sol\":10990:11019  ProductStatus.MaterialsLogged */\n      0x01\n        /* \"ProductContract.sol\":10980:11019  status == ProductStatus.MaterialsLogged */\n      0x06\n      dup2\n      gt\n      iszero\n      tag_219\n      jumpi\n      tag_220\n      tag_112\n      jump\t// in\n    tag_220:\n    tag_219:\n        /* \"ProductContract.sol\":10980:10986  status */\n      dup3\n        /* \"ProductContract.sol\":10980:11019  status == ProductStatus.MaterialsLogged */\n      0x06\n      dup2\n      gt\n      iszero\n      tag_221\n      jumpi\n      tag_222\n      tag_112\n      jump\t// in\n    tag_222:\n    tag_221:\n      eq\n        /* \"ProductContract.sol\":10976:11045  if (status == ProductStatus.MaterialsLogged) return \"MaterialsLogged\" */\n      iszero\n      tag_223\n      jumpi\n        /* \"ProductContract.sol\":11021:11045  return \"MaterialsLogged\" */\n      mload(0x40)\n      dup1\n      0x40\n      add\n      0x40\n      mstore\n      dup1\n      0x0f\n      dup2\n      mstore\n      0x20\n      add\n      0x4d6174657269616c734c6f676765640000000000000000000000000000000000\n      dup2\n      mstore\n      pop\n      swap1\n      pop\n      jump(tag_213)\n        /* \"ProductContract.sol\":10976:11045  if (status == ProductStatus.MaterialsLogged) return \"MaterialsLogged\" */\n    tag_223:\n        /* \"ProductContract.sol\":11070:11105  ProductStatus.ManufacturingVerified */\n      0x02\n        /* \"ProductContract.sol\":11060:11105  status == ProductStatus.ManufacturingVerified */\n      0x06\n      dup2\n      gt\n      iszero\n      tag_224\n      jumpi\n      tag_225\n      tag_112\n      jump\t// in\n    tag_225:\n    tag_224:\n        /* \"ProductContract.sol\":11060:11066  status */\n      dup3\n        /* \"ProductContract.sol\":11060:11105  status == ProductStatus.ManufacturingVerified */\n      0x06\n      dup2\n      gt\n      iszero\n      tag_226\n      jumpi\n      tag_227\n      tag_112\n      jump\t// in\n    tag_227:\n    tag_226:\n      eq\n        /* \"ProductContract.sol\":11056:11137  if (status == ProductStatus.ManufacturingVerified) return \"ManufacturingVerified\" */\n      iszero\n      tag_228\n      jumpi\n        /* \"ProductContract.sol\":11107:11137  return \"ManufacturingVerified\" */\n      mload(0x40)\n      dup1\n      0x40\n      add\n      0x40\n      mstore\n      dup1\n      0x15\n      dup2\n      mstore\n      0x20\n      add\n      0x4d616e75666163747572696e6756657269666965640000000000000000000000\n      dup2\n      mstore\n      pop\n      swap1\n      pop\n      jump(tag_213)\n        /* \"ProductContract.sol\":11056:11137  if (status == ProductStatus.ManufacturingVerified) return \"ManufacturingVerified\" */\n    tag_228:\n        /* \"ProductContract.sol\":11162:11188  ProductStatus.Manufactured */\n      0x03\n        /* \"ProductContract.sol\":11152:11188  status == ProductStatus.Manufactured */\n      0x06\n      dup2\n      gt\n      iszero\n      tag_229\n      jumpi\n      tag_230\n      tag_112\n      jump\t// in\n    tag_230:\n    tag_229:\n        /* \"ProductContract.sol\":11152:11158  status */\n      dup3\n        /* \"ProductContract.sol\":11152:11188  status == ProductStatus.Manufactured */\n      0x06\n      dup2\n      gt\n      iszero\n      tag_231\n      jumpi\n      tag_232\n      tag_112\n      jump\t// in\n    tag_232:\n    tag_231:\n      eq\n        /* \"ProductContract.sol\":11148:11211  if (status == ProductStatus.Manufactured) return \"Manufactured\" */\n      iszero\n      tag_233\n      jumpi\n        /* \"ProductContract.sol\":11190:11211  return \"Manufactured\" */\n      mload(0x40)\n      dup1\n      0x40\n      add\n      0x40\n      mstore\n      dup1\n      0x0c\n      dup2\n      mstore\n      0x20\n      add\n      0x4d616e7566616374757265640000000000000000000000000000000000000000\n      dup2\n      mstore\n      pop\n      swap1\n      pop\n      jump(tag_213)\n        /* \"ProductContract.sol\":11148:11211  if (status == ProductStatus.Manufactured) return \"Manufactured\" */\n    tag_233:\n        /* \"ProductContract.sol\":11236:11259  ProductStatus.InTransit */\n      0x04\n        /* \"ProductContract.sol\":11226:11259  status == ProductStatus.InTransit */\n      0x06\n      dup2\n      gt\n      iszero\n      tag_234\n      jumpi\n      tag_235\n      tag_112\n      jump\t// in\n    tag_235:\n    tag_234:\n        /* \"ProductContract.sol\":11226:11232  status */\n      dup3\n        /* \"ProductContract.sol\":11226:11259  status == ProductStatus.InTransit */\n      0x06\n      dup2\n      gt\n      iszero\n      tag_236\n      jumpi\n      tag_237\n      tag_112\n      jump\t// in\n    tag_237:\n    tag_236:\n      eq\n        /* \"ProductContract.sol\":11222:11279  if (status == ProductStatus.InTransit) return \"InTransit\" */\n      iszero\n      tag_238\n      jumpi\n        /* \"ProductContract.sol\":11261:11279  return \"InTransit\" */\n      mload(0x40)\n      dup1\n      0x40\n      add\n      0x40\n      mstore\n      dup1\n      0x09\n      dup2\n      mstore\n      0x20\n      add\n      0x496e5472616e7369740000000000000000000000000000000000000000000000\n      dup2\n      mstore\n      pop\n      swap1\n      pop\n      jump(tag_213)\n        /* \"ProductContract.sol\":11222:11279  if (status == ProductStatus.InTransit) return \"InTransit\" */\n    tag_238:\n        /* \"ProductContract.sol\":11304:11327  ProductStatus.Delivered */\n      0x05\n        /* \"ProductContract.sol\":11294:11327  status == ProductStatus.Delivered */\n      0x06\n      dup2\n      gt\n      iszero\n      tag_239\n      jumpi\n      tag_240\n      tag_112\n      jump\t// in\n    tag_240:\n    tag_239:\n        /* \"ProductContract.sol\":11294:11300  status */\n      dup3\n        /* \"ProductContract.sol\":11294:11327  status == ProductStatus.Delivered */\n      0x06\n      dup2\n      gt\n      iszero\n      tag_241\n      jumpi\n      tag_242\n      tag_112\n      jump\t// in\n    tag_242:\n    tag_241:\n      eq\n        /* \"ProductContract.sol\":11290:11347  if (status == ProductStatus.Delivered) return \"Delivered\" */\n      iszero\n      tag_243\n      jumpi\n        /* \"ProductContract.sol\":11329:11347  return \"Delivered\" */\n      mload(0x40)\n      dup1\n      0x40\n      add\n      0x40\n      mstore\n      dup1\n      0x09\n      dup2\n      mstore\n      0x20\n      add\n      0x44656c6976657265640000000000000000000000000000000000000000000000\n      dup2\n      mstore\n      pop\n      swap1\n      pop\n      jump(tag_213)\n        /* \"ProductContract.sol\":11290:11347  if (status == ProductStatus.Delivered) return \"Delivered\" */\n    tag_243:\n        /* \"ProductContract.sol\":11372:11395  ProductStatus.Finalized */\n      0x06\n        /* \"ProductContract.sol\":11362:11395  status == ProductStatus.Finalized */\n      dup1\n      dup2\n      gt\n      iszero\n      tag_244\n      jumpi\n      tag_245\n      tag_112\n      jump\t// in\n    tag_245:\n    tag_244:\n        /* \"ProductContract.sol\":11362:11368  status */\n      dup3\n        /* \"ProductContract.sol\":11362:11395  status == ProductStatus.Finalized */\n      0x06\n      dup2\n      gt\n      iszero\n      tag_246\n      jumpi\n      tag_247\n      tag_112\n      jump\t// in\n    tag_247:\n    tag_246:\n      eq\n        /* \"ProductContract.sol\":11358:11415  if (status == ProductStatus.Finalized) return \"Finalized\" */\n      iszero\n      tag_248\n      jumpi\n        /* \"ProductContract.sol\":11397:11415  return \"Finalized\" */\n      mload(0x40)\n      dup1\n      0x40\n      add\n      0x40\n      mstore\n      dup1\n      0x09\n      dup2\n      mstore\n      0x20\n      add\n      0x46696e616c697a65640000000000000000000000000000000000000000000000\n      dup2\n      mstore\n      pop\n      swap1\n      pop\n      jump(tag_213)\n        /* \"ProductContract.sol\":11358:11415  if (status == ProductStatus.Finalized) return \"Finalized\" */\n    tag_248:\n        /* \"ProductContract.sol\":11426:11442  return \"Unknown\" */\n      mload(0x40)\n      dup1\n      0x40\n      add\n      0x40\n      mstore\n      dup1\n      0x07\n      dup2\n      mstore\n      0x20\n      add\n      0x556e6b6e6f776e00000000000000000000000000000000000000000000000000\n      dup2\n      mstore\n      pop\n      swap1\n      pop\n        /* \"ProductContract.sol\":10819:11450  function statusToString(ProductStatus status) public pure returns (string memory) {... */\n    tag_213:\n      swap2\n      swap1\n      pop\n      jump\t// out\n        /* \"ProductContract.sol\":2691:2884  function assignRole(uint productId, address user, Role role) public {... */\n    tag_63:\n        /* \"ProductContract.sol\":2792:2797  owner */\n      0x00\n      dup1\n      sload\n      swap1\n      0x0100\n      exp\n      swap1\n      div\n      0xffffffffffffffffffffffffffffffffffffffff\n      and\n        /* \"ProductContract.sol\":2778:2797  msg.sender == owner */\n      0xffffffffffffffffffffffffffffffffffffffff\n      and\n        /* \"ProductContract.sol\":2778:2788  msg.sender */\n      caller\n        /* \"ProductContract.sol\":2778:2797  msg.sender == owner */\n      0xffffffffffffffffffffffffffffffffffffffff\n      and\n      eq\n        /* \"ProductContract.sol\":2770:2829  require(msg.sender == owner, \"Only owner can assign roles\") */\n      tag_250\n      jumpi\n      mload(0x40)\n      0x08c379a000000000000000000000000000000000000000000000000000000000\n      dup2\n      mstore\n      0x04\n      add\n      tag_251\n      swap1\n      tag_252\n      jump\t// in\n    tag_251:\n      mload(0x40)\n      dup1\n      swap2\n      sub\n      swap1\n      revert\n    tag_250:\n        /* \"ProductContract.sol\":2872:2876  role */\n      dup1\n        /* \"ProductContract.sol\":2840:2852  productRoles */\n      0x01\n        /* \"ProductContract.sol\":2840:2863  productRoles[productId] */\n      0x00\n        /* \"ProductContract.sol\":2853:2862  productId */\n      dup6\n        /* \"ProductContract.sol\":2840:2863  productRoles[productId] */\n      dup2\n      mstore\n      0x20\n      add\n      swap1\n      dup2\n      mstore\n      0x20\n      add\n      0x00\n      keccak256\n        /* \"ProductContract.sol\":2840:2869  productRoles[productId][user] */\n      0x00\n        /* \"ProductContract.sol\":2864:2868  user */\n      dup5\n        /* \"ProductContract.sol\":2840:2869  productRoles[productId][user] */\n      0xffffffffffffffffffffffffffffffffffffffff\n      and\n      0xffffffffffffffffffffffffffffffffffffffff\n      and\n      dup2\n      mstore\n      0x20\n      add\n      swap1\n      dup2\n      mstore\n      0x20\n      add\n      0x00\n      keccak256\n      0x00\n        /* \"ProductContract.sol\":2840:2876  productRoles[productId][user] = role */\n      0x0100\n      exp\n      dup2\n      sload\n      dup2\n      0xff\n      mul\n      not\n      and\n      swap1\n      dup4\n      0x04\n      dup2\n      gt\n      iszero\n      tag_253\n      jumpi\n      tag_254\n      tag_112\n      jump\t// in\n    tag_254:\n    tag_253:\n      mul\n      or\n      swap1\n      sstore\n      pop\n        /* \"ProductContract.sol\":2691:2884  function assignRole(uint productId, address user, Role role) public {... */\n      pop\n      pop\n      pop\n      jump\t// out\n        /* \"ProductContract.sol\":1199:1239  mapping(uint => Product) public products */\n    tag_66:\n      mstore(0x20, 0x02)\n      dup1\n      0x00\n      mstore\n      keccak256(0x00, 0x40)\n      0x00\n      swap2\n      pop\n      swap1\n      pop\n      dup1\n      0x00\n      add\n      sload\n      swap1\n      dup1\n      0x02\n      add\n      dup1\n      sload\n      tag_255\n      swap1\n      tag_203\n      jump\t// in\n    tag_255:\n      dup1\n      0x1f\n      add\n      0x20\n      dup1\n      swap2\n      div\n      mul\n      0x20\n      add\n      mload(0x40)\n      swap1\n      dup2\n      add\n      0x40\n      mstore\n      dup1\n      swap3\n      swap2\n      swap1\n      dup2\n      dup2\n      mstore\n      0x20\n      add\n      dup3\n      dup1\n      sload\n      tag_256\n      swap1\n      tag_203\n      jump\t// in\n    tag_256:\n      dup1\n      iszero\n      tag_257\n      jumpi\n      dup1\n      0x1f\n      lt\n      tag_258\n      jumpi\n      0x0100\n      dup1\n      dup4\n      sload\n      div\n      mul\n      dup4\n      mstore\n      swap2\n      0x20\n      add\n      swap2\n      jump(tag_257)\n    tag_258:\n      dup3\n      add\n      swap2\n      swap1\n      0x00\n      mstore\n      keccak256(0x00, 0x20)\n      swap1\n    tag_259:\n      dup2\n      sload\n      dup2\n      mstore\n      swap1\n      0x01\n      add\n      swap1\n      0x20\n      add\n      dup1\n      dup4\n      gt\n      tag_259\n      jumpi\n      dup3\n      swap1\n      sub\n      0x1f\n      and\n      dup3\n      add\n      swap2\n    tag_257:\n      pop\n      pop\n      pop\n      pop\n      pop\n      swap1\n      dup1\n      0x03\n      add\n      0x00\n      swap1\n      sload\n      swap1\n      0x0100\n      exp\n      swap1\n      div\n      0xffffffffffffffffffffffffffffffffffffffff\n      and\n      swap1\n      dup1\n      0x05\n      add\n      0x00\n      swap1\n      sload\n      swap1\n      0x0100\n      exp\n      swap1\n      div\n      0xff\n      and\n      swap1\n      pop\n      dup5\n      jump\t// out\n        /* \"ProductContract.sol\":9757:9886  function getCurrentOwner(uint productId) public view returns (address) {... */\n    tag_71:\n        /* \"ProductContract.sol\":9819:9826  address */\n      0x00\n        /* \"ProductContract.sol\":9846:9854  products */\n      0x02\n        /* \"ProductContract.sol\":9846:9865  products[productId] */\n      0x00\n        /* \"ProductContract.sol\":9855:9864  productId */\n      dup4\n        /* \"ProductContract.sol\":9846:9865  products[productId] */\n      dup2\n      mstore\n      0x20\n      add\n      swap1\n      dup2\n      mstore\n      0x20\n      add\n      0x00\n      keccak256\n        /* \"ProductContract.sol\":9846:9878  products[productId].currentOwner */\n      0x03\n      add\n      0x00\n      swap1\n      sload\n      swap1\n      0x0100\n      exp\n      swap1\n      div\n      0xffffffffffffffffffffffffffffffffffffffff\n      and\n        /* \"ProductContract.sol\":9839:9878  return products[productId].currentOwner */\n      swap1\n      pop\n        /* \"ProductContract.sol\":9757:9886  function getCurrentOwner(uint productId) public view returns (address) {... */\n      swap2\n      swap1\n      pop\n      jump\t// out\n        /* \"ProductContract.sol\":133:153  address public owner */\n    tag_75:\n      0x00\n      dup1\n      sload\n      swap1\n      0x0100\n      exp\n      swap1\n      div\n      0xffffffffffffffffffffffffffffffffffffffff\n      and\n      dup2\n      jump\t// out\n        /* \"ProductContract.sol\":1246:1294  mapping(uint => bool) public isProductRegistered */\n    tag_79:\n      mstore(0x20, 0x03)\n      dup1\n      0x00\n      mstore\n      keccak256(0x00, 0x40)\n      0x00\n      swap2\n      pop\n      sload\n      swap1\n      0x0100\n      exp\n      swap1\n      div\n      0xff\n      and\n      dup2\n      jump\t// out\n        /* \"ProductContract.sol\":6051:6962  function logManufacturing(uint productId, string memory note) public onlyRole(productId, Role.Manufacturer) {... */\n    tag_85:\n        /* \"ProductContract.sol\":6129:6138  productId */\n      dup2\n        /* \"ProductContract.sol\":6140:6157  Role.Manufacturer */\n      0x02\n        /* \"ProductContract.sol\":1507:1512  _role */\n      dup1\n        /* \"ProductContract.sol\":1468:1512  productRoles[productId][msg.sender] == _role */\n      0x04\n      dup2\n      gt\n      iszero\n      tag_262\n      jumpi\n      tag_263\n      tag_112\n      jump\t// in\n    tag_263:\n    tag_262:\n        /* \"ProductContract.sol\":1468:1480  productRoles */\n      0x01\n        /* \"ProductContract.sol\":1468:1491  productRoles[productId] */\n      0x00\n        /* \"ProductContract.sol\":1481:1490  productId */\n      dup5\n        /* \"ProductContract.sol\":1468:1491  productRoles[productId] */\n      dup2\n      mstore\n      0x20\n      add\n      swap1\n      dup2\n      mstore\n      0x20\n      add\n      0x00\n      keccak256\n        /* \"ProductContract.sol\":1468:1503  productRoles[productId][msg.sender] */\n      0x00\n        /* \"ProductContract.sol\":1492:1502  msg.sender */\n      caller\n        /* \"ProductContract.sol\":1468:1503  productRoles[productId][msg.sender] */\n      0xffffffffffffffffffffffffffffffffffffffff\n      and\n      0xffffffffffffffffffffffffffffffffffffffff\n      and\n      dup2\n      mstore\n      0x20\n      add\n      swap1\n      dup2\n      mstore\n      0x20\n      add\n      0x00\n      keccak256\n      0x00\n      swap1\n      sload\n      swap1\n      0x0100\n      exp\n      swap1\n      div\n      0xff\n      and\n        /* \"ProductContract.sol\":1468:1512  productRoles[productId][msg.sender] == _role */\n      0x04\n      dup2\n      gt\n      iszero\n      tag_264\n      jumpi\n      tag_265\n      tag_112\n      jump\t// in\n    tag_265:\n    tag_264:\n      eq\n        /* \"ProductContract.sol\":1460:1554  require(productRoles[productId][msg.sender] == _role, \"Access denied: wrong role for product\") */\n      tag_266\n      jumpi\n      mload(0x40)\n      0x08c379a000000000000000000000000000000000000000000000000000000000\n      dup2\n      mstore\n      0x04\n      add\n      tag_267\n      swap1\n      tag_122\n      jump\t// in\n    tag_267:\n      mload(0x40)\n      dup1\n      swap2\n      sub\n      swap1\n      revert\n    tag_266:\n        /* \"ProductContract.sol\":6178:6197  isProductRegistered */\n      0x03\n        /* \"ProductContract.sol\":6178:6208  isProductRegistered[productId] */\n      0x00\n        /* \"ProductContract.sol\":6198:6207  productId */\n      dup6\n        /* \"ProductContract.sol\":6178:6208  isProductRegistered[productId] */\n      dup2\n      mstore\n      0x20\n      add\n      swap1\n      dup2\n      mstore\n      0x20\n      add\n      0x00\n      keccak256\n      0x00\n      swap1\n      sload\n      swap1\n      0x0100\n      exp\n      swap1\n      div\n      0xff\n      and\n        /* \"ProductContract.sol\":6170:6235  require(isProductRegistered[productId], \"Product not registered\") */\n      tag_269\n      jumpi\n      mload(0x40)\n      0x08c379a000000000000000000000000000000000000000000000000000000000\n      dup2\n      mstore\n      0x04\n      add\n      tag_270\n      swap1\n      tag_106\n      jump\t// in\n    tag_270:\n      mload(0x40)\n      dup1\n      swap2\n      sub\n      swap1\n      revert\n    tag_269:\n        /* \"ProductContract.sol\":6725:6735  msg.sender */\n      caller\n        /* \"ProductContract.sol\":6689:6735  products[productId].currentOwner == msg.sender */\n      0xffffffffffffffffffffffffffffffffffffffff\n      and\n        /* \"ProductContract.sol\":6689:6697  products */\n      0x02\n        /* \"ProductContract.sol\":6689:6708  products[productId] */\n      0x00\n        /* \"ProductContract.sol\":6698:6707  productId */\n      dup7\n        /* \"ProductContract.sol\":6689:6708  products[productId] */\n      dup2\n      mstore\n      0x20\n      add\n      swap1\n      dup2\n      mstore\n      0x20\n      add\n      0x00\n      keccak256\n        /* \"ProductContract.sol\":6689:6721  products[productId].currentOwner */\n      0x03\n      add\n      0x00\n      swap1\n      sload\n      swap1\n      0x0100\n      exp\n      swap1\n      div\n      0xffffffffffffffffffffffffffffffffffffffff\n      and\n        /* \"ProductContract.sol\":6689:6735  products[productId].currentOwner == msg.sender */\n      0xffffffffffffffffffffffffffffffffffffffff\n      and\n      eq\n        /* \"ProductContract.sol\":6681:6772  require(products[productId].currentOwner == msg.sender, \"Only owner can log manufacturing\") */\n      tag_271\n      jumpi\n      mload(0x40)\n      0x08c379a000000000000000000000000000000000000000000000000000000000\n      dup2\n      mstore\n      0x04\n      add\n      tag_272\n      swap1\n      tag_273\n      jump\t// in\n    tag_272:\n      mload(0x40)\n      dup1\n      swap2\n      sub\n      swap1\n      revert\n    tag_271:\n        /* \"ProductContract.sol\":6822:6826  note */\n      dup3\n        /* \"ProductContract.sol\":6783:6791  products */\n      0x02\n        /* \"ProductContract.sol\":6783:6802  products[productId] */\n      0x00\n        /* \"ProductContract.sol\":6792:6801  productId */\n      dup7\n        /* \"ProductContract.sol\":6783:6802  products[productId] */\n      dup2\n      mstore\n      0x20\n      add\n      swap1\n      dup2\n      mstore\n      0x20\n      add\n      0x00\n      keccak256\n        /* \"ProductContract.sol\":6783:6819  products[productId].manufacturerNote */\n      0x02\n      add\n        /* \"ProductContract.sol\":6783:6826  products[productId].manufacturerNote = note */\n      swap1\n      dup1\n      mload\n      swap1\n      0x20\n      add\n      swap1\n      tag_274\n      swap3\n      swap2\n      swap1\n      tag_131\n      jump\t// in\n    tag_274:\n      pop\n        /* \"ProductContract.sol\":6866:6892  ProductStatus.Manufactured */\n      0x03\n        /* \"ProductContract.sol\":6837:6845  products */\n      0x02\n        /* \"ProductContract.sol\":6837:6856  products[productId] */\n      0x00\n        /* \"ProductContract.sol\":6846:6855  productId */\n      dup7\n        /* \"ProductContract.sol\":6837:6856  products[productId] */\n      dup2\n      mstore\n      0x20\n      add\n      swap1\n      dup2\n      mstore\n      0x20\n      add\n      0x00\n      keccak256\n        /* \"ProductContract.sol\":6837:6863  products[productId].status */\n      0x05\n      add\n      0x00\n        /* \"ProductContract.sol\":6837:6892  products[productId].status = ProductStatus.Manufactured */\n      0x0100\n      exp\n      dup2\n      sload\n      dup2\n      0xff\n      mul\n      not\n      and\n      swap1\n      dup4\n      0x06\n      dup2\n      gt\n      iszero\n      tag_275\n      jumpi\n      tag_276\n      tag_112\n      jump\t// in\n    tag_276:\n    tag_275:\n      mul\n      or\n      swap1\n      sstore\n      pop\n        /* \"ProductContract.sol\":6918:6954  ManufacturingLogged(productId, note) */\n      0xec3ae4350812c56655d3ac5aea7ecc17434d05fb3571eca3e293b924ff187332\n        /* \"ProductContract.sol\":6938:6947  productId */\n      dup5\n        /* \"ProductContract.sol\":6949:6953  note */\n      dup5\n        /* \"ProductContract.sol\":6918:6954  ManufacturingLogged(productId, note) */\n      mload(0x40)\n      tag_277\n      swap3\n      swap2\n      swap1\n      tag_278\n      jump\t// in\n    tag_277:\n      mload(0x40)\n      dup1\n      swap2\n      sub\n      swap1\n      log1\n        /* \"ProductContract.sol\":6051:6962  function logManufacturing(uint productId, string memory note) public onlyRole(productId, Role.Manufacturer) {... */\n      pop\n      pop\n      pop\n      pop\n      jump\t// out\n        /* \"ProductContract.sol\":3144:3302  function getRoleString(uint productId, address user) public view returns (string memory) {... */\n    tag_88:\n        /* \"ProductContract.sol\":3218:3231  string memory */\n      0x60\n        /* \"ProductContract.sol\":3251:3294  roleToString(productRoles[productId][user]) */\n      tag_280\n        /* \"ProductContract.sol\":3264:3276  productRoles */\n      0x01\n        /* \"ProductContract.sol\":3264:3287  productRoles[productId] */\n      0x00\n        /* \"ProductContract.sol\":3277:3286  productId */\n      dup6\n        /* \"ProductContract.sol\":3264:3287  productRoles[productId] */\n      dup2\n      mstore\n      0x20\n      add\n      swap1\n      dup2\n      mstore\n      0x20\n      add\n      0x00\n      keccak256\n        /* \"ProductContract.sol\":3264:3293  productRoles[productId][user] */\n      0x00\n        /* \"ProductContract.sol\":3288:3292  user */\n      dup5\n        /* \"ProductContract.sol\":3264:3293  productRoles[productId][user] */\n      0xffffffffffffffffffffffffffffffffffffffff\n      and\n      0xffffffffffffffffffffffffffffffffffffffff\n      and\n      dup2\n      mstore\n      0x20\n      add\n      swap1\n      dup2\n      mstore\n      0x20\n      add\n      0x00\n      keccak256\n      0x00\n      swap1\n      sload\n      swap1\n      0x0100\n      exp\n      swap1\n      div\n      0xff\n      and\n        /* \"ProductContract.sol\":3251:3263  roleToString */\n      tag_186\n        /* \"ProductContract.sol\":3251:3294  roleToString(productRoles[productId][user]) */\n      jump\t// in\n    tag_280:\n        /* \"ProductContract.sol\":3244:3294  return roleToString(productRoles[productId][user]) */\n      swap1\n      pop\n        /* \"ProductContract.sol\":3144:3302  function getRoleString(uint productId, address user) public view returns (string memory) {... */\n      swap3\n      swap2\n      pop\n      pop\n      jump\t// out\n        /* \"ProductContract.sol\":1131:1192  mapping(uint => mapping(address => Role)) public productRoles */\n    tag_92:\n      mstore(0x20, 0x01)\n      dup2\n      0x00\n      mstore\n      mstore(0x20, keccak256(0x00, 0x40))\n      dup1\n      0x00\n      mstore\n      keccak256(0x00, 0x40)\n      0x00\n      swap2\n      pop\n      swap2\n      pop\n      swap1\n      sload\n      swap1\n      0x0100\n      exp\n      swap1\n      div\n      0xff\n      and\n      dup2\n      jump\t// out\n        /* \"ProductContract.sol\":3571:4039  function registerProduct() public returns (uint) {... */\n    tag_96:\n        /* \"ProductContract.sol\":3614:3618  uint */\n      0x00\n        /* \"ProductContract.sol\":3631:3638  uint id */\n      dup1\n        /* \"ProductContract.sol\":3641:3654  nextProductId */\n      0x04\n      0x00\n        /* \"ProductContract.sol\":3641:3656  nextProductId++ */\n      dup2\n      sload\n      dup1\n      swap3\n      swap2\n      swap1\n      tag_282\n      swap1\n      tag_283\n      jump\t// in\n    tag_282:\n      swap2\n      swap1\n      pop\n      sstore\n        /* \"ProductContract.sol\":3631:3656  uint id = nextProductId++ */\n      swap1\n      pop\n        /* \"ProductContract.sol\":3702:3704  id */\n      dup1\n        /* \"ProductContract.sol\":3677:3685  products */\n      0x02\n        /* \"ProductContract.sol\":3677:3689  products[id] */\n      0x00\n        /* \"ProductContract.sol\":3686:3688  id */\n      dup4\n        /* \"ProductContract.sol\":3677:3689  products[id] */\n      dup2\n      mstore\n      0x20\n      add\n      swap1\n      dup2\n      mstore\n      0x20\n      add\n      0x00\n      keccak256\n        /* \"ProductContract.sol\":3677:3699  products[id].productId */\n      0x00\n      add\n        /* \"ProductContract.sol\":3677:3704  products[id].productId = id */\n      dup2\n      swap1\n      sstore\n      pop\n        /* \"ProductContract.sol\":3743:3753  msg.sender */\n      caller\n        /* \"ProductContract.sol\":3715:3723  products */\n      0x02\n        /* \"ProductContract.sol\":3715:3727  products[id] */\n      0x00\n        /* \"ProductContract.sol\":3724:3726  id */\n      dup4\n        /* \"ProductContract.sol\":3715:3727  products[id] */\n      dup2\n      mstore\n      0x20\n      add\n      swap1\n      dup2\n      mstore\n      0x20\n      add\n      0x00\n      keccak256\n        /* \"ProductContract.sol\":3715:3740  products[id].currentOwner */\n      0x03\n      add\n      0x00\n        /* \"ProductContract.sol\":3715:3753  products[id].currentOwner = msg.sender */\n      0x0100\n      exp\n      dup2\n      sload\n      dup2\n      0xffffffffffffffffffffffffffffffffffffffff\n      mul\n      not\n      and\n      swap1\n      dup4\n      0xffffffffffffffffffffffffffffffffffffffff\n      and\n      mul\n      or\n      swap1\n      sstore\n      pop\n        /* \"ProductContract.sol\":3764:3772  products */\n      0x02\n        /* \"ProductContract.sol\":3764:3776  products[id] */\n      0x00\n        /* \"ProductContract.sol\":3773:3775  id */\n      dup3\n        /* \"ProductContract.sol\":3764:3776  products[id] */\n      dup2\n      mstore\n      0x20\n      add\n      swap1\n      dup2\n      mstore\n      0x20\n      add\n      0x00\n      keccak256\n        /* \"ProductContract.sol\":3764:3793  products[id].ownershipHistory */\n      0x04\n      add\n        /* \"ProductContract.sol\":3799:3809  msg.sender */\n      caller\n        /* \"ProductContract.sol\":3764:3810  products[id].ownershipHistory.push(msg.sender) */\n      swap1\n      dup1\n      0x01\n      dup2\n      sload\n      add\n      dup1\n      dup3\n      sstore\n      dup1\n      swap2\n      pop\n      pop\n      0x01\n      swap1\n      sub\n      swap1\n      0x00\n      mstore\n      keccak256(0x00, 0x20)\n      add\n      0x00\n      swap1\n      swap2\n      swap1\n      swap2\n      swap1\n      swap2\n      0x0100\n      exp\n      dup2\n      sload\n      dup2\n      0xffffffffffffffffffffffffffffffffffffffff\n      mul\n      not\n      and\n      swap1\n      dup4\n      0xffffffffffffffffffffffffffffffffffffffff\n      and\n      mul\n      or\n      swap1\n      sstore\n      pop\n        /* \"ProductContract.sol\":3843:3864  ProductStatus.Created */\n      0x00\n        /* \"ProductContract.sol\":3821:3829  products */\n      0x02\n        /* \"ProductContract.sol\":3821:3833  products[id] */\n      0x00\n        /* \"ProductContract.sol\":3830:3832  id */\n      dup4\n        /* \"ProductContract.sol\":3821:3833  products[id] */\n      dup2\n      mstore\n      0x20\n      add\n      swap1\n      dup2\n      mstore\n      0x20\n      add\n      0x00\n      keccak256\n        /* \"ProductContract.sol\":3821:3840  products[id].status */\n      0x05\n      add\n      0x00\n        /* \"ProductContract.sol\":3821:3864  products[id].status = ProductStatus.Created */\n      0x0100\n      exp\n      dup2\n      sload\n      dup2\n      0xff\n      mul\n      not\n      and\n      swap1\n      dup4\n      0x06\n      dup2\n      gt\n      iszero\n      tag_285\n      jumpi\n      tag_286\n      tag_112\n      jump\t// in\n    tag_286:\n    tag_285:\n      mul\n      or\n      swap1\n      sstore\n      pop\n        /* \"ProductContract.sol\":3903:3907  true */\n      0x01\n        /* \"ProductContract.sol\":3877:3896  isProductRegistered */\n      0x03\n        /* \"ProductContract.sol\":3877:3900  isProductRegistered[id] */\n      0x00\n        /* \"ProductContract.sol\":3897:3899  id */\n      dup4\n        /* \"ProductContract.sol\":3877:3900  isProductRegistered[id] */\n      dup2\n      mstore\n      0x20\n      add\n      swap1\n      dup2\n      mstore\n      0x20\n      add\n      0x00\n      keccak256\n      0x00\n        /* \"ProductContract.sol\":3877:3907  isProductRegistered[id] = true */\n      0x0100\n      exp\n      dup2\n      sload\n      dup2\n      0xff\n      mul\n      not\n      and\n      swap1\n      dup4\n      iszero\n      iszero\n      mul\n      or\n      swap1\n      sstore\n      pop\n        /* \"ProductContract.sol\":3949:3962  Role.Supplier */\n      0x01\n        /* \"ProductContract.sol\":3918:3930  productRoles */\n      dup1\n        /* \"ProductContract.sol\":3918:3934  productRoles[id] */\n      0x00\n        /* \"ProductContract.sol\":3931:3933  id */\n      dup4\n        /* \"ProductContract.sol\":3918:3934  productRoles[id] */\n      dup2\n      mstore\n      0x20\n      add\n      swap1\n      dup2\n      mstore\n      0x20\n      add\n      0x00\n      keccak256\n        /* \"ProductContract.sol\":3918:3946  productRoles[id][msg.sender] */\n      0x00\n        /* \"ProductContract.sol\":3935:3945  msg.sender */\n      caller\n        /* \"ProductContract.sol\":3918:3946  productRoles[id][msg.sender] */\n      0xffffffffffffffffffffffffffffffffffffffff\n      and\n      0xffffffffffffffffffffffffffffffffffffffff\n      and\n      dup2\n      mstore\n      0x20\n      add\n      swap1\n      dup2\n      mstore\n      0x20\n      add\n      0x00\n      keccak256\n      0x00\n        /* \"ProductContract.sol\":3918:3962  productRoles[id][msg.sender] = Role.Supplier */\n      0x0100\n      exp\n      dup2\n      sload\n      dup2\n      0xff\n      mul\n      not\n      and\n      swap1\n      dup4\n      0x04\n      dup2\n      gt\n      iszero\n      tag_287\n      jumpi\n      tag_288\n      tag_112\n      jump\t// in\n    tag_288:\n    tag_287:\n      mul\n      or\n      swap1\n      sstore\n      pop\n        /* \"ProductContract.sol\":3978:4011  ProductRegistered(id, msg.sender) */\n      0x73e014c0a076665d9511a27e878fadccb6d7171f5754ba1167a670023760b015\n        /* \"ProductContract.sol\":3996:3998  id */\n      dup2\n        /* \"ProductContract.sol\":4000:4010  msg.sender */\n      caller\n        /* \"ProductContract.sol\":3978:4011  ProductRegistered(id, msg.sender) */\n      mload(0x40)\n      tag_289\n      swap3\n      swap2\n      swap1\n      tag_290\n      jump\t// in\n    tag_289:\n      mload(0x40)\n      dup1\n      swap2\n      sub\n      swap1\n      log1\n        /* \"ProductContract.sol\":4029:4031  id */\n      dup1\n        /* \"ProductContract.sol\":4022:4031  return id */\n      swap2\n      pop\n      pop\n        /* \"ProductContract.sol\":3571:4039  function registerProduct() public returns (uint) {... */\n      swap1\n      jump\t// out\n        /* \"ProductContract.sol\":5148:5762  function verifyMaterialQuality(uint productId, string memory qualityNote) public onlyRole(productId, Role.Manufacturer) {... */\n    tag_100:\n        /* \"ProductContract.sol\":5238:5247  productId */\n      dup2\n        /* \"ProductContract.sol\":5249:5266  Role.Manufacturer */\n      0x02\n        /* \"ProductContract.sol\":1507:1512  _role */\n      dup1\n        /* \"ProductContract.sol\":1468:1512  productRoles[productId][msg.sender] == _role */\n      0x04\n      dup2\n      gt\n      iszero\n      tag_292\n      jumpi\n      tag_293\n      tag_112\n      jump\t// in\n    tag_293:\n    tag_292:\n        /* \"ProductContract.sol\":1468:1480  productRoles */\n      0x01\n        /* \"ProductContract.sol\":1468:1491  productRoles[productId] */\n      0x00\n        /* \"ProductContract.sol\":1481:1490  productId */\n      dup5\n        /* \"ProductContract.sol\":1468:1491  productRoles[productId] */\n      dup2\n      mstore\n      0x20\n      add\n      swap1\n      dup2\n      mstore\n      0x20\n      add\n      0x00\n      keccak256\n        /* \"ProductContract.sol\":1468:1503  productRoles[productId][msg.sender] */\n      0x00\n        /* \"ProductContract.sol\":1492:1502  msg.sender */\n      caller\n        /* \"ProductContract.sol\":1468:1503  productRoles[productId][msg.sender] */\n      0xffffffffffffffffffffffffffffffffffffffff\n      and\n      0xffffffffffffffffffffffffffffffffffffffff\n      and\n      dup2\n      mstore\n      0x20\n      add\n      swap1\n      dup2\n      mstore\n      0x20\n      add\n      0x00\n      keccak256\n      0x00\n      swap1\n      sload\n      swap1\n      0x0100\n      exp\n      swap1\n      div\n      0xff\n      and\n        /* \"ProductContract.sol\":1468:1512  productRoles[productId][msg.sender] == _role */\n      0x04\n      dup2\n      gt\n      iszero\n      tag_294\n      jumpi\n      tag_295\n      tag_112\n      jump\t// in\n    tag_295:\n    tag_294:\n      eq\n        /* \"ProductContract.sol\":1460:1554  require(productRoles[productId][msg.sender] == _role, \"Access denied: wrong role for product\") */\n      tag_296\n      jumpi\n      mload(0x40)\n      0x08c379a000000000000000000000000000000000000000000000000000000000\n      dup2\n      mstore\n      0x04\n      add\n      tag_297\n      swap1\n      tag_122\n      jump\t// in\n    tag_297:\n      mload(0x40)\n      dup1\n      swap2\n      sub\n      swap1\n      revert\n    tag_296:\n        /* \"ProductContract.sol\":5287:5306  isProductRegistered */\n      0x03\n        /* \"ProductContract.sol\":5287:5317  isProductRegistered[productId] */\n      0x00\n        /* \"ProductContract.sol\":5307:5316  productId */\n      dup6\n        /* \"ProductContract.sol\":5287:5317  isProductRegistered[productId] */\n      dup2\n      mstore\n      0x20\n      add\n      swap1\n      dup2\n      mstore\n      0x20\n      add\n      0x00\n      keccak256\n      0x00\n      swap1\n      sload\n      swap1\n      0x0100\n      exp\n      swap1\n      div\n      0xff\n      and\n        /* \"ProductContract.sol\":5279:5344  require(isProductRegistered[productId], \"Product not registered\") */\n      tag_299\n      jumpi\n      mload(0x40)\n      0x08c379a000000000000000000000000000000000000000000000000000000000\n      dup2\n      mstore\n      0x04\n      add\n      tag_300\n      swap1\n      tag_106\n      jump\t// in\n    tag_300:\n      mload(0x40)\n      dup1\n      swap2\n      sub\n      swap1\n      revert\n    tag_299:\n        /* \"ProductContract.sol\":5399:5409  msg.sender */\n      caller\n        /* \"ProductContract.sol\":5363:5409  products[productId].currentOwner == msg.sender */\n      0xffffffffffffffffffffffffffffffffffffffff\n      and\n        /* \"ProductContract.sol\":5363:5371  products */\n      0x02\n        /* \"ProductContract.sol\":5363:5382  products[productId] */\n      0x00\n        /* \"ProductContract.sol\":5372:5381  productId */\n      dup7\n        /* \"ProductContract.sol\":5363:5382  products[productId] */\n      dup2\n      mstore\n      0x20\n      add\n      swap1\n      dup2\n      mstore\n      0x20\n      add\n      0x00\n      keccak256\n        /* \"ProductContract.sol\":5363:5395  products[productId].currentOwner */\n      0x03\n      add\n      0x00\n      swap1\n      sload\n      swap1\n      0x0100\n      exp\n      swap1\n      div\n      0xffffffffffffffffffffffffffffffffffffffff\n      and\n        /* \"ProductContract.sol\":5363:5409  products[productId].currentOwner == msg.sender */\n      0xffffffffffffffffffffffffffffffffffffffff\n      and\n      eq\n        /* \"ProductContract.sol\":5355:5443  require(products[productId].currentOwner == msg.sender, \"Only owner can verify quality\") */\n      tag_301\n      jumpi\n      mload(0x40)\n      0x08c379a000000000000000000000000000000000000000000000000000000000\n      dup2\n      mstore\n      0x04\n      add\n      tag_302\n      swap1\n      tag_303\n      jump\t// in\n    tag_302:\n      mload(0x40)\n      dup1\n      swap2\n      sub\n      swap1\n      revert\n    tag_301:\n        /* \"ProductContract.sol\":5559:5594  ProductStatus.ManufacturingVerified */\n      0x02\n        /* \"ProductContract.sol\":5530:5538  products */\n      dup1\n        /* \"ProductContract.sol\":5530:5549  products[productId] */\n      0x00\n        /* \"ProductContract.sol\":5539:5548  productId */\n      dup7\n        /* \"ProductContract.sol\":5530:5549  products[productId] */\n      dup2\n      mstore\n      0x20\n      add\n      swap1\n      dup2\n      mstore\n      0x20\n      add\n      0x00\n      keccak256\n        /* \"ProductContract.sol\":5530:5556  products[productId].status */\n      0x05\n      add\n      0x00\n        /* \"ProductContract.sol\":5530:5594  products[productId].status = ProductStatus.ManufacturingVerified */\n      0x0100\n      exp\n      dup2\n      sload\n      dup2\n      0xff\n      mul\n      not\n      and\n      swap1\n      dup4\n      0x06\n      dup2\n      gt\n      iszero\n      tag_304\n      jumpi\n      tag_305\n      tag_112\n      jump\t// in\n    tag_305:\n    tag_304:\n      mul\n      or\n      swap1\n      sstore\n      pop\n        /* \"ProductContract.sol\":5644:5655  qualityNote */\n      dup3\n        /* \"ProductContract.sol\":5605:5613  products */\n      0x02\n        /* \"ProductContract.sol\":5605:5624  products[productId] */\n      0x00\n        /* \"ProductContract.sol\":5614:5623  productId */\n      dup7\n        /* \"ProductContract.sol\":5605:5624  products[productId] */\n      dup2\n      mstore\n      0x20\n      add\n      swap1\n      dup2\n      mstore\n      0x20\n      add\n      0x00\n      keccak256\n        /* \"ProductContract.sol\":5605:5641  products[productId].manufacturerNote */\n      0x02\n      add\n        /* \"ProductContract.sol\":5605:5655  products[productId].manufacturerNote = qualityNote */\n      swap1\n      dup1\n      mload\n      swap1\n      0x20\n      add\n      swap1\n      tag_306\n      swap3\n      swap2\n      swap1\n      tag_131\n      jump\t// in\n    tag_306:\n      pop\n        /* \"ProductContract.sol\":5671:5754  ManufacturingLogged(productId, string(abi.encodePacked(\"Verified: \", qualityNote))) */\n      0xec3ae4350812c56655d3ac5aea7ecc17434d05fb3571eca3e293b924ff187332\n        /* \"ProductContract.sol\":5691:5700  productId */\n      dup5\n        /* \"ProductContract.sol\":5740:5751  qualityNote */\n      dup5\n        /* \"ProductContract.sol\":5709:5752  abi.encodePacked(\"Verified: \", qualityNote) */\n      add(0x20, mload(0x40))\n      tag_307\n      swap2\n      swap1\n      tag_308\n      jump\t// in\n    tag_307:\n      mload(0x40)\n      0x20\n      dup2\n      dup4\n      sub\n      sub\n      dup2\n      mstore\n      swap1\n      0x40\n      mstore\n        /* \"ProductContract.sol\":5671:5754  ManufacturingLogged(productId, string(abi.encodePacked(\"Verified: \", qualityNote))) */\n      mload(0x40)\n      tag_309\n      swap3\n      swap2\n      swap1\n      tag_278\n      jump\t// in\n    tag_309:\n      mload(0x40)\n      dup1\n      swap2\n      sub\n      swap1\n      log1\n        /* \"ProductContract.sol\":5148:5762  function verifyMaterialQuality(uint productId, string memory qualityNote) public onlyRole(productId, Role.Manufacturer) {... */\n      pop\n      pop\n      pop\n      pop\n      jump\t// out\n        /* \"ProductContract.sol\":10264:10651  function roleToString(Role role) internal pure returns (string memory) {... */\n    tag_186:\n        /* \"ProductContract.sol\":10320:10333  string memory */\n      0x60\n        /* \"ProductContract.sol\":10358:10370  Role.Unknown */\n      0x00\n        /* \"ProductContract.sol\":10350:10370  role == Role.Unknown */\n      0x04\n      dup2\n      gt\n      iszero\n      tag_311\n      jumpi\n      tag_312\n      tag_112\n      jump\t// in\n    tag_312:\n    tag_311:\n        /* \"ProductContract.sol\":10350:10354  role */\n      dup3\n        /* \"ProductContract.sol\":10350:10370  role == Role.Unknown */\n      0x04\n      dup2\n      gt\n      iszero\n      tag_313\n      jumpi\n      tag_314\n      tag_112\n      jump\t// in\n    tag_314:\n    tag_313:\n      eq\n        /* \"ProductContract.sol\":10346:10388  if (role == Role.Unknown) return \"Unknown\" */\n      iszero\n      tag_315\n      jumpi\n        /* \"ProductContract.sol\":10372:10388  return \"Unknown\" */\n      mload(0x40)\n      dup1\n      0x40\n      add\n      0x40\n      mstore\n      dup1\n      0x07\n      dup2\n      mstore\n      0x20\n      add\n      0x556e6b6e6f776e00000000000000000000000000000000000000000000000000\n      dup2\n      mstore\n      pop\n      swap1\n      pop\n      jump(tag_310)\n        /* \"ProductContract.sol\":10346:10388  if (role == Role.Unknown) return \"Unknown\" */\n    tag_315:\n        /* \"ProductContract.sol\":10411:10424  Role.Supplier */\n      0x01\n        /* \"ProductContract.sol\":10403:10424  role == Role.Supplier */\n      0x04\n      dup2\n      gt\n      iszero\n      tag_316\n      jumpi\n      tag_317\n      tag_112\n      jump\t// in\n    tag_317:\n    tag_316:\n        /* \"ProductContract.sol\":10403:10407  role */\n      dup3\n        /* \"ProductContract.sol\":10403:10424  role == Role.Supplier */\n      0x04\n      dup2\n      gt\n      iszero\n      tag_318\n      jumpi\n      tag_319\n      tag_112\n      jump\t// in\n    tag_319:\n    tag_318:\n      eq\n        /* \"ProductContract.sol\":10399:10443  if (role == Role.Supplier) return \"Supplier\" */\n      iszero\n      tag_320\n      jumpi\n        /* \"ProductContract.sol\":10426:10443  return \"Supplier\" */\n      mload(0x40)\n      dup1\n      0x40\n      add\n      0x40\n      mstore\n      dup1\n      0x08\n      dup2\n      mstore\n      0x20\n      add\n      0x537570706c696572000000000000000000000000000000000000000000000000\n      dup2\n      mstore\n      pop\n      swap1\n      pop\n      jump(tag_310)\n        /* \"ProductContract.sol\":10399:10443  if (role == Role.Supplier) return \"Supplier\" */\n    tag_320:\n        /* \"ProductContract.sol\":10466:10483  Role.Manufacturer */\n      0x02\n        /* \"ProductContract.sol\":10458:10483  role == Role.Manufacturer */\n      0x04\n      dup2\n      gt\n      iszero\n      tag_321\n      jumpi\n      tag_322\n      tag_112\n      jump\t// in\n    tag_322:\n    tag_321:\n        /* \"ProductContract.sol\":10458:10462  role */\n      dup3\n        /* \"ProductContract.sol\":10458:10483  role == Role.Manufacturer */\n      0x04\n      dup2\n      gt\n      iszero\n      tag_323\n      jumpi\n      tag_324\n      tag_112\n      jump\t// in\n    tag_324:\n    tag_323:\n      eq\n        /* \"ProductContract.sol\":10454:10506  if (role == Role.Manufacturer) return \"Manufacturer\" */\n      iszero\n      tag_325\n      jumpi\n        /* \"ProductContract.sol\":10485:10506  return \"Manufacturer\" */\n      mload(0x40)\n      dup1\n      0x40\n      add\n      0x40\n      mstore\n      dup1\n      0x0c\n      dup2\n      mstore\n      0x20\n      add\n      0x4d616e7566616374757265720000000000000000000000000000000000000000\n      dup2\n      mstore\n      pop\n      swap1\n      pop\n      jump(tag_310)\n        /* \"ProductContract.sol\":10454:10506  if (role == Role.Manufacturer) return \"Manufacturer\" */\n    tag_325:\n        /* \"ProductContract.sol\":10529:10542  Role.Retailer */\n      0x03\n        /* \"ProductContract.sol\":10521:10542  role == Role.Retailer */\n      0x04\n      dup2\n      gt\n      iszero\n      tag_326\n      jumpi\n      tag_327\n      tag_112\n      jump\t// in\n    tag_327:\n    tag_326:\n        /* \"ProductContract.sol\":10521:10525  role */\n      dup3\n        /* \"ProductContract.sol\":10521:10542  role == Role.Retailer */\n      0x04\n      dup2\n      gt\n      iszero\n      tag_328\n      jumpi\n      tag_329\n      tag_112\n      jump\t// in\n    tag_329:\n    tag_328:\n      eq\n        /* \"ProductContract.sol\":10517:10561  if (role == Role.Retailer) return \"Retailer\" */\n      iszero\n      tag_330\n      jumpi\n        /* \"ProductContract.sol\":10544:10561  return \"Retailer\" */\n      mload(0x40)\n      dup1\n      0x40\n      add\n      0x40\n      mstore\n      dup1\n      0x08\n      dup2\n      mstore\n      0x20\n      add\n      0x52657461696c6572000000000000000000000000000000000000000000000000\n      dup2\n      mstore\n      pop\n      swap1\n      pop\n      jump(tag_310)\n        /* \"ProductContract.sol\":10517:10561  if (role == Role.Retailer) return \"Retailer\" */\n    tag_330:\n        /* \"ProductContract.sol\":10584:10597  Role.Consumer */\n      0x04\n        /* \"ProductContract.sol\":10576:10597  role == Role.Consumer */\n      dup1\n      dup2\n      gt\n      iszero\n      tag_331\n      jumpi\n      tag_332\n      tag_112\n      jump\t// in\n    tag_332:\n    tag_331:\n        /* \"ProductContract.sol\":10576:10580  role */\n      dup3\n        /* \"ProductContract.sol\":10576:10597  role == Role.Consumer */\n      0x04\n      dup2\n      gt\n      iszero\n      tag_333\n      jumpi\n      tag_334\n      tag_112\n      jump\t// in\n    tag_334:\n    tag_333:\n      eq\n        /* \"ProductContract.sol\":10572:10616  if (role == Role.Consumer) return \"Consumer\" */\n      iszero\n      tag_335\n      jumpi\n        /* \"ProductContract.sol\":10599:10616  return \"Consumer\" */\n      mload(0x40)\n      dup1\n      0x40\n      add\n      0x40\n      mstore\n      dup1\n      0x08\n      dup2\n      mstore\n      0x20\n      add\n      0x436f6e73756d6572000000000000000000000000000000000000000000000000\n      dup2\n      mstore\n      pop\n      swap1\n      pop\n      jump(tag_310)\n        /* \"ProductContract.sol\":10572:10616  if (role == Role.Consumer) return \"Consumer\" */\n    tag_335:\n        /* \"ProductContract.sol\":10627:10643  return \"Invalid\" */\n      mload(0x40)\n      dup1\n      0x40\n      add\n      0x40\n      mstore\n      dup1\n      0x07\n      dup2\n      mstore\n      0x20\n      add\n      0x496e76616c696400000000000000000000000000000000000000000000000000\n      dup2\n      mstore\n      pop\n      swap1\n      pop\n        /* \"ProductContract.sol\":10264:10651  function roleToString(Role role) internal pure returns (string memory) {... */\n    tag_310:\n      swap2\n      swap1\n      pop\n      jump\t// out\n    tag_131:\n      dup3\n      dup1\n      sload\n      tag_336\n      swap1\n      tag_203\n      jump\t// in\n    tag_336:\n      swap1\n      0x00\n      mstore\n      keccak256(0x00, 0x20)\n      swap1\n      0x1f\n      add\n      0x20\n      swap1\n      div\n      dup2\n      add\n      swap3\n      dup3\n      tag_338\n      jumpi\n      0x00\n      dup6\n      sstore\n      jump(tag_337)\n    tag_338:\n      dup3\n      0x1f\n      lt\n      tag_339\n      jumpi\n      dup1\n      mload\n      not(0xff)\n      and\n      dup4\n      dup1\n      add\n      or\n      dup6\n      sstore\n      jump(tag_337)\n    tag_339:\n      dup3\n      dup1\n      add\n      0x01\n      add\n      dup6\n      sstore\n      dup3\n      iszero\n      tag_337\n      jumpi\n      swap2\n      dup3\n      add\n    tag_340:\n      dup3\n      dup2\n      gt\n      iszero\n      tag_341\n      jumpi\n      dup3\n      mload\n      dup3\n      sstore\n      swap2\n      0x20\n      add\n      swap2\n      swap1\n      0x01\n      add\n      swap1\n      jump(tag_340)\n    tag_341:\n    tag_337:\n      pop\n      swap1\n      pop\n      tag_342\n      swap2\n      swap1\n      tag_343\n      jump\t// in\n    tag_342:\n      pop\n      swap1\n      jump\t// out\n    tag_343:\n    tag_344:\n      dup1\n      dup3\n      gt\n      iszero\n      tag_345\n      jumpi\n      0x00\n      dup2\n      0x00\n      swap1\n      sstore\n      pop\n      0x01\n      add\n      jump(tag_344)\n    tag_345:\n      pop\n      swap1\n      jump\t// out\n        /* \"#utility.yul\":7:82   */\n    tag_346:\n        /* \"#utility.yul\":40:46   */\n      0x00\n        /* \"#utility.yul\":73:75   */\n      0x40\n        /* \"#utility.yul\":67:76   */\n      mload\n        /* \"#utility.yul\":57:76   */\n      swap1\n      pop\n        /* \"#utility.yul\":7:82   */\n      swap1\n      jump\t// out\n        /* \"#utility.yul\":88:205   */\n    tag_347:\n        /* \"#utility.yul\":197:198   */\n      0x00\n        /* \"#utility.yul\":194:195   */\n      dup1\n        /* \"#utility.yul\":187:199   */\n      revert\n        /* \"#utility.yul\":211:328   */\n    tag_348:\n        /* \"#utility.yul\":320:321   */\n      0x00\n        /* \"#utility.yul\":317:318   */\n      dup1\n        /* \"#utility.yul\":310:322   */\n      revert\n        /* \"#utility.yul\":334:411   */\n    tag_349:\n        /* \"#utility.yul\":371:378   */\n      0x00\n        /* \"#utility.yul\":400:405   */\n      dup2\n        /* \"#utility.yul\":389:405   */\n      swap1\n      pop\n        /* \"#utility.yul\":334:411   */\n      swap2\n      swap1\n      pop\n      jump\t// out\n        /* \"#utility.yul\":417:539   */\n    tag_350:\n        /* \"#utility.yul\":490:514   */\n      tag_441\n        /* \"#utility.yul\":508:513   */\n      dup2\n        /* \"#utility.yul\":490:514   */\n      tag_349\n      jump\t// in\n    tag_441:\n        /* \"#utility.yul\":483:488   */\n      dup2\n        /* \"#utility.yul\":480:515   */\n      eq\n        /* \"#utility.yul\":470:533   */\n      tag_442\n      jumpi\n        /* \"#utility.yul\":529:530   */\n      0x00\n        /* \"#utility.yul\":526:527   */\n      dup1\n        /* \"#utility.yul\":519:531   */\n      revert\n        /* \"#utility.yul\":470:533   */\n    tag_442:\n        /* \"#utility.yul\":417:539   */\n      pop\n      jump\t// out\n        /* \"#utility.yul\":545:684   */\n    tag_351:\n        /* \"#utility.yul\":591:596   */\n      0x00\n        /* \"#utility.yul\":629:635   */\n      dup2\n        /* \"#utility.yul\":616:636   */\n      calldataload\n        /* \"#utility.yul\":607:636   */\n      swap1\n      pop\n        /* \"#utility.yul\":645:678   */\n      tag_444\n        /* \"#utility.yul\":672:677   */\n      dup2\n        /* \"#utility.yul\":645:678   */\n      tag_350\n      jump\t// in\n    tag_444:\n        /* \"#utility.yul\":545:684   */\n      swap3\n      swap2\n      pop\n      pop\n      jump\t// out\n        /* \"#utility.yul\":690:1019   */\n    tag_26:\n        /* \"#utility.yul\":749:755   */\n      0x00\n        /* \"#utility.yul\":798:800   */\n      0x20\n        /* \"#utility.yul\":786:795   */\n      dup3\n        /* \"#utility.yul\":777:784   */\n      dup5\n        /* \"#utility.yul\":773:796   */\n      sub\n        /* \"#utility.yul\":769:801   */\n      slt\n        /* \"#utility.yul\":766:885   */\n      iszero\n      tag_446\n      jumpi\n        /* \"#utility.yul\":804:883   */\n      tag_447\n      tag_347\n      jump\t// in\n    tag_447:\n        /* \"#utility.yul\":766:885   */\n    tag_446:\n        /* \"#utility.yul\":924:925   */\n      0x00\n        /* \"#utility.yul\":949:1002   */\n      tag_448\n        /* \"#utility.yul\":994:1001   */\n      dup5\n        /* \"#utility.yul\":985:991   */\n      dup3\n        /* \"#utility.yul\":974:983   */\n      dup6\n        /* \"#utility.yul\":970:992   */\n      add\n        /* \"#utility.yul\":949:1002   */\n      tag_351\n      jump\t// in\n    tag_448:\n        /* \"#utility.yul\":939:1002   */\n      swap2\n      pop\n        /* \"#utility.yul\":895:1012   */\n      pop\n        /* \"#utility.yul\":690:1019   */\n      swap3\n      swap2\n      pop\n      pop\n      jump\t// out\n        /* \"#utility.yul\":1025:1124   */\n    tag_352:\n        /* \"#utility.yul\":1077:1083   */\n      0x00\n        /* \"#utility.yul\":1111:1116   */\n      dup2\n        /* \"#utility.yul\":1105:1117   */\n      mload\n        /* \"#utility.yul\":1095:1117   */\n      swap1\n      pop\n        /* \"#utility.yul\":1025:1124   */\n      swap2\n      swap1\n      pop\n      jump\t// out\n        /* \"#utility.yul\":1130:1299   */\n    tag_353:\n        /* \"#utility.yul\":1214:1225   */\n      0x00\n        /* \"#utility.yul\":1248:1254   */\n      dup3\n        /* \"#utility.yul\":1243:1246   */\n      dup3\n        /* \"#utility.yul\":1236:1255   */\n      mstore\n        /* \"#utility.yul\":1288:1292   */\n      0x20\n        /* \"#utility.yul\":1283:1286   */\n      dup3\n        /* \"#utility.yul\":1279:1293   */\n      add\n        /* \"#utility.yul\":1264:1293   */\n      swap1\n      pop\n        /* \"#utility.yul\":1130:1299   */\n      swap3\n      swap2\n      pop\n      pop\n      jump\t// out\n        /* \"#utility.yul\":1305:1612   */\n    tag_354:\n        /* \"#utility.yul\":1373:1374   */\n      0x00\n        /* \"#utility.yul\":1383:1496   */\n    tag_452:\n        /* \"#utility.yul\":1397:1403   */\n      dup4\n        /* \"#utility.yul\":1394:1395   */\n      dup2\n        /* \"#utility.yul\":1391:1404   */\n      lt\n        /* \"#utility.yul\":1383:1496   */\n      iszero\n      tag_454\n      jumpi\n        /* \"#utility.yul\":1482:1483   */\n      dup1\n        /* \"#utility.yul\":1477:1480   */\n      dup3\n        /* \"#utility.yul\":1473:1484   */\n      add\n        /* \"#utility.yul\":1467:1485   */\n      mload\n        /* \"#utility.yul\":1463:1464   */\n      dup2\n        /* \"#utility.yul\":1458:1461   */\n      dup5\n        /* \"#utility.yul\":1454:1465   */\n      add\n        /* \"#utility.yul\":1447:1486   */\n      mstore\n        /* \"#utility.yul\":1419:1421   */\n      0x20\n        /* \"#utility.yul\":1416:1417   */\n      dup2\n        /* \"#utility.yul\":1412:1422   */\n      add\n        /* \"#utility.yul\":1407:1422   */\n      swap1\n      pop\n        /* \"#utility.yul\":1383:1496   */\n      jump(tag_452)\n    tag_454:\n        /* \"#utility.yul\":1514:1520   */\n      dup4\n        /* \"#utility.yul\":1511:1512   */\n      dup2\n        /* \"#utility.yul\":1508:1521   */\n      gt\n        /* \"#utility.yul\":1505:1606   */\n      iszero\n      tag_455\n      jumpi\n        /* \"#utility.yul\":1594:1595   */\n      0x00\n        /* \"#utility.yul\":1585:1591   */\n      dup5\n        /* \"#utility.yul\":1580:1583   */\n      dup5\n        /* \"#utility.yul\":1576:1592   */\n      add\n        /* \"#utility.yul\":1569:1596   */\n      mstore\n        /* \"#utility.yul\":1505:1606   */\n    tag_455:\n        /* \"#utility.yul\":1354:1612   */\n      pop\n        /* \"#utility.yul\":1305:1612   */\n      pop\n      pop\n      pop\n      jump\t// out\n        /* \"#utility.yul\":1618:1720   */\n    tag_355:\n        /* \"#utility.yul\":1659:1665   */\n      0x00\n        /* \"#utility.yul\":1710:1712   */\n      0x1f\n        /* \"#utility.yul\":1706:1713   */\n      not\n        /* \"#utility.yul\":1701:1703   */\n      0x1f\n        /* \"#utility.yul\":1694:1699   */\n      dup4\n        /* \"#utility.yul\":1690:1704   */\n      add\n        /* \"#utility.yul\":1686:1714   */\n      and\n        /* \"#utility.yul\":1676:1714   */\n      swap1\n      pop\n        /* \"#utility.yul\":1618:1720   */\n      swap2\n      swap1\n      pop\n      jump\t// out\n        /* \"#utility.yul\":1726:2090   */\n    tag_356:\n        /* \"#utility.yul\":1814:1817   */\n      0x00\n        /* \"#utility.yul\":1842:1881   */\n      tag_458\n        /* \"#utility.yul\":1875:1880   */\n      dup3\n        /* \"#utility.yul\":1842:1881   */\n      tag_352\n      jump\t// in\n    tag_458:\n        /* \"#utility.yul\":1897:1968   */\n      tag_459\n        /* \"#utility.yul\":1961:1967   */\n      dup2\n        /* \"#utility.yul\":1956:1959   */\n      dup6\n        /* \"#utility.yul\":1897:1968   */\n      tag_353\n      jump\t// in\n    tag_459:\n        /* \"#utility.yul\":1890:1968   */\n      swap4\n      pop\n        /* \"#utility.yul\":1977:2029   */\n      tag_460\n        /* \"#utility.yul\":2022:2028   */\n      dup2\n        /* \"#utility.yul\":2017:2020   */\n      dup6\n        /* \"#utility.yul\":2010:2014   */\n      0x20\n        /* \"#utility.yul\":2003:2008   */\n      dup7\n        /* \"#utility.yul\":1999:2015   */\n      add\n        /* \"#utility.yul\":1977:2029   */\n      tag_354\n      jump\t// in\n    tag_460:\n        /* \"#utility.yul\":2054:2083   */\n      tag_461\n        /* \"#utility.yul\":2076:2082   */\n      dup2\n        /* \"#utility.yul\":2054:2083   */\n      tag_355\n      jump\t// in\n    tag_461:\n        /* \"#utility.yul\":2049:2052   */\n      dup5\n        /* \"#utility.yul\":2045:2084   */\n      add\n        /* \"#utility.yul\":2038:2084   */\n      swap2\n      pop\n        /* \"#utility.yul\":1818:2090   */\n      pop\n        /* \"#utility.yul\":1726:2090   */\n      swap3\n      swap2\n      pop\n      pop\n      jump\t// out\n        /* \"#utility.yul\":2096:2409   */\n    tag_29:\n        /* \"#utility.yul\":2209:2213   */\n      0x00\n        /* \"#utility.yul\":2247:2249   */\n      0x20\n        /* \"#utility.yul\":2236:2245   */\n      dup3\n        /* \"#utility.yul\":2232:2250   */\n      add\n        /* \"#utility.yul\":2224:2250   */\n      swap1\n      pop\n        /* \"#utility.yul\":2296:2305   */\n      dup2\n        /* \"#utility.yul\":2290:2294   */\n      dup2\n        /* \"#utility.yul\":2286:2306   */\n      sub\n        /* \"#utility.yul\":2282:2283   */\n      0x00\n        /* \"#utility.yul\":2271:2280   */\n      dup4\n        /* \"#utility.yul\":2267:2284   */\n      add\n        /* \"#utility.yul\":2260:2307   */\n      mstore\n        /* \"#utility.yul\":2324:2402   */\n      tag_463\n        /* \"#utility.yul\":2397:2401   */\n      dup2\n        /* \"#utility.yul\":2388:2394   */\n      dup5\n        /* \"#utility.yul\":2324:2402   */\n      tag_356\n      jump\t// in\n    tag_463:\n        /* \"#utility.yul\":2316:2402   */\n      swap1\n      pop\n        /* \"#utility.yul\":2096:2409   */\n      swap3\n      swap2\n      pop\n      pop\n      jump\t// out\n        /* \"#utility.yul\":2415:2532   */\n    tag_357:\n        /* \"#utility.yul\":2524:2525   */\n      0x00\n        /* \"#utility.yul\":2521:2522   */\n      dup1\n        /* \"#utility.yul\":2514:2526   */\n      revert\n        /* \"#utility.yul\":2538:2655   */\n    tag_358:\n        /* \"#utility.yul\":2647:2648   */\n      0x00\n        /* \"#utility.yul\":2644:2645   */\n      dup1\n        /* \"#utility.yul\":2637:2649   */\n      revert\n        /* \"#utility.yul\":2661:2841   */\n    tag_359:\n        /* \"#utility.yul\":2709:2786   */\n      0x4e487b7100000000000000000000000000000000000000000000000000000000\n        /* \"#utility.yul\":2706:2707   */\n      0x00\n        /* \"#utility.yul\":2699:2787   */\n      mstore\n        /* \"#utility.yul\":2806:2810   */\n      0x41\n        /* \"#utility.yul\":2803:2804   */\n      0x04\n        /* \"#utility.yul\":2796:2811   */\n      mstore\n        /* \"#utility.yul\":2830:2834   */\n      0x24\n        /* \"#utility.yul\":2827:2828   */\n      0x00\n        /* \"#utility.yul\":2820:2835   */\n      revert\n        /* \"#utility.yul\":2847:3128   */\n    tag_360:\n        /* \"#utility.yul\":2930:2957   */\n      tag_468\n        /* \"#utility.yul\":2952:2956   */\n      dup3\n        /* \"#utility.yul\":2930:2957   */\n      tag_355\n      jump\t// in\n    tag_468:\n        /* \"#utility.yul\":2922:2928   */\n      dup2\n        /* \"#utility.yul\":2918:2958   */\n      add\n        /* \"#utility.yul\":3060:3066   */\n      dup2\n        /* \"#utility.yul\":3048:3058   */\n      dup2\n        /* \"#utility.yul\":3045:3067   */\n      lt\n        /* \"#utility.yul\":3024:3042   */\n      0xffffffffffffffff\n        /* \"#utility.yul\":3012:3022   */\n      dup3\n        /* \"#utility.yul\":3009:3043   */\n      gt\n        /* \"#utility.yul\":3006:3068   */\n      or\n        /* \"#utility.yul\":3003:3091   */\n      iszero\n      tag_469\n      jumpi\n        /* \"#utility.yul\":3071:3089   */\n      tag_470\n      tag_359\n      jump\t// in\n    tag_470:\n        /* \"#utility.yul\":3003:3091   */\n    tag_469:\n        /* \"#utility.yul\":3111:3121   */\n      dup1\n        /* \"#utility.yul\":3107:3109   */\n      0x40\n        /* \"#utility.yul\":3100:3122   */\n      mstore\n        /* \"#utility.yul\":2890:3128   */\n      pop\n        /* \"#utility.yul\":2847:3128   */\n      pop\n      pop\n      jump\t// out\n        /* \"#utility.yul\":3134:3263   */\n    tag_361:\n        /* \"#utility.yul\":3168:3174   */\n      0x00\n        /* \"#utility.yul\":3195:3215   */\n      tag_472\n      tag_346\n      jump\t// in\n    tag_472:\n        /* \"#utility.yul\":3185:3215   */\n      swap1\n      pop\n        /* \"#utility.yul\":3224:3257   */\n      tag_473\n        /* \"#utility.yul\":3252:3256   */\n      dup3\n        /* \"#utility.yul\":3244:3250   */\n      dup3\n        /* \"#utility.yul\":3224:3257   */\n      tag_360\n      jump\t// in\n    tag_473:\n        /* \"#utility.yul\":3134:3263   */\n      swap2\n      swap1\n      pop\n      jump\t// out\n        /* \"#utility.yul\":3269:3577   */\n    tag_362:\n        /* \"#utility.yul\":3331:3335   */\n      0x00\n        /* \"#utility.yul\":3421:3439   */\n      0xffffffffffffffff\n        /* \"#utility.yul\":3413:3419   */\n      dup3\n        /* \"#utility.yul\":3410:3440   */\n      gt\n        /* \"#utility.yul\":3407:3463   */\n      iszero\n      tag_475\n      jumpi\n        /* \"#utility.yul\":3443:3461   */\n      tag_476\n      tag_359\n      jump\t// in\n    tag_476:\n        /* \"#utility.yul\":3407:3463   */\n    tag_475:\n        /* \"#utility.yul\":3481:3510   */\n      tag_477\n        /* \"#utility.yul\":3503:3509   */\n      dup3\n        /* \"#utility.yul\":3481:3510   */\n      tag_355\n      jump\t// in\n    tag_477:\n        /* \"#utility.yul\":3473:3510   */\n      swap1\n      pop\n        /* \"#utility.yul\":3565:3569   */\n      0x20\n        /* \"#utility.yul\":3559:3563   */\n      dup2\n        /* \"#utility.yul\":3555:3570   */\n      add\n        /* \"#utility.yul\":3547:3570   */\n      swap1\n      pop\n        /* \"#utility.yul\":3269:3577   */\n      swap2\n      swap1\n      pop\n      jump\t// out\n        /* \"#utility.yul\":3583:3737   */\n    tag_363:\n        /* \"#utility.yul\":3667:3673   */\n      dup3\n        /* \"#utility.yul\":3662:3665   */\n      dup2\n        /* \"#utility.yul\":3657:3660   */\n      dup4\n        /* \"#utility.yul\":3644:3674   */\n      calldatacopy\n        /* \"#utility.yul\":3729:3730   */\n      0x00\n        /* \"#utility.yul\":3720:3726   */\n      dup4\n        /* \"#utility.yul\":3715:3718   */\n      dup4\n        /* \"#utility.yul\":3711:3727   */\n      add\n        /* \"#utility.yul\":3704:3731   */\n      mstore\n        /* \"#utility.yul\":3583:3737   */\n      pop\n      pop\n      pop\n      jump\t// out\n        /* \"#utility.yul\":3743:4155   */\n    tag_364:\n        /* \"#utility.yul\":3821:3826   */\n      0x00\n        /* \"#utility.yul\":3846:3912   */\n      tag_480\n        /* \"#utility.yul\":3862:3911   */\n      tag_481\n        /* \"#utility.yul\":3904:3910   */\n      dup5\n        /* \"#utility.yul\":3862:3911   */\n      tag_362\n      jump\t// in\n    tag_481:\n        /* \"#utility.yul\":3846:3912   */\n      tag_361\n      jump\t// in\n    tag_480:\n        /* \"#utility.yul\":3837:3912   */\n      swap1\n      pop\n        /* \"#utility.yul\":3935:3941   */\n      dup3\n        /* \"#utility.yul\":3928:3933   */\n      dup2\n        /* \"#utility.yul\":3921:3942   */\n      mstore\n        /* \"#utility.yul\":3973:3977   */\n      0x20\n        /* \"#utility.yul\":3966:3971   */\n      dup2\n        /* \"#utility.yul\":3962:3978   */\n      add\n        /* \"#utility.yul\":4011:4014   */\n      dup5\n        /* \"#utility.yul\":4002:4008   */\n      dup5\n        /* \"#utility.yul\":3997:4000   */\n      dup5\n        /* \"#utility.yul\":3993:4009   */\n      add\n        /* \"#utility.yul\":3990:4015   */\n      gt\n        /* \"#utility.yul\":3987:4099   */\n      iszero\n      tag_482\n      jumpi\n        /* \"#utility.yul\":4018:4097   */\n      tag_483\n      tag_358\n      jump\t// in\n    tag_483:\n        /* \"#utility.yul\":3987:4099   */\n    tag_482:\n        /* \"#utility.yul\":4108:4149   */\n      tag_484\n        /* \"#utility.yul\":4142:4148   */\n      dup5\n        /* \"#utility.yul\":4137:4140   */\n      dup3\n        /* \"#utility.yul\":4132:4135   */\n      dup6\n        /* \"#utility.yul\":4108:4149   */\n      tag_363\n      jump\t// in\n    tag_484:\n        /* \"#utility.yul\":3827:4155   */\n      pop\n        /* \"#utility.yul\":3743:4155   */\n      swap4\n      swap3\n      pop\n      pop\n      pop\n      jump\t// out\n        /* \"#utility.yul\":4175:4515   */\n    tag_365:\n        /* \"#utility.yul\":4231:4236   */\n      0x00\n        /* \"#utility.yul\":4280:4283   */\n      dup3\n        /* \"#utility.yul\":4273:4277   */\n      0x1f\n        /* \"#utility.yul\":4265:4271   */\n      dup4\n        /* \"#utility.yul\":4261:4278   */\n      add\n        /* \"#utility.yul\":4257:4284   */\n      slt\n        /* \"#utility.yul\":4247:4369   */\n      tag_486\n      jumpi\n        /* \"#utility.yul\":4288:4367   */\n      tag_487\n      tag_357\n      jump\t// in\n    tag_487:\n        /* \"#utility.yul\":4247:4369   */\n    tag_486:\n        /* \"#utility.yul\":4405:4411   */\n      dup2\n        /* \"#utility.yul\":4392:4412   */\n      calldataload\n        /* \"#utility.yul\":4430:4509   */\n      tag_488\n        /* \"#utility.yul\":4505:4508   */\n      dup5\n        /* \"#utility.yul\":4497:4503   */\n      dup3\n        /* \"#utility.yul\":4490:4494   */\n      0x20\n        /* \"#utility.yul\":4482:4488   */\n      dup7\n        /* \"#utility.yul\":4478:4495   */\n      add\n        /* \"#utility.yul\":4430:4509   */\n      tag_364\n      jump\t// in\n    tag_488:\n        /* \"#utility.yul\":4421:4509   */\n      swap2\n      pop\n        /* \"#utility.yul\":4237:4515   */\n      pop\n        /* \"#utility.yul\":4175:4515   */\n      swap3\n      swap2\n      pop\n      pop\n      jump\t// out\n        /* \"#utility.yul\":4521:5500   */\n    tag_35:\n        /* \"#utility.yul\":4618:4624   */\n      0x00\n        /* \"#utility.yul\":4626:4632   */\n      dup1\n        /* \"#utility.yul\":4634:4640   */\n      0x00\n        /* \"#utility.yul\":4683:4685   */\n      0x60\n        /* \"#utility.yul\":4671:4680   */\n      dup5\n        /* \"#utility.yul\":4662:4669   */\n      dup7\n        /* \"#utility.yul\":4658:4681   */\n      sub\n        /* \"#utility.yul\":4654:4686   */\n      slt\n        /* \"#utility.yul\":4651:4770   */\n      iszero\n      tag_490\n      jumpi\n        /* \"#utility.yul\":4689:4768   */\n      tag_491\n      tag_347\n      jump\t// in\n    tag_491:\n        /* \"#utility.yul\":4651:4770   */\n    tag_490:\n        /* \"#utility.yul\":4809:4810   */\n      0x00\n        /* \"#utility.yul\":4834:4887   */\n      tag_492\n        /* \"#utility.yul\":4879:4886   */\n      dup7\n        /* \"#utility.yul\":4870:4876   */\n      dup3\n        /* \"#utility.yul\":4859:4868   */\n      dup8\n        /* \"#utility.yul\":4855:4877   */\n      add\n        /* \"#utility.yul\":4834:4887   */\n      tag_351\n      jump\t// in\n    tag_492:\n        /* \"#utility.yul\":4824:4887   */\n      swap4\n      pop\n        /* \"#utility.yul\":4780:4897   */\n      pop\n        /* \"#utility.yul\":4964:4966   */\n      0x20\n        /* \"#utility.yul\":4953:4962   */\n      dup5\n        /* \"#utility.yul\":4949:4967   */\n      add\n        /* \"#utility.yul\":4936:4968   */\n      calldataload\n        /* \"#utility.yul\":4995:5013   */\n      0xffffffffffffffff\n        /* \"#utility.yul\":4987:4993   */\n      dup2\n        /* \"#utility.yul\":4984:5014   */\n      gt\n        /* \"#utility.yul\":4981:5098   */\n      iszero\n      tag_493\n      jumpi\n        /* \"#utility.yul\":5017:5096   */\n      tag_494\n      tag_348\n      jump\t// in\n    tag_494:\n        /* \"#utility.yul\":4981:5098   */\n    tag_493:\n        /* \"#utility.yul\":5122:5185   */\n      tag_495\n        /* \"#utility.yul\":5177:5184   */\n      dup7\n        /* \"#utility.yul\":5168:5174   */\n      dup3\n        /* \"#utility.yul\":5157:5166   */\n      dup8\n        /* \"#utility.yul\":5153:5175   */\n      add\n        /* \"#utility.yul\":5122:5185   */\n      tag_365\n      jump\t// in\n    tag_495:\n        /* \"#utility.yul\":5112:5185   */\n      swap3\n      pop\n        /* \"#utility.yul\":4907:5195   */\n      pop\n        /* \"#utility.yul\":5262:5264   */\n      0x40\n        /* \"#utility.yul\":5251:5260   */\n      dup5\n        /* \"#utility.yul\":5247:5265   */\n      add\n        /* \"#utility.yul\":5234:5266   */\n      calldataload\n        /* \"#utility.yul\":5293:5311   */\n      0xffffffffffffffff\n        /* \"#utility.yul\":5285:5291   */\n      dup2\n        /* \"#utility.yul\":5282:5312   */\n      gt\n        /* \"#utility.yul\":5279:5396   */\n      iszero\n      tag_496\n      jumpi\n        /* \"#utility.yul\":5315:5394   */\n      tag_497\n      tag_348\n      jump\t// in\n    tag_497:\n        /* \"#utility.yul\":5279:5396   */\n    tag_496:\n        /* \"#utility.yul\":5420:5483   */\n      tag_498\n        /* \"#utility.yul\":5475:5482   */\n      dup7\n        /* \"#utility.yul\":5466:5472   */\n      dup3\n        /* \"#utility.yul\":5455:5464   */\n      dup8\n        /* \"#utility.yul\":5451:5473   */\n      add\n        /* \"#utility.yul\":5420:5483   */\n      tag_365\n      jump\t// in\n    tag_498:\n        /* \"#utility.yul\":5410:5483   */\n      swap2\n      pop\n        /* \"#utility.yul\":5205:5493   */\n      pop\n        /* \"#utility.yul\":4521:5500   */\n      swap3\n      pop\n      swap3\n      pop\n      swap3\n      jump\t// out\n        /* \"#utility.yul\":5506:5632   */\n    tag_366:\n        /* \"#utility.yul\":5543:5550   */\n      0x00\n        /* \"#utility.yul\":5583:5625   */\n      0xffffffffffffffffffffffffffffffffffffffff\n        /* \"#utility.yul\":5576:5581   */\n      dup3\n        /* \"#utility.yul\":5572:5626   */\n      and\n        /* \"#utility.yul\":5561:5626   */\n      swap1\n      pop\n        /* \"#utility.yul\":5506:5632   */\n      swap2\n      swap1\n      pop\n      jump\t// out\n        /* \"#utility.yul\":5638:5734   */\n    tag_367:\n        /* \"#utility.yul\":5675:5682   */\n      0x00\n        /* \"#utility.yul\":5704:5728   */\n      tag_501\n        /* \"#utility.yul\":5722:5727   */\n      dup3\n        /* \"#utility.yul\":5704:5728   */\n      tag_366\n      jump\t// in\n    tag_501:\n        /* \"#utility.yul\":5693:5728   */\n      swap1\n      pop\n        /* \"#utility.yul\":5638:5734   */\n      swap2\n      swap1\n      pop\n      jump\t// out\n        /* \"#utility.yul\":5740:5862   */\n    tag_368:\n        /* \"#utility.yul\":5813:5837   */\n      tag_503\n        /* \"#utility.yul\":5831:5836   */\n      dup2\n        /* \"#utility.yul\":5813:5837   */\n      tag_367\n      jump\t// in\n    tag_503:\n        /* \"#utility.yul\":5806:5811   */\n      dup2\n        /* \"#utility.yul\":5803:5838   */\n      eq\n        /* \"#utility.yul\":5793:5856   */\n      tag_504\n      jumpi\n        /* \"#utility.yul\":5852:5853   */\n      0x00\n        /* \"#utility.yul\":5849:5850   */\n      dup1\n        /* \"#utility.yul\":5842:5854   */\n      revert\n        /* \"#utility.yul\":5793:5856   */\n    tag_504:\n        /* \"#utility.yul\":5740:5862   */\n      pop\n      jump\t// out\n        /* \"#utility.yul\":5868:6007   */\n    tag_369:\n        /* \"#utility.yul\":5914:5919   */\n      0x00\n        /* \"#utility.yul\":5952:5958   */\n      dup2\n        /* \"#utility.yul\":5939:5959   */\n      calldataload\n        /* \"#utility.yul\":5930:5959   */\n      swap1\n      pop\n        /* \"#utility.yul\":5968:6001   */\n      tag_506\n        /* \"#utility.yul\":5995:6000   */\n      dup2\n        /* \"#utility.yul\":5968:6001   */\n      tag_368\n      jump\t// in\n    tag_506:\n        /* \"#utility.yul\":5868:6007   */\n      swap3\n      swap2\n      pop\n      pop\n      jump\t// out\n        /* \"#utility.yul\":6013:6487   */\n    tag_39:\n        /* \"#utility.yul\":6081:6087   */\n      0x00\n        /* \"#utility.yul\":6089:6095   */\n      dup1\n        /* \"#utility.yul\":6138:6140   */\n      0x40\n        /* \"#utility.yul\":6126:6135   */\n      dup4\n        /* \"#utility.yul\":6117:6124   */\n      dup6\n        /* \"#utility.yul\":6113:6136   */\n      sub\n        /* \"#utility.yul\":6109:6141   */\n      slt\n        /* \"#utility.yul\":6106:6225   */\n      iszero\n      tag_508\n      jumpi\n        /* \"#utility.yul\":6144:6223   */\n      tag_509\n      tag_347\n      jump\t// in\n    tag_509:\n        /* \"#utility.yul\":6106:6225   */\n    tag_508:\n        /* \"#utility.yul\":6264:6265   */\n      0x00\n        /* \"#utility.yul\":6289:6342   */\n      tag_510\n        /* \"#utility.yul\":6334:6341   */\n      dup6\n        /* \"#utility.yul\":6325:6331   */\n      dup3\n        /* \"#utility.yul\":6314:6323   */\n      dup7\n        /* \"#utility.yul\":6310:6332   */\n      add\n        /* \"#utility.yul\":6289:6342   */\n      tag_351\n      jump\t// in\n    tag_510:\n        /* \"#utility.yul\":6279:6342   */\n      swap3\n      pop\n        /* \"#utility.yul\":6235:6352   */\n      pop\n        /* \"#utility.yul\":6391:6393   */\n      0x20\n        /* \"#utility.yul\":6417:6470   */\n      tag_511\n        /* \"#utility.yul\":6462:6469   */\n      dup6\n        /* \"#utility.yul\":6453:6459   */\n      dup3\n        /* \"#utility.yul\":6442:6451   */\n      dup7\n        /* \"#utility.yul\":6438:6460   */\n      add\n        /* \"#utility.yul\":6417:6470   */\n      tag_369\n      jump\t// in\n    tag_511:\n        /* \"#utility.yul\":6407:6470   */\n      swap2\n      pop\n        /* \"#utility.yul\":6362:6480   */\n      pop\n        /* \"#utility.yul\":6013:6487   */\n      swap3\n      pop\n      swap3\n      swap1\n      pop\n      jump\t// out\n        /* \"#utility.yul\":6493:6611   */\n    tag_370:\n        /* \"#utility.yul\":6580:6604   */\n      tag_513\n        /* \"#utility.yul\":6598:6603   */\n      dup2\n        /* \"#utility.yul\":6580:6604   */\n      tag_349\n      jump\t// in\n    tag_513:\n        /* \"#utility.yul\":6575:6578   */\n      dup3\n        /* \"#utility.yul\":6568:6605   */\n      mstore\n        /* \"#utility.yul\":6493:6611   */\n      pop\n      pop\n      jump\t// out\n        /* \"#utility.yul\":6617:6839   */\n    tag_44:\n        /* \"#utility.yul\":6710:6714   */\n      0x00\n        /* \"#utility.yul\":6748:6750   */\n      0x20\n        /* \"#utility.yul\":6737:6746   */\n      dup3\n        /* \"#utility.yul\":6733:6751   */\n      add\n        /* \"#utility.yul\":6725:6751   */\n      swap1\n      pop\n        /* \"#utility.yul\":6761:6832   */\n      tag_515\n        /* \"#utility.yul\":6829:6830   */\n      0x00\n        /* \"#utility.yul\":6818:6827   */\n      dup4\n        /* \"#utility.yul\":6814:6831   */\n      add\n        /* \"#utility.yul\":6805:6811   */\n      dup5\n        /* \"#utility.yul\":6761:6832   */\n      tag_370\n      jump\t// in\n    tag_515:\n        /* \"#utility.yul\":6617:6839   */\n      swap3\n      swap2\n      pop\n      pop\n      jump\t// out\n        /* \"#utility.yul\":6845:6959   */\n    tag_371:\n        /* \"#utility.yul\":6912:6918   */\n      0x00\n        /* \"#utility.yul\":6946:6951   */\n      dup2\n        /* \"#utility.yul\":6940:6952   */\n      mload\n        /* \"#utility.yul\":6930:6952   */\n      swap1\n      pop\n        /* \"#utility.yul\":6845:6959   */\n      swap2\n      swap1\n      pop\n      jump\t// out\n        /* \"#utility.yul\":6965:7149   */\n    tag_372:\n        /* \"#utility.yul\":7064:7075   */\n      0x00\n        /* \"#utility.yul\":7098:7104   */\n      dup3\n        /* \"#utility.yul\":7093:7096   */\n      dup3\n        /* \"#utility.yul\":7086:7105   */\n      mstore\n        /* \"#utility.yul\":7138:7142   */\n      0x20\n        /* \"#utility.yul\":7133:7136   */\n      dup3\n        /* \"#utility.yul\":7129:7143   */\n      add\n        /* \"#utility.yul\":7114:7143   */\n      swap1\n      pop\n        /* \"#utility.yul\":6965:7149   */\n      swap3\n      swap2\n      pop\n      pop\n      jump\t// out\n        /* \"#utility.yul\":7155:7287   */\n    tag_373:\n        /* \"#utility.yul\":7222:7226   */\n      0x00\n        /* \"#utility.yul\":7245:7248   */\n      dup2\n        /* \"#utility.yul\":7237:7248   */\n      swap1\n      pop\n        /* \"#utility.yul\":7275:7279   */\n      0x20\n        /* \"#utility.yul\":7270:7273   */\n      dup3\n        /* \"#utility.yul\":7266:7280   */\n      add\n        /* \"#utility.yul\":7258:7280   */\n      swap1\n      pop\n        /* \"#utility.yul\":7155:7287   */\n      swap2\n      swap1\n      pop\n      jump\t// out\n        /* \"#utility.yul\":7293:7401   */\n    tag_374:\n        /* \"#utility.yul\":7370:7394   */\n      tag_520\n        /* \"#utility.yul\":7388:7393   */\n      dup2\n        /* \"#utility.yul\":7370:7394   */\n      tag_367\n      jump\t// in\n    tag_520:\n        /* \"#utility.yul\":7365:7368   */\n      dup3\n        /* \"#utility.yul\":7358:7395   */\n      mstore\n        /* \"#utility.yul\":7293:7401   */\n      pop\n      pop\n      jump\t// out\n        /* \"#utility.yul\":7407:7586   */\n    tag_375:\n        /* \"#utility.yul\":7476:7486   */\n      0x00\n        /* \"#utility.yul\":7497:7543   */\n      tag_522\n        /* \"#utility.yul\":7539:7542   */\n      dup4\n        /* \"#utility.yul\":7531:7537   */\n      dup4\n        /* \"#utility.yul\":7497:7543   */\n      tag_374\n      jump\t// in\n    tag_522:\n        /* \"#utility.yul\":7575:7579   */\n      0x20\n        /* \"#utility.yul\":7570:7573   */\n      dup4\n        /* \"#utility.yul\":7566:7580   */\n      add\n        /* \"#utility.yul\":7552:7580   */\n      swap1\n      pop\n        /* \"#utility.yul\":7407:7586   */\n      swap3\n      swap2\n      pop\n      pop\n      jump\t// out\n        /* \"#utility.yul\":7592:7705   */\n    tag_376:\n        /* \"#utility.yul\":7662:7666   */\n      0x00\n        /* \"#utility.yul\":7694:7698   */\n      0x20\n        /* \"#utility.yul\":7689:7692   */\n      dup3\n        /* \"#utility.yul\":7685:7699   */\n      add\n        /* \"#utility.yul\":7677:7699   */\n      swap1\n      pop\n        /* \"#utility.yul\":7592:7705   */\n      swap2\n      swap1\n      pop\n      jump\t// out\n        /* \"#utility.yul\":7741:8473   */\n    tag_377:\n        /* \"#utility.yul\":7860:7863   */\n      0x00\n        /* \"#utility.yul\":7889:7943   */\n      tag_525\n        /* \"#utility.yul\":7937:7942   */\n      dup3\n        /* \"#utility.yul\":7889:7943   */\n      tag_371\n      jump\t// in\n    tag_525:\n        /* \"#utility.yul\":7959:8045   */\n      tag_526\n        /* \"#utility.yul\":8038:8044   */\n      dup2\n        /* \"#utility.yul\":8033:8036   */\n      dup6\n        /* \"#utility.yul\":7959:8045   */\n      tag_372\n      jump\t// in\n    tag_526:\n        /* \"#utility.yul\":7952:8045   */\n      swap4\n      pop\n        /* \"#utility.yul\":8069:8125   */\n      tag_527\n        /* \"#utility.yul\":8119:8124   */\n      dup4\n        /* \"#utility.yul\":8069:8125   */\n      tag_373\n      jump\t// in\n    tag_527:\n        /* \"#utility.yul\":8148:8155   */\n      dup1\n        /* \"#utility.yul\":8179:8180   */\n      0x00\n        /* \"#utility.yul\":8164:8448   */\n    tag_528:\n        /* \"#utility.yul\":8189:8195   */\n      dup4\n        /* \"#utility.yul\":8186:8187   */\n      dup2\n        /* \"#utility.yul\":8183:8196   */\n      lt\n        /* \"#utility.yul\":8164:8448   */\n      iszero\n      tag_530\n      jumpi\n        /* \"#utility.yul\":8265:8271   */\n      dup2\n        /* \"#utility.yul\":8259:8272   */\n      mload\n        /* \"#utility.yul\":8292:8355   */\n      tag_531\n        /* \"#utility.yul\":8351:8354   */\n      dup9\n        /* \"#utility.yul\":8336:8349   */\n      dup3\n        /* \"#utility.yul\":8292:8355   */\n      tag_375\n      jump\t// in\n    tag_531:\n        /* \"#utility.yul\":8285:8355   */\n      swap8\n      pop\n        /* \"#utility.yul\":8378:8438   */\n      tag_532\n        /* \"#utility.yul\":8431:8437   */\n      dup4\n        /* \"#utility.yul\":8378:8438   */\n      tag_376\n      jump\t// in\n    tag_532:\n        /* \"#utility.yul\":8368:8438   */\n      swap3\n      pop\n        /* \"#utility.yul\":8224:8448   */\n      pop\n        /* \"#utility.yul\":8211:8212   */\n      0x01\n        /* \"#utility.yul\":8208:8209   */\n      dup2\n        /* \"#utility.yul\":8204:8213   */\n      add\n        /* \"#utility.yul\":8199:8213   */\n      swap1\n      pop\n        /* \"#utility.yul\":8164:8448   */\n      jump(tag_528)\n    tag_530:\n        /* \"#utility.yul\":8168:8182   */\n      pop\n        /* \"#utility.yul\":8464:8467   */\n      dup6\n        /* \"#utility.yul\":8457:8467   */\n      swap4\n      pop\n        /* \"#utility.yul\":7865:8473   */\n      pop\n      pop\n      pop\n        /* \"#utility.yul\":7741:8473   */\n      swap3\n      swap2\n      pop\n      pop\n      jump\t// out\n        /* \"#utility.yul\":8479:8852   */\n    tag_49:\n        /* \"#utility.yul\":8622:8626   */\n      0x00\n        /* \"#utility.yul\":8660:8662   */\n      0x20\n        /* \"#utility.yul\":8649:8658   */\n      dup3\n        /* \"#utility.yul\":8645:8663   */\n      add\n        /* \"#utility.yul\":8637:8663   */\n      swap1\n      pop\n        /* \"#utility.yul\":8709:8718   */\n      dup2\n        /* \"#utility.yul\":8703:8707   */\n      dup2\n        /* \"#utility.yul\":8699:8719   */\n      sub\n        /* \"#utility.yul\":8695:8696   */\n      0x00\n        /* \"#utility.yul\":8684:8693   */\n      dup4\n        /* \"#utility.yul\":8680:8697   */\n      add\n        /* \"#utility.yul\":8673:8720   */\n      mstore\n        /* \"#utility.yul\":8737:8845   */\n      tag_534\n        /* \"#utility.yul\":8840:8844   */\n      dup2\n        /* \"#utility.yul\":8831:8837   */\n      dup5\n        /* \"#utility.yul\":8737:8845   */\n      tag_377\n      jump\t// in\n    tag_534:\n        /* \"#utility.yul\":8729:8845   */\n      swap1\n      pop\n        /* \"#utility.yul\":8479:8852   */\n      swap3\n      swap2\n      pop\n      pop\n      jump\t// out\n        /* \"#utility.yul\":8858:8996   */\n    tag_378:\n        /* \"#utility.yul\":8949:8955   */\n      0x00\n        /* \"#utility.yul\":8983:8988   */\n      dup2\n        /* \"#utility.yul\":8977:8989   */\n      mload\n        /* \"#utility.yul\":8967:8989   */\n      swap1\n      pop\n        /* \"#utility.yul\":8858:8996   */\n      swap2\n      swap1\n      pop\n      jump\t// out\n        /* \"#utility.yul\":9002:9210   */\n    tag_379:\n        /* \"#utility.yul\":9125:9136   */\n      0x00\n        /* \"#utility.yul\":9159:9165   */\n      dup3\n        /* \"#utility.yul\":9154:9157   */\n      dup3\n        /* \"#utility.yul\":9147:9166   */\n      mstore\n        /* \"#utility.yul\":9199:9203   */\n      0x20\n        /* \"#utility.yul\":9194:9197   */\n      dup3\n        /* \"#utility.yul\":9190:9204   */\n      add\n        /* \"#utility.yul\":9175:9204   */\n      swap1\n      pop\n        /* \"#utility.yul\":9002:9210   */\n      swap3\n      swap2\n      pop\n      pop\n      jump\t// out\n        /* \"#utility.yul\":9216:9372   */\n    tag_380:\n        /* \"#utility.yul\":9307:9311   */\n      0x00\n        /* \"#utility.yul\":9330:9333   */\n      dup2\n        /* \"#utility.yul\":9322:9333   */\n      swap1\n      pop\n        /* \"#utility.yul\":9360:9364   */\n      0x20\n        /* \"#utility.yul\":9355:9358   */\n      dup3\n        /* \"#utility.yul\":9351:9365   */\n      add\n        /* \"#utility.yul\":9343:9365   */\n      swap1\n      pop\n        /* \"#utility.yul\":9216:9372   */\n      swap2\n      swap1\n      pop\n      jump\t// out\n        /* \"#utility.yul\":9378:9537   */\n    tag_381:\n        /* \"#utility.yul\":9452:9463   */\n      0x00\n        /* \"#utility.yul\":9486:9492   */\n      dup3\n        /* \"#utility.yul\":9481:9484   */\n      dup3\n        /* \"#utility.yul\":9474:9493   */\n      mstore\n        /* \"#utility.yul\":9526:9530   */\n      0x20\n        /* \"#utility.yul\":9521:9524   */\n      dup3\n        /* \"#utility.yul\":9517:9531   */\n      add\n        /* \"#utility.yul\":9502:9531   */\n      swap1\n      pop\n        /* \"#utility.yul\":9378:9537   */\n      swap3\n      swap2\n      pop\n      pop\n      jump\t// out\n        /* \"#utility.yul\":9543:9887   */\n    tag_382:\n        /* \"#utility.yul\":9621:9624   */\n      0x00\n        /* \"#utility.yul\":9649:9688   */\n      tag_540\n        /* \"#utility.yul\":9682:9687   */\n      dup3\n        /* \"#utility.yul\":9649:9688   */\n      tag_352\n      jump\t// in\n    tag_540:\n        /* \"#utility.yul\":9704:9765   */\n      tag_541\n        /* \"#utility.yul\":9758:9764   */\n      dup2\n        /* \"#utility.yul\":9753:9756   */\n      dup6\n        /* \"#utility.yul\":9704:9765   */\n      tag_381\n      jump\t// in\n    tag_541:\n        /* \"#utility.yul\":9697:9765   */\n      swap4\n      pop\n        /* \"#utility.yul\":9774:9826   */\n      tag_542\n        /* \"#utility.yul\":9819:9825   */\n      dup2\n        /* \"#utility.yul\":9814:9817   */\n      dup6\n        /* \"#utility.yul\":9807:9811   */\n      0x20\n        /* \"#utility.yul\":9800:9805   */\n      dup7\n        /* \"#utility.yul\":9796:9812   */\n      add\n        /* \"#utility.yul\":9774:9826   */\n      tag_354\n      jump\t// in\n    tag_542:\n        /* \"#utility.yul\":9851:9880   */\n      tag_543\n        /* \"#utility.yul\":9873:9879   */\n      dup2\n        /* \"#utility.yul\":9851:9880   */\n      tag_355\n      jump\t// in\n    tag_543:\n        /* \"#utility.yul\":9846:9849   */\n      dup5\n        /* \"#utility.yul\":9842:9881   */\n      add\n        /* \"#utility.yul\":9835:9881   */\n      swap2\n      pop\n        /* \"#utility.yul\":9625:9887   */\n      pop\n        /* \"#utility.yul\":9543:9887   */\n      swap3\n      swap2\n      pop\n      pop\n      jump\t// out\n        /* \"#utility.yul\":9893:10001   */\n    tag_383:\n        /* \"#utility.yul\":9970:9994   */\n      tag_545\n        /* \"#utility.yul\":9988:9993   */\n      dup2\n        /* \"#utility.yul\":9970:9994   */\n      tag_349\n      jump\t// in\n    tag_545:\n        /* \"#utility.yul\":9965:9968   */\n      dup3\n        /* \"#utility.yul\":9958:9995   */\n      mstore\n        /* \"#utility.yul\":9893:10001   */\n      pop\n      pop\n      jump\t// out\n        /* \"#utility.yul\":10081:10927   */\n    tag_384:\n        /* \"#utility.yul\":10188:10191   */\n      0x00\n        /* \"#utility.yul\":10224:10228   */\n      0x60\n        /* \"#utility.yul\":10219:10222   */\n      dup4\n        /* \"#utility.yul\":10215:10229   */\n      add\n        /* \"#utility.yul\":10311:10315   */\n      0x00\n        /* \"#utility.yul\":10304:10309   */\n      dup4\n        /* \"#utility.yul\":10300:10316   */\n      add\n        /* \"#utility.yul\":10294:10317   */\n      mload\n        /* \"#utility.yul\":10364:10367   */\n      dup5\n        /* \"#utility.yul\":10358:10362   */\n      dup3\n        /* \"#utility.yul\":10354:10368   */\n      sub\n        /* \"#utility.yul\":10347:10351   */\n      0x00\n        /* \"#utility.yul\":10342:10345   */\n      dup7\n        /* \"#utility.yul\":10338:10352   */\n      add\n        /* \"#utility.yul\":10331:10369   */\n      mstore\n        /* \"#utility.yul\":10390:10463   */\n      tag_547\n        /* \"#utility.yul\":10458:10462   */\n      dup3\n        /* \"#utility.yul\":10444:10456   */\n      dup3\n        /* \"#utility.yul\":10390:10463   */\n      tag_382\n      jump\t// in\n    tag_547:\n        /* \"#utility.yul\":10382:10463   */\n      swap2\n      pop\n        /* \"#utility.yul\":10239:10474   */\n      pop\n        /* \"#utility.yul\":10558:10562   */\n      0x20\n        /* \"#utility.yul\":10551:10556   */\n      dup4\n        /* \"#utility.yul\":10547:10563   */\n      add\n        /* \"#utility.yul\":10541:10564   */\n      mload\n        /* \"#utility.yul\":10611:10614   */\n      dup5\n        /* \"#utility.yul\":10605:10609   */\n      dup3\n        /* \"#utility.yul\":10601:10615   */\n      sub\n        /* \"#utility.yul\":10594:10598   */\n      0x20\n        /* \"#utility.yul\":10589:10592   */\n      dup7\n        /* \"#utility.yul\":10585:10599   */\n      add\n        /* \"#utility.yul\":10578:10616   */\n      mstore\n        /* \"#utility.yul\":10637:10710   */\n      tag_548\n        /* \"#utility.yul\":10705:10709   */\n      dup3\n        /* \"#utility.yul\":10691:10703   */\n      dup3\n        /* \"#utility.yul\":10637:10710   */\n      tag_382\n      jump\t// in\n    tag_548:\n        /* \"#utility.yul\":10629:10710   */\n      swap2\n      pop\n        /* \"#utility.yul\":10484:10721   */\n      pop\n        /* \"#utility.yul\":10808:10812   */\n      0x40\n        /* \"#utility.yul\":10801:10806   */\n      dup4\n        /* \"#utility.yul\":10797:10813   */\n      add\n        /* \"#utility.yul\":10791:10814   */\n      mload\n        /* \"#utility.yul\":10827:10890   */\n      tag_549\n        /* \"#utility.yul\":10884:10888   */\n      0x40\n        /* \"#utility.yul\":10879:10882   */\n      dup7\n        /* \"#utility.yul\":10875:10889   */\n      add\n        /* \"#utility.yul\":10861:10873   */\n      dup3\n        /* \"#utility.yul\":10827:10890   */\n      tag_383\n      jump\t// in\n    tag_549:\n        /* \"#utility.yul\":10731:10900   */\n      pop\n        /* \"#utility.yul\":10917:10921   */\n      dup1\n        /* \"#utility.yul\":10910:10921   */\n      swap2\n      pop\n        /* \"#utility.yul\":10193:10927   */\n      pop\n        /* \"#utility.yul\":10081:10927   */\n      swap3\n      swap2\n      pop\n      pop\n      jump\t// out\n        /* \"#utility.yul\":10933:11185   */\n    tag_385:\n        /* \"#utility.yul\":11050:11060   */\n      0x00\n        /* \"#utility.yul\":11085:11179   */\n      tag_551\n        /* \"#utility.yul\":11175:11178   */\n      dup4\n        /* \"#utility.yul\":11167:11173   */\n      dup4\n        /* \"#utility.yul\":11085:11179   */\n      tag_384\n      jump\t// in\n    tag_551:\n        /* \"#utility.yul\":11071:11179   */\n      swap1\n      pop\n        /* \"#utility.yul\":10933:11185   */\n      swap3\n      swap2\n      pop\n      pop\n      jump\t// out\n        /* \"#utility.yul\":11191:11328   */\n    tag_386:\n        /* \"#utility.yul\":11285:11289   */\n      0x00\n        /* \"#utility.yul\":11317:11321   */\n      0x20\n        /* \"#utility.yul\":11312:11315   */\n      dup3\n        /* \"#utility.yul\":11308:11322   */\n      add\n        /* \"#utility.yul\":11300:11322   */\n      swap1\n      pop\n        /* \"#utility.yul\":11191:11328   */\n      swap2\n      swap1\n      pop\n      jump\t// out\n        /* \"#utility.yul\":11412:12515   */\n    tag_387:\n        /* \"#utility.yul\":11579:11582   */\n      0x00\n        /* \"#utility.yul\":11608:11686   */\n      tag_554\n        /* \"#utility.yul\":11680:11685   */\n      dup3\n        /* \"#utility.yul\":11608:11686   */\n      tag_378\n      jump\t// in\n    tag_554:\n        /* \"#utility.yul\":11702:11812   */\n      tag_555\n        /* \"#utility.yul\":11805:11811   */\n      dup2\n        /* \"#utility.yul\":11800:11803   */\n      dup6\n        /* \"#utility.yul\":11702:11812   */\n      tag_379\n      jump\t// in\n    tag_555:\n        /* \"#utility.yul\":11695:11812   */\n      swap4\n      pop\n        /* \"#utility.yul\":11838:11841   */\n      dup4\n        /* \"#utility.yul\":11883:11887   */\n      0x20\n        /* \"#utility.yul\":11875:11881   */\n      dup3\n        /* \"#utility.yul\":11871:11888   */\n      mul\n        /* \"#utility.yul\":11866:11869   */\n      dup6\n        /* \"#utility.yul\":11862:11889   */\n      add\n        /* \"#utility.yul\":11913:11993   */\n      tag_556\n        /* \"#utility.yul\":11987:11992   */\n      dup6\n        /* \"#utility.yul\":11913:11993   */\n      tag_380\n      jump\t// in\n    tag_556:\n        /* \"#utility.yul\":12016:12023   */\n      dup1\n        /* \"#utility.yul\":12047:12048   */\n      0x00\n        /* \"#utility.yul\":12032:12470   */\n    tag_557:\n        /* \"#utility.yul\":12057:12063   */\n      dup6\n        /* \"#utility.yul\":12054:12055   */\n      dup2\n        /* \"#utility.yul\":12051:12064   */\n      lt\n        /* \"#utility.yul\":12032:12470   */\n      iszero\n      tag_559\n      jumpi\n        /* \"#utility.yul\":12128:12137   */\n      dup5\n        /* \"#utility.yul\":12122:12126   */\n      dup5\n        /* \"#utility.yul\":12118:12138   */\n      sub\n        /* \"#utility.yul\":12113:12116   */\n      dup10\n        /* \"#utility.yul\":12106:12139   */\n      mstore\n        /* \"#utility.yul\":12179:12185   */\n      dup2\n        /* \"#utility.yul\":12173:12186   */\n      mload\n        /* \"#utility.yul\":12207:12319   */\n      tag_560\n        /* \"#utility.yul\":12314:12318   */\n      dup6\n        /* \"#utility.yul\":12299:12312   */\n      dup3\n        /* \"#utility.yul\":12207:12319   */\n      tag_385\n      jump\t// in\n    tag_560:\n        /* \"#utility.yul\":12199:12319   */\n      swap5\n      pop\n        /* \"#utility.yul\":12342:12426   */\n      tag_561\n        /* \"#utility.yul\":12419:12425   */\n      dup4\n        /* \"#utility.yul\":12342:12426   */\n      tag_386\n      jump\t// in\n    tag_561:\n        /* \"#utility.yul\":12332:12426   */\n      swap3\n      pop\n        /* \"#utility.yul\":12455:12459   */\n      0x20\n        /* \"#utility.yul\":12450:12453   */\n      dup11\n        /* \"#utility.yul\":12446:12460   */\n      add\n        /* \"#utility.yul\":12439:12460   */\n      swap10\n      pop\n        /* \"#utility.yul\":12092:12470   */\n      pop\n        /* \"#utility.yul\":12079:12080   */\n      0x01\n        /* \"#utility.yul\":12076:12077   */\n      dup2\n        /* \"#utility.yul\":12072:12081   */\n      add\n        /* \"#utility.yul\":12067:12081   */\n      swap1\n      pop\n        /* \"#utility.yul\":12032:12470   */\n      jump(tag_557)\n    tag_559:\n        /* \"#utility.yul\":12036:12050   */\n      pop\n        /* \"#utility.yul\":12486:12490   */\n      dup3\n        /* \"#utility.yul\":12479:12490   */\n      swap8\n      pop\n        /* \"#utility.yul\":12506:12509   */\n      dup8\n        /* \"#utility.yul\":12499:12509   */\n      swap6\n      pop\n        /* \"#utility.yul\":11584:12515   */\n      pop\n      pop\n      pop\n      pop\n      pop\n        /* \"#utility.yul\":11412:12515   */\n      swap3\n      swap2\n      pop\n      pop\n      jump\t// out\n        /* \"#utility.yul\":12521:12990   */\n    tag_54:\n        /* \"#utility.yul\":12712:12716   */\n      0x00\n        /* \"#utility.yul\":12750:12752   */\n      0x20\n        /* \"#utility.yul\":12739:12748   */\n      dup3\n        /* \"#utility.yul\":12735:12753   */\n      add\n        /* \"#utility.yul\":12727:12753   */\n      swap1\n      pop\n        /* \"#utility.yul\":12799:12808   */\n      dup2\n        /* \"#utility.yul\":12793:12797   */\n      dup2\n        /* \"#utility.yul\":12789:12809   */\n      sub\n        /* \"#utility.yul\":12785:12786   */\n      0x00\n        /* \"#utility.yul\":12774:12783   */\n      dup4\n        /* \"#utility.yul\":12770:12787   */\n      add\n        /* \"#utility.yul\":12763:12810   */\n      mstore\n        /* \"#utility.yul\":12827:12983   */\n      tag_563\n        /* \"#utility.yul\":12978:12982   */\n      dup2\n        /* \"#utility.yul\":12969:12975   */\n      dup5\n        /* \"#utility.yul\":12827:12983   */\n      tag_387\n      jump\t// in\n    tag_563:\n        /* \"#utility.yul\":12819:12983   */\n      swap1\n      pop\n        /* \"#utility.yul\":12521:12990   */\n      swap3\n      swap2\n      pop\n      pop\n      jump\t// out\n        /* \"#utility.yul\":12996:13111   */\n    tag_388:\n        /* \"#utility.yul\":13085:13086   */\n      0x07\n        /* \"#utility.yul\":13078:13083   */\n      dup2\n        /* \"#utility.yul\":13075:13087   */\n      lt\n        /* \"#utility.yul\":13065:13105   */\n      tag_565\n      jumpi\n        /* \"#utility.yul\":13101:13102   */\n      0x00\n        /* \"#utility.yul\":13098:13099   */\n      dup1\n        /* \"#utility.yul\":13091:13103   */\n      revert\n        /* \"#utility.yul\":13065:13105   */\n    tag_565:\n        /* \"#utility.yul\":12996:13111   */\n      pop\n      jump\t// out\n        /* \"#utility.yul\":13117:13288   */\n    tag_389:\n        /* \"#utility.yul\":13179:13184   */\n      0x00\n        /* \"#utility.yul\":13217:13223   */\n      dup2\n        /* \"#utility.yul\":13204:13224   */\n      calldataload\n        /* \"#utility.yul\":13195:13224   */\n      swap1\n      pop\n        /* \"#utility.yul\":13233:13282   */\n      tag_567\n        /* \"#utility.yul\":13276:13281   */\n      dup2\n        /* \"#utility.yul\":13233:13282   */\n      tag_388\n      jump\t// in\n    tag_567:\n        /* \"#utility.yul\":13117:13288   */\n      swap3\n      swap2\n      pop\n      pop\n      jump\t// out\n        /* \"#utility.yul\":13294:13655   */\n    tag_57:\n        /* \"#utility.yul\":13369:13375   */\n      0x00\n        /* \"#utility.yul\":13418:13420   */\n      0x20\n        /* \"#utility.yul\":13406:13415   */\n      dup3\n        /* \"#utility.yul\":13397:13404   */\n      dup5\n        /* \"#utility.yul\":13393:13416   */\n      sub\n        /* \"#utility.yul\":13389:13421   */\n      slt\n        /* \"#utility.yul\":13386:13505   */\n      iszero\n      tag_569\n      jumpi\n        /* \"#utility.yul\":13424:13503   */\n      tag_570\n      tag_347\n      jump\t// in\n    tag_570:\n        /* \"#utility.yul\":13386:13505   */\n    tag_569:\n        /* \"#utility.yul\":13544:13545   */\n      0x00\n        /* \"#utility.yul\":13569:13638   */\n      tag_571\n        /* \"#utility.yul\":13630:13637   */\n      dup5\n        /* \"#utility.yul\":13621:13627   */\n      dup3\n        /* \"#utility.yul\":13610:13619   */\n      dup6\n        /* \"#utility.yul\":13606:13628   */\n      add\n        /* \"#utility.yul\":13569:13638   */\n      tag_389\n      jump\t// in\n    tag_571:\n        /* \"#utility.yul\":13559:13638   */\n      swap2\n      pop\n        /* \"#utility.yul\":13515:13648   */\n      pop\n        /* \"#utility.yul\":13294:13655   */\n      swap3\n      swap2\n      pop\n      pop\n      jump\t// out\n        /* \"#utility.yul\":13661:13766   */\n    tag_390:\n        /* \"#utility.yul\":13740:13741   */\n      0x05\n        /* \"#utility.yul\":13733:13738   */\n      dup2\n        /* \"#utility.yul\":13730:13742   */\n      lt\n        /* \"#utility.yul\":13720:13760   */\n      tag_573\n      jumpi\n        /* \"#utility.yul\":13756:13757   */\n      0x00\n        /* \"#utility.yul\":13753:13754   */\n      dup1\n        /* \"#utility.yul\":13746:13758   */\n      revert\n        /* \"#utility.yul\":13720:13760   */\n    tag_573:\n        /* \"#utility.yul\":13661:13766   */\n      pop\n      jump\t// out\n        /* \"#utility.yul\":13772:13923   */\n    tag_391:\n        /* \"#utility.yul\":13824:13829   */\n      0x00\n        /* \"#utility.yul\":13862:13868   */\n      dup2\n        /* \"#utility.yul\":13849:13869   */\n      calldataload\n        /* \"#utility.yul\":13840:13869   */\n      swap1\n      pop\n        /* \"#utility.yul\":13878:13917   */\n      tag_575\n        /* \"#utility.yul\":13911:13916   */\n      dup2\n        /* \"#utility.yul\":13878:13917   */\n      tag_390\n      jump\t// in\n    tag_575:\n        /* \"#utility.yul\":13772:13923   */\n      swap3\n      swap2\n      pop\n      pop\n      jump\t// out\n        /* \"#utility.yul\":13929:14560   */\n    tag_62:\n        /* \"#utility.yul\":14012:14018   */\n      0x00\n        /* \"#utility.yul\":14020:14026   */\n      dup1\n        /* \"#utility.yul\":14028:14034   */\n      0x00\n        /* \"#utility.yul\":14077:14079   */\n      0x60\n        /* \"#utility.yul\":14065:14074   */\n      dup5\n        /* \"#utility.yul\":14056:14063   */\n      dup7\n        /* \"#utility.yul\":14052:14075   */\n      sub\n        /* \"#utility.yul\":14048:14080   */\n      slt\n        /* \"#utility.yul\":14045:14164   */\n      iszero\n      tag_577\n      jumpi\n        /* \"#utility.yul\":14083:14162   */\n      tag_578\n      tag_347\n      jump\t// in\n    tag_578:\n        /* \"#utility.yul\":14045:14164   */\n    tag_577:\n        /* \"#utility.yul\":14203:14204   */\n      0x00\n        /* \"#utility.yul\":14228:14281   */\n      tag_579\n        /* \"#utility.yul\":14273:14280   */\n      dup7\n        /* \"#utility.yul\":14264:14270   */\n      dup3\n        /* \"#utility.yul\":14253:14262   */\n      dup8\n        /* \"#utility.yul\":14249:14271   */\n      add\n        /* \"#utility.yul\":14228:14281   */\n      tag_351\n      jump\t// in\n    tag_579:\n        /* \"#utility.yul\":14218:14281   */\n      swap4\n      pop\n        /* \"#utility.yul\":14174:14291   */\n      pop\n        /* \"#utility.yul\":14330:14332   */\n      0x20\n        /* \"#utility.yul\":14356:14409   */\n      tag_580\n        /* \"#utility.yul\":14401:14408   */\n      dup7\n        /* \"#utility.yul\":14392:14398   */\n      dup3\n        /* \"#utility.yul\":14381:14390   */\n      dup8\n        /* \"#utility.yul\":14377:14399   */\n      add\n        /* \"#utility.yul\":14356:14409   */\n      tag_369\n      jump\t// in\n    tag_580:\n        /* \"#utility.yul\":14346:14409   */\n      swap3\n      pop\n        /* \"#utility.yul\":14301:14419   */\n      pop\n        /* \"#utility.yul\":14458:14460   */\n      0x40\n        /* \"#utility.yul\":14484:14543   */\n      tag_581\n        /* \"#utility.yul\":14535:14542   */\n      dup7\n        /* \"#utility.yul\":14526:14532   */\n      dup3\n        /* \"#utility.yul\":14515:14524   */\n      dup8\n        /* \"#utility.yul\":14511:14533   */\n      add\n        /* \"#utility.yul\":14484:14543   */\n      tag_391\n      jump\t// in\n    tag_581:\n        /* \"#utility.yul\":14474:14543   */\n      swap2\n      pop\n        /* \"#utility.yul\":14429:14553   */\n      pop\n        /* \"#utility.yul\":13929:14560   */\n      swap3\n      pop\n      swap3\n      pop\n      swap3\n      jump\t// out\n        /* \"#utility.yul\":14566:14684   */\n    tag_392:\n        /* \"#utility.yul\":14653:14677   */\n      tag_583\n        /* \"#utility.yul\":14671:14676   */\n      dup2\n        /* \"#utility.yul\":14653:14677   */\n      tag_367\n      jump\t// in\n    tag_583:\n        /* \"#utility.yul\":14648:14651   */\n      dup3\n        /* \"#utility.yul\":14641:14678   */\n      mstore\n        /* \"#utility.yul\":14566:14684   */\n      pop\n      pop\n      jump\t// out\n        /* \"#utility.yul\":14690:14870   */\n    tag_112:\n        /* \"#utility.yul\":14738:14815   */\n      0x4e487b7100000000000000000000000000000000000000000000000000000000\n        /* \"#utility.yul\":14735:14736   */\n      0x00\n        /* \"#utility.yul\":14728:14816   */\n      mstore\n        /* \"#utility.yul\":14835:14839   */\n      0x21\n        /* \"#utility.yul\":14832:14833   */\n      0x04\n        /* \"#utility.yul\":14825:14840   */\n      mstore\n        /* \"#utility.yul\":14859:14863   */\n      0x24\n        /* \"#utility.yul\":14856:14857   */\n      0x00\n        /* \"#utility.yul\":14849:14864   */\n      revert\n        /* \"#utility.yul\":14876:14997   */\n    tag_393:\n        /* \"#utility.yul\":14965:14966   */\n      0x07\n        /* \"#utility.yul\":14958:14963   */\n      dup2\n        /* \"#utility.yul\":14955:14967   */\n      lt\n        /* \"#utility.yul\":14945:14991   */\n      tag_586\n      jumpi\n        /* \"#utility.yul\":14971:14989   */\n      tag_587\n      tag_112\n      jump\t// in\n    tag_587:\n        /* \"#utility.yul\":14945:14991   */\n    tag_586:\n        /* \"#utility.yul\":14876:14997   */\n      pop\n      jump\t// out\n        /* \"#utility.yul\":15003:15146   */\n    tag_394:\n        /* \"#utility.yul\":15056:15063   */\n      0x00\n        /* \"#utility.yul\":15085:15090   */\n      dup2\n        /* \"#utility.yul\":15074:15090   */\n      swap1\n      pop\n        /* \"#utility.yul\":15091:15140   */\n      tag_589\n        /* \"#utility.yul\":15134:15139   */\n      dup3\n        /* \"#utility.yul\":15091:15140   */\n      tag_393\n      jump\t// in\n    tag_589:\n        /* \"#utility.yul\":15003:15146   */\n      swap2\n      swap1\n      pop\n      jump\t// out\n        /* \"#utility.yul\":15152:15295   */\n    tag_395:\n        /* \"#utility.yul\":15216:15225   */\n      0x00\n        /* \"#utility.yul\":15249:15289   */\n      tag_591\n        /* \"#utility.yul\":15283:15288   */\n      dup3\n        /* \"#utility.yul\":15249:15289   */\n      tag_394\n      jump\t// in\n    tag_591:\n        /* \"#utility.yul\":15236:15289   */\n      swap1\n      pop\n        /* \"#utility.yul\":15152:15295   */\n      swap2\n      swap1\n      pop\n      jump\t// out\n        /* \"#utility.yul\":15301:15460   */\n    tag_396:\n        /* \"#utility.yul\":15402:15453   */\n      tag_593\n        /* \"#utility.yul\":15447:15452   */\n      dup2\n        /* \"#utility.yul\":15402:15453   */\n      tag_395\n      jump\t// in\n    tag_593:\n        /* \"#utility.yul\":15397:15400   */\n      dup3\n        /* \"#utility.yul\":15390:15454   */\n      mstore\n        /* \"#utility.yul\":15301:15460   */\n      pop\n      pop\n      jump\t// out\n        /* \"#utility.yul\":15466:16138   */\n    tag_68:\n        /* \"#utility.yul\":15677:15681   */\n      0x00\n        /* \"#utility.yul\":15715:15718   */\n      0x80\n        /* \"#utility.yul\":15704:15713   */\n      dup3\n        /* \"#utility.yul\":15700:15719   */\n      add\n        /* \"#utility.yul\":15692:15719   */\n      swap1\n      pop\n        /* \"#utility.yul\":15729:15800   */\n      tag_595\n        /* \"#utility.yul\":15797:15798   */\n      0x00\n        /* \"#utility.yul\":15786:15795   */\n      dup4\n        /* \"#utility.yul\":15782:15799   */\n      add\n        /* \"#utility.yul\":15773:15779   */\n      dup8\n        /* \"#utility.yul\":15729:15800   */\n      tag_370\n      jump\t// in\n    tag_595:\n        /* \"#utility.yul\":15847:15856   */\n      dup2\n        /* \"#utility.yul\":15841:15845   */\n      dup2\n        /* \"#utility.yul\":15837:15857   */\n      sub\n        /* \"#utility.yul\":15832:15834   */\n      0x20\n        /* \"#utility.yul\":15821:15830   */\n      dup4\n        /* \"#utility.yul\":15817:15835   */\n      add\n        /* \"#utility.yul\":15810:15858   */\n      mstore\n        /* \"#utility.yul\":15875:15953   */\n      tag_596\n        /* \"#utility.yul\":15948:15952   */\n      dup2\n        /* \"#utility.yul\":15939:15945   */\n      dup7\n        /* \"#utility.yul\":15875:15953   */\n      tag_356\n      jump\t// in\n    tag_596:\n        /* \"#utility.yul\":15867:15953   */\n      swap1\n      pop\n        /* \"#utility.yul\":15963:16035   */\n      tag_597\n        /* \"#utility.yul\":16031:16033   */\n      0x40\n        /* \"#utility.yul\":16020:16029   */\n      dup4\n        /* \"#utility.yul\":16016:16034   */\n      add\n        /* \"#utility.yul\":16007:16013   */\n      dup6\n        /* \"#utility.yul\":15963:16035   */\n      tag_392\n      jump\t// in\n    tag_597:\n        /* \"#utility.yul\":16045:16131   */\n      tag_598\n        /* \"#utility.yul\":16127:16129   */\n      0x60\n        /* \"#utility.yul\":16116:16125   */\n      dup4\n        /* \"#utility.yul\":16112:16130   */\n      add\n        /* \"#utility.yul\":16103:16109   */\n      dup5\n        /* \"#utility.yul\":16045:16131   */\n      tag_396\n      jump\t// in\n    tag_598:\n        /* \"#utility.yul\":15466:16138   */\n      swap6\n      swap5\n      pop\n      pop\n      pop\n      pop\n      pop\n      jump\t// out\n        /* \"#utility.yul\":16144:16366   */\n    tag_73:\n        /* \"#utility.yul\":16237:16241   */\n      0x00\n        /* \"#utility.yul\":16275:16277   */\n      0x20\n        /* \"#utility.yul\":16264:16273   */\n      dup3\n        /* \"#utility.yul\":16260:16278   */\n      add\n        /* \"#utility.yul\":16252:16278   */\n      swap1\n      pop\n        /* \"#utility.yul\":16288:16359   */\n      tag_600\n        /* \"#utility.yul\":16356:16357   */\n      0x00\n        /* \"#utility.yul\":16345:16354   */\n      dup4\n        /* \"#utility.yul\":16341:16358   */\n      add\n        /* \"#utility.yul\":16332:16338   */\n      dup5\n        /* \"#utility.yul\":16288:16359   */\n      tag_392\n      jump\t// in\n    tag_600:\n        /* \"#utility.yul\":16144:16366   */\n      swap3\n      swap2\n      pop\n      pop\n      jump\t// out\n        /* \"#utility.yul\":16372:16462   */\n    tag_397:\n        /* \"#utility.yul\":16406:16413   */\n      0x00\n        /* \"#utility.yul\":16449:16454   */\n      dup2\n        /* \"#utility.yul\":16442:16455   */\n      iszero\n        /* \"#utility.yul\":16435:16456   */\n      iszero\n        /* \"#utility.yul\":16424:16456   */\n      swap1\n      pop\n        /* \"#utility.yul\":16372:16462   */\n      swap2\n      swap1\n      pop\n      jump\t// out\n        /* \"#utility.yul\":16468:16577   */\n    tag_398:\n        /* \"#utility.yul\":16549:16570   */\n      tag_603\n        /* \"#utility.yul\":16564:16569   */\n      dup2\n        /* \"#utility.yul\":16549:16570   */\n      tag_397\n      jump\t// in\n    tag_603:\n        /* \"#utility.yul\":16544:16547   */\n      dup3\n        /* \"#utility.yul\":16537:16571   */\n      mstore\n        /* \"#utility.yul\":16468:16577   */\n      pop\n      pop\n      jump\t// out\n        /* \"#utility.yul\":16583:16793   */\n    tag_81:\n        /* \"#utility.yul\":16670:16674   */\n      0x00\n        /* \"#utility.yul\":16708:16710   */\n      0x20\n        /* \"#utility.yul\":16697:16706   */\n      dup3\n        /* \"#utility.yul\":16693:16711   */\n      add\n        /* \"#utility.yul\":16685:16711   */\n      swap1\n      pop\n        /* \"#utility.yul\":16721:16786   */\n      tag_605\n        /* \"#utility.yul\":16783:16784   */\n      0x00\n        /* \"#utility.yul\":16772:16781   */\n      dup4\n        /* \"#utility.yul\":16768:16785   */\n      add\n        /* \"#utility.yul\":16759:16765   */\n      dup5\n        /* \"#utility.yul\":16721:16786   */\n      tag_398\n      jump\t// in\n    tag_605:\n        /* \"#utility.yul\":16583:16793   */\n      swap3\n      swap2\n      pop\n      pop\n      jump\t// out\n        /* \"#utility.yul\":16799:17453   */\n    tag_84:\n        /* \"#utility.yul\":16877:16883   */\n      0x00\n        /* \"#utility.yul\":16885:16891   */\n      dup1\n        /* \"#utility.yul\":16934:16936   */\n      0x40\n        /* \"#utility.yul\":16922:16931   */\n      dup4\n        /* \"#utility.yul\":16913:16920   */\n      dup6\n        /* \"#utility.yul\":16909:16932   */\n      sub\n        /* \"#utility.yul\":16905:16937   */\n      slt\n        /* \"#utility.yul\":16902:17021   */\n      iszero\n      tag_607\n      jumpi\n        /* \"#utility.yul\":16940:17019   */\n      tag_608\n      tag_347\n      jump\t// in\n    tag_608:\n        /* \"#utility.yul\":16902:17021   */\n    tag_607:\n        /* \"#utility.yul\":17060:17061   */\n      0x00\n        /* \"#utility.yul\":17085:17138   */\n      tag_609\n        /* \"#utility.yul\":17130:17137   */\n      dup6\n        /* \"#utility.yul\":17121:17127   */\n      dup3\n        /* \"#utility.yul\":17110:17119   */\n      dup7\n        /* \"#utility.yul\":17106:17128   */\n      add\n        /* \"#utility.yul\":17085:17138   */\n      tag_351\n      jump\t// in\n    tag_609:\n        /* \"#utility.yul\":17075:17138   */\n      swap3\n      pop\n        /* \"#utility.yul\":17031:17148   */\n      pop\n        /* \"#utility.yul\":17215:17217   */\n      0x20\n        /* \"#utility.yul\":17204:17213   */\n      dup4\n        /* \"#utility.yul\":17200:17218   */\n      add\n        /* \"#utility.yul\":17187:17219   */\n      calldataload\n        /* \"#utility.yul\":17246:17264   */\n      0xffffffffffffffff\n        /* \"#utility.yul\":17238:17244   */\n      dup2\n        /* \"#utility.yul\":17235:17265   */\n      gt\n        /* \"#utility.yul\":17232:17349   */\n      iszero\n      tag_610\n      jumpi\n        /* \"#utility.yul\":17268:17347   */\n      tag_611\n      tag_348\n      jump\t// in\n    tag_611:\n        /* \"#utility.yul\":17232:17349   */\n    tag_610:\n        /* \"#utility.yul\":17373:17436   */\n      tag_612\n        /* \"#utility.yul\":17428:17435   */\n      dup6\n        /* \"#utility.yul\":17419:17425   */\n      dup3\n        /* \"#utility.yul\":17408:17417   */\n      dup7\n        /* \"#utility.yul\":17404:17426   */\n      add\n        /* \"#utility.yul\":17373:17436   */\n      tag_365\n      jump\t// in\n    tag_612:\n        /* \"#utility.yul\":17363:17436   */\n      swap2\n      pop\n        /* \"#utility.yul\":17158:17446   */\n      pop\n        /* \"#utility.yul\":16799:17453   */\n      swap3\n      pop\n      swap3\n      swap1\n      pop\n      jump\t// out\n        /* \"#utility.yul\":17459:17570   */\n    tag_399:\n        /* \"#utility.yul\":17538:17539   */\n      0x05\n        /* \"#utility.yul\":17531:17536   */\n      dup2\n        /* \"#utility.yul\":17528:17540   */\n      lt\n        /* \"#utility.yul\":17518:17564   */\n      tag_614\n      jumpi\n        /* \"#utility.yul\":17544:17562   */\n      tag_615\n      tag_112\n      jump\t// in\n    tag_615:\n        /* \"#utility.yul\":17518:17564   */\n    tag_614:\n        /* \"#utility.yul\":17459:17570   */\n      pop\n      jump\t// out\n        /* \"#utility.yul\":17576:17699   */\n    tag_400:\n        /* \"#utility.yul\":17619:17626   */\n      0x00\n        /* \"#utility.yul\":17648:17653   */\n      dup2\n        /* \"#utility.yul\":17637:17653   */\n      swap1\n      pop\n        /* \"#utility.yul\":17654:17693   */\n      tag_617\n        /* \"#utility.yul\":17687:17692   */\n      dup3\n        /* \"#utility.yul\":17654:17693   */\n      tag_399\n      jump\t// in\n    tag_617:\n        /* \"#utility.yul\":17576:17699   */\n      swap2\n      swap1\n      pop\n      jump\t// out\n        /* \"#utility.yul\":17705:17828   */\n    tag_401:\n        /* \"#utility.yul\":17759:17768   */\n      0x00\n        /* \"#utility.yul\":17792:17822   */\n      tag_619\n        /* \"#utility.yul\":17816:17821   */\n      dup3\n        /* \"#utility.yul\":17792:17822   */\n      tag_400\n      jump\t// in\n    tag_619:\n        /* \"#utility.yul\":17779:17822   */\n      swap1\n      pop\n        /* \"#utility.yul\":17705:17828   */\n      swap2\n      swap1\n      pop\n      jump\t// out\n        /* \"#utility.yul\":17834:17973   */\n    tag_402:\n        /* \"#utility.yul\":17925:17966   */\n      tag_621\n        /* \"#utility.yul\":17960:17965   */\n      dup2\n        /* \"#utility.yul\":17925:17966   */\n      tag_401\n      jump\t// in\n    tag_621:\n        /* \"#utility.yul\":17920:17923   */\n      dup3\n        /* \"#utility.yul\":17913:17967   */\n      mstore\n        /* \"#utility.yul\":17834:17973   */\n      pop\n      pop\n      jump\t// out\n        /* \"#utility.yul\":17979:18209   */\n    tag_94:\n        /* \"#utility.yul\":18076:18080   */\n      0x00\n        /* \"#utility.yul\":18114:18116   */\n      0x20\n        /* \"#utility.yul\":18103:18112   */\n      dup3\n        /* \"#utility.yul\":18099:18117   */\n      add\n        /* \"#utility.yul\":18091:18117   */\n      swap1\n      pop\n        /* \"#utility.yul\":18127:18202   */\n      tag_623\n        /* \"#utility.yul\":18199:18200   */\n      0x00\n        /* \"#utility.yul\":18188:18197   */\n      dup4\n        /* \"#utility.yul\":18184:18201   */\n      add\n        /* \"#utility.yul\":18175:18181   */\n      dup5\n        /* \"#utility.yul\":18127:18202   */\n      tag_402\n      jump\t// in\n    tag_623:\n        /* \"#utility.yul\":17979:18209   */\n      swap3\n      swap2\n      pop\n      pop\n      jump\t// out\n        /* \"#utility.yul\":18215:18387   */\n    tag_403:\n        /* \"#utility.yul\":18355:18379   */\n      0x50726f64756374206e6f74207265676973746572656400000000000000000000\n        /* \"#utility.yul\":18351:18352   */\n      0x00\n        /* \"#utility.yul\":18343:18349   */\n      dup3\n        /* \"#utility.yul\":18339:18353   */\n      add\n        /* \"#utility.yul\":18332:18380   */\n      mstore\n        /* \"#utility.yul\":18215:18387   */\n      pop\n      jump\t// out\n        /* \"#utility.yul\":18393:18759   */\n    tag_404:\n        /* \"#utility.yul\":18535:18538   */\n      0x00\n        /* \"#utility.yul\":18556:18623   */\n      tag_626\n        /* \"#utility.yul\":18620:18622   */\n      0x16\n        /* \"#utility.yul\":18615:18618   */\n      dup4\n        /* \"#utility.yul\":18556:18623   */\n      tag_353\n      jump\t// in\n    tag_626:\n        /* \"#utility.yul\":18549:18623   */\n      swap2\n      pop\n        /* \"#utility.yul\":18632:18725   */\n      tag_627\n        /* \"#utility.yul\":18721:18724   */\n      dup3\n        /* \"#utility.yul\":18632:18725   */\n      tag_403\n      jump\t// in\n    tag_627:\n        /* \"#utility.yul\":18750:18752   */\n      0x20\n        /* \"#utility.yul\":18745:18748   */\n      dup3\n        /* \"#utility.yul\":18741:18753   */\n      add\n        /* \"#utility.yul\":18734:18753   */\n      swap1\n      pop\n        /* \"#utility.yul\":18393:18759   */\n      swap2\n      swap1\n      pop\n      jump\t// out\n        /* \"#utility.yul\":18765:19184   */\n    tag_106:\n        /* \"#utility.yul\":18931:18935   */\n      0x00\n        /* \"#utility.yul\":18969:18971   */\n      0x20\n        /* \"#utility.yul\":18958:18967   */\n      dup3\n        /* \"#utility.yul\":18954:18972   */\n      add\n        /* \"#utility.yul\":18946:18972   */\n      swap1\n      pop\n        /* \"#utility.yul\":19018:19027   */\n      dup2\n        /* \"#utility.yul\":19012:19016   */\n      dup2\n        /* \"#utility.yul\":19008:19028   */\n      sub\n        /* \"#utility.yul\":19004:19005   */\n      0x00\n        /* \"#utility.yul\":18993:19002   */\n      dup4\n        /* \"#utility.yul\":18989:19006   */\n      add\n        /* \"#utility.yul\":18982:19029   */\n      mstore\n        /* \"#utility.yul\":19046:19177   */\n      tag_629\n        /* \"#utility.yul\":19172:19176   */\n      dup2\n        /* \"#utility.yul\":19046:19177   */\n      tag_404\n      jump\t// in\n    tag_629:\n        /* \"#utility.yul\":19038:19177   */\n      swap1\n      pop\n        /* \"#utility.yul\":18765:19184   */\n      swap2\n      swap1\n      pop\n      jump\t// out\n        /* \"#utility.yul\":19190:19416   */\n    tag_405:\n        /* \"#utility.yul\":19330:19364   */\n      0x4f6e6c792063757272656e74206f776e65722063616e20636f6e6669726d2074\n        /* \"#utility.yul\":19326:19327   */\n      0x00\n        /* \"#utility.yul\":19318:19324   */\n      dup3\n        /* \"#utility.yul\":19314:19328   */\n      add\n        /* \"#utility.yul\":19307:19365   */\n      mstore\n        /* \"#utility.yul\":19399:19408   */\n      0x72616e7366657200000000000000000000000000000000000000000000000000\n        /* \"#utility.yul\":19394:19396   */\n      0x20\n        /* \"#utility.yul\":19386:19392   */\n      dup3\n        /* \"#utility.yul\":19382:19397   */\n      add\n        /* \"#utility.yul\":19375:19409   */\n      mstore\n        /* \"#utility.yul\":19190:19416   */\n      pop\n      jump\t// out\n        /* \"#utility.yul\":19422:19788   */\n    tag_406:\n        /* \"#utility.yul\":19564:19567   */\n      0x00\n        /* \"#utility.yul\":19585:19652   */\n      tag_632\n        /* \"#utility.yul\":19649:19651   */\n      0x27\n        /* \"#utility.yul\":19644:19647   */\n      dup4\n        /* \"#utility.yul\":19585:19652   */\n      tag_353\n      jump\t// in\n    tag_632:\n        /* \"#utility.yul\":19578:19652   */\n      swap2\n      pop\n        /* \"#utility.yul\":19661:19754   */\n      tag_633\n        /* \"#utility.yul\":19750:19753   */\n      dup3\n        /* \"#utility.yul\":19661:19754   */\n      tag_405\n      jump\t// in\n    tag_633:\n        /* \"#utility.yul\":19779:19781   */\n      0x40\n        /* \"#utility.yul\":19774:19777   */\n      dup3\n        /* \"#utility.yul\":19770:19782   */\n      add\n        /* \"#utility.yul\":19763:19782   */\n      swap1\n      pop\n        /* \"#utility.yul\":19422:19788   */\n      swap2\n      swap1\n      pop\n      jump\t// out\n        /* \"#utility.yul\":19794:20213   */\n    tag_109:\n        /* \"#utility.yul\":19960:19964   */\n      0x00\n        /* \"#utility.yul\":19998:20000   */\n      0x20\n        /* \"#utility.yul\":19987:19996   */\n      dup3\n        /* \"#utility.yul\":19983:20001   */\n      add\n        /* \"#utility.yul\":19975:20001   */\n      swap1\n      pop\n        /* \"#utility.yul\":20047:20056   */\n      dup2\n        /* \"#utility.yul\":20041:20045   */\n      dup2\n        /* \"#utility.yul\":20037:20057   */\n      sub\n        /* \"#utility.yul\":20033:20034   */\n      0x00\n        /* \"#utility.yul\":20022:20031   */\n      dup4\n        /* \"#utility.yul\":20018:20035   */\n      add\n        /* \"#utility.yul\":20011:20058   */\n      mstore\n        /* \"#utility.yul\":20075:20206   */\n      tag_635\n        /* \"#utility.yul\":20201:20205   */\n      dup2\n        /* \"#utility.yul\":20075:20206   */\n      tag_406\n      jump\t// in\n    tag_635:\n        /* \"#utility.yul\":20067:20206   */\n      swap1\n      pop\n        /* \"#utility.yul\":19794:20213   */\n      swap2\n      swap1\n      pop\n      jump\t// out\n        /* \"#utility.yul\":20219:20661   */\n    tag_114:\n        /* \"#utility.yul\":20368:20372   */\n      0x00\n        /* \"#utility.yul\":20406:20408   */\n      0x60\n        /* \"#utility.yul\":20395:20404   */\n      dup3\n        /* \"#utility.yul\":20391:20409   */\n      add\n        /* \"#utility.yul\":20383:20409   */\n      swap1\n      pop\n        /* \"#utility.yul\":20419:20490   */\n      tag_637\n        /* \"#utility.yul\":20487:20488   */\n      0x00\n        /* \"#utility.yul\":20476:20485   */\n      dup4\n        /* \"#utility.yul\":20472:20489   */\n      add\n        /* \"#utility.yul\":20463:20469   */\n      dup7\n        /* \"#utility.yul\":20419:20490   */\n      tag_370\n      jump\t// in\n    tag_637:\n        /* \"#utility.yul\":20500:20572   */\n      tag_638\n        /* \"#utility.yul\":20568:20570   */\n      0x20\n        /* \"#utility.yul\":20557:20566   */\n      dup4\n        /* \"#utility.yul\":20553:20571   */\n      add\n        /* \"#utility.yul\":20544:20550   */\n      dup6\n        /* \"#utility.yul\":20500:20572   */\n      tag_392\n      jump\t// in\n    tag_638:\n        /* \"#utility.yul\":20582:20654   */\n      tag_639\n        /* \"#utility.yul\":20650:20652   */\n      0x40\n        /* \"#utility.yul\":20639:20648   */\n      dup4\n        /* \"#utility.yul\":20635:20653   */\n      add\n        /* \"#utility.yul\":20626:20632   */\n      dup5\n        /* \"#utility.yul\":20582:20654   */\n      tag_392\n      jump\t// in\n    tag_639:\n        /* \"#utility.yul\":20219:20661   */\n      swap5\n      swap4\n      pop\n      pop\n      pop\n      pop\n      jump\t// out\n        /* \"#utility.yul\":20667:20891   */\n    tag_407:\n        /* \"#utility.yul\":20807:20841   */\n      0x4163636573732064656e6965643a2077726f6e6720726f6c6520666f72207072\n        /* \"#utility.yul\":20803:20804   */\n      0x00\n        /* \"#utility.yul\":20795:20801   */\n      dup3\n        /* \"#utility.yul\":20791:20805   */\n      add\n        /* \"#utility.yul\":20784:20842   */\n      mstore\n        /* \"#utility.yul\":20876:20883   */\n      0x6f64756374000000000000000000000000000000000000000000000000000000\n        /* \"#utility.yul\":20871:20873   */\n      0x20\n        /* \"#utility.yul\":20863:20869   */\n      dup3\n        /* \"#utility.yul\":20859:20874   */\n      add\n        /* \"#utility.yul\":20852:20884   */\n      mstore\n        /* \"#utility.yul\":20667:20891   */\n      pop\n      jump\t// out\n        /* \"#utility.yul\":20897:21263   */\n    tag_408:\n        /* \"#utility.yul\":21039:21042   */\n      0x00\n        /* \"#utility.yul\":21060:21127   */\n      tag_642\n        /* \"#utility.yul\":21124:21126   */\n      0x25\n        /* \"#utility.yul\":21119:21122   */\n      dup4\n        /* \"#utility.yul\":21060:21127   */\n      tag_353\n      jump\t// in\n    tag_642:\n        /* \"#utility.yul\":21053:21127   */\n      swap2\n      pop\n        /* \"#utility.yul\":21136:21229   */\n      tag_643\n        /* \"#utility.yul\":21225:21228   */\n      dup3\n        /* \"#utility.yul\":21136:21229   */\n      tag_407\n      jump\t// in\n    tag_643:\n        /* \"#utility.yul\":21254:21256   */\n      0x40\n        /* \"#utility.yul\":21249:21252   */\n      dup3\n        /* \"#utility.yul\":21245:21257   */\n      add\n        /* \"#utility.yul\":21238:21257   */\n      swap1\n      pop\n        /* \"#utility.yul\":20897:21263   */\n      swap2\n      swap1\n      pop\n      jump\t// out\n        /* \"#utility.yul\":21269:21688   */\n    tag_122:\n        /* \"#utility.yul\":21435:21439   */\n      0x00\n        /* \"#utility.yul\":21473:21475   */\n      0x20\n        /* \"#utility.yul\":21462:21471   */\n      dup3\n        /* \"#utility.yul\":21458:21476   */\n      add\n        /* \"#utility.yul\":21450:21476   */\n      swap1\n      pop\n        /* \"#utility.yul\":21522:21531   */\n      dup2\n        /* \"#utility.yul\":21516:21520   */\n      dup2\n        /* \"#utility.yul\":21512:21532   */\n      sub\n        /* \"#utility.yul\":21508:21509   */\n      0x00\n        /* \"#utility.yul\":21497:21506   */\n      dup4\n        /* \"#utility.yul\":21493:21510   */\n      add\n        /* \"#utility.yul\":21486:21533   */\n      mstore\n        /* \"#utility.yul\":21550:21681   */\n      tag_645\n        /* \"#utility.yul\":21676:21680   */\n      dup2\n        /* \"#utility.yul\":21550:21681   */\n      tag_408\n      jump\t// in\n    tag_645:\n        /* \"#utility.yul\":21542:21681   */\n      swap1\n      pop\n        /* \"#utility.yul\":21269:21688   */\n      swap2\n      swap1\n      pop\n      jump\t// out\n        /* \"#utility.yul\":21694:21870   */\n    tag_409:\n        /* \"#utility.yul\":21834:21862   */\n      0x596f7520646f6e2774206f776e20746869732070726f64756374000000000000\n        /* \"#utility.yul\":21830:21831   */\n      0x00\n        /* \"#utility.yul\":21822:21828   */\n      dup3\n        /* \"#utility.yul\":21818:21832   */\n      add\n        /* \"#utility.yul\":21811:21863   */\n      mstore\n        /* \"#utility.yul\":21694:21870   */\n      pop\n      jump\t// out\n        /* \"#utility.yul\":21876:22242   */\n    tag_410:\n        /* \"#utility.yul\":22018:22021   */\n      0x00\n        /* \"#utility.yul\":22039:22106   */\n      tag_648\n        /* \"#utility.yul\":22103:22105   */\n      0x1a\n        /* \"#utility.yul\":22098:22101   */\n      dup4\n        /* \"#utility.yul\":22039:22106   */\n      tag_353\n      jump\t// in\n    tag_648:\n        /* \"#utility.yul\":22032:22106   */\n      swap2\n      pop\n        /* \"#utility.yul\":22115:22208   */\n      tag_649\n        /* \"#utility.yul\":22204:22207   */\n      dup3\n        /* \"#utility.yul\":22115:22208   */\n      tag_409\n      jump\t// in\n    tag_649:\n        /* \"#utility.yul\":22233:22235   */\n      0x20\n        /* \"#utility.yul\":22228:22231   */\n      dup3\n        /* \"#utility.yul\":22224:22236   */\n      add\n        /* \"#utility.yul\":22217:22236   */\n      swap1\n      pop\n        /* \"#utility.yul\":21876:22242   */\n      swap2\n      swap1\n      pop\n      jump\t// out\n        /* \"#utility.yul\":22248:22667   */\n    tag_128:\n        /* \"#utility.yul\":22414:22418   */\n      0x00\n        /* \"#utility.yul\":22452:22454   */\n      0x20\n        /* \"#utility.yul\":22441:22450   */\n      dup3\n        /* \"#utility.yul\":22437:22455   */\n      add\n        /* \"#utility.yul\":22429:22455   */\n      swap1\n      pop\n        /* \"#utility.yul\":22501:22510   */\n      dup2\n        /* \"#utility.yul\":22495:22499   */\n      dup2\n        /* \"#utility.yul\":22491:22511   */\n      sub\n        /* \"#utility.yul\":22487:22488   */\n      0x00\n        /* \"#utility.yul\":22476:22485   */\n      dup4\n        /* \"#utility.yul\":22472:22489   */\n      add\n        /* \"#utility.yul\":22465:22512   */\n      mstore\n        /* \"#utility.yul\":22529:22660   */\n      tag_651\n        /* \"#utility.yul\":22655:22659   */\n      dup2\n        /* \"#utility.yul\":22529:22660   */\n      tag_410\n      jump\t// in\n    tag_651:\n        /* \"#utility.yul\":22521:22660   */\n      swap1\n      pop\n        /* \"#utility.yul\":22248:22667   */\n      swap2\n      swap1\n      pop\n      jump\t// out\n        /* \"#utility.yul\":22673:23297   */\n    tag_136:\n        /* \"#utility.yul\":22862:22866   */\n      0x00\n        /* \"#utility.yul\":22900:22902   */\n      0x60\n        /* \"#utility.yul\":22889:22898   */\n      dup3\n        /* \"#utility.yul\":22885:22903   */\n      add\n        /* \"#utility.yul\":22877:22903   */\n      swap1\n      pop\n        /* \"#utility.yul\":22913:22984   */\n      tag_653\n        /* \"#utility.yul\":22981:22982   */\n      0x00\n        /* \"#utility.yul\":22970:22979   */\n      dup4\n        /* \"#utility.yul\":22966:22983   */\n      add\n        /* \"#utility.yul\":22957:22963   */\n      dup7\n        /* \"#utility.yul\":22913:22984   */\n      tag_370\n      jump\t// in\n    tag_653:\n        /* \"#utility.yul\":23031:23040   */\n      dup2\n        /* \"#utility.yul\":23025:23029   */\n      dup2\n        /* \"#utility.yul\":23021:23041   */\n      sub\n        /* \"#utility.yul\":23016:23018   */\n      0x20\n        /* \"#utility.yul\":23005:23014   */\n      dup4\n        /* \"#utility.yul\":23001:23019   */\n      add\n        /* \"#utility.yul\":22994:23042   */\n      mstore\n        /* \"#utility.yul\":23059:23137   */\n      tag_654\n        /* \"#utility.yul\":23132:23136   */\n      dup2\n        /* \"#utility.yul\":23123:23129   */\n      dup6\n        /* \"#utility.yul\":23059:23137   */\n      tag_356\n      jump\t// in\n    tag_654:\n        /* \"#utility.yul\":23051:23137   */\n      swap1\n      pop\n        /* \"#utility.yul\":23184:23193   */\n      dup2\n        /* \"#utility.yul\":23178:23182   */\n      dup2\n        /* \"#utility.yul\":23174:23194   */\n      sub\n        /* \"#utility.yul\":23169:23171   */\n      0x40\n        /* \"#utility.yul\":23158:23167   */\n      dup4\n        /* \"#utility.yul\":23154:23172   */\n      add\n        /* \"#utility.yul\":23147:23195   */\n      mstore\n        /* \"#utility.yul\":23212:23290   */\n      tag_655\n        /* \"#utility.yul\":23285:23289   */\n      dup2\n        /* \"#utility.yul\":23276:23282   */\n      dup5\n        /* \"#utility.yul\":23212:23290   */\n      tag_356\n      jump\t// in\n    tag_655:\n        /* \"#utility.yul\":23204:23290   */\n      swap1\n      pop\n        /* \"#utility.yul\":22673:23297   */\n      swap5\n      swap4\n      pop\n      pop\n      pop\n      pop\n      jump\t// out\n        /* \"#utility.yul\":23303:23485   */\n    tag_411:\n        /* \"#utility.yul\":23443:23477   */\n      0x4f6e6c79206f776e65722063616e20696e697469617465207472616e73666572\n        /* \"#utility.yul\":23439:23440   */\n      0x00\n        /* \"#utility.yul\":23431:23437   */\n      dup3\n        /* \"#utility.yul\":23427:23441   */\n      add\n        /* \"#utility.yul\":23420:23478   */\n      mstore\n        /* \"#utility.yul\":23303:23485   */\n      pop\n      jump\t// out\n        /* \"#utility.yul\":23491:23857   */\n    tag_412:\n        /* \"#utility.yul\":23633:23636   */\n      0x00\n        /* \"#utility.yul\":23654:23721   */\n      tag_658\n        /* \"#utility.yul\":23718:23720   */\n      0x20\n        /* \"#utility.yul\":23713:23716   */\n      dup4\n        /* \"#utility.yul\":23654:23721   */\n      tag_353\n      jump\t// in\n    tag_658:\n        /* \"#utility.yul\":23647:23721   */\n      swap2\n      pop\n        /* \"#utility.yul\":23730:23823   */\n      tag_659\n        /* \"#utility.yul\":23819:23822   */\n      dup3\n        /* \"#utility.yul\":23730:23823   */\n      tag_411\n      jump\t// in\n    tag_659:\n        /* \"#utility.yul\":23848:23850   */\n      0x20\n        /* \"#utility.yul\":23843:23846   */\n      dup3\n        /* \"#utility.yul\":23839:23851   */\n      add\n        /* \"#utility.yul\":23832:23851   */\n      swap1\n      pop\n        /* \"#utility.yul\":23491:23857   */\n      swap2\n      swap1\n      pop\n      jump\t// out\n        /* \"#utility.yul\":23863:24282   */\n    tag_142:\n        /* \"#utility.yul\":24029:24033   */\n      0x00\n        /* \"#utility.yul\":24067:24069   */\n      0x20\n        /* \"#utility.yul\":24056:24065   */\n      dup3\n        /* \"#utility.yul\":24052:24070   */\n      add\n        /* \"#utility.yul\":24044:24070   */\n      swap1\n      pop\n        /* \"#utility.yul\":24116:24125   */\n      dup2\n        /* \"#utility.yul\":24110:24114   */\n      dup2\n        /* \"#utility.yul\":24106:24126   */\n      sub\n        /* \"#utility.yul\":24102:24103   */\n      0x00\n        /* \"#utility.yul\":24091:24100   */\n      dup4\n        /* \"#utility.yul\":24087:24104   */\n      add\n        /* \"#utility.yul\":24080:24127   */\n      mstore\n        /* \"#utility.yul\":24144:24275   */\n      tag_661\n        /* \"#utility.yul\":24270:24274   */\n      dup2\n        /* \"#utility.yul\":24144:24275   */\n      tag_412\n      jump\t// in\n    tag_661:\n        /* \"#utility.yul\":24136:24275   */\n      swap1\n      pop\n        /* \"#utility.yul\":23863:24282   */\n      swap2\n      swap1\n      pop\n      jump\t// out\n        /* \"#utility.yul\":24288:24455   */\n    tag_413:\n        /* \"#utility.yul\":24428:24447   */\n      0x496e76616c696420726563697069656e74000000000000000000000000000000\n        /* \"#utility.yul\":24424:24425   */\n      0x00\n        /* \"#utility.yul\":24416:24422   */\n      dup3\n        /* \"#utility.yul\":24412:24426   */\n      add\n        /* \"#utility.yul\":24405:24448   */\n      mstore\n        /* \"#utility.yul\":24288:24455   */\n      pop\n      jump\t// out\n        /* \"#utility.yul\":24461:24827   */\n    tag_414:\n        /* \"#utility.yul\":24603:24606   */\n      0x00\n        /* \"#utility.yul\":24624:24691   */\n      tag_664\n        /* \"#utility.yul\":24688:24690   */\n      0x11\n        /* \"#utility.yul\":24683:24686   */\n      dup4\n        /* \"#utility.yul\":24624:24691   */\n      tag_353\n      jump\t// in\n    tag_664:\n        /* \"#utility.yul\":24617:24691   */\n      swap2\n      pop\n        /* \"#utility.yul\":24700:24793   */\n      tag_665\n        /* \"#utility.yul\":24789:24792   */\n      dup3\n        /* \"#utility.yul\":24700:24793   */\n      tag_413\n      jump\t// in\n    tag_665:\n        /* \"#utility.yul\":24818:24820   */\n      0x20\n        /* \"#utility.yul\":24813:24816   */\n      dup3\n        /* \"#utility.yul\":24809:24821   */\n      add\n        /* \"#utility.yul\":24802:24821   */\n      swap1\n      pop\n        /* \"#utility.yul\":24461:24827   */\n      swap2\n      swap1\n      pop\n      jump\t// out\n        /* \"#utility.yul\":24833:25252   */\n    tag_145:\n        /* \"#utility.yul\":24999:25003   */\n      0x00\n        /* \"#utility.yul\":25037:25039   */\n      0x20\n        /* \"#utility.yul\":25026:25035   */\n      dup3\n        /* \"#utility.yul\":25022:25040   */\n      add\n        /* \"#utility.yul\":25014:25040   */\n      swap1\n      pop\n        /* \"#utility.yul\":25086:25095   */\n      dup2\n        /* \"#utility.yul\":25080:25084   */\n      dup2\n        /* \"#utility.yul\":25076:25096   */\n      sub\n        /* \"#utility.yul\":25072:25073   */\n      0x00\n        /* \"#utility.yul\":25061:25070   */\n      dup4\n        /* \"#utility.yul\":25057:25074   */\n      add\n        /* \"#utility.yul\":25050:25097   */\n      mstore\n        /* \"#utility.yul\":25114:25245   */\n      tag_667\n        /* \"#utility.yul\":25240:25244   */\n      dup2\n        /* \"#utility.yul\":25114:25245   */\n      tag_414\n      jump\t// in\n    tag_667:\n        /* \"#utility.yul\":25106:25245   */\n      swap1\n      pop\n        /* \"#utility.yul\":24833:25252   */\n      swap2\n      swap1\n      pop\n      jump\t// out\n        /* \"#utility.yul\":25258:25437   */\n    tag_415:\n        /* \"#utility.yul\":25398:25429   */\n      0x4d757374207472616e7366657220746f204d616e756661637475726572000000\n        /* \"#utility.yul\":25394:25395   */\n      0x00\n        /* \"#utility.yul\":25386:25392   */\n      dup3\n        /* \"#utility.yul\":25382:25396   */\n      add\n        /* \"#utility.yul\":25375:25430   */\n      mstore\n        /* \"#utility.yul\":25258:25437   */\n      pop\n      jump\t// out\n        /* \"#utility.yul\":25443:25809   */\n    tag_416:\n        /* \"#utility.yul\":25585:25588   */\n      0x00\n        /* \"#utility.yul\":25606:25673   */\n      tag_670\n        /* \"#utility.yul\":25670:25672   */\n      0x1d\n        /* \"#utility.yul\":25665:25668   */\n      dup4\n        /* \"#utility.yul\":25606:25673   */\n      tag_353\n      jump\t// in\n    tag_670:\n        /* \"#utility.yul\":25599:25673   */\n      swap2\n      pop\n        /* \"#utility.yul\":25682:25775   */\n      tag_671\n        /* \"#utility.yul\":25771:25774   */\n      dup3\n        /* \"#utility.yul\":25682:25775   */\n      tag_415\n      jump\t// in\n    tag_671:\n        /* \"#utility.yul\":25800:25802   */\n      0x20\n        /* \"#utility.yul\":25795:25798   */\n      dup3\n        /* \"#utility.yul\":25791:25803   */\n      add\n        /* \"#utility.yul\":25784:25803   */\n      swap1\n      pop\n        /* \"#utility.yul\":25443:25809   */\n      swap2\n      swap1\n      pop\n      jump\t// out\n        /* \"#utility.yul\":25815:26234   */\n    tag_157:\n        /* \"#utility.yul\":25981:25985   */\n      0x00\n        /* \"#utility.yul\":26019:26021   */\n      0x20\n        /* \"#utility.yul\":26008:26017   */\n      dup3\n        /* \"#utility.yul\":26004:26022   */\n      add\n        /* \"#utility.yul\":25996:26022   */\n      swap1\n      pop\n        /* \"#utility.yul\":26068:26077   */\n      dup2\n        /* \"#utility.yul\":26062:26066   */\n      dup2\n        /* \"#utility.yul\":26058:26078   */\n      sub\n        /* \"#utility.yul\":26054:26055   */\n      0x00\n        /* \"#utility.yul\":26043:26052   */\n      dup4\n        /* \"#utility.yul\":26039:26056   */\n      add\n        /* \"#utility.yul\":26032:26079   */\n      mstore\n        /* \"#utility.yul\":26096:26227   */\n      tag_673\n        /* \"#utility.yul\":26222:26226   */\n      dup2\n        /* \"#utility.yul\":26096:26227   */\n      tag_416\n      jump\t// in\n    tag_673:\n        /* \"#utility.yul\":26088:26227   */\n      swap1\n      pop\n        /* \"#utility.yul\":25815:26234   */\n      swap2\n      swap1\n      pop\n      jump\t// out\n        /* \"#utility.yul\":26240:26415   */\n    tag_417:\n        /* \"#utility.yul\":26380:26407   */\n      0x4d757374207472616e7366657220746f2052657461696c657200000000000000\n        /* \"#utility.yul\":26376:26377   */\n      0x00\n        /* \"#utility.yul\":26368:26374   */\n      dup3\n        /* \"#utility.yul\":26364:26378   */\n      add\n        /* \"#utility.yul\":26357:26408   */\n      mstore\n        /* \"#utility.yul\":26240:26415   */\n      pop\n      jump\t// out\n        /* \"#utility.yul\":26421:26787   */\n    tag_418:\n        /* \"#utility.yul\":26563:26566   */\n      0x00\n        /* \"#utility.yul\":26584:26651   */\n      tag_676\n        /* \"#utility.yul\":26648:26650   */\n      0x19\n        /* \"#utility.yul\":26643:26646   */\n      dup4\n        /* \"#utility.yul\":26584:26651   */\n      tag_353\n      jump\t// in\n    tag_676:\n        /* \"#utility.yul\":26577:26651   */\n      swap2\n      pop\n        /* \"#utility.yul\":26660:26753   */\n      tag_677\n        /* \"#utility.yul\":26749:26752   */\n      dup3\n        /* \"#utility.yul\":26660:26753   */\n      tag_417\n      jump\t// in\n    tag_677:\n        /* \"#utility.yul\":26778:26780   */\n      0x20\n        /* \"#utility.yul\":26773:26776   */\n      dup3\n        /* \"#utility.yul\":26769:26781   */\n      add\n        /* \"#utility.yul\":26762:26781   */\n      swap1\n      pop\n        /* \"#utility.yul\":26421:26787   */\n      swap2\n      swap1\n      pop\n      jump\t// out\n        /* \"#utility.yul\":26793:27212   */\n    tag_170:\n        /* \"#utility.yul\":26959:26963   */\n      0x00\n        /* \"#utility.yul\":26997:26999   */\n      0x20\n        /* \"#utility.yul\":26986:26995   */\n      dup3\n        /* \"#utility.yul\":26982:27000   */\n      add\n        /* \"#utility.yul\":26974:27000   */\n      swap1\n      pop\n        /* \"#utility.yul\":27046:27055   */\n      dup2\n        /* \"#utility.yul\":27040:27044   */\n      dup2\n        /* \"#utility.yul\":27036:27056   */\n      sub\n        /* \"#utility.yul\":27032:27033   */\n      0x00\n        /* \"#utility.yul\":27021:27030   */\n      dup4\n        /* \"#utility.yul\":27017:27034   */\n      add\n        /* \"#utility.yul\":27010:27057   */\n      mstore\n        /* \"#utility.yul\":27074:27205   */\n      tag_679\n        /* \"#utility.yul\":27200:27204   */\n      dup2\n        /* \"#utility.yul\":27074:27205   */\n      tag_418\n      jump\t// in\n    tag_679:\n        /* \"#utility.yul\":27066:27205   */\n      swap1\n      pop\n        /* \"#utility.yul\":26793:27212   */\n      swap2\n      swap1\n      pop\n      jump\t// out\n        /* \"#utility.yul\":27218:27393   */\n    tag_419:\n        /* \"#utility.yul\":27358:27385   */\n      0x4d757374207472616e7366657220746f20436f6e73756d657200000000000000\n        /* \"#utility.yul\":27354:27355   */\n      0x00\n        /* \"#utility.yul\":27346:27352   */\n      dup3\n        /* \"#utility.yul\":27342:27356   */\n      add\n        /* \"#utility.yul\":27335:27386   */\n      mstore\n        /* \"#utility.yul\":27218:27393   */\n      pop\n      jump\t// out\n        /* \"#utility.yul\":27399:27765   */\n    tag_420:\n        /* \"#utility.yul\":27541:27544   */\n      0x00\n        /* \"#utility.yul\":27562:27629   */\n      tag_682\n        /* \"#utility.yul\":27626:27628   */\n      0x19\n        /* \"#utility.yul\":27621:27624   */\n      dup4\n        /* \"#utility.yul\":27562:27629   */\n      tag_353\n      jump\t// in\n    tag_682:\n        /* \"#utility.yul\":27555:27629   */\n      swap2\n      pop\n        /* \"#utility.yul\":27638:27731   */\n      tag_683\n        /* \"#utility.yul\":27727:27730   */\n      dup3\n        /* \"#utility.yul\":27638:27731   */\n      tag_419\n      jump\t// in\n    tag_683:\n        /* \"#utility.yul\":27756:27758   */\n      0x20\n        /* \"#utility.yul\":27751:27754   */\n      dup3\n        /* \"#utility.yul\":27747:27759   */\n      add\n        /* \"#utility.yul\":27740:27759   */\n      swap1\n      pop\n        /* \"#utility.yul\":27399:27765   */\n      swap2\n      swap1\n      pop\n      jump\t// out\n        /* \"#utility.yul\":27771:28190   */\n    tag_183:\n        /* \"#utility.yul\":27937:27941   */\n      0x00\n        /* \"#utility.yul\":27975:27977   */\n      0x20\n        /* \"#utility.yul\":27964:27973   */\n      dup3\n        /* \"#utility.yul\":27960:27978   */\n      add\n        /* \"#utility.yul\":27952:27978   */\n      swap1\n      pop\n        /* \"#utility.yul\":28024:28033   */\n      dup2\n        /* \"#utility.yul\":28018:28022   */\n      dup2\n        /* \"#utility.yul\":28014:28034   */\n      sub\n        /* \"#utility.yul\":28010:28011   */\n      0x00\n        /* \"#utility.yul\":27999:28008   */\n      dup4\n        /* \"#utility.yul\":27995:28012   */\n      add\n        /* \"#utility.yul\":27988:28035   */\n      mstore\n        /* \"#utility.yul\":28052:28183   */\n      tag_685\n        /* \"#utility.yul\":28178:28182   */\n      dup2\n        /* \"#utility.yul\":28052:28183   */\n      tag_420\n      jump\t// in\n    tag_685:\n        /* \"#utility.yul\":28044:28183   */\n      swap1\n      pop\n        /* \"#utility.yul\":27771:28190   */\n      swap2\n      swap1\n      pop\n      jump\t// out\n        /* \"#utility.yul\":28196:28403   */\n    tag_421:\n        /* \"#utility.yul\":28365:28396   */\n      0x5472616e73666572206e6f7420616c6c6f776564206265747765656e20000000\n        /* \"#utility.yul\":28360:28363   */\n      dup2\n        /* \"#utility.yul\":28353:28397   */\n      mstore\n        /* \"#utility.yul\":28196:28403   */\n      pop\n      jump\t// out\n        /* \"#utility.yul\":28409:28557   */\n    tag_422:\n        /* \"#utility.yul\":28511:28522   */\n      0x00\n        /* \"#utility.yul\":28548:28551   */\n      dup2\n        /* \"#utility.yul\":28533:28551   */\n      swap1\n      pop\n        /* \"#utility.yul\":28409:28557   */\n      swap3\n      swap2\n      pop\n      pop\n      jump\t// out\n        /* \"#utility.yul\":28563:28940   */\n    tag_423:\n        /* \"#utility.yul\":28669:28672   */\n      0x00\n        /* \"#utility.yul\":28697:28736   */\n      tag_689\n        /* \"#utility.yul\":28730:28735   */\n      dup3\n        /* \"#utility.yul\":28697:28736   */\n      tag_352\n      jump\t// in\n    tag_689:\n        /* \"#utility.yul\":28752:28841   */\n      tag_690\n        /* \"#utility.yul\":28834:28840   */\n      dup2\n        /* \"#utility.yul\":28829:28832   */\n      dup6\n        /* \"#utility.yul\":28752:28841   */\n      tag_422\n      jump\t// in\n    tag_690:\n        /* \"#utility.yul\":28745:28841   */\n      swap4\n      pop\n        /* \"#utility.yul\":28850:28902   */\n      tag_691\n        /* \"#utility.yul\":28895:28901   */\n      dup2\n        /* \"#utility.yul\":28890:28893   */\n      dup6\n        /* \"#utility.yul\":28883:28887   */\n      0x20\n        /* \"#utility.yul\":28876:28881   */\n      dup7\n        /* \"#utility.yul\":28872:28888   */\n      add\n        /* \"#utility.yul\":28850:28902   */\n      tag_354\n      jump\t// in\n    tag_691:\n        /* \"#utility.yul\":28927:28933   */\n      dup1\n        /* \"#utility.yul\":28922:28925   */\n      dup5\n        /* \"#utility.yul\":28918:28934   */\n      add\n        /* \"#utility.yul\":28911:28934   */\n      swap2\n      pop\n        /* \"#utility.yul\":28673:28940   */\n      pop\n        /* \"#utility.yul\":28563:28940   */\n      swap3\n      swap2\n      pop\n      pop\n      jump\t// out\n        /* \"#utility.yul\":28946:29128   */\n    tag_424:\n        /* \"#utility.yul\":29114:29121   */\n      0x20616e6420000000000000000000000000000000000000000000000000000000\n        /* \"#utility.yul\":29109:29112   */\n      dup2\n        /* \"#utility.yul\":29102:29122   */\n      mstore\n        /* \"#utility.yul\":28946:29128   */\n      pop\n      jump\t// out\n        /* \"#utility.yul\":29134:30100   */\n    tag_189:\n        /* \"#utility.yul\":29495:29498   */\n      0x00\n        /* \"#utility.yul\":29510:29648   */\n      tag_694\n        /* \"#utility.yul\":29644:29647   */\n      dup3\n        /* \"#utility.yul\":29510:29648   */\n      tag_421\n      jump\t// in\n    tag_694:\n        /* \"#utility.yul\":29673:29675   */\n      0x1d\n        /* \"#utility.yul\":29668:29671   */\n      dup3\n        /* \"#utility.yul\":29664:29676   */\n      add\n        /* \"#utility.yul\":29657:29676   */\n      swap2\n      pop\n        /* \"#utility.yul\":29693:29788   */\n      tag_695\n        /* \"#utility.yul\":29784:29787   */\n      dup3\n        /* \"#utility.yul\":29775:29781   */\n      dup6\n        /* \"#utility.yul\":29693:29788   */\n      tag_423\n      jump\t// in\n    tag_695:\n        /* \"#utility.yul\":29686:29788   */\n      swap2\n      pop\n        /* \"#utility.yul\":29798:29935   */\n      tag_696\n        /* \"#utility.yul\":29931:29934   */\n      dup3\n        /* \"#utility.yul\":29798:29935   */\n      tag_424\n      jump\t// in\n    tag_696:\n        /* \"#utility.yul\":29960:29961   */\n      0x05\n        /* \"#utility.yul\":29955:29958   */\n      dup3\n        /* \"#utility.yul\":29951:29962   */\n      add\n        /* \"#utility.yul\":29944:29962   */\n      swap2\n      pop\n        /* \"#utility.yul\":29979:30074   */\n      tag_697\n        /* \"#utility.yul\":30070:30073   */\n      dup3\n        /* \"#utility.yul\":30061:30067   */\n      dup5\n        /* \"#utility.yul\":29979:30074   */\n      tag_423\n      jump\t// in\n    tag_697:\n        /* \"#utility.yul\":29972:30074   */\n      swap2\n      pop\n        /* \"#utility.yul\":30091:30094   */\n      dup2\n        /* \"#utility.yul\":30084:30094   */\n      swap1\n      pop\n        /* \"#utility.yul\":29134:30100   */\n      swap4\n      swap3\n      pop\n      pop\n      pop\n      jump\t// out\n        /* \"#utility.yul\":30106:30286   */\n    tag_425:\n        /* \"#utility.yul\":30154:30231   */\n      0x4e487b7100000000000000000000000000000000000000000000000000000000\n        /* \"#utility.yul\":30151:30152   */\n      0x00\n        /* \"#utility.yul\":30144:30232   */\n      mstore\n        /* \"#utility.yul\":30251:30255   */\n      0x22\n        /* \"#utility.yul\":30248:30249   */\n      0x04\n        /* \"#utility.yul\":30241:30256   */\n      mstore\n        /* \"#utility.yul\":30275:30279   */\n      0x24\n        /* \"#utility.yul\":30272:30273   */\n      0x00\n        /* \"#utility.yul\":30265:30280   */\n      revert\n        /* \"#utility.yul\":30292:30612   */\n    tag_203:\n        /* \"#utility.yul\":30336:30342   */\n      0x00\n        /* \"#utility.yul\":30373:30374   */\n      0x02\n        /* \"#utility.yul\":30367:30371   */\n      dup3\n        /* \"#utility.yul\":30363:30375   */\n      div\n        /* \"#utility.yul\":30353:30375   */\n      swap1\n      pop\n        /* \"#utility.yul\":30420:30421   */\n      0x01\n        /* \"#utility.yul\":30414:30418   */\n      dup3\n        /* \"#utility.yul\":30410:30422   */\n      and\n        /* \"#utility.yul\":30441:30459   */\n      dup1\n        /* \"#utility.yul\":30431:30512   */\n      tag_700\n      jumpi\n        /* \"#utility.yul\":30497:30501   */\n      0x7f\n        /* \"#utility.yul\":30489:30495   */\n      dup3\n        /* \"#utility.yul\":30485:30502   */\n      and\n        /* \"#utility.yul\":30475:30502   */\n      swap2\n      pop\n        /* \"#utility.yul\":30431:30512   */\n    tag_700:\n        /* \"#utility.yul\":30559:30561   */\n      0x20\n        /* \"#utility.yul\":30551:30557   */\n      dup3\n        /* \"#utility.yul\":30548:30562   */\n      lt\n        /* \"#utility.yul\":30528:30546   */\n      dup2\n        /* \"#utility.yul\":30525:30563   */\n      eq\n        /* \"#utility.yul\":30522:30606   */\n      iszero\n      tag_701\n      jumpi\n        /* \"#utility.yul\":30578:30596   */\n      tag_702\n      tag_425\n      jump\t// in\n    tag_702:\n        /* \"#utility.yul\":30522:30606   */\n    tag_701:\n        /* \"#utility.yul\":30343:30612   */\n      pop\n        /* \"#utility.yul\":30292:30612   */\n      swap2\n      swap1\n      pop\n      jump\t// out\n        /* \"#utility.yul\":30618:30795   */\n    tag_426:\n        /* \"#utility.yul\":30758:30787   */\n      0x4f6e6c79206f776e65722063616e2061737369676e20726f6c65730000000000\n        /* \"#utility.yul\":30754:30755   */\n      0x00\n        /* \"#utility.yul\":30746:30752   */\n      dup3\n        /* \"#utility.yul\":30742:30756   */\n      add\n        /* \"#utility.yul\":30735:30788   */\n      mstore\n        /* \"#utility.yul\":30618:30795   */\n      pop\n      jump\t// out\n        /* \"#utility.yul\":30801:31167   */\n    tag_427:\n        /* \"#utility.yul\":30943:30946   */\n      0x00\n        /* \"#utility.yul\":30964:31031   */\n      tag_705\n        /* \"#utility.yul\":31028:31030   */\n      0x1b\n        /* \"#utility.yul\":31023:31026   */\n      dup4\n        /* \"#utility.yul\":30964:31031   */\n      tag_353\n      jump\t// in\n    tag_705:\n        /* \"#utility.yul\":30957:31031   */\n      swap2\n      pop\n        /* \"#utility.yul\":31040:31133   */\n      tag_706\n        /* \"#utility.yul\":31129:31132   */\n      dup3\n        /* \"#utility.yul\":31040:31133   */\n      tag_426\n      jump\t// in\n    tag_706:\n        /* \"#utility.yul\":31158:31160   */\n      0x20\n        /* \"#utility.yul\":31153:31156   */\n      dup3\n        /* \"#utility.yul\":31149:31161   */\n      add\n        /* \"#utility.yul\":31142:31161   */\n      swap1\n      pop\n        /* \"#utility.yul\":30801:31167   */\n      swap2\n      swap1\n      pop\n      jump\t// out\n        /* \"#utility.yul\":31173:31592   */\n    tag_252:\n        /* \"#utility.yul\":31339:31343   */\n      0x00\n        /* \"#utility.yul\":31377:31379   */\n      0x20\n        /* \"#utility.yul\":31366:31375   */\n      dup3\n        /* \"#utility.yul\":31362:31380   */\n      add\n        /* \"#utility.yul\":31354:31380   */\n      swap1\n      pop\n        /* \"#utility.yul\":31426:31435   */\n      dup2\n        /* \"#utility.yul\":31420:31424   */\n      dup2\n        /* \"#utility.yul\":31416:31436   */\n      sub\n        /* \"#utility.yul\":31412:31413   */\n      0x00\n        /* \"#utility.yul\":31401:31410   */\n      dup4\n        /* \"#utility.yul\":31397:31414   */\n      add\n        /* \"#utility.yul\":31390:31437   */\n      mstore\n        /* \"#utility.yul\":31454:31585   */\n      tag_708\n        /* \"#utility.yul\":31580:31584   */\n      dup2\n        /* \"#utility.yul\":31454:31585   */\n      tag_427\n      jump\t// in\n    tag_708:\n        /* \"#utility.yul\":31446:31585   */\n      swap1\n      pop\n        /* \"#utility.yul\":31173:31592   */\n      swap2\n      swap1\n      pop\n      jump\t// out\n        /* \"#utility.yul\":31598:31780   */\n    tag_428:\n        /* \"#utility.yul\":31738:31772   */\n      0x4f6e6c79206f776e65722063616e206c6f67206d616e75666163747572696e67\n        /* \"#utility.yul\":31734:31735   */\n      0x00\n        /* \"#utility.yul\":31726:31732   */\n      dup3\n        /* \"#utility.yul\":31722:31736   */\n      add\n        /* \"#utility.yul\":31715:31773   */\n      mstore\n        /* \"#utility.yul\":31598:31780   */\n      pop\n      jump\t// out\n        /* \"#utility.yul\":31786:32152   */\n    tag_429:\n        /* \"#utility.yul\":31928:31931   */\n      0x00\n        /* \"#utility.yul\":31949:32016   */\n      tag_711\n        /* \"#utility.yul\":32013:32015   */\n      0x20\n        /* \"#utility.yul\":32008:32011   */\n      dup4\n        /* \"#utility.yul\":31949:32016   */\n      tag_353\n      jump\t// in\n    tag_711:\n        /* \"#utility.yul\":31942:32016   */\n      swap2\n      pop\n        /* \"#utility.yul\":32025:32118   */\n      tag_712\n        /* \"#utility.yul\":32114:32117   */\n      dup3\n        /* \"#utility.yul\":32025:32118   */\n      tag_428\n      jump\t// in\n    tag_712:\n        /* \"#utility.yul\":32143:32145   */\n      0x20\n        /* \"#utility.yul\":32138:32141   */\n      dup3\n        /* \"#utility.yul\":32134:32146   */\n      add\n        /* \"#utility.yul\":32127:32146   */\n      swap1\n      pop\n        /* \"#utility.yul\":31786:32152   */\n      swap2\n      swap1\n      pop\n      jump\t// out\n        /* \"#utility.yul\":32158:32577   */\n    tag_273:\n        /* \"#utility.yul\":32324:32328   */\n      0x00\n        /* \"#utility.yul\":32362:32364   */\n      0x20\n        /* \"#utility.yul\":32351:32360   */\n      dup3\n        /* \"#utility.yul\":32347:32365   */\n      add\n        /* \"#utility.yul\":32339:32365   */\n      swap1\n      pop\n        /* \"#utility.yul\":32411:32420   */\n      dup2\n        /* \"#utility.yul\":32405:32409   */\n      dup2\n        /* \"#utility.yul\":32401:32421   */\n      sub\n        /* \"#utility.yul\":32397:32398   */\n      0x00\n        /* \"#utility.yul\":32386:32395   */\n      dup4\n        /* \"#utility.yul\":32382:32399   */\n      add\n        /* \"#utility.yul\":32375:32422   */\n      mstore\n        /* \"#utility.yul\":32439:32570   */\n      tag_714\n        /* \"#utility.yul\":32565:32569   */\n      dup2\n        /* \"#utility.yul\":32439:32570   */\n      tag_429\n      jump\t// in\n    tag_714:\n        /* \"#utility.yul\":32431:32570   */\n      swap1\n      pop\n        /* \"#utility.yul\":32158:32577   */\n      swap2\n      swap1\n      pop\n      jump\t// out\n        /* \"#utility.yul\":32583:33006   */\n    tag_278:\n        /* \"#utility.yul\":32724:32728   */\n      0x00\n        /* \"#utility.yul\":32762:32764   */\n      0x40\n        /* \"#utility.yul\":32751:32760   */\n      dup3\n        /* \"#utility.yul\":32747:32765   */\n      add\n        /* \"#utility.yul\":32739:32765   */\n      swap1\n      pop\n        /* \"#utility.yul\":32775:32846   */\n      tag_716\n        /* \"#utility.yul\":32843:32844   */\n      0x00\n        /* \"#utility.yul\":32832:32841   */\n      dup4\n        /* \"#utility.yul\":32828:32845   */\n      add\n        /* \"#utility.yul\":32819:32825   */\n      dup6\n        /* \"#utility.yul\":32775:32846   */\n      tag_370\n      jump\t// in\n    tag_716:\n        /* \"#utility.yul\":32893:32902   */\n      dup2\n        /* \"#utility.yul\":32887:32891   */\n      dup2\n        /* \"#utility.yul\":32883:32903   */\n      sub\n        /* \"#utility.yul\":32878:32880   */\n      0x20\n        /* \"#utility.yul\":32867:32876   */\n      dup4\n        /* \"#utility.yul\":32863:32881   */\n      add\n        /* \"#utility.yul\":32856:32904   */\n      mstore\n        /* \"#utility.yul\":32921:32999   */\n      tag_717\n        /* \"#utility.yul\":32994:32998   */\n      dup2\n        /* \"#utility.yul\":32985:32991   */\n      dup5\n        /* \"#utility.yul\":32921:32999   */\n      tag_356\n      jump\t// in\n    tag_717:\n        /* \"#utility.yul\":32913:32999   */\n      swap1\n      pop\n        /* \"#utility.yul\":32583:33006   */\n      swap4\n      swap3\n      pop\n      pop\n      pop\n      jump\t// out\n        /* \"#utility.yul\":33012:33192   */\n    tag_430:\n        /* \"#utility.yul\":33060:33137   */\n      0x4e487b7100000000000000000000000000000000000000000000000000000000\n        /* \"#utility.yul\":33057:33058   */\n      0x00\n        /* \"#utility.yul\":33050:33138   */\n      mstore\n        /* \"#utility.yul\":33157:33161   */\n      0x11\n        /* \"#utility.yul\":33154:33155   */\n      0x04\n        /* \"#utility.yul\":33147:33162   */\n      mstore\n        /* \"#utility.yul\":33181:33185   */\n      0x24\n        /* \"#utility.yul\":33178:33179   */\n      0x00\n        /* \"#utility.yul\":33171:33186   */\n      revert\n        /* \"#utility.yul\":33198:33431   */\n    tag_283:\n        /* \"#utility.yul\":33237:33240   */\n      0x00\n        /* \"#utility.yul\":33260:33284   */\n      tag_720\n        /* \"#utility.yul\":33278:33283   */\n      dup3\n        /* \"#utility.yul\":33260:33284   */\n      tag_349\n      jump\t// in\n    tag_720:\n        /* \"#utility.yul\":33251:33284   */\n      swap2\n      pop\n        /* \"#utility.yul\":33306:33372   */\n      0xffffffffffffffffffffffffffffffffffffffffffffffffffffffffffffffff\n        /* \"#utility.yul\":33299:33304   */\n      dup3\n        /* \"#utility.yul\":33296:33373   */\n      eq\n        /* \"#utility.yul\":33293:33396   */\n      iszero\n      tag_721\n      jumpi\n        /* \"#utility.yul\":33376:33394   */\n      tag_722\n      tag_430\n      jump\t// in\n    tag_722:\n        /* \"#utility.yul\":33293:33396   */\n    tag_721:\n        /* \"#utility.yul\":33423:33424   */\n      0x01\n        /* \"#utility.yul\":33416:33421   */\n      dup3\n        /* \"#utility.yul\":33412:33425   */\n      add\n        /* \"#utility.yul\":33405:33425   */\n      swap1\n      pop\n        /* \"#utility.yul\":33198:33431   */\n      swap2\n      swap1\n      pop\n      jump\t// out\n        /* \"#utility.yul\":33437:33769   */\n    tag_290:\n        /* \"#utility.yul\":33558:33562   */\n      0x00\n        /* \"#utility.yul\":33596:33598   */\n      0x40\n        /* \"#utility.yul\":33585:33594   */\n      dup3\n        /* \"#utility.yul\":33581:33599   */\n      add\n        /* \"#utility.yul\":33573:33599   */\n      swap1\n      pop\n        /* \"#utility.yul\":33609:33680   */\n      tag_724\n        /* \"#utility.yul\":33677:33678   */\n      0x00\n        /* \"#utility.yul\":33666:33675   */\n      dup4\n        /* \"#utility.yul\":33662:33679   */\n      add\n        /* \"#utility.yul\":33653:33659   */\n      dup6\n        /* \"#utility.yul\":33609:33680   */\n      tag_370\n      jump\t// in\n    tag_724:\n        /* \"#utility.yul\":33690:33762   */\n      tag_725\n        /* \"#utility.yul\":33758:33760   */\n      0x20\n        /* \"#utility.yul\":33747:33756   */\n      dup4\n        /* \"#utility.yul\":33743:33761   */\n      add\n        /* \"#utility.yul\":33734:33740   */\n      dup5\n        /* \"#utility.yul\":33690:33762   */\n      tag_392\n      jump\t// in\n    tag_725:\n        /* \"#utility.yul\":33437:33769   */\n      swap4\n      swap3\n      pop\n      pop\n      pop\n      jump\t// out\n        /* \"#utility.yul\":33775:33954   */\n    tag_431:\n        /* \"#utility.yul\":33915:33946   */\n      0x4f6e6c79206f776e65722063616e20766572696679207175616c697479000000\n        /* \"#utility.yul\":33911:33912   */\n      0x00\n        /* \"#utility.yul\":33903:33909   */\n      dup3\n        /* \"#utility.yul\":33899:33913   */\n      add\n        /* \"#utility.yul\":33892:33947   */\n      mstore\n        /* \"#utility.yul\":33775:33954   */\n      pop\n      jump\t// out\n        /* \"#utility.yul\":33960:34326   */\n    tag_432:\n        /* \"#utility.yul\":34102:34105   */\n      0x00\n        /* \"#utility.yul\":34123:34190   */\n      tag_728\n        /* \"#utility.yul\":34187:34189   */\n      0x1d\n        /* \"#utility.yul\":34182:34185   */\n      dup4\n        /* \"#utility.yul\":34123:34190   */\n      tag_353\n      jump\t// in\n    tag_728:\n        /* \"#utility.yul\":34116:34190   */\n      swap2\n      pop\n        /* \"#utility.yul\":34199:34292   */\n      tag_729\n        /* \"#utility.yul\":34288:34291   */\n      dup3\n        /* \"#utility.yul\":34199:34292   */\n      tag_431\n      jump\t// in\n    tag_729:\n        /* \"#utility.yul\":34317:34319   */\n      0x20\n        /* \"#utility.yul\":34312:34315   */\n      dup3\n        /* \"#utility.yul\":34308:34320   */\n      add\n        /* \"#utility.yul\":34301:34320   */\n      swap1\n      pop\n        /* \"#utility.yul\":33960:34326   */\n      swap2\n      swap1\n      pop\n      jump\t// out\n        /* \"#utility.yul\":34332:34751   */\n    tag_303:\n        /* \"#utility.yul\":34498:34502   */\n      0x00\n        /* \"#utility.yul\":34536:34538   */\n      0x20\n        /* \"#utility.yul\":34525:34534   */\n      dup3\n        /* \"#utility.yul\":34521:34539   */\n      add\n        /* \"#utility.yul\":34513:34539   */\n      swap1\n      pop\n        /* \"#utility.yul\":34585:34594   */\n      dup2\n        /* \"#utility.yul\":34579:34583   */\n      dup2\n        /* \"#utility.yul\":34575:34595   */\n      sub\n        /* \"#utility.yul\":34571:34572   */\n      0x00\n        /* \"#utility.yul\":34560:34569   */\n      dup4\n        /* \"#utility.yul\":34556:34573   */\n      add\n        /* \"#utility.yul\":34549:34596   */\n      mstore\n        /* \"#utility.yul\":34613:34744   */\n      tag_731\n        /* \"#utility.yul\":34739:34743   */\n      dup2\n        /* \"#utility.yul\":34613:34744   */\n      tag_432\n      jump\t// in\n    tag_731:\n        /* \"#utility.yul\":34605:34744   */\n      swap1\n      pop\n        /* \"#utility.yul\":34332:34751   */\n      swap2\n      swap1\n      pop\n      jump\t// out\n        /* \"#utility.yul\":34757:34917   */\n    tag_433:\n        /* \"#utility.yul\":34897:34909   */\n      0x56657269666965643a2000000000000000000000000000000000000000000000\n        /* \"#utility.yul\":34893:34894   */\n      0x00\n        /* \"#utility.yul\":34885:34891   */\n      dup3\n        /* \"#utility.yul\":34881:34895   */\n      add\n        /* \"#utility.yul\":34874:34910   */\n      mstore\n        /* \"#utility.yul\":34757:34917   */\n      pop\n      jump\t// out\n        /* \"#utility.yul\":34923:35325   */\n    tag_434:\n        /* \"#utility.yul\":35083:35086   */\n      0x00\n        /* \"#utility.yul\":35104:35189   */\n      tag_734\n        /* \"#utility.yul\":35186:35188   */\n      0x0a\n        /* \"#utility.yul\":35181:35184   */\n      dup4\n        /* \"#utility.yul\":35104:35189   */\n      tag_422\n      jump\t// in\n    tag_734:\n        /* \"#utility.yul\":35097:35189   */\n      swap2\n      pop\n        /* \"#utility.yul\":35198:35291   */\n      tag_735\n        /* \"#utility.yul\":35287:35290   */\n      dup3\n        /* \"#utility.yul\":35198:35291   */\n      tag_433\n      jump\t// in\n    tag_735:\n        /* \"#utility.yul\":35316:35318   */\n      0x0a\n        /* \"#utility.yul\":35311:35314   */\n      dup3\n        /* \"#utility.yul\":35307:35319   */\n      add\n        /* \"#utility.yul\":35300:35319   */\n      swap1\n      pop\n        /* \"#utility.yul\":34923:35325   */\n      swap2\n      swap1\n      pop\n      jump\t// out\n        /* \"#utility.yul\":35331:35872   */\n    tag_308:\n        /* \"#utility.yul\":35564:35567   */\n      0x00\n        /* \"#utility.yul\":35586:35734   */\n      tag_737\n        /* \"#utility.yul\":35730:35733   */\n      dup3\n        /* \"#utility.yul\":35586:35734   */\n      tag_434\n      jump\t// in\n    tag_737:\n        /* \"#utility.yul\":35579:35734   */\n      swap2\n      pop\n        /* \"#utility.yul\":35751:35846   */\n      tag_738\n        /* \"#utility.yul\":35842:35845   */\n      dup3\n        /* \"#utility.yul\":35833:35839   */\n      dup5\n        /* \"#utility.yul\":35751:35846   */\n      tag_423\n      jump\t// in\n    tag_738:\n        /* \"#utility.yul\":35744:35846   */\n      swap2\n      pop\n        /* \"#utility.yul\":35863:35866   */\n      dup2\n        /* \"#utility.yul\":35856:35866   */\n      swap1\n      pop\n        /* \"#utility.yul\":35331:35872   */\n      swap3\n      swap2\n      pop\n      pop\n      jump\t// out\n\n    auxdata: 0xa2646970667358221220d80833e22ca5ce5e056fd9052e0e9810e831faff55aec1e7069d70f0575aad3f64736f6c634300080c0033\n}\n",
				"bytecode": {
					"linkReferences": {},
					"object": "608060405260016004553480156200001657600080fd5b506040516200344f3803806200344f83398181016040528101906200003c919062000160565b600073ffffffffffffffffffffffffffffffffffffffff168173ffffffffffffffffffffffffffffffffffffffff161415620000af576040517f08c379a0000000000000000000000000000000000000000000000000000000008152600401620000a690620001f3565b60405180910390fd5b336000806101000a81548173ffffffffffffffffffffffffffffffffffffffff021916908373ffffffffffffffffffffffffffffffffffffffff1602179055505062000215565b600080fd5b600073ffffffffffffffffffffffffffffffffffffffff82169050919050565b60006200012882620000fb565b9050919050565b6200013a816200011b565b81146200014657600080fd5b50565b6000815190506200015a816200012f565b92915050565b600060208284031215620001795762000178620000f6565b5b6000620001898482850162000149565b91505092915050565b600082825260208201905092915050565b7f496e76616c6964206164647265737320696e7075747465640000000000000000600082015250565b6000620001db60188362000192565b9150620001e882620001a3565b602082019050919050565b600060208201905081810360008301526200020e81620001cc565b9050919050565b61322a80620002256000396000f3fe608060405234801561001057600080fd5b50600436106101165760003560e01c80637acc0b20116100a2578063a552811b11610071578063a552811b1461031a578063cb3cc37714610336578063da9a6f3e14610366578063dfd92f8a14610396578063e2f94b56146103b457610116565b80637acc0b20146102695780637ace341b1461029c5780638da5cb5b146102cc5780638fc15dc3146102ea57610116565b80634de91a63116100e95780634de91a631461019f57806357a096a1146101bd578063680a9283146101ed5780636d7b7fc91461021d5780636db0168f1461024d57610116565b806303f6dfbc1461011b5780632c48e7db1461014b5780633010cda7146101675780633a371b8e14610183575b600080fd5b61013560048036038101906101309190612122565b6103d0565b60405161014291906121e8565b60405180910390f35b61016560048036038101906101609190612122565b610405565b005b610181600480360381019061017c919061233f565b610586565b005b61019d60048036038101906101989190612428565b610877565b005b6101a7610e35565b6040516101b49190612477565b60405180910390f35b6101d760048036038101906101d29190612122565b610e3b565b6040516101e49190612550565b60405180910390f35b61020760048036038101906102029190612122565b610edf565b60405161021491906126e4565b60405180910390f35b6102376004803603810190610232919061272b565b611082565b60405161024491906121e8565b60405180910390f35b6102676004803603810190610262919061277d565b6113a7565b005b610283600480360381019061027e9190612122565b6114b2565b6040516102939493929190612856565b60405180910390f35b6102b660048036038101906102b19190612122565b611597565b6040516102c391906128a2565b60405180910390f35b6102d46115d7565b6040516102e191906128a2565b60405180910390f35b61030460048036038101906102ff9190612122565b6115fb565b60405161031191906128d8565b60405180910390f35b610334600480360381019061032f91906128f3565b61161b565b005b610350600480360381019061034b9190612428565b61188e565b60405161035d91906121e8565b60405180910390f35b610380600480360381019061037b9190612428565b6118fe565b60405161038d9190612997565b60405180910390f35b61039e61192d565b6040516103ab9190612477565b60405180910390f35b6103ce60048036038101906103c991906128f3565b611b53565b005b60606103fe6002600084815260200190815260200160002060050160009054906101000a900460ff16611082565b9050919050565b6003600082815260200190815260200160002060009054906101000a900460ff16610465576040517f08c379a000000000000000000000000000000000000000000000000000000000815260040161045c906129fe565b60405180910390fd5b3373ffffffffffffffffffffffffffffffffffffffff166002600083815260200190815260200160002060030160009054906101000a900473ffffffffffffffffffffffffffffffffffffffff1673ffffffffffffffffffffffffffffffffffffffff1614610509576040517f08c379a000000000000000000000000000000000000000000000000000000000815260040161050090612a90565b60405180910390fd5b60066002600083815260200190815260200160002060050160006101000a81548160ff02191690836006811115610543576105426127df565b5b02179055507f16b85f49bf01212961345d3016c9a531894accf62eb7680f2045d79185cc0ec081333360405161057b93929190612ab0565b60405180910390a150565b82600180600481111561059c5761059b6127df565b5b6001600084815260200190815260200160002060003373ffffffffffffffffffffffffffffffffffffffff1673ffffffffffffffffffffffffffffffffffffffff16815260200190815260200160002060009054906101000a900460ff16600481111561060c5761060b6127df565b5b1461064c576040517f08c379a000000000000000000000000000000000000000000000000000000000815260040161064390612b59565b60405180910390fd5b6003600086815260200190815260200160002060009054906101000a900460ff166106ac576040517f08c379a00000000000000000000000000000000000000000000000000000000081526004016106a3906129fe565b60405180910390fd5b3373ffffffffffffffffffffffffffffffffffffffff166002600087815260200190815260200160002060030160009054906101000a900473ffffffffffffffffffffffffffffffffffffffff1673ffffffffffffffffffffffffffffffffffffffff1614610750576040517f08c379a000000000000000000000000000000000000000000000000000000000815260040161074790612bc5565b60405180910390fd5b600060405180606001604052808681526020018581526020014281525090506002600087815260200190815260200160002060010181908060018154018082558091505060019003906000526020600020906003020160009091909190915060008201518160000190805190602001906107cb929190612035565b5060208201518160010190805190602001906107e8929190612035565b5060408201518160020155505060016002600088815260200190815260200160002060050160006101000a81548160ff0219169083600681111561082f5761082e6127df565b5b02179055507f2e9abb49e8b9a29ba75d12b719df776b1b523eac921c6f1e773272ff48455bb886868660405161086793929190612be5565b60405180910390a1505050505050565b6003600083815260200190815260200160002060009054906101000a900460ff166108d7576040517f08c379a00000000000000000000000000000000000000000000000000000000081526004016108ce906129fe565b60405180910390fd5b3373ffffffffffffffffffffffffffffffffffffffff166002600084815260200190815260200160002060030160009054906101000a900473ffffffffffffffffffffffffffffffffffffffff1673ffffffffffffffffffffffffffffffffffffffff161461097b576040517f08c379a000000000000000000000000000000000000000000000000000000000815260040161097290612c76565b60405180910390fd5b600073ffffffffffffffffffffffffffffffffffffffff168173ffffffffffffffffffffffffffffffffffffffff1614156109eb576040517f08c379a00000000000000000000000000000000000000000000000000000000081526004016109e290612ce2565b60405180910390fd5b60006001600084815260200190815260200160002060003373ffffffffffffffffffffffffffffffffffffffff1673ffffffffffffffffffffffffffffffffffffffff16815260200190815260200160002060009054906101000a900460ff16905060006001600085815260200190815260200160002060008473ffffffffffffffffffffffffffffffffffffffff1673ffffffffffffffffffffffffffffffffffffffff16815260200190815260200160002060009054906101000a900460ff16905060016004811115610ac357610ac26127df565b5b826004811115610ad657610ad56127df565b5b1415610b485760026004811115610af057610aef6127df565b5b816004811115610b0357610b026127df565b5b14610b43576040517f08c379a0000000000000000000000000000000000000000000000000000000008152600401610b3a90612d4e565b60405180910390fd5b610ce9565b60026004811115610b5c57610b5b6127df565b5b826004811115610b6f57610b6e6127df565b5b1415610be15760036004811115610b8957610b886127df565b5b816004811115610b9c57610b9b6127df565b5b14610bdc576040517f08c379a0000000000000000000000000000000000000000000000000000000008152600401610bd390612dba565b60405180910390fd5b610ce8565b60036004811115610bf557610bf46127df565b5b826004811115610c0857610c076127df565b5b1415610c7957600480811115610c2157610c206127df565b5b816004811115610c3457610c336127df565b5b14610c74576040517f08c379a0000000000000000000000000000000000000000000000000000000008152600401610c6b90612e26565b60405180910390fd5b610ce7565b610c8282611de4565b610c8b82611de4565b604051602001610c9c929190612ece565b6040516020818303038152906040526040517f08c379a0000000000000000000000000000000000000000000000000000000008152600401610cde91906121e8565b60405180910390fd5b5b5b60046002600086815260200190815260200160002060050160006101000a81548160ff02191690836006811115610d2357610d226127df565b5b0217905550826002600086815260200190815260200160002060030160006101000a81548173ffffffffffffffffffffffffffffffffffffffff021916908373ffffffffffffffffffffffffffffffffffffffff16021790555060026000858152602001908152602001600020600401839080600181540180825580915050600190039060005260206000200160009091909190916101000a81548173ffffffffffffffffffffffffffffffffffffffff021916908373ffffffffffffffffffffffffffffffffffffffff1602179055507f16b85f49bf01212961345d3016c9a531894accf62eb7680f2045d79185cc0ec0843385604051610e2793929190612ab0565b60405180910390a150505050565b60045481565b606060026000838152602001908152602001600020600401805480602002602001604051908101604052809291908181526020018280548015610ed357602002820191906000526020600020905b8160009054906101000a900473ffffffffffffffffffffffffffffffffffffffff1673ffffffffffffffffffffffffffffffffffffffff1681526020019060010190808311610e89575b50505050509050919050565b606060026000838152602001908152602001600020600101805480602002602001604051908101604052809291908181526020016000905b828210156110775783829060005260206000209060030201604051806060016040529081600082018054610f4a90612f3f565b80601f0160208091040260200160405190810160405280929190818152602001828054610f7690612f3f565b8015610fc35780601f10610f9857610100808354040283529160200191610fc3565b820191906000526020600020905b815481529060010190602001808311610fa657829003601f168201915b50505050508152602001600182018054610fdc90612f3f565b80601f016020809104026020016040519081016040528092919081815260200182805461100890612f3f565b80156110555780601f1061102a57610100808354040283529160200191611055565b820191906000526020600020905b81548152906001019060200180831161103857829003601f168201915b5050505050815260200160028201548152505081526020019060010190610f17565b505050509050919050565b606060006006811115611098576110976127df565b5b8260068111156110ab576110aa6127df565b5b14156110ee576040518060400160405280600781526020017f437265617465640000000000000000000000000000000000000000000000000081525090506113a2565b60016006811115611102576111016127df565b5b826006811115611115576111146127df565b5b1415611158576040518060400160405280600f81526020017f4d6174657269616c734c6f67676564000000000000000000000000000000000081525090506113a2565b6002600681111561116c5761116b6127df565b5b82600681111561117f5761117e6127df565b5b14156111c2576040518060400160405280601581526020017f4d616e75666163747572696e675665726966696564000000000000000000000081525090506113a2565b600360068111156111d6576111d56127df565b5b8260068111156111e9576111e86127df565b5b141561122c576040518060400160405280600c81526020017f4d616e756661637475726564000000000000000000000000000000000000000081525090506113a2565b600460068111156112405761123f6127df565b5b826006811115611253576112526127df565b5b1415611296576040518060400160405280600981526020017f496e5472616e736974000000000000000000000000000000000000000000000081525090506113a2565b600560068111156112aa576112a96127df565b5b8260068111156112bd576112bc6127df565b5b1415611300576040518060400160405280600981526020017f44656c697665726564000000000000000000000000000000000000000000000081525090506113a2565b600680811115611313576113126127df565b5b826006811115611326576113256127df565b5b1415611369576040518060400160405280600981526020017f46696e616c697a6564000000000000000000000000000000000000000000000081525090506113a2565b6040518060400160405280600781526020017f556e6b6e6f776e0000000000000000000000000000000000000000000000000081525090505b919050565b60008054906101000a900473ffffffffffffffffffffffffffffffffffffffff1673ffffffffffffffffffffffffffffffffffffffff163373ffffffffffffffffffffffffffffffffffffffff1614611435576040517f08c379a000000000000000000000000000000000000000000000000000000000815260040161142c90612fbd565b60405180910390fd5b806001600085815260200190815260200160002060008473ffffffffffffffffffffffffffffffffffffffff1673ffffffffffffffffffffffffffffffffffffffff16815260200190815260200160002060006101000a81548160ff021916908360048111156114a8576114a76127df565b5b0217905550505050565b60026020528060005260406000206000915090508060000154908060020180546114db90612f3f565b80601f016020809104026020016040519081016040528092919081815260200182805461150790612f3f565b80156115545780601f1061152957610100808354040283529160200191611554565b820191906000526020600020905b81548152906001019060200180831161153757829003601f168201915b5050505050908060030160009054906101000a900473ffffffffffffffffffffffffffffffffffffffff16908060050160009054906101000a900460ff16905084565b60006002600083815260200190815260200160002060030160009054906101000a900473ffffffffffffffffffffffffffffffffffffffff169050919050565b60008054906101000a900473ffffffffffffffffffffffffffffffffffffffff1681565b60036020528060005260406000206000915054906101000a900460ff1681565b816002806004811115611631576116306127df565b5b6001600084815260200190815260200160002060003373ffffffffffffffffffffffffffffffffffffffff1673ffffffffffffffffffffffffffffffffffffffff16815260200190815260200160002060009054906101000a900460ff1660048111156116a1576116a06127df565b5b146116e1576040517f08c379a00000000000000000000000000000000000000000000000000000000081526004016116d890612b59565b60405180910390fd5b6003600085815260200190815260200160002060009054906101000a900460ff16611741576040517f08c379a0000000000000000000000000000000000000000000000000000000008152600401611738906129fe565b60405180910390fd5b3373ffffffffffffffffffffffffffffffffffffffff166002600086815260200190815260200160002060030160009054906101000a900473ffffffffffffffffffffffffffffffffffffffff1673ffffffffffffffffffffffffffffffffffffffff16146117e5576040517f08c379a00000000000000000000000000000000000000000000000000000000081526004016117dc90613029565b60405180910390fd5b8260026000868152602001908152602001600020600201908051906020019061180f929190612035565b5060036002600086815260200190815260200160002060050160006101000a81548160ff0219169083600681111561184a576118496127df565b5b02179055507fec3ae4350812c56655d3ac5aea7ecc17434d05fb3571eca3e293b924ff1873328484604051611880929190613049565b60405180910390a150505050565b60606118f66001600085815260200190815260200160002060008473ffffffffffffffffffffffffffffffffffffffff1673ffffffffffffffffffffffffffffffffffffffff16815260200190815260200160002060009054906101000a900460ff16611de4565b905092915050565b60016020528160005260406000206020528060005260406000206000915091509054906101000a900460ff1681565b60008060046000815480929190611943906130a8565b919050559050806002600083815260200190815260200160002060000181905550336002600083815260200190815260200160002060030160006101000a81548173ffffffffffffffffffffffffffffffffffffffff021916908373ffffffffffffffffffffffffffffffffffffffff16021790555060026000828152602001908152602001600020600401339080600181540180825580915050600190039060005260206000200160009091909190916101000a81548173ffffffffffffffffffffffffffffffffffffffff021916908373ffffffffffffffffffffffffffffffffffffffff16021790555060006002600083815260200190815260200160002060050160006101000a81548160ff02191690836006811115611a6a57611a696127df565b5b021790555060016003600083815260200190815260200160002060006101000a81548160ff021916908315150217905550600180600083815260200190815260200160002060003373ffffffffffffffffffffffffffffffffffffffff1673ffffffffffffffffffffffffffffffffffffffff16815260200190815260200160002060006101000a81548160ff02191690836004811115611b0e57611b0d6127df565b5b02179055507f73e014c0a076665d9511a27e878fadccb6d7171f5754ba1167a670023760b0158133604051611b449291906130f1565b60405180910390a18091505090565b816002806004811115611b6957611b686127df565b5b6001600084815260200190815260200160002060003373ffffffffffffffffffffffffffffffffffffffff1673ffffffffffffffffffffffffffffffffffffffff16815260200190815260200160002060009054906101000a900460ff166004811115611bd957611bd86127df565b5b14611c19576040517f08c379a0000000000000000000000000000000000000000000000000000000008152600401611c1090612b59565b60405180910390fd5b6003600085815260200190815260200160002060009054906101000a900460ff16611c79576040517f08c379a0000000000000000000000000000000000000000000000000000000008152600401611c70906129fe565b60405180910390fd5b3373ffffffffffffffffffffffffffffffffffffffff166002600086815260200190815260200160002060030160009054906101000a900473ffffffffffffffffffffffffffffffffffffffff1673ffffffffffffffffffffffffffffffffffffffff1614611d1d576040517f08c379a0000000000000000000000000000000000000000000000000000000008152600401611d1490613166565b60405180910390fd5b600280600086815260200190815260200160002060050160006101000a81548160ff02191690836006811115611d5657611d556127df565b5b021790555082600260008681526020019081526020016000206002019080519060200190611d85929190612035565b507fec3ae4350812c56655d3ac5aea7ecc17434d05fb3571eca3e293b924ff1873328484604051602001611db991906131d2565b604051602081830303815290604052604051611dd6929190613049565b60405180910390a150505050565b606060006004811115611dfa57611df96127df565b5b826004811115611e0d57611e0c6127df565b5b1415611e50576040518060400160405280600781526020017f556e6b6e6f776e000000000000000000000000000000000000000000000000008152509050612030565b60016004811115611e6457611e636127df565b5b826004811115611e7757611e766127df565b5b1415611eba576040518060400160405280600881526020017f537570706c6965720000000000000000000000000000000000000000000000008152509050612030565b60026004811115611ece57611ecd6127df565b5b826004811115611ee157611ee06127df565b5b1415611f24576040518060400160405280600c81526020017f4d616e75666163747572657200000000000000000000000000000000000000008152509050612030565b60036004811115611f3857611f376127df565b5b826004811115611f4b57611f4a6127df565b5b1415611f8e576040518060400160405280600881526020017f52657461696c65720000000000000000000000000000000000000000000000008152509050612030565b600480811115611fa157611fa06127df565b5b826004811115611fb457611fb36127df565b5b1415611ff7576040518060400160405280600881526020017f436f6e73756d65720000000000000000000000000000000000000000000000008152509050612030565b6040518060400160405280600781526020017f496e76616c69640000000000000000000000000000000000000000000000000081525090505b919050565b82805461204190612f3f565b90600052602060002090601f01602090048101928261206357600085556120aa565b82601f1061207c57805160ff19168380011785556120aa565b828001600101855582156120aa579182015b828111156120a957825182559160200191906001019061208e565b5b5090506120b791906120bb565b5090565b5b808211156120d45760008160009055506001016120bc565b5090565b6000604051905090565b600080fd5b600080fd5b6000819050919050565b6120ff816120ec565b811461210a57600080fd5b50565b60008135905061211c816120f6565b92915050565b600060208284031215612138576121376120e2565b5b60006121468482850161210d565b91505092915050565b600081519050919050565b600082825260208201905092915050565b60005b8381101561218957808201518184015260208101905061216e565b83811115612198576000848401525b50505050565b6000601f19601f8301169050919050565b60006121ba8261214f565b6121c4818561215a565b93506121d481856020860161216b565b6121dd8161219e565b840191505092915050565b6000602082019050818103600083015261220281846121af565b905092915050565b600080fd5b600080fd5b7f4e487b7100000000000000000000000000000000000000000000000000000000600052604160045260246000fd5b61224c8261219e565b810181811067ffffffffffffffff8211171561226b5761226a612214565b5b80604052505050565b600061227e6120d8565b905061228a8282612243565b919050565b600067ffffffffffffffff8211156122aa576122a9612214565b5b6122b38261219e565b9050602081019050919050565b82818337600083830152505050565b60006122e26122dd8461228f565b612274565b9050828152602081018484840111156122fe576122fd61220f565b5b6123098482856122c0565b509392505050565b600082601f8301126123265761232561220a565b5b81356123368482602086016122cf565b91505092915050565b600080600060608486031215612358576123576120e2565b5b60006123668682870161210d565b935050602084013567ffffffffffffffff811115612387576123866120e7565b5b61239386828701612311565b925050604084013567ffffffffffffffff8111156123b4576123b36120e7565b5b6123c086828701612311565b9150509250925092565b600073ffffffffffffffffffffffffffffffffffffffff82169050919050565b60006123f5826123ca565b9050919050565b612405816123ea565b811461241057600080fd5b50565b600081359050612422816123fc565b92915050565b6000806040838503121561243f5761243e6120e2565b5b600061244d8582860161210d565b925050602061245e85828601612413565b9150509250929050565b612471816120ec565b82525050565b600060208201905061248c6000830184612468565b92915050565b600081519050919050565b600082825260208201905092915050565b6000819050602082019050919050565b6124c7816123ea565b82525050565b60006124d983836124be565b60208301905092915050565b6000602082019050919050565b60006124fd82612492565b612507818561249d565b9350612512836124ae565b8060005b8381101561254357815161252a88826124cd565b9750612535836124e5565b925050600181019050612516565b5085935050505092915050565b6000602082019050818103600083015261256a81846124f2565b905092915050565b600081519050919050565b600082825260208201905092915050565b6000819050602082019050919050565b600082825260208201905092915050565b60006125ba8261214f565b6125c4818561259e565b93506125d481856020860161216b565b6125dd8161219e565b840191505092915050565b6125f1816120ec565b82525050565b6000606083016000830151848203600086015261261482826125af565b9150506020830151848203602086015261262e82826125af565b915050604083015161264360408601826125e8565b508091505092915050565b600061265a83836125f7565b905092915050565b6000602082019050919050565b600061267a82612572565b612684818561257d565b9350836020820285016126968561258e565b8060005b858110156126d257848403895281516126b3858261264e565b94506126be83612662565b925060208a0199505060018101905061269a565b50829750879550505050505092915050565b600060208201905081810360008301526126fe818461266f565b905092915050565b6007811061271357600080fd5b50565b60008135905061272581612706565b92915050565b600060208284031215612741576127406120e2565b5b600061274f84828501612716565b91505092915050565b6005811061276557600080fd5b50565b60008135905061277781612758565b92915050565b600080600060608486031215612796576127956120e2565b5b60006127a48682870161210d565b93505060206127b586828701612413565b92505060406127c686828701612768565b9150509250925092565b6127d9816123ea565b82525050565b7f4e487b7100000000000000000000000000000000000000000000000000000000600052602160045260246000fd5b6007811061281f5761281e6127df565b5b50565b60008190506128308261280e565b919050565b600061284082612822565b9050919050565b61285081612835565b82525050565b600060808201905061286b6000830187612468565b818103602083015261287d81866121af565b905061288c60408301856127d0565b6128996060830184612847565b95945050505050565b60006020820190506128b760008301846127d0565b92915050565b60008115159050919050565b6128d2816128bd565b82525050565b60006020820190506128ed60008301846128c9565b92915050565b6000806040838503121561290a576129096120e2565b5b60006129188582860161210d565b925050602083013567ffffffffffffffff811115612939576129386120e7565b5b61294585828601612311565b9150509250929050565b600581106129605761295f6127df565b5b50565b60008190506129718261294f565b919050565b600061298182612963565b9050919050565b61299181612976565b82525050565b60006020820190506129ac6000830184612988565b92915050565b7f50726f64756374206e6f74207265676973746572656400000000000000000000600082015250565b60006129e860168361215a565b91506129f3826129b2565b602082019050919050565b60006020820190508181036000830152612a17816129db565b9050919050565b7f4f6e6c792063757272656e74206f776e65722063616e20636f6e6669726d207460008201527f72616e7366657200000000000000000000000000000000000000000000000000602082015250565b6000612a7a60278361215a565b9150612a8582612a1e565b604082019050919050565b60006020820190508181036000830152612aa981612a6d565b9050919050565b6000606082019050612ac56000830186612468565b612ad260208301856127d0565b612adf60408301846127d0565b949350505050565b7f4163636573732064656e6965643a2077726f6e6720726f6c6520666f7220707260008201527f6f64756374000000000000000000000000000000000000000000000000000000602082015250565b6000612b4360258361215a565b9150612b4e82612ae7565b604082019050919050565b60006020820190508181036000830152612b7281612b36565b9050919050565b7f596f7520646f6e2774206f776e20746869732070726f64756374000000000000600082015250565b6000612baf601a8361215a565b9150612bba82612b79565b602082019050919050565b60006020820190508181036000830152612bde81612ba2565b9050919050565b6000606082019050612bfa6000830186612468565b8181036020830152612c0c81856121af565b90508181036040830152612c2081846121af565b9050949350505050565b7f4f6e6c79206f776e65722063616e20696e697469617465207472616e73666572600082015250565b6000612c6060208361215a565b9150612c6b82612c2a565b602082019050919050565b60006020820190508181036000830152612c8f81612c53565b9050919050565b7f496e76616c696420726563697069656e74000000000000000000000000000000600082015250565b6000612ccc60118361215a565b9150612cd782612c96565b602082019050919050565b60006020820190508181036000830152612cfb81612cbf565b9050919050565b7f4d757374207472616e7366657220746f204d616e756661637475726572000000600082015250565b6000612d38601d8361215a565b9150612d4382612d02565b602082019050919050565b60006020820190508181036000830152612d6781612d2b565b9050919050565b7f4d757374207472616e7366657220746f2052657461696c657200000000000000600082015250565b6000612da460198361215a565b9150612daf82612d6e565b602082019050919050565b60006020820190508181036000830152612dd381612d97565b9050919050565b7f4d757374207472616e7366657220746f20436f6e73756d657200000000000000600082015250565b6000612e1060198361215a565b9150612e1b82612dda565b602082019050919050565b60006020820190508181036000830152612e3f81612e03565b9050919050565b7f5472616e73666572206e6f7420616c6c6f776564206265747765656e20000000815250565b600081905092915050565b6000612e828261214f565b612e8c8185612e6c565b9350612e9c81856020860161216b565b80840191505092915050565b7f20616e6420000000000000000000000000000000000000000000000000000000815250565b6000612ed982612e46565b601d82019150612ee98285612e77565b9150612ef482612ea8565b600582019150612f048284612e77565b91508190509392505050565b7f4e487b7100000000000000000000000000000000000000000000000000000000600052602260045260246000fd5b60006002820490506001821680612f5757607f821691505b60208210811415612f6b57612f6a612f10565b5b50919050565b7f4f6e6c79206f776e65722063616e2061737369676e20726f6c65730000000000600082015250565b6000612fa7601b8361215a565b9150612fb282612f71565b602082019050919050565b60006020820190508181036000830152612fd681612f9a565b9050919050565b7f4f6e6c79206f776e65722063616e206c6f67206d616e75666163747572696e67600082015250565b600061301360208361215a565b915061301e82612fdd565b602082019050919050565b6000602082019050818103600083015261304281613006565b9050919050565b600060408201905061305e6000830185612468565b818103602083015261307081846121af565b90509392505050565b7f4e487b7100000000000000000000000000000000000000000000000000000000600052601160045260246000fd5b60006130b3826120ec565b91507fffffffffffffffffffffffffffffffffffffffffffffffffffffffffffffffff8214156130e6576130e5613079565b5b600182019050919050565b60006040820190506131066000830185612468565b61311360208301846127d0565b9392505050565b7f4f6e6c79206f776e65722063616e20766572696679207175616c697479000000600082015250565b6000613150601d8361215a565b915061315b8261311a565b602082019050919050565b6000602082019050818103600083015261317f81613143565b9050919050565b7f56657269666965643a2000000000000000000000000000000000000000000000600082015250565b60006131bc600a83612e6c565b91506131c782613186565b600a82019050919050565b60006131dd826131af565b91506131e98284612e77565b91508190509291505056fea2646970667358221220d80833e22ca5ce5e056fd9052e0e9810e831faff55aec1e7069d70f0575aad3f64736f6c634300080c0033",
					"opcodes": "PUSH1 0x80 PUSH1 0x40 MSTORE PUSH1 0x1 PUSH1 0x4 SSTORE CALLVALUE DUP1 ISZERO PUSH3 0x16 JUMPI PUSH1 0x0 DUP1 REVERT JUMPDEST POP PUSH1 0x40 MLOAD PUSH3 0x344F CODESIZE SUB DUP1 PUSH3 0x344F DUP4 CODECOPY DUP2 DUP2 ADD PUSH1 0x40 MSTORE DUP2 ADD SWAP1 PUSH3 0x3C SWAP2 SWAP1 PUSH3 0x160 JUMP JUMPDEST PUSH1 0x0 PUSH20 0xFFFFFFFFFFFFFFFFFFFFFFFFFFFFFFFFFFFFFFFF AND DUP2 PUSH20 0xFFFFFFFFFFFFFFFFFFFFFFFFFFFFFFFFFFFFFFFF AND EQ ISZERO PUSH3 0xAF JUMPI PUSH1 0x40 MLOAD PUSH32 0x8C379A000000000000000000000000000000000000000000000000000000000 DUP2 MSTORE PUSH1 0x4 ADD PUSH3 0xA6 SWAP1 PUSH3 0x1F3 JUMP JUMPDEST PUSH1 0x40 MLOAD DUP1 SWAP2 SUB SWAP1 REVERT JUMPDEST CALLER PUSH1 0x0 DUP1 PUSH2 0x100 EXP DUP2 SLOAD DUP2 PUSH20 0xFFFFFFFFFFFFFFFFFFFFFFFFFFFFFFFFFFFFFFFF MUL NOT AND SWAP1 DUP4 PUSH20 0xFFFFFFFFFFFFFFFFFFFFFFFFFFFFFFFFFFFFFFFF AND MUL OR SWAP1 SSTORE POP POP PUSH3 0x215 JUMP JUMPDEST PUSH1 0x0 DUP1 REVERT JUMPDEST PUSH1 0x0 PUSH20 0xFFFFFFFFFFFFFFFFFFFFFFFFFFFFFFFFFFFFFFFF DUP3 AND SWAP1 POP SWAP2 SWAP1 POP JUMP JUMPDEST PUSH1 0x0 PUSH3 0x128 DUP3 PUSH3 0xFB JUMP JUMPDEST SWAP1 POP SWAP2 SWAP1 POP JUMP JUMPDEST PUSH3 0x13A DUP2 PUSH3 0x11B JUMP JUMPDEST DUP2 EQ PUSH3 0x146 JUMPI PUSH1 0x0 DUP1 REVERT JUMPDEST POP JUMP JUMPDEST PUSH1 0x0 DUP2 MLOAD SWAP1 POP PUSH3 0x15A DUP2 PUSH3 0x12F JUMP JUMPDEST SWAP3 SWAP2 POP POP JUMP JUMPDEST PUSH1 0x0 PUSH1 0x20 DUP3 DUP5 SUB SLT ISZERO PUSH3 0x179 JUMPI PUSH3 0x178 PUSH3 0xF6 JUMP JUMPDEST JUMPDEST PUSH1 0x0 PUSH3 0x189 DUP5 DUP3 DUP6 ADD PUSH3 0x149 JUMP JUMPDEST SWAP2 POP POP SWAP3 SWAP2 POP POP JUMP JUMPDEST PUSH1 0x0 DUP3 DUP3 MSTORE PUSH1 0x20 DUP3 ADD SWAP1 POP SWAP3 SWAP2 POP POP JUMP JUMPDEST PUSH32 0x496E76616C6964206164647265737320696E7075747465640000000000000000 PUSH1 0x0 DUP3 ADD MSTORE POP JUMP JUMPDEST PUSH1 0x0 PUSH3 0x1DB PUSH1 0x18 DUP4 PUSH3 0x192 JUMP JUMPDEST SWAP2 POP PUSH3 0x1E8 DUP3 PUSH3 0x1A3 JUMP JUMPDEST PUSH1 0x20 DUP3 ADD SWAP1 POP SWAP2 SWAP1 POP JUMP JUMPDEST PUSH1 0x0 PUSH1 0x20 DUP3 ADD SWAP1 POP DUP2 DUP2 SUB PUSH1 0x0 DUP4 ADD MSTORE PUSH3 0x20E DUP2 PUSH3 0x1CC JUMP JUMPDEST SWAP1 POP SWAP2 SWAP1 POP JUMP JUMPDEST PUSH2 0x322A DUP1 PUSH3 0x225 PUSH1 0x0 CODECOPY PUSH1 0x0 RETURN INVALID PUSH1 0x80 PUSH1 0x40 MSTORE CALLVALUE DUP1 ISZERO PUSH2 0x10 JUMPI PUSH1 0x0 DUP1 REVERT JUMPDEST POP PUSH1 0x4 CALLDATASIZE LT PUSH2 0x116 JUMPI PUSH1 0x0 CALLDATALOAD PUSH1 0xE0 SHR DUP1 PUSH4 0x7ACC0B20 GT PUSH2 0xA2 JUMPI DUP1 PUSH4 0xA552811B GT PUSH2 0x71 JUMPI DUP1 PUSH4 0xA552811B EQ PUSH2 0x31A JUMPI DUP1 PUSH4 0xCB3CC377 EQ PUSH2 0x336 JUMPI DUP1 PUSH4 0xDA9A6F3E EQ PUSH2 0x366 JUMPI DUP1 PUSH4 0xDFD92F8A EQ PUSH2 0x396 JUMPI DUP1 PUSH4 0xE2F94B56 EQ PUSH2 0x3B4 JUMPI PUSH2 0x116 JUMP JUMPDEST DUP1 PUSH4 0x7ACC0B20 EQ PUSH2 0x269 JUMPI DUP1 PUSH4 0x7ACE341B EQ PUSH2 0x29C JUMPI DUP1 PUSH4 0x8DA5CB5B EQ PUSH2 0x2CC JUMPI DUP1 PUSH4 0x8FC15DC3 EQ PUSH2 0x2EA JUMPI PUSH2 0x116 JUMP JUMPDEST DUP1 PUSH4 0x4DE91A63 GT PUSH2 0xE9 JUMPI DUP1 PUSH4 0x4DE91A63 EQ PUSH2 0x19F JUMPI DUP1 PUSH4 0x57A096A1 EQ PUSH2 0x1BD JUMPI DUP1 PUSH4 0x680A9283 EQ PUSH2 0x1ED JUMPI DUP1 PUSH4 0x6D7B7FC9 EQ PUSH2 0x21D JUMPI DUP1 PUSH4 0x6DB0168F EQ PUSH2 0x24D JUMPI PUSH2 0x116 JUMP JUMPDEST DUP1 PUSH4 0x3F6DFBC EQ PUSH2 0x11B JUMPI DUP1 PUSH4 0x2C48E7DB EQ PUSH2 0x14B JUMPI DUP1 PUSH4 0x3010CDA7 EQ PUSH2 0x167 JUMPI DUP1 PUSH4 0x3A371B8E EQ PUSH2 0x183 JUMPI JUMPDEST PUSH1 0x0 DUP1 REVERT JUMPDEST PUSH2 0x135 PUSH1 0x4 DUP1 CALLDATASIZE SUB DUP2 ADD SWAP1 PUSH2 0x130 SWAP2 SWAP1 PUSH2 0x2122 JUMP JUMPDEST PUSH2 0x3D0 JUMP JUMPDEST PUSH1 0x40 MLOAD PUSH2 0x142 SWAP2 SWAP1 PUSH2 0x21E8 JUMP JUMPDEST PUSH1 0x40 MLOAD DUP1 SWAP2 SUB SWAP1 RETURN JUMPDEST PUSH2 0x165 PUSH1 0x4 DUP1 CALLDATASIZE SUB DUP2 ADD SWAP1 PUSH2 0x160 SWAP2 SWAP1 PUSH2 0x2122 JUMP JUMPDEST PUSH2 0x405 JUMP JUMPDEST STOP JUMPDEST PUSH2 0x181 PUSH1 0x4 DUP1 CALLDATASIZE SUB DUP2 ADD SWAP1 PUSH2 0x17C SWAP2 SWAP1 PUSH2 0x233F JUMP JUMPDEST PUSH2 0x586 JUMP JUMPDEST STOP JUMPDEST PUSH2 0x19D PUSH1 0x4 DUP1 CALLDATASIZE SUB DUP2 ADD SWAP1 PUSH2 0x198 SWAP2 SWAP1 PUSH2 0x2428 JUMP JUMPDEST PUSH2 0x877 JUMP JUMPDEST STOP JUMPDEST PUSH2 0x1A7 PUSH2 0xE35 JUMP JUMPDEST PUSH1 0x40 MLOAD PUSH2 0x1B4 SWAP2 SWAP1 PUSH2 0x2477 JUMP JUMPDEST PUSH1 0x40 MLOAD DUP1 SWAP2 SUB SWAP1 RETURN JUMPDEST PUSH2 0x1D7 PUSH1 0x4 DUP1 CALLDATASIZE SUB DUP2 ADD SWAP1 PUSH2 0x1D2 SWAP2 SWAP1 PUSH2 0x2122 JUMP JUMPDEST PUSH2 0xE3B JUMP JUMPDEST PUSH1 0x40 MLOAD PUSH2 0x1E4 SWAP2 SWAP1 PUSH2 0x2550 JUMP JUMPDEST PUSH1 0x40 MLOAD DUP1 SWAP2 SUB SWAP1 RETURN JUMPDEST PUSH2 0x207 PUSH1 0x4 DUP1 CALLDATASIZE SUB DUP2 ADD SWAP1 PUSH2 0x202 SWAP2 SWAP1 PUSH2 0x2122 JUMP JUMPDEST PUSH2 0xEDF JUMP JUMPDEST PUSH1 0x40 MLOAD PUSH2 0x214 SWAP2 SWAP1 PUSH2 0x26E4 JUMP JUMPDEST PUSH1 0x40 MLOAD DUP1 SWAP2 SUB SWAP1 RETURN JUMPDEST PUSH2 0x237 PUSH1 0x4 DUP1 CALLDATASIZE SUB DUP2 ADD SWAP1 PUSH2 0x232 SWAP2 SWAP1 PUSH2 0x272B JUMP JUMPDEST PUSH2 0x1082 JUMP JUMPDEST PUSH1 0x40 MLOAD PUSH2 0x244 SWAP2 SWAP1 PUSH2 0x21E8 JUMP JUMPDEST PUSH1 0x40 MLOAD DUP1 SWAP2 SUB SWAP1 RETURN JUMPDEST PUSH2 0x267 PUSH1 0x4 DUP1 CALLDATASIZE SUB DUP2 ADD SWAP1 PUSH2 0x262 SWAP2 SWAP1 PUSH2 0x277D JUMP JUMPDEST PUSH2 0x13A7 JUMP JUMPDEST STOP JUMPDEST PUSH2 0x283 PUSH1 0x4 DUP1 CALLDATASIZE SUB DUP2 ADD SWAP1 PUSH2 0x27E SWAP2 SWAP1 PUSH2 0x2122 JUMP JUMPDEST PUSH2 0x14B2 JUMP JUMPDEST PUSH1 0x40 MLOAD PUSH2 0x293 SWAP5 SWAP4 SWAP3 SWAP2 SWAP1 PUSH2 0x2856 JUMP JUMPDEST PUSH1 0x40 MLOAD DUP1 SWAP2 SUB SWAP1 RETURN JUMPDEST PUSH2 0x2B6 PUSH1 0x4 DUP1 CALLDATASIZE SUB DUP2 ADD SWAP1 PUSH2 0x2B1 SWAP2 SWAP1 PUSH2 0x2122 JUMP JUMPDEST PUSH2 0x1597 JUMP JUMPDEST PUSH1 0x40 MLOAD PUSH2 0x2C3 SWAP2 SWAP1 PUSH2 0x28A2 JUMP JUMPDEST PUSH1 0x40 MLOAD DUP1 SWAP2 SUB SWAP1 RETURN JUMPDEST PUSH2 0x2D4 PUSH2 0x15D7 JUMP JUMPDEST PUSH1 0x40 MLOAD PUSH2 0x2E1 SWAP2 SWAP1 PUSH2 0x28A2 JUMP JUMPDEST PUSH1 0x40 MLOAD DUP1 SWAP2 SUB SWAP1 RETURN JUMPDEST PUSH2 0x304 PUSH1 0x4 DUP1 CALLDATASIZE SUB DUP2 ADD SWAP1 PUSH2 0x2FF SWAP2 SWAP1 PUSH2 0x2122 JUMP JUMPDEST PUSH2 0x15FB JUMP JUMPDEST PUSH1 0x40 MLOAD PUSH2 0x311 SWAP2 SWAP1 PUSH2 0x28D8 JUMP JUMPDEST PUSH1 0x40 MLOAD DUP1 SWAP2 SUB SWAP1 RETURN JUMPDEST PUSH2 0x334 PUSH1 0x4 DUP1 CALLDATASIZE SUB DUP2 ADD SWAP1 PUSH2 0x32F SWAP2 SWAP1 PUSH2 0x28F3 JUMP JUMPDEST PUSH2 0x161B JUMP JUMPDEST STOP JUMPDEST PUSH2 0x350 PUSH1 0x4 DUP1 CALLDATASIZE SUB DUP2 ADD SWAP1 PUSH2 0x34B SWAP2 SWAP1 PUSH2 0x2428 JUMP JUMPDEST PUSH2 0x188E JUMP JUMPDEST PUSH1 0x40 MLOAD PUSH2 0x35D SWAP2 SWAP1 PUSH2 0x21E8 JUMP JUMPDEST PUSH1 0x40 MLOAD DUP1 SWAP2 SUB SWAP1 RETURN JUMPDEST PUSH2 0x380 PUSH1 0x4 DUP1 CALLDATASIZE SUB DUP2 ADD SWAP1 PUSH2 0x37B SWAP2 SWAP1 PUSH2 0x2428 JUMP JUMPDEST PUSH2 0x18FE JUMP JUMPDEST PUSH1 0x40 MLOAD PUSH2 0x38D SWAP2 SWAP1 PUSH2 0x2997 JUMP JUMPDEST PUSH1 0x40 MLOAD DUP1 SWAP2 SUB SWAP1 RETURN JUMPDEST PUSH2 0x39E PUSH2 0x192D JUMP JUMPDEST PUSH1 0x40 MLOAD PUSH2 0x3AB SWAP2 SWAP1 PUSH2 0x2477 JUMP JUMPDEST PUSH1 0x40 MLOAD DUP1 SWAP2 SUB SWAP1 RETURN JUMPDEST PUSH2 0x3CE PUSH1 0x4 DUP1 CALLDATASIZE SUB DUP2 ADD SWAP1 PUSH2 0x3C9 SWAP2 SWAP1 PUSH2 0x28F3 JUMP JUMPDEST PUSH2 0x1B53 JUMP JUMPDEST STOP JUMPDEST PUSH1 0x60 PUSH2 0x3FE PUSH1 0x2 PUSH1 0x0 DUP5 DUP2 MSTORE PUSH1 0x20 ADD SWAP1 DUP2 MSTORE PUSH1 0x20 ADD PUSH1 0x0 KECCAK256 PUSH1 0x5 ADD PUSH1 0x0 SWAP1 SLOAD SWAP1 PUSH2 0x100 EXP SWAP1 DIV PUSH1 0xFF AND PUSH2 0x1082 JUMP JUMPDEST SWAP1 POP SWAP2 SWAP1 POP JUMP JUMPDEST PUSH1 0x3 PUSH1 0x0 DUP3 DUP2 MSTORE PUSH1 0x20 ADD SWAP1 DUP2 MSTORE PUSH1 0x20 ADD PUSH1 0x0 KECCAK256 PUSH1 0x0 SWAP1 SLOAD SWAP1 PUSH2 0x100 EXP SWAP1 DIV PUSH1 0xFF AND PUSH2 0x465 JUMPI PUSH1 0x40 MLOAD PUSH32 0x8C379A000000000000000000000000000000000000000000000000000000000 DUP2 MSTORE PUSH1 0x4 ADD PUSH2 0x45C SWAP1 PUSH2 0x29FE JUMP JUMPDEST PUSH1 0x40 MLOAD DUP1 SWAP2 SUB SWAP1 REVERT JUMPDEST CALLER PUSH20 0xFFFFFFFFFFFFFFFFFFFFFFFFFFFFFFFFFFFFFFFF AND PUSH1 0x2 PUSH1 0x0 DUP4 DUP2 MSTORE PUSH1 0x20 ADD SWAP1 DUP2 MSTORE PUSH1 0x20 ADD PUSH1 0x0 KECCAK256 PUSH1 0x3 ADD PUSH1 0x0 SWAP1 SLOAD SWAP1 PUSH2 0x100 EXP SWAP1 DIV PUSH20 0xFFFFFFFFFFFFFFFFFFFFFFFFFFFFFFFFFFFFFFFF AND PUSH20 0xFFFFFFFFFFFFFFFFFFFFFFFFFFFFFFFFFFFFFFFF AND EQ PUSH2 0x509 JUMPI PUSH1 0x40 MLOAD PUSH32 0x8C379A000000000000000000000000000000000000000000000000000000000 DUP2 MSTORE PUSH1 0x4 ADD PUSH2 0x500 SWAP1 PUSH2 0x2A90 JUMP JUMPDEST PUSH1 0x40 MLOAD DUP1 SWAP2 SUB SWAP1 REVERT JUMPDEST PUSH1 0x6 PUSH1 0x2 PUSH1 0x0 DUP4 DUP2 MSTORE PUSH1 0x20 ADD SWAP1 DUP2 MSTORE PUSH1 0x20 ADD PUSH1 0x0 KECCAK256 PUSH1 0x5 ADD PUSH1 0x0 PUSH2 0x100 EXP DUP2 SLOAD DUP2 PUSH1 0xFF MUL NOT AND SWAP1 DUP4 PUSH1 0x6 DUP2 GT ISZERO PUSH2 0x543 JUMPI PUSH2 0x542 PUSH2 0x27DF JUMP JUMPDEST JUMPDEST MUL OR SWAP1 SSTORE POP PUSH32 0x16B85F49BF01212961345D3016C9A531894ACCF62EB7680F2045D79185CC0EC0 DUP2 CALLER CALLER PUSH1 0x40 MLOAD PUSH2 0x57B SWAP4 SWAP3 SWAP2 SWAP1 PUSH2 0x2AB0 JUMP JUMPDEST PUSH1 0x40 MLOAD DUP1 SWAP2 SUB SWAP1 LOG1 POP JUMP JUMPDEST DUP3 PUSH1 0x1 DUP1 PUSH1 0x4 DUP2 GT ISZERO PUSH2 0x59C JUMPI PUSH2 0x59B PUSH2 0x27DF JUMP JUMPDEST JUMPDEST PUSH1 0x1 PUSH1 0x0 DUP5 DUP2 MSTORE PUSH1 0x20 ADD SWAP1 DUP2 MSTORE PUSH1 0x20 ADD PUSH1 0x0 KECCAK256 PUSH1 0x0 CALLER PUSH20 0xFFFFFFFFFFFFFFFFFFFFFFFFFFFFFFFFFFFFFFFF AND PUSH20 0xFFFFFFFFFFFFFFFFFFFFFFFFFFFFFFFFFFFFFFFF AND DUP2 MSTORE PUSH1 0x20 ADD SWAP1 DUP2 MSTORE PUSH1 0x20 ADD PUSH1 0x0 KECCAK256 PUSH1 0x0 SWAP1 SLOAD SWAP1 PUSH2 0x100 EXP SWAP1 DIV PUSH1 0xFF AND PUSH1 0x4 DUP2 GT ISZERO PUSH2 0x60C JUMPI PUSH2 0x60B PUSH2 0x27DF JUMP JUMPDEST JUMPDEST EQ PUSH2 0x64C JUMPI PUSH1 0x40 MLOAD PUSH32 0x8C379A000000000000000000000000000000000000000000000000000000000 DUP2 MSTORE PUSH1 0x4 ADD PUSH2 0x643 SWAP1 PUSH2 0x2B59 JUMP JUMPDEST PUSH1 0x40 MLOAD DUP1 SWAP2 SUB SWAP1 REVERT JUMPDEST PUSH1 0x3 PUSH1 0x0 DUP7 DUP2 MSTORE PUSH1 0x20 ADD SWAP1 DUP2 MSTORE PUSH1 0x20 ADD PUSH1 0x0 KECCAK256 PUSH1 0x0 SWAP1 SLOAD SWAP1 PUSH2 0x100 EXP SWAP1 DIV PUSH1 0xFF AND PUSH2 0x6AC JUMPI PUSH1 0x40 MLOAD PUSH32 0x8C379A000000000000000000000000000000000000000000000000000000000 DUP2 MSTORE PUSH1 0x4 ADD PUSH2 0x6A3 SWAP1 PUSH2 0x29FE JUMP JUMPDEST PUSH1 0x40 MLOAD DUP1 SWAP2 SUB SWAP1 REVERT JUMPDEST CALLER PUSH20 0xFFFFFFFFFFFFFFFFFFFFFFFFFFFFFFFFFFFFFFFF AND PUSH1 0x2 PUSH1 0x0 DUP8 DUP2 MSTORE PUSH1 0x20 ADD SWAP1 DUP2 MSTORE PUSH1 0x20 ADD PUSH1 0x0 KECCAK256 PUSH1 0x3 ADD PUSH1 0x0 SWAP1 SLOAD SWAP1 PUSH2 0x100 EXP SWAP1 DIV PUSH20 0xFFFFFFFFFFFFFFFFFFFFFFFFFFFFFFFFFFFFFFFF AND PUSH20 0xFFFFFFFFFFFFFFFFFFFFFFFFFFFFFFFFFFFFFFFF AND EQ PUSH2 0x750 JUMPI PUSH1 0x40 MLOAD PUSH32 0x8C379A000000000000000000000000000000000000000000000000000000000 DUP2 MSTORE PUSH1 0x4 ADD PUSH2 0x747 SWAP1 PUSH2 0x2BC5 JUMP JUMPDEST PUSH1 0x40 MLOAD DUP1 SWAP2 SUB SWAP1 REVERT JUMPDEST PUSH1 0x0 PUSH1 0x40 MLOAD DUP1 PUSH1 0x60 ADD PUSH1 0x40 MSTORE DUP1 DUP7 DUP2 MSTORE PUSH1 0x20 ADD DUP6 DUP2 MSTORE PUSH1 0x20 ADD TIMESTAMP DUP2 MSTORE POP SWAP1 POP PUSH1 0x2 PUSH1 0x0 DUP8 DUP2 MSTORE PUSH1 0x20 ADD SWAP1 DUP2 MSTORE PUSH1 0x20 ADD PUSH1 0x0 KECCAK256 PUSH1 0x1 ADD DUP2 SWAP1 DUP1 PUSH1 0x1 DUP2 SLOAD ADD DUP1 DUP3 SSTORE DUP1 SWAP2 POP POP PUSH1 0x1 SWAP1 SUB SWAP1 PUSH1 0x0 MSTORE PUSH1 0x20 PUSH1 0x0 KECCAK256 SWAP1 PUSH1 0x3 MUL ADD PUSH1 0x0 SWAP1 SWAP2 SWAP1 SWAP2 SWAP1 SWAP2 POP PUSH1 0x0 DUP3 ADD MLOAD DUP2 PUSH1 0x0 ADD SWAP1 DUP1 MLOAD SWAP1 PUSH1 0x20 ADD SWAP1 PUSH2 0x7CB SWAP3 SWAP2 SWAP1 PUSH2 0x2035 JUMP JUMPDEST POP PUSH1 0x20 DUP3 ADD MLOAD DUP2 PUSH1 0x1 ADD SWAP1 DUP1 MLOAD SWAP1 PUSH1 0x20 ADD SWAP1 PUSH2 0x7E8 SWAP3 SWAP2 SWAP1 PUSH2 0x2035 JUMP JUMPDEST POP PUSH1 0x40 DUP3 ADD MLOAD DUP2 PUSH1 0x2 ADD SSTORE POP POP PUSH1 0x1 PUSH1 0x2 PUSH1 0x0 DUP9 DUP2 MSTORE PUSH1 0x20 ADD SWAP1 DUP2 MSTORE PUSH1 0x20 ADD PUSH1 0x0 KECCAK256 PUSH1 0x5 ADD PUSH1 0x0 PUSH2 0x100 EXP DUP2 SLOAD DUP2 PUSH1 0xFF MUL NOT AND SWAP1 DUP4 PUSH1 0x6 DUP2 GT ISZERO PUSH2 0x82F JUMPI PUSH2 0x82E PUSH2 0x27DF JUMP JUMPDEST JUMPDEST MUL OR SWAP1 SSTORE POP PUSH32 0x2E9ABB49E8B9A29BA75D12B719DF776B1B523EAC921C6F1E773272FF48455BB8 DUP7 DUP7 DUP7 PUSH1 0x40 MLOAD PUSH2 0x867 SWAP4 SWAP3 SWAP2 SWAP1 PUSH2 0x2BE5 JUMP JUMPDEST PUSH1 0x40 MLOAD DUP1 SWAP2 SUB SWAP1 LOG1 POP POP POP POP POP POP JUMP JUMPDEST PUSH1 0x3 PUSH1 0x0 DUP4 DUP2 MSTORE PUSH1 0x20 ADD SWAP1 DUP2 MSTORE PUSH1 0x20 ADD PUSH1 0x0 KECCAK256 PUSH1 0x0 SWAP1 SLOAD SWAP1 PUSH2 0x100 EXP SWAP1 DIV PUSH1 0xFF AND PUSH2 0x8D7 JUMPI PUSH1 0x40 MLOAD PUSH32 0x8C379A000000000000000000000000000000000000000000000000000000000 DUP2 MSTORE PUSH1 0x4 ADD PUSH2 0x8CE SWAP1 PUSH2 0x29FE JUMP JUMPDEST PUSH1 0x40 MLOAD DUP1 SWAP2 SUB SWAP1 REVERT JUMPDEST CALLER PUSH20 0xFFFFFFFFFFFFFFFFFFFFFFFFFFFFFFFFFFFFFFFF AND PUSH1 0x2 PUSH1 0x0 DUP5 DUP2 MSTORE PUSH1 0x20 ADD SWAP1 DUP2 MSTORE PUSH1 0x20 ADD PUSH1 0x0 KECCAK256 PUSH1 0x3 ADD PUSH1 0x0 SWAP1 SLOAD SWAP1 PUSH2 0x100 EXP SWAP1 DIV PUSH20 0xFFFFFFFFFFFFFFFFFFFFFFFFFFFFFFFFFFFFFFFF AND PUSH20 0xFFFFFFFFFFFFFFFFFFFFFFFFFFFFFFFFFFFFFFFF AND EQ PUSH2 0x97B JUMPI PUSH1 0x40 MLOAD PUSH32 0x8C379A000000000000000000000000000000000000000000000000000000000 DUP2 MSTORE PUSH1 0x4 ADD PUSH2 0x972 SWAP1 PUSH2 0x2C76 JUMP JUMPDEST PUSH1 0x40 MLOAD DUP1 SWAP2 SUB SWAP1 REVERT JUMPDEST PUSH1 0x0 PUSH20 0xFFFFFFFFFFFFFFFFFFFFFFFFFFFFFFFFFFFFFFFF AND DUP2 PUSH20 0xFFFFFFFFFFFFFFFFFFFFFFFFFFFFFFFFFFFFFFFF AND EQ ISZERO PUSH2 0x9EB JUMPI PUSH1 0x40 MLOAD PUSH32 0x8C379A000000000000000000000000000000000000000000000000000000000 DUP2 MSTORE PUSH1 0x4 ADD PUSH2 0x9E2 SWAP1 PUSH2 0x2CE2 JUMP JUMPDEST PUSH1 0x40 MLOAD DUP1 SWAP2 SUB SWAP1 REVERT JUMPDEST PUSH1 0x0 PUSH1 0x1 PUSH1 0x0 DUP5 DUP2 MSTORE PUSH1 0x20 ADD SWAP1 DUP2 MSTORE PUSH1 0x20 ADD PUSH1 0x0 KECCAK256 PUSH1 0x0 CALLER PUSH20 0xFFFFFFFFFFFFFFFFFFFFFFFFFFFFFFFFFFFFFFFF AND PUSH20 0xFFFFFFFFFFFFFFFFFFFFFFFFFFFFFFFFFFFFFFFF AND DUP2 MSTORE PUSH1 0x20 ADD SWAP1 DUP2 MSTORE PUSH1 0x20 ADD PUSH1 0x0 KECCAK256 PUSH1 0x0 SWAP1 SLOAD SWAP1 PUSH2 0x100 EXP SWAP1 DIV PUSH1 0xFF AND SWAP1 POP PUSH1 0x0 PUSH1 0x1 PUSH1 0x0 DUP6 DUP2 MSTORE PUSH1 0x20 ADD SWAP1 DUP2 MSTORE PUSH1 0x20 ADD PUSH1 0x0 KECCAK256 PUSH1 0x0 DUP5 PUSH20 0xFFFFFFFFFFFFFFFFFFFFFFFFFFFFFFFFFFFFFFFF AND PUSH20 0xFFFFFFFFFFFFFFFFFFFFFFFFFFFFFFFFFFFFFFFF AND DUP2 MSTORE PUSH1 0x20 ADD SWAP1 DUP2 MSTORE PUSH1 0x20 ADD PUSH1 0x0 KECCAK256 PUSH1 0x0 SWAP1 SLOAD SWAP1 PUSH2 0x100 EXP SWAP1 DIV PUSH1 0xFF AND SWAP1 POP PUSH1 0x1 PUSH1 0x4 DUP2 GT ISZERO PUSH2 0xAC3 JUMPI PUSH2 0xAC2 PUSH2 0x27DF JUMP JUMPDEST JUMPDEST DUP3 PUSH1 0x4 DUP2 GT ISZERO PUSH2 0xAD6 JUMPI PUSH2 0xAD5 PUSH2 0x27DF JUMP JUMPDEST JUMPDEST EQ ISZERO PUSH2 0xB48 JUMPI PUSH1 0x2 PUSH1 0x4 DUP2 GT ISZERO PUSH2 0xAF0 JUMPI PUSH2 0xAEF PUSH2 0x27DF JUMP JUMPDEST JUMPDEST DUP2 PUSH1 0x4 DUP2 GT ISZERO PUSH2 0xB03 JUMPI PUSH2 0xB02 PUSH2 0x27DF JUMP JUMPDEST JUMPDEST EQ PUSH2 0xB43 JUMPI PUSH1 0x40 MLOAD PUSH32 0x8C379A000000000000000000000000000000000000000000000000000000000 DUP2 MSTORE PUSH1 0x4 ADD PUSH2 0xB3A SWAP1 PUSH2 0x2D4E JUMP JUMPDEST PUSH1 0x40 MLOAD DUP1 SWAP2 SUB SWAP1 REVERT JUMPDEST PUSH2 0xCE9 JUMP JUMPDEST PUSH1 0x2 PUSH1 0x4 DUP2 GT ISZERO PUSH2 0xB5C JUMPI PUSH2 0xB5B PUSH2 0x27DF JUMP JUMPDEST JUMPDEST DUP3 PUSH1 0x4 DUP2 GT ISZERO PUSH2 0xB6F JUMPI PUSH2 0xB6E PUSH2 0x27DF JUMP JUMPDEST JUMPDEST EQ ISZERO PUSH2 0xBE1 JUMPI PUSH1 0x3 PUSH1 0x4 DUP2 GT ISZERO PUSH2 0xB89 JUMPI PUSH2 0xB88 PUSH2 0x27DF JUMP JUMPDEST JUMPDEST DUP2 PUSH1 0x4 DUP2 GT ISZERO PUSH2 0xB9C JUMPI PUSH2 0xB9B PUSH2 0x27DF JUMP JUMPDEST JUMPDEST EQ PUSH2 0xBDC JUMPI PUSH1 0x40 MLOAD PUSH32 0x8C379A000000000000000000000000000000000000000000000000000000000 DUP2 MSTORE PUSH1 0x4 ADD PUSH2 0xBD3 SWAP1 PUSH2 0x2DBA JUMP JUMPDEST PUSH1 0x40 MLOAD DUP1 SWAP2 SUB SWAP1 REVERT JUMPDEST PUSH2 0xCE8 JUMP JUMPDEST PUSH1 0x3 PUSH1 0x4 DUP2 GT ISZERO PUSH2 0xBF5 JUMPI PUSH2 0xBF4 PUSH2 0x27DF JUMP JUMPDEST JUMPDEST DUP3 PUSH1 0x4 DUP2 GT ISZERO PUSH2 0xC08 JUMPI PUSH2 0xC07 PUSH2 0x27DF JUMP JUMPDEST JUMPDEST EQ ISZERO PUSH2 0xC79 JUMPI PUSH1 0x4 DUP1 DUP2 GT ISZERO PUSH2 0xC21 JUMPI PUSH2 0xC20 PUSH2 0x27DF JUMP JUMPDEST JUMPDEST DUP2 PUSH1 0x4 DUP2 GT ISZERO PUSH2 0xC34 JUMPI PUSH2 0xC33 PUSH2 0x27DF JUMP JUMPDEST JUMPDEST EQ PUSH2 0xC74 JUMPI PUSH1 0x40 MLOAD PUSH32 0x8C379A000000000000000000000000000000000000000000000000000000000 DUP2 MSTORE PUSH1 0x4 ADD PUSH2 0xC6B SWAP1 PUSH2 0x2E26 JUMP JUMPDEST PUSH1 0x40 MLOAD DUP1 SWAP2 SUB SWAP1 REVERT JUMPDEST PUSH2 0xCE7 JUMP JUMPDEST PUSH2 0xC82 DUP3 PUSH2 0x1DE4 JUMP JUMPDEST PUSH2 0xC8B DUP3 PUSH2 0x1DE4 JUMP JUMPDEST PUSH1 0x40 MLOAD PUSH1 0x20 ADD PUSH2 0xC9C SWAP3 SWAP2 SWAP1 PUSH2 0x2ECE JUMP JUMPDEST PUSH1 0x40 MLOAD PUSH1 0x20 DUP2 DUP4 SUB SUB DUP2 MSTORE SWAP1 PUSH1 0x40 MSTORE PUSH1 0x40 MLOAD PUSH32 0x8C379A000000000000000000000000000000000000000000000000000000000 DUP2 MSTORE PUSH1 0x4 ADD PUSH2 0xCDE SWAP2 SWAP1 PUSH2 0x21E8 JUMP JUMPDEST PUSH1 0x40 MLOAD DUP1 SWAP2 SUB SWAP1 REVERT JUMPDEST JUMPDEST JUMPDEST PUSH1 0x4 PUSH1 0x2 PUSH1 0x0 DUP7 DUP2 MSTORE PUSH1 0x20 ADD SWAP1 DUP2 MSTORE PUSH1 0x20 ADD PUSH1 0x0 KECCAK256 PUSH1 0x5 ADD PUSH1 0x0 PUSH2 0x100 EXP DUP2 SLOAD DUP2 PUSH1 0xFF MUL NOT AND SWAP1 DUP4 PUSH1 0x6 DUP2 GT ISZERO PUSH2 0xD23 JUMPI PUSH2 0xD22 PUSH2 0x27DF JUMP JUMPDEST JUMPDEST MUL OR SWAP1 SSTORE POP DUP3 PUSH1 0x2 PUSH1 0x0 DUP7 DUP2 MSTORE PUSH1 0x20 ADD SWAP1 DUP2 MSTORE PUSH1 0x20 ADD PUSH1 0x0 KECCAK256 PUSH1 0x3 ADD PUSH1 0x0 PUSH2 0x100 EXP DUP2 SLOAD DUP2 PUSH20 0xFFFFFFFFFFFFFFFFFFFFFFFFFFFFFFFFFFFFFFFF MUL NOT AND SWAP1 DUP4 PUSH20 0xFFFFFFFFFFFFFFFFFFFFFFFFFFFFFFFFFFFFFFFF AND MUL OR SWAP1 SSTORE POP PUSH1 0x2 PUSH1 0x0 DUP6 DUP2 MSTORE PUSH1 0x20 ADD SWAP1 DUP2 MSTORE PUSH1 0x20 ADD PUSH1 0x0 KECCAK256 PUSH1 0x4 ADD DUP4 SWAP1 DUP1 PUSH1 0x1 DUP2 SLOAD ADD DUP1 DUP3 SSTORE DUP1 SWAP2 POP POP PUSH1 0x1 SWAP1 SUB SWAP1 PUSH1 0x0 MSTORE PUSH1 0x20 PUSH1 0x0 KECCAK256 ADD PUSH1 0x0 SWAP1 SWAP2 SWAP1 SWAP2 SWAP1 SWAP2 PUSH2 0x100 EXP DUP2 SLOAD DUP2 PUSH20 0xFFFFFFFFFFFFFFFFFFFFFFFFFFFFFFFFFFFFFFFF MUL NOT AND SWAP1 DUP4 PUSH20 0xFFFFFFFFFFFFFFFFFFFFFFFFFFFFFFFFFFFFFFFF AND MUL OR SWAP1 SSTORE POP PUSH32 0x16B85F49BF01212961345D3016C9A531894ACCF62EB7680F2045D79185CC0EC0 DUP5 CALLER DUP6 PUSH1 0x40 MLOAD PUSH2 0xE27 SWAP4 SWAP3 SWAP2 SWAP1 PUSH2 0x2AB0 JUMP JUMPDEST PUSH1 0x40 MLOAD DUP1 SWAP2 SUB SWAP1 LOG1 POP POP POP POP JUMP JUMPDEST PUSH1 0x4 SLOAD DUP2 JUMP JUMPDEST PUSH1 0x60 PUSH1 0x2 PUSH1 0x0 DUP4 DUP2 MSTORE PUSH1 0x20 ADD SWAP1 DUP2 MSTORE PUSH1 0x20 ADD PUSH1 0x0 KECCAK256 PUSH1 0x4 ADD DUP1 SLOAD DUP1 PUSH1 0x20 MUL PUSH1 0x20 ADD PUSH1 0x40 MLOAD SWAP1 DUP2 ADD PUSH1 0x40 MSTORE DUP1 SWAP3 SWAP2 SWAP1 DUP2 DUP2 MSTORE PUSH1 0x20 ADD DUP3 DUP1 SLOAD DUP1 ISZERO PUSH2 0xED3 JUMPI PUSH1 0x20 MUL DUP3 ADD SWAP2 SWAP1 PUSH1 0x0 MSTORE PUSH1 0x20 PUSH1 0x0 KECCAK256 SWAP1 JUMPDEST DUP2 PUSH1 0x0 SWAP1 SLOAD SWAP1 PUSH2 0x100 EXP SWAP1 DIV PUSH20 0xFFFFFFFFFFFFFFFFFFFFFFFFFFFFFFFFFFFFFFFF AND PUSH20 0xFFFFFFFFFFFFFFFFFFFFFFFFFFFFFFFFFFFFFFFF AND DUP2 MSTORE PUSH1 0x20 ADD SWAP1 PUSH1 0x1 ADD SWAP1 DUP1 DUP4 GT PUSH2 0xE89 JUMPI JUMPDEST POP POP POP POP POP SWAP1 POP SWAP2 SWAP1 POP JUMP JUMPDEST PUSH1 0x60 PUSH1 0x2 PUSH1 0x0 DUP4 DUP2 MSTORE PUSH1 0x20 ADD SWAP1 DUP2 MSTORE PUSH1 0x20 ADD PUSH1 0x0 KECCAK256 PUSH1 0x1 ADD DUP1 SLOAD DUP1 PUSH1 0x20 MUL PUSH1 0x20 ADD PUSH1 0x40 MLOAD SWAP1 DUP2 ADD PUSH1 0x40 MSTORE DUP1 SWAP3 SWAP2 SWAP1 DUP2 DUP2 MSTORE PUSH1 0x20 ADD PUSH1 0x0 SWAP1 JUMPDEST DUP3 DUP3 LT ISZERO PUSH2 0x1077 JUMPI DUP4 DUP3 SWAP1 PUSH1 0x0 MSTORE PUSH1 0x20 PUSH1 0x0 KECCAK256 SWAP1 PUSH1 0x3 MUL ADD PUSH1 0x40 MLOAD DUP1 PUSH1 0x60 ADD PUSH1 0x40 MSTORE SWAP1 DUP2 PUSH1 0x0 DUP3 ADD DUP1 SLOAD PUSH2 0xF4A SWAP1 PUSH2 0x2F3F JUMP JUMPDEST DUP1 PUSH1 0x1F ADD PUSH1 0x20 DUP1 SWAP2 DIV MUL PUSH1 0x20 ADD PUSH1 0x40 MLOAD SWAP1 DUP2 ADD PUSH1 0x40 MSTORE DUP1 SWAP3 SWAP2 SWAP1 DUP2 DUP2 MSTORE PUSH1 0x20 ADD DUP3 DUP1 SLOAD PUSH2 0xF76 SWAP1 PUSH2 0x2F3F JUMP JUMPDEST DUP1 ISZERO PUSH2 0xFC3 JUMPI DUP1 PUSH1 0x1F LT PUSH2 0xF98 JUMPI PUSH2 0x100 DUP1 DUP4 SLOAD DIV MUL DUP4 MSTORE SWAP2 PUSH1 0x20 ADD SWAP2 PUSH2 0xFC3 JUMP JUMPDEST DUP3 ADD SWAP2 SWAP1 PUSH1 0x0 MSTORE PUSH1 0x20 PUSH1 0x0 KECCAK256 SWAP1 JUMPDEST DUP2 SLOAD DUP2 MSTORE SWAP1 PUSH1 0x1 ADD SWAP1 PUSH1 0x20 ADD DUP1 DUP4 GT PUSH2 0xFA6 JUMPI DUP3 SWAP1 SUB PUSH1 0x1F AND DUP3 ADD SWAP2 JUMPDEST POP POP POP POP POP DUP2 MSTORE PUSH1 0x20 ADD PUSH1 0x1 DUP3 ADD DUP1 SLOAD PUSH2 0xFDC SWAP1 PUSH2 0x2F3F JUMP JUMPDEST DUP1 PUSH1 0x1F ADD PUSH1 0x20 DUP1 SWAP2 DIV MUL PUSH1 0x20 ADD PUSH1 0x40 MLOAD SWAP1 DUP2 ADD PUSH1 0x40 MSTORE DUP1 SWAP3 SWAP2 SWAP1 DUP2 DUP2 MSTORE PUSH1 0x20 ADD DUP3 DUP1 SLOAD PUSH2 0x1008 SWAP1 PUSH2 0x2F3F JUMP JUMPDEST DUP1 ISZERO PUSH2 0x1055 JUMPI DUP1 PUSH1 0x1F LT PUSH2 0x102A JUMPI PUSH2 0x100 DUP1 DUP4 SLOAD DIV MUL DUP4 MSTORE SWAP2 PUSH1 0x20 ADD SWAP2 PUSH2 0x1055 JUMP JUMPDEST DUP3 ADD SWAP2 SWAP1 PUSH1 0x0 MSTORE PUSH1 0x20 PUSH1 0x0 KECCAK256 SWAP1 JUMPDEST DUP2 SLOAD DUP2 MSTORE SWAP1 PUSH1 0x1 ADD SWAP1 PUSH1 0x20 ADD DUP1 DUP4 GT PUSH2 0x1038 JUMPI DUP3 SWAP1 SUB PUSH1 0x1F AND DUP3 ADD SWAP2 JUMPDEST POP POP POP POP POP DUP2 MSTORE PUSH1 0x20 ADD PUSH1 0x2 DUP3 ADD SLOAD DUP2 MSTORE POP POP DUP2 MSTORE PUSH1 0x20 ADD SWAP1 PUSH1 0x1 ADD SWAP1 PUSH2 0xF17 JUMP JUMPDEST POP POP POP POP SWAP1 POP SWAP2 SWAP1 POP JUMP JUMPDEST PUSH1 0x60 PUSH1 0x0 PUSH1 0x6 DUP2 GT ISZERO PUSH2 0x1098 JUMPI PUSH2 0x1097 PUSH2 0x27DF JUMP JUMPDEST JUMPDEST DUP3 PUSH1 0x6 DUP2 GT ISZERO PUSH2 0x10AB JUMPI PUSH2 0x10AA PUSH2 0x27DF JUMP JUMPDEST JUMPDEST EQ ISZERO PUSH2 0x10EE JUMPI PUSH1 0x40 MLOAD DUP1 PUSH1 0x40 ADD PUSH1 0x40 MSTORE DUP1 PUSH1 0x7 DUP2 MSTORE PUSH1 0x20 ADD PUSH32 0x4372656174656400000000000000000000000000000000000000000000000000 DUP2 MSTORE POP SWAP1 POP PUSH2 0x13A2 JUMP JUMPDEST PUSH1 0x1 PUSH1 0x6 DUP2 GT ISZERO PUSH2 0x1102 JUMPI PUSH2 0x1101 PUSH2 0x27DF JUMP JUMPDEST JUMPDEST DUP3 PUSH1 0x6 DUP2 GT ISZERO PUSH2 0x1115 JUMPI PUSH2 0x1114 PUSH2 0x27DF JUMP JUMPDEST JUMPDEST EQ ISZERO PUSH2 0x1158 JUMPI PUSH1 0x40 MLOAD DUP1 PUSH1 0x40 ADD PUSH1 0x40 MSTORE DUP1 PUSH1 0xF DUP2 MSTORE PUSH1 0x20 ADD PUSH32 0x4D6174657269616C734C6F676765640000000000000000000000000000000000 DUP2 MSTORE POP SWAP1 POP PUSH2 0x13A2 JUMP JUMPDEST PUSH1 0x2 PUSH1 0x6 DUP2 GT ISZERO PUSH2 0x116C JUMPI PUSH2 0x116B PUSH2 0x27DF JUMP JUMPDEST JUMPDEST DUP3 PUSH1 0x6 DUP2 GT ISZERO PUSH2 0x117F JUMPI PUSH2 0x117E PUSH2 0x27DF JUMP JUMPDEST JUMPDEST EQ ISZERO PUSH2 0x11C2 JUMPI PUSH1 0x40 MLOAD DUP1 PUSH1 0x40 ADD PUSH1 0x40 MSTORE DUP1 PUSH1 0x15 DUP2 MSTORE PUSH1 0x20 ADD PUSH32 0x4D616E75666163747572696E6756657269666965640000000000000000000000 DUP2 MSTORE POP SWAP1 POP PUSH2 0x13A2 JUMP JUMPDEST PUSH1 0x3 PUSH1 0x6 DUP2 GT ISZERO PUSH2 0x11D6 JUMPI PUSH2 0x11D5 PUSH2 0x27DF JUMP JUMPDEST JUMPDEST DUP3 PUSH1 0x6 DUP2 GT ISZERO PUSH2 0x11E9 JUMPI PUSH2 0x11E8 PUSH2 0x27DF JUMP JUMPDEST JUMPDEST EQ ISZERO PUSH2 0x122C JUMPI PUSH1 0x40 MLOAD DUP1 PUSH1 0x40 ADD PUSH1 0x40 MSTORE DUP1 PUSH1 0xC DUP2 MSTORE PUSH1 0x20 ADD PUSH32 0x4D616E7566616374757265640000000000000000000000000000000000000000 DUP2 MSTORE POP SWAP1 POP PUSH2 0x13A2 JUMP JUMPDEST PUSH1 0x4 PUSH1 0x6 DUP2 GT ISZERO PUSH2 0x1240 JUMPI PUSH2 0x123F PUSH2 0x27DF JUMP JUMPDEST JUMPDEST DUP3 PUSH1 0x6 DUP2 GT ISZERO PUSH2 0x1253 JUMPI PUSH2 0x1252 PUSH2 0x27DF JUMP JUMPDEST JUMPDEST EQ ISZERO PUSH2 0x1296 JUMPI PUSH1 0x40 MLOAD DUP1 PUSH1 0x40 ADD PUSH1 0x40 MSTORE DUP1 PUSH1 0x9 DUP2 MSTORE PUSH1 0x20 ADD PUSH32 0x496E5472616E7369740000000000000000000000000000000000000000000000 DUP2 MSTORE POP SWAP1 POP PUSH2 0x13A2 JUMP JUMPDEST PUSH1 0x5 PUSH1 0x6 DUP2 GT ISZERO PUSH2 0x12AA JUMPI PUSH2 0x12A9 PUSH2 0x27DF JUMP JUMPDEST JUMPDEST DUP3 PUSH1 0x6 DUP2 GT ISZERO PUSH2 0x12BD JUMPI PUSH2 0x12BC PUSH2 0x27DF JUMP JUMPDEST JUMPDEST EQ ISZERO PUSH2 0x1300 JUMPI PUSH1 0x40 MLOAD DUP1 PUSH1 0x40 ADD PUSH1 0x40 MSTORE DUP1 PUSH1 0x9 DUP2 MSTORE PUSH1 0x20 ADD PUSH32 0x44656C6976657265640000000000000000000000000000000000000000000000 DUP2 MSTORE POP SWAP1 POP PUSH2 0x13A2 JUMP JUMPDEST PUSH1 0x6 DUP1 DUP2 GT ISZERO PUSH2 0x1313 JUMPI PUSH2 0x1312 PUSH2 0x27DF JUMP JUMPDEST JUMPDEST DUP3 PUSH1 0x6 DUP2 GT ISZERO PUSH2 0x1326 JUMPI PUSH2 0x1325 PUSH2 0x27DF JUMP JUMPDEST JUMPDEST EQ ISZERO PUSH2 0x1369 JUMPI PUSH1 0x40 MLOAD DUP1 PUSH1 0x40 ADD PUSH1 0x40 MSTORE DUP1 PUSH1 0x9 DUP2 MSTORE PUSH1 0x20 ADD PUSH32 0x46696E616C697A65640000000000000000000000000000000000000000000000 DUP2 MSTORE POP SWAP1 POP PUSH2 0x13A2 JUMP JUMPDEST PUSH1 0x40 MLOAD DUP1 PUSH1 0x40 ADD PUSH1 0x40 MSTORE DUP1 PUSH1 0x7 DUP2 MSTORE PUSH1 0x20 ADD PUSH32 0x556E6B6E6F776E00000000000000000000000000000000000000000000000000 DUP2 MSTORE POP SWAP1 POP JUMPDEST SWAP2 SWAP1 POP JUMP JUMPDEST PUSH1 0x0 DUP1 SLOAD SWAP1 PUSH2 0x100 EXP SWAP1 DIV PUSH20 0xFFFFFFFFFFFFFFFFFFFFFFFFFFFFFFFFFFFFFFFF AND PUSH20 0xFFFFFFFFFFFFFFFFFFFFFFFFFFFFFFFFFFFFFFFF AND CALLER PUSH20 0xFFFFFFFFFFFFFFFFFFFFFFFFFFFFFFFFFFFFFFFF AND EQ PUSH2 0x1435 JUMPI PUSH1 0x40 MLOAD PUSH32 0x8C379A000000000000000000000000000000000000000000000000000000000 DUP2 MSTORE PUSH1 0x4 ADD PUSH2 0x142C SWAP1 PUSH2 0x2FBD JUMP JUMPDEST PUSH1 0x40 MLOAD DUP1 SWAP2 SUB SWAP1 REVERT JUMPDEST DUP1 PUSH1 0x1 PUSH1 0x0 DUP6 DUP2 MSTORE PUSH1 0x20 ADD SWAP1 DUP2 MSTORE PUSH1 0x20 ADD PUSH1 0x0 KECCAK256 PUSH1 0x0 DUP5 PUSH20 0xFFFFFFFFFFFFFFFFFFFFFFFFFFFFFFFFFFFFFFFF AND PUSH20 0xFFFFFFFFFFFFFFFFFFFFFFFFFFFFFFFFFFFFFFFF AND DUP2 MSTORE PUSH1 0x20 ADD SWAP1 DUP2 MSTORE PUSH1 0x20 ADD PUSH1 0x0 KECCAK256 PUSH1 0x0 PUSH2 0x100 EXP DUP2 SLOAD DUP2 PUSH1 0xFF MUL NOT AND SWAP1 DUP4 PUSH1 0x4 DUP2 GT ISZERO PUSH2 0x14A8 JUMPI PUSH2 0x14A7 PUSH2 0x27DF JUMP JUMPDEST JUMPDEST MUL OR SWAP1 SSTORE POP POP POP POP JUMP JUMPDEST PUSH1 0x2 PUSH1 0x20 MSTORE DUP1 PUSH1 0x0 MSTORE PUSH1 0x40 PUSH1 0x0 KECCAK256 PUSH1 0x0 SWAP2 POP SWAP1 POP DUP1 PUSH1 0x0 ADD SLOAD SWAP1 DUP1 PUSH1 0x2 ADD DUP1 SLOAD PUSH2 0x14DB SWAP1 PUSH2 0x2F3F JUMP JUMPDEST DUP1 PUSH1 0x1F ADD PUSH1 0x20 DUP1 SWAP2 DIV MUL PUSH1 0x20 ADD PUSH1 0x40 MLOAD SWAP1 DUP2 ADD PUSH1 0x40 MSTORE DUP1 SWAP3 SWAP2 SWAP1 DUP2 DUP2 MSTORE PUSH1 0x20 ADD DUP3 DUP1 SLOAD PUSH2 0x1507 SWAP1 PUSH2 0x2F3F JUMP JUMPDEST DUP1 ISZERO PUSH2 0x1554 JUMPI DUP1 PUSH1 0x1F LT PUSH2 0x1529 JUMPI PUSH2 0x100 DUP1 DUP4 SLOAD DIV MUL DUP4 MSTORE SWAP2 PUSH1 0x20 ADD SWAP2 PUSH2 0x1554 JUMP JUMPDEST DUP3 ADD SWAP2 SWAP1 PUSH1 0x0 MSTORE PUSH1 0x20 PUSH1 0x0 KECCAK256 SWAP1 JUMPDEST DUP2 SLOAD DUP2 MSTORE SWAP1 PUSH1 0x1 ADD SWAP1 PUSH1 0x20 ADD DUP1 DUP4 GT PUSH2 0x1537 JUMPI DUP3 SWAP1 SUB PUSH1 0x1F AND DUP3 ADD SWAP2 JUMPDEST POP POP POP POP POP SWAP1 DUP1 PUSH1 0x3 ADD PUSH1 0x0 SWAP1 SLOAD SWAP1 PUSH2 0x100 EXP SWAP1 DIV PUSH20 0xFFFFFFFFFFFFFFFFFFFFFFFFFFFFFFFFFFFFFFFF AND SWAP1 DUP1 PUSH1 0x5 ADD PUSH1 0x0 SWAP1 SLOAD SWAP1 PUSH2 0x100 EXP SWAP1 DIV PUSH1 0xFF AND SWAP1 POP DUP5 JUMP JUMPDEST PUSH1 0x0 PUSH1 0x2 PUSH1 0x0 DUP4 DUP2 MSTORE PUSH1 0x20 ADD SWAP1 DUP2 MSTORE PUSH1 0x20 ADD PUSH1 0x0 KECCAK256 PUSH1 0x3 ADD PUSH1 0x0 SWAP1 SLOAD SWAP1 PUSH2 0x100 EXP SWAP1 DIV PUSH20 0xFFFFFFFFFFFFFFFFFFFFFFFFFFFFFFFFFFFFFFFF AND SWAP1 POP SWAP2 SWAP1 POP JUMP JUMPDEST PUSH1 0x0 DUP1 SLOAD SWAP1 PUSH2 0x100 EXP SWAP1 DIV PUSH20 0xFFFFFFFFFFFFFFFFFFFFFFFFFFFFFFFFFFFFFFFF AND DUP2 JUMP JUMPDEST PUSH1 0x3 PUSH1 0x20 MSTORE DUP1 PUSH1 0x0 MSTORE PUSH1 0x40 PUSH1 0x0 KECCAK256 PUSH1 0x0 SWAP2 POP SLOAD SWAP1 PUSH2 0x100 EXP SWAP1 DIV PUSH1 0xFF AND DUP2 JUMP JUMPDEST DUP2 PUSH1 0x2 DUP1 PUSH1 0x4 DUP2 GT ISZERO PUSH2 0x1631 JUMPI PUSH2 0x1630 PUSH2 0x27DF JUMP JUMPDEST JUMPDEST PUSH1 0x1 PUSH1 0x0 DUP5 DUP2 MSTORE PUSH1 0x20 ADD SWAP1 DUP2 MSTORE PUSH1 0x20 ADD PUSH1 0x0 KECCAK256 PUSH1 0x0 CALLER PUSH20 0xFFFFFFFFFFFFFFFFFFFFFFFFFFFFFFFFFFFFFFFF AND PUSH20 0xFFFFFFFFFFFFFFFFFFFFFFFFFFFFFFFFFFFFFFFF AND DUP2 MSTORE PUSH1 0x20 ADD SWAP1 DUP2 MSTORE PUSH1 0x20 ADD PUSH1 0x0 KECCAK256 PUSH1 0x0 SWAP1 SLOAD SWAP1 PUSH2 0x100 EXP SWAP1 DIV PUSH1 0xFF AND PUSH1 0x4 DUP2 GT ISZERO PUSH2 0x16A1 JUMPI PUSH2 0x16A0 PUSH2 0x27DF JUMP JUMPDEST JUMPDEST EQ PUSH2 0x16E1 JUMPI PUSH1 0x40 MLOAD PUSH32 0x8C379A000000000000000000000000000000000000000000000000000000000 DUP2 MSTORE PUSH1 0x4 ADD PUSH2 0x16D8 SWAP1 PUSH2 0x2B59 JUMP JUMPDEST PUSH1 0x40 MLOAD DUP1 SWAP2 SUB SWAP1 REVERT JUMPDEST PUSH1 0x3 PUSH1 0x0 DUP6 DUP2 MSTORE PUSH1 0x20 ADD SWAP1 DUP2 MSTORE PUSH1 0x20 ADD PUSH1 0x0 KECCAK256 PUSH1 0x0 SWAP1 SLOAD SWAP1 PUSH2 0x100 EXP SWAP1 DIV PUSH1 0xFF AND PUSH2 0x1741 JUMPI PUSH1 0x40 MLOAD PUSH32 0x8C379A000000000000000000000000000000000000000000000000000000000 DUP2 MSTORE PUSH1 0x4 ADD PUSH2 0x1738 SWAP1 PUSH2 0x29FE JUMP JUMPDEST PUSH1 0x40 MLOAD DUP1 SWAP2 SUB SWAP1 REVERT JUMPDEST CALLER PUSH20 0xFFFFFFFFFFFFFFFFFFFFFFFFFFFFFFFFFFFFFFFF AND PUSH1 0x2 PUSH1 0x0 DUP7 DUP2 MSTORE PUSH1 0x20 ADD SWAP1 DUP2 MSTORE PUSH1 0x20 ADD PUSH1 0x0 KECCAK256 PUSH1 0x3 ADD PUSH1 0x0 SWAP1 SLOAD SWAP1 PUSH2 0x100 EXP SWAP1 DIV PUSH20 0xFFFFFFFFFFFFFFFFFFFFFFFFFFFFFFFFFFFFFFFF AND PUSH20 0xFFFFFFFFFFFFFFFFFFFFFFFFFFFFFFFFFFFFFFFF AND EQ PUSH2 0x17E5 JUMPI PUSH1 0x40 MLOAD PUSH32 0x8C379A000000000000000000000000000000000000000000000000000000000 DUP2 MSTORE PUSH1 0x4 ADD PUSH2 0x17DC SWAP1 PUSH2 0x3029 JUMP JUMPDEST PUSH1 0x40 MLOAD DUP1 SWAP2 SUB SWAP1 REVERT JUMPDEST DUP3 PUSH1 0x2 PUSH1 0x0 DUP7 DUP2 MSTORE PUSH1 0x20 ADD SWAP1 DUP2 MSTORE PUSH1 0x20 ADD PUSH1 0x0 KECCAK256 PUSH1 0x2 ADD SWAP1 DUP1 MLOAD SWAP1 PUSH1 0x20 ADD SWAP1 PUSH2 0x180F SWAP3 SWAP2 SWAP1 PUSH2 0x2035 JUMP JUMPDEST POP PUSH1 0x3 PUSH1 0x2 PUSH1 0x0 DUP7 DUP2 MSTORE PUSH1 0x20 ADD SWAP1 DUP2 MSTORE PUSH1 0x20 ADD PUSH1 0x0 KECCAK256 PUSH1 0x5 ADD PUSH1 0x0 PUSH2 0x100 EXP DUP2 SLOAD DUP2 PUSH1 0xFF MUL NOT AND SWAP1 DUP4 PUSH1 0x6 DUP2 GT ISZERO PUSH2 0x184A JUMPI PUSH2 0x1849 PUSH2 0x27DF JUMP JUMPDEST JUMPDEST MUL OR SWAP1 SSTORE POP PUSH32 0xEC3AE4350812C56655D3AC5AEA7ECC17434D05FB3571ECA3E293B924FF187332 DUP5 DUP5 PUSH1 0x40 MLOAD PUSH2 0x1880 SWAP3 SWAP2 SWAP1 PUSH2 0x3049 JUMP JUMPDEST PUSH1 0x40 MLOAD DUP1 SWAP2 SUB SWAP1 LOG1 POP POP POP POP JUMP JUMPDEST PUSH1 0x60 PUSH2 0x18F6 PUSH1 0x1 PUSH1 0x0 DUP6 DUP2 MSTORE PUSH1 0x20 ADD SWAP1 DUP2 MSTORE PUSH1 0x20 ADD PUSH1 0x0 KECCAK256 PUSH1 0x0 DUP5 PUSH20 0xFFFFFFFFFFFFFFFFFFFFFFFFFFFFFFFFFFFFFFFF AND PUSH20 0xFFFFFFFFFFFFFFFFFFFFFFFFFFFFFFFFFFFFFFFF AND DUP2 MSTORE PUSH1 0x20 ADD SWAP1 DUP2 MSTORE PUSH1 0x20 ADD PUSH1 0x0 KECCAK256 PUSH1 0x0 SWAP1 SLOAD SWAP1 PUSH2 0x100 EXP SWAP1 DIV PUSH1 0xFF AND PUSH2 0x1DE4 JUMP JUMPDEST SWAP1 POP SWAP3 SWAP2 POP POP JUMP JUMPDEST PUSH1 0x1 PUSH1 0x20 MSTORE DUP2 PUSH1 0x0 MSTORE PUSH1 0x40 PUSH1 0x0 KECCAK256 PUSH1 0x20 MSTORE DUP1 PUSH1 0x0 MSTORE PUSH1 0x40 PUSH1 0x0 KECCAK256 PUSH1 0x0 SWAP2 POP SWAP2 POP SWAP1 SLOAD SWAP1 PUSH2 0x100 EXP SWAP1 DIV PUSH1 0xFF AND DUP2 JUMP JUMPDEST PUSH1 0x0 DUP1 PUSH1 0x4 PUSH1 0x0 DUP2 SLOAD DUP1 SWAP3 SWAP2 SWAP1 PUSH2 0x1943 SWAP1 PUSH2 0x30A8 JUMP JUMPDEST SWAP2 SWAP1 POP SSTORE SWAP1 POP DUP1 PUSH1 0x2 PUSH1 0x0 DUP4 DUP2 MSTORE PUSH1 0x20 ADD SWAP1 DUP2 MSTORE PUSH1 0x20 ADD PUSH1 0x0 KECCAK256 PUSH1 0x0 ADD DUP2 SWAP1 SSTORE POP CALLER PUSH1 0x2 PUSH1 0x0 DUP4 DUP2 MSTORE PUSH1 0x20 ADD SWAP1 DUP2 MSTORE PUSH1 0x20 ADD PUSH1 0x0 KECCAK256 PUSH1 0x3 ADD PUSH1 0x0 PUSH2 0x100 EXP DUP2 SLOAD DUP2 PUSH20 0xFFFFFFFFFFFFFFFFFFFFFFFFFFFFFFFFFFFFFFFF MUL NOT AND SWAP1 DUP4 PUSH20 0xFFFFFFFFFFFFFFFFFFFFFFFFFFFFFFFFFFFFFFFF AND MUL OR SWAP1 SSTORE POP PUSH1 0x2 PUSH1 0x0 DUP3 DUP2 MSTORE PUSH1 0x20 ADD SWAP1 DUP2 MSTORE PUSH1 0x20 ADD PUSH1 0x0 KECCAK256 PUSH1 0x4 ADD CALLER SWAP1 DUP1 PUSH1 0x1 DUP2 SLOAD ADD DUP1 DUP3 SSTORE DUP1 SWAP2 POP POP PUSH1 0x1 SWAP1 SUB SWAP1 PUSH1 0x0 MSTORE PUSH1 0x20 PUSH1 0x0 KECCAK256 ADD PUSH1 0x0 SWAP1 SWAP2 SWAP1 SWAP2 SWAP1 SWAP2 PUSH2 0x100 EXP DUP2 SLOAD DUP2 PUSH20 0xFFFFFFFFFFFFFFFFFFFFFFFFFFFFFFFFFFFFFFFF MUL NOT AND SWAP1 DUP4 PUSH20 0xFFFFFFFFFFFFFFFFFFFFFFFFFFFFFFFFFFFFFFFF AND MUL OR SWAP1 SSTORE POP PUSH1 0x0 PUSH1 0x2 PUSH1 0x0 DUP4 DUP2 MSTORE PUSH1 0x20 ADD SWAP1 DUP2 MSTORE PUSH1 0x20 ADD PUSH1 0x0 KECCAK256 PUSH1 0x5 ADD PUSH1 0x0 PUSH2 0x100 EXP DUP2 SLOAD DUP2 PUSH1 0xFF MUL NOT AND SWAP1 DUP4 PUSH1 0x6 DUP2 GT ISZERO PUSH2 0x1A6A JUMPI PUSH2 0x1A69 PUSH2 0x27DF JUMP JUMPDEST JUMPDEST MUL OR SWAP1 SSTORE POP PUSH1 0x1 PUSH1 0x3 PUSH1 0x0 DUP4 DUP2 MSTORE PUSH1 0x20 ADD SWAP1 DUP2 MSTORE PUSH1 0x20 ADD PUSH1 0x0 KECCAK256 PUSH1 0x0 PUSH2 0x100 EXP DUP2 SLOAD DUP2 PUSH1 0xFF MUL NOT AND SWAP1 DUP4 ISZERO ISZERO MUL OR SWAP1 SSTORE POP PUSH1 0x1 DUP1 PUSH1 0x0 DUP4 DUP2 MSTORE PUSH1 0x20 ADD SWAP1 DUP2 MSTORE PUSH1 0x20 ADD PUSH1 0x0 KECCAK256 PUSH1 0x0 CALLER PUSH20 0xFFFFFFFFFFFFFFFFFFFFFFFFFFFFFFFFFFFFFFFF AND PUSH20 0xFFFFFFFFFFFFFFFFFFFFFFFFFFFFFFFFFFFFFFFF AND DUP2 MSTORE PUSH1 0x20 ADD SWAP1 DUP2 MSTORE PUSH1 0x20 ADD PUSH1 0x0 KECCAK256 PUSH1 0x0 PUSH2 0x100 EXP DUP2 SLOAD DUP2 PUSH1 0xFF MUL NOT AND SWAP1 DUP4 PUSH1 0x4 DUP2 GT ISZERO PUSH2 0x1B0E JUMPI PUSH2 0x1B0D PUSH2 0x27DF JUMP JUMPDEST JUMPDEST MUL OR SWAP1 SSTORE POP PUSH32 0x73E014C0A076665D9511A27E878FADCCB6D7171F5754BA1167A670023760B015 DUP2 CALLER PUSH1 0x40 MLOAD PUSH2 0x1B44 SWAP3 SWAP2 SWAP1 PUSH2 0x30F1 JUMP JUMPDEST PUSH1 0x40 MLOAD DUP1 SWAP2 SUB SWAP1 LOG1 DUP1 SWAP2 POP POP SWAP1 JUMP JUMPDEST DUP2 PUSH1 0x2 DUP1 PUSH1 0x4 DUP2 GT ISZERO PUSH2 0x1B69 JUMPI PUSH2 0x1B68 PUSH2 0x27DF JUMP JUMPDEST JUMPDEST PUSH1 0x1 PUSH1 0x0 DUP5 DUP2 MSTORE PUSH1 0x20 ADD SWAP1 DUP2 MSTORE PUSH1 0x20 ADD PUSH1 0x0 KECCAK256 PUSH1 0x0 CALLER PUSH20 0xFFFFFFFFFFFFFFFFFFFFFFFFFFFFFFFFFFFFFFFF AND PUSH20 0xFFFFFFFFFFFFFFFFFFFFFFFFFFFFFFFFFFFFFFFF AND DUP2 MSTORE PUSH1 0x20 ADD SWAP1 DUP2 MSTORE PUSH1 0x20 ADD PUSH1 0x0 KECCAK256 PUSH1 0x0 SWAP1 SLOAD SWAP1 PUSH2 0x100 EXP SWAP1 DIV PUSH1 0xFF AND PUSH1 0x4 DUP2 GT ISZERO PUSH2 0x1BD9 JUMPI PUSH2 0x1BD8 PUSH2 0x27DF JUMP JUMPDEST JUMPDEST EQ PUSH2 0x1C19 JUMPI PUSH1 0x40 MLOAD PUSH32 0x8C379A000000000000000000000000000000000000000000000000000000000 DUP2 MSTORE PUSH1 0x4 ADD PUSH2 0x1C10 SWAP1 PUSH2 0x2B59 JUMP JUMPDEST PUSH1 0x40 MLOAD DUP1 SWAP2 SUB SWAP1 REVERT JUMPDEST PUSH1 0x3 PUSH1 0x0 DUP6 DUP2 MSTORE PUSH1 0x20 ADD SWAP1 DUP2 MSTORE PUSH1 0x20 ADD PUSH1 0x0 KECCAK256 PUSH1 0x0 SWAP1 SLOAD SWAP1 PUSH2 0x100 EXP SWAP1 DIV PUSH1 0xFF AND PUSH2 0x1C79 JUMPI PUSH1 0x40 MLOAD PUSH32 0x8C379A000000000000000000000000000000000000000000000000000000000 DUP2 MSTORE PUSH1 0x4 ADD PUSH2 0x1C70 SWAP1 PUSH2 0x29FE JUMP JUMPDEST PUSH1 0x40 MLOAD DUP1 SWAP2 SUB SWAP1 REVERT JUMPDEST CALLER PUSH20 0xFFFFFFFFFFFFFFFFFFFFFFFFFFFFFFFFFFFFFFFF AND PUSH1 0x2 PUSH1 0x0 DUP7 DUP2 MSTORE PUSH1 0x20 ADD SWAP1 DUP2 MSTORE PUSH1 0x20 ADD PUSH1 0x0 KECCAK256 PUSH1 0x3 ADD PUSH1 0x0 SWAP1 SLOAD SWAP1 PUSH2 0x100 EXP SWAP1 DIV PUSH20 0xFFFFFFFFFFFFFFFFFFFFFFFFFFFFFFFFFFFFFFFF AND PUSH20 0xFFFFFFFFFFFFFFFFFFFFFFFFFFFFFFFFFFFFFFFF AND EQ PUSH2 0x1D1D JUMPI PUSH1 0x40 MLOAD PUSH32 0x8C379A000000000000000000000000000000000000000000000000000000000 DUP2 MSTORE PUSH1 0x4 ADD PUSH2 0x1D14 SWAP1 PUSH2 0x3166 JUMP JUMPDEST PUSH1 0x40 MLOAD DUP1 SWAP2 SUB SWAP1 REVERT JUMPDEST PUSH1 0x2 DUP1 PUSH1 0x0 DUP7 DUP2 MSTORE PUSH1 0x20 ADD SWAP1 DUP2 MSTORE PUSH1 0x20 ADD PUSH1 0x0 KECCAK256 PUSH1 0x5 ADD PUSH1 0x0 PUSH2 0x100 EXP DUP2 SLOAD DUP2 PUSH1 0xFF MUL NOT AND SWAP1 DUP4 PUSH1 0x6 DUP2 GT ISZERO PUSH2 0x1D56 JUMPI PUSH2 0x1D55 PUSH2 0x27DF JUMP JUMPDEST JUMPDEST MUL OR SWAP1 SSTORE POP DUP3 PUSH1 0x2 PUSH1 0x0 DUP7 DUP2 MSTORE PUSH1 0x20 ADD SWAP1 DUP2 MSTORE PUSH1 0x20 ADD PUSH1 0x0 KECCAK256 PUSH1 0x2 ADD SWAP1 DUP1 MLOAD SWAP1 PUSH1 0x20 ADD SWAP1 PUSH2 0x1D85 SWAP3 SWAP2 SWAP1 PUSH2 0x2035 JUMP JUMPDEST POP PUSH32 0xEC3AE4350812C56655D3AC5AEA7ECC17434D05FB3571ECA3E293B924FF187332 DUP5 DUP5 PUSH1 0x40 MLOAD PUSH1 0x20 ADD PUSH2 0x1DB9 SWAP2 SWAP1 PUSH2 0x31D2 JUMP JUMPDEST PUSH1 0x40 MLOAD PUSH1 0x20 DUP2 DUP4 SUB SUB DUP2 MSTORE SWAP1 PUSH1 0x40 MSTORE PUSH1 0x40 MLOAD PUSH2 0x1DD6 SWAP3 SWAP2 SWAP1 PUSH2 0x3049 JUMP JUMPDEST PUSH1 0x40 MLOAD DUP1 SWAP2 SUB SWAP1 LOG1 POP POP POP POP JUMP JUMPDEST PUSH1 0x60 PUSH1 0x0 PUSH1 0x4 DUP2 GT ISZERO PUSH2 0x1DFA JUMPI PUSH2 0x1DF9 PUSH2 0x27DF JUMP JUMPDEST JUMPDEST DUP3 PUSH1 0x4 DUP2 GT ISZERO PUSH2 0x1E0D JUMPI PUSH2 0x1E0C PUSH2 0x27DF JUMP JUMPDEST JUMPDEST EQ ISZERO PUSH2 0x1E50 JUMPI PUSH1 0x40 MLOAD DUP1 PUSH1 0x40 ADD PUSH1 0x40 MSTORE DUP1 PUSH1 0x7 DUP2 MSTORE PUSH1 0x20 ADD PUSH32 0x556E6B6E6F776E00000000000000000000000000000000000000000000000000 DUP2 MSTORE POP SWAP1 POP PUSH2 0x2030 JUMP JUMPDEST PUSH1 0x1 PUSH1 0x4 DUP2 GT ISZERO PUSH2 0x1E64 JUMPI PUSH2 0x1E63 PUSH2 0x27DF JUMP JUMPDEST JUMPDEST DUP3 PUSH1 0x4 DUP2 GT ISZERO PUSH2 0x1E77 JUMPI PUSH2 0x1E76 PUSH2 0x27DF JUMP JUMPDEST JUMPDEST EQ ISZERO PUSH2 0x1EBA JUMPI PUSH1 0x40 MLOAD DUP1 PUSH1 0x40 ADD PUSH1 0x40 MSTORE DUP1 PUSH1 0x8 DUP2 MSTORE PUSH1 0x20 ADD PUSH32 0x537570706C696572000000000000000000000000000000000000000000000000 DUP2 MSTORE POP SWAP1 POP PUSH2 0x2030 JUMP JUMPDEST PUSH1 0x2 PUSH1 0x4 DUP2 GT ISZERO PUSH2 0x1ECE JUMPI PUSH2 0x1ECD PUSH2 0x27DF JUMP JUMPDEST JUMPDEST DUP3 PUSH1 0x4 DUP2 GT ISZERO PUSH2 0x1EE1 JUMPI PUSH2 0x1EE0 PUSH2 0x27DF JUMP JUMPDEST JUMPDEST EQ ISZERO PUSH2 0x1F24 JUMPI PUSH1 0x40 MLOAD DUP1 PUSH1 0x40 ADD PUSH1 0x40 MSTORE DUP1 PUSH1 0xC DUP2 MSTORE PUSH1 0x20 ADD PUSH32 0x4D616E7566616374757265720000000000000000000000000000000000000000 DUP2 MSTORE POP SWAP1 POP PUSH2 0x2030 JUMP JUMPDEST PUSH1 0x3 PUSH1 0x4 DUP2 GT ISZERO PUSH2 0x1F38 JUMPI PUSH2 0x1F37 PUSH2 0x27DF JUMP JUMPDEST JUMPDEST DUP3 PUSH1 0x4 DUP2 GT ISZERO PUSH2 0x1F4B JUMPI PUSH2 0x1F4A PUSH2 0x27DF JUMP JUMPDEST JUMPDEST EQ ISZERO PUSH2 0x1F8E JUMPI PUSH1 0x40 MLOAD DUP1 PUSH1 0x40 ADD PUSH1 0x40 MSTORE DUP1 PUSH1 0x8 DUP2 MSTORE PUSH1 0x20 ADD PUSH32 0x52657461696C6572000000000000000000000000000000000000000000000000 DUP2 MSTORE POP SWAP1 POP PUSH2 0x2030 JUMP JUMPDEST PUSH1 0x4 DUP1 DUP2 GT ISZERO PUSH2 0x1FA1 JUMPI PUSH2 0x1FA0 PUSH2 0x27DF JUMP JUMPDEST JUMPDEST DUP3 PUSH1 0x4 DUP2 GT ISZERO PUSH2 0x1FB4 JUMPI PUSH2 0x1FB3 PUSH2 0x27DF JUMP JUMPDEST JUMPDEST EQ ISZERO PUSH2 0x1FF7 JUMPI PUSH1 0x40 MLOAD DUP1 PUSH1 0x40 ADD PUSH1 0x40 MSTORE DUP1 PUSH1 0x8 DUP2 MSTORE PUSH1 0x20 ADD PUSH32 0x436F6E73756D6572000000000000000000000000000000000000000000000000 DUP2 MSTORE POP SWAP1 POP PUSH2 0x2030 JUMP JUMPDEST PUSH1 0x40 MLOAD DUP1 PUSH1 0x40 ADD PUSH1 0x40 MSTORE DUP1 PUSH1 0x7 DUP2 MSTORE PUSH1 0x20 ADD PUSH32 0x496E76616C696400000000000000000000000000000000000000000000000000 DUP2 MSTORE POP SWAP1 POP JUMPDEST SWAP2 SWAP1 POP JUMP JUMPDEST DUP3 DUP1 SLOAD PUSH2 0x2041 SWAP1 PUSH2 0x2F3F JUMP JUMPDEST SWAP1 PUSH1 0x0 MSTORE PUSH1 0x20 PUSH1 0x0 KECCAK256 SWAP1 PUSH1 0x1F ADD PUSH1 0x20 SWAP1 DIV DUP2 ADD SWAP3 DUP3 PUSH2 0x2063 JUMPI PUSH1 0x0 DUP6 SSTORE PUSH2 0x20AA JUMP JUMPDEST DUP3 PUSH1 0x1F LT PUSH2 0x207C JUMPI DUP1 MLOAD PUSH1 0xFF NOT AND DUP4 DUP1 ADD OR DUP6 SSTORE PUSH2 0x20AA JUMP JUMPDEST DUP3 DUP1 ADD PUSH1 0x1 ADD DUP6 SSTORE DUP3 ISZERO PUSH2 0x20AA JUMPI SWAP2 DUP3 ADD JUMPDEST DUP3 DUP2 GT ISZERO PUSH2 0x20A9 JUMPI DUP3 MLOAD DUP3 SSTORE SWAP2 PUSH1 0x20 ADD SWAP2 SWAP1 PUSH1 0x1 ADD SWAP1 PUSH2 0x208E JUMP JUMPDEST JUMPDEST POP SWAP1 POP PUSH2 0x20B7 SWAP2 SWAP1 PUSH2 0x20BB JUMP JUMPDEST POP SWAP1 JUMP JUMPDEST JUMPDEST DUP1 DUP3 GT ISZERO PUSH2 0x20D4 JUMPI PUSH1 0x0 DUP2 PUSH1 0x0 SWAP1 SSTORE POP PUSH1 0x1 ADD PUSH2 0x20BC JUMP JUMPDEST POP SWAP1 JUMP JUMPDEST PUSH1 0x0 PUSH1 0x40 MLOAD SWAP1 POP SWAP1 JUMP JUMPDEST PUSH1 0x0 DUP1 REVERT JUMPDEST PUSH1 0x0 DUP1 REVERT JUMPDEST PUSH1 0x0 DUP2 SWAP1 POP SWAP2 SWAP1 POP JUMP JUMPDEST PUSH2 0x20FF DUP2 PUSH2 0x20EC JUMP JUMPDEST DUP2 EQ PUSH2 0x210A JUMPI PUSH1 0x0 DUP1 REVERT JUMPDEST POP JUMP JUMPDEST PUSH1 0x0 DUP2 CALLDATALOAD SWAP1 POP PUSH2 0x211C DUP2 PUSH2 0x20F6 JUMP JUMPDEST SWAP3 SWAP2 POP POP JUMP JUMPDEST PUSH1 0x0 PUSH1 0x20 DUP3 DUP5 SUB SLT ISZERO PUSH2 0x2138 JUMPI PUSH2 0x2137 PUSH2 0x20E2 JUMP JUMPDEST JUMPDEST PUSH1 0x0 PUSH2 0x2146 DUP5 DUP3 DUP6 ADD PUSH2 0x210D JUMP JUMPDEST SWAP2 POP POP SWAP3 SWAP2 POP POP JUMP JUMPDEST PUSH1 0x0 DUP2 MLOAD SWAP1 POP SWAP2 SWAP1 POP JUMP JUMPDEST PUSH1 0x0 DUP3 DUP3 MSTORE PUSH1 0x20 DUP3 ADD SWAP1 POP SWAP3 SWAP2 POP POP JUMP JUMPDEST PUSH1 0x0 JUMPDEST DUP4 DUP2 LT ISZERO PUSH2 0x2189 JUMPI DUP1 DUP3 ADD MLOAD DUP2 DUP5 ADD MSTORE PUSH1 0x20 DUP2 ADD SWAP1 POP PUSH2 0x216E JUMP JUMPDEST DUP4 DUP2 GT ISZERO PUSH2 0x2198 JUMPI PUSH1 0x0 DUP5 DUP5 ADD MSTORE JUMPDEST POP POP POP POP JUMP JUMPDEST PUSH1 0x0 PUSH1 0x1F NOT PUSH1 0x1F DUP4 ADD AND SWAP1 POP SWAP2 SWAP1 POP JUMP JUMPDEST PUSH1 0x0 PUSH2 0x21BA DUP3 PUSH2 0x214F JUMP JUMPDEST PUSH2 0x21C4 DUP2 DUP6 PUSH2 0x215A JUMP JUMPDEST SWAP4 POP PUSH2 0x21D4 DUP2 DUP6 PUSH1 0x20 DUP7 ADD PUSH2 0x216B JUMP JUMPDEST PUSH2 0x21DD DUP2 PUSH2 0x219E JUMP JUMPDEST DUP5 ADD SWAP2 POP POP SWAP3 SWAP2 POP POP JUMP JUMPDEST PUSH1 0x0 PUSH1 0x20 DUP3 ADD SWAP1 POP DUP2 DUP2 SUB PUSH1 0x0 DUP4 ADD MSTORE PUSH2 0x2202 DUP2 DUP5 PUSH2 0x21AF JUMP JUMPDEST SWAP1 POP SWAP3 SWAP2 POP POP JUMP JUMPDEST PUSH1 0x0 DUP1 REVERT JUMPDEST PUSH1 0x0 DUP1 REVERT JUMPDEST PUSH32 0x4E487B7100000000000000000000000000000000000000000000000000000000 PUSH1 0x0 MSTORE PUSH1 0x41 PUSH1 0x4 MSTORE PUSH1 0x24 PUSH1 0x0 REVERT JUMPDEST PUSH2 0x224C DUP3 PUSH2 0x219E JUMP JUMPDEST DUP2 ADD DUP2 DUP2 LT PUSH8 0xFFFFFFFFFFFFFFFF DUP3 GT OR ISZERO PUSH2 0x226B JUMPI PUSH2 0x226A PUSH2 0x2214 JUMP JUMPDEST JUMPDEST DUP1 PUSH1 0x40 MSTORE POP POP POP JUMP JUMPDEST PUSH1 0x0 PUSH2 0x227E PUSH2 0x20D8 JUMP JUMPDEST SWAP1 POP PUSH2 0x228A DUP3 DUP3 PUSH2 0x2243 JUMP JUMPDEST SWAP2 SWAP1 POP JUMP JUMPDEST PUSH1 0x0 PUSH8 0xFFFFFFFFFFFFFFFF DUP3 GT ISZERO PUSH2 0x22AA JUMPI PUSH2 0x22A9 PUSH2 0x2214 JUMP JUMPDEST JUMPDEST PUSH2 0x22B3 DUP3 PUSH2 0x219E JUMP JUMPDEST SWAP1 POP PUSH1 0x20 DUP2 ADD SWAP1 POP SWAP2 SWAP1 POP JUMP JUMPDEST DUP3 DUP2 DUP4 CALLDATACOPY PUSH1 0x0 DUP4 DUP4 ADD MSTORE POP POP POP JUMP JUMPDEST PUSH1 0x0 PUSH2 0x22E2 PUSH2 0x22DD DUP5 PUSH2 0x228F JUMP JUMPDEST PUSH2 0x2274 JUMP JUMPDEST SWAP1 POP DUP3 DUP2 MSTORE PUSH1 0x20 DUP2 ADD DUP5 DUP5 DUP5 ADD GT ISZERO PUSH2 0x22FE JUMPI PUSH2 0x22FD PUSH2 0x220F JUMP JUMPDEST JUMPDEST PUSH2 0x2309 DUP5 DUP3 DUP6 PUSH2 0x22C0 JUMP JUMPDEST POP SWAP4 SWAP3 POP POP POP JUMP JUMPDEST PUSH1 0x0 DUP3 PUSH1 0x1F DUP4 ADD SLT PUSH2 0x2326 JUMPI PUSH2 0x2325 PUSH2 0x220A JUMP JUMPDEST JUMPDEST DUP2 CALLDATALOAD PUSH2 0x2336 DUP5 DUP3 PUSH1 0x20 DUP7 ADD PUSH2 0x22CF JUMP JUMPDEST SWAP2 POP POP SWAP3 SWAP2 POP POP JUMP JUMPDEST PUSH1 0x0 DUP1 PUSH1 0x0 PUSH1 0x60 DUP5 DUP7 SUB SLT ISZERO PUSH2 0x2358 JUMPI PUSH2 0x2357 PUSH2 0x20E2 JUMP JUMPDEST JUMPDEST PUSH1 0x0 PUSH2 0x2366 DUP7 DUP3 DUP8 ADD PUSH2 0x210D JUMP JUMPDEST SWAP4 POP POP PUSH1 0x20 DUP5 ADD CALLDATALOAD PUSH8 0xFFFFFFFFFFFFFFFF DUP2 GT ISZERO PUSH2 0x2387 JUMPI PUSH2 0x2386 PUSH2 0x20E7 JUMP JUMPDEST JUMPDEST PUSH2 0x2393 DUP7 DUP3 DUP8 ADD PUSH2 0x2311 JUMP JUMPDEST SWAP3 POP POP PUSH1 0x40 DUP5 ADD CALLDATALOAD PUSH8 0xFFFFFFFFFFFFFFFF DUP2 GT ISZERO PUSH2 0x23B4 JUMPI PUSH2 0x23B3 PUSH2 0x20E7 JUMP JUMPDEST JUMPDEST PUSH2 0x23C0 DUP7 DUP3 DUP8 ADD PUSH2 0x2311 JUMP JUMPDEST SWAP2 POP POP SWAP3 POP SWAP3 POP SWAP3 JUMP JUMPDEST PUSH1 0x0 PUSH20 0xFFFFFFFFFFFFFFFFFFFFFFFFFFFFFFFFFFFFFFFF DUP3 AND SWAP1 POP SWAP2 SWAP1 POP JUMP JUMPDEST PUSH1 0x0 PUSH2 0x23F5 DUP3 PUSH2 0x23CA JUMP JUMPDEST SWAP1 POP SWAP2 SWAP1 POP JUMP JUMPDEST PUSH2 0x2405 DUP2 PUSH2 0x23EA JUMP JUMPDEST DUP2 EQ PUSH2 0x2410 JUMPI PUSH1 0x0 DUP1 REVERT JUMPDEST POP JUMP JUMPDEST PUSH1 0x0 DUP2 CALLDATALOAD SWAP1 POP PUSH2 0x2422 DUP2 PUSH2 0x23FC JUMP JUMPDEST SWAP3 SWAP2 POP POP JUMP JUMPDEST PUSH1 0x0 DUP1 PUSH1 0x40 DUP4 DUP6 SUB SLT ISZERO PUSH2 0x243F JUMPI PUSH2 0x243E PUSH2 0x20E2 JUMP JUMPDEST JUMPDEST PUSH1 0x0 PUSH2 0x244D DUP6 DUP3 DUP7 ADD PUSH2 0x210D JUMP JUMPDEST SWAP3 POP POP PUSH1 0x20 PUSH2 0x245E DUP6 DUP3 DUP7 ADD PUSH2 0x2413 JUMP JUMPDEST SWAP2 POP POP SWAP3 POP SWAP3 SWAP1 POP JUMP JUMPDEST PUSH2 0x2471 DUP2 PUSH2 0x20EC JUMP JUMPDEST DUP3 MSTORE POP POP JUMP JUMPDEST PUSH1 0x0 PUSH1 0x20 DUP3 ADD SWAP1 POP PUSH2 0x248C PUSH1 0x0 DUP4 ADD DUP5 PUSH2 0x2468 JUMP JUMPDEST SWAP3 SWAP2 POP POP JUMP JUMPDEST PUSH1 0x0 DUP2 MLOAD SWAP1 POP SWAP2 SWAP1 POP JUMP JUMPDEST PUSH1 0x0 DUP3 DUP3 MSTORE PUSH1 0x20 DUP3 ADD SWAP1 POP SWAP3 SWAP2 POP POP JUMP JUMPDEST PUSH1 0x0 DUP2 SWAP1 POP PUSH1 0x20 DUP3 ADD SWAP1 POP SWAP2 SWAP1 POP JUMP JUMPDEST PUSH2 0x24C7 DUP2 PUSH2 0x23EA JUMP JUMPDEST DUP3 MSTORE POP POP JUMP JUMPDEST PUSH1 0x0 PUSH2 0x24D9 DUP4 DUP4 PUSH2 0x24BE JUMP JUMPDEST PUSH1 0x20 DUP4 ADD SWAP1 POP SWAP3 SWAP2 POP POP JUMP JUMPDEST PUSH1 0x0 PUSH1 0x20 DUP3 ADD SWAP1 POP SWAP2 SWAP1 POP JUMP JUMPDEST PUSH1 0x0 PUSH2 0x24FD DUP3 PUSH2 0x2492 JUMP JUMPDEST PUSH2 0x2507 DUP2 DUP6 PUSH2 0x249D JUMP JUMPDEST SWAP4 POP PUSH2 0x2512 DUP4 PUSH2 0x24AE JUMP JUMPDEST DUP1 PUSH1 0x0 JUMPDEST DUP4 DUP2 LT ISZERO PUSH2 0x2543 JUMPI DUP2 MLOAD PUSH2 0x252A DUP9 DUP3 PUSH2 0x24CD JUMP JUMPDEST SWAP8 POP PUSH2 0x2535 DUP4 PUSH2 0x24E5 JUMP JUMPDEST SWAP3 POP POP PUSH1 0x1 DUP2 ADD SWAP1 POP PUSH2 0x2516 JUMP JUMPDEST POP DUP6 SWAP4 POP POP POP POP SWAP3 SWAP2 POP POP JUMP JUMPDEST PUSH1 0x0 PUSH1 0x20 DUP3 ADD SWAP1 POP DUP2 DUP2 SUB PUSH1 0x0 DUP4 ADD MSTORE PUSH2 0x256A DUP2 DUP5 PUSH2 0x24F2 JUMP JUMPDEST SWAP1 POP SWAP3 SWAP2 POP POP JUMP JUMPDEST PUSH1 0x0 DUP2 MLOAD SWAP1 POP SWAP2 SWAP1 POP JUMP JUMPDEST PUSH1 0x0 DUP3 DUP3 MSTORE PUSH1 0x20 DUP3 ADD SWAP1 POP SWAP3 SWAP2 POP POP JUMP JUMPDEST PUSH1 0x0 DUP2 SWAP1 POP PUSH1 0x20 DUP3 ADD SWAP1 POP SWAP2 SWAP1 POP JUMP JUMPDEST PUSH1 0x0 DUP3 DUP3 MSTORE PUSH1 0x20 DUP3 ADD SWAP1 POP SWAP3 SWAP2 POP POP JUMP JUMPDEST PUSH1 0x0 PUSH2 0x25BA DUP3 PUSH2 0x214F JUMP JUMPDEST PUSH2 0x25C4 DUP2 DUP6 PUSH2 0x259E JUMP JUMPDEST SWAP4 POP PUSH2 0x25D4 DUP2 DUP6 PUSH1 0x20 DUP7 ADD PUSH2 0x216B JUMP JUMPDEST PUSH2 0x25DD DUP2 PUSH2 0x219E JUMP JUMPDEST DUP5 ADD SWAP2 POP POP SWAP3 SWAP2 POP POP JUMP JUMPDEST PUSH2 0x25F1 DUP2 PUSH2 0x20EC JUMP JUMPDEST DUP3 MSTORE POP POP JUMP JUMPDEST PUSH1 0x0 PUSH1 0x60 DUP4 ADD PUSH1 0x0 DUP4 ADD MLOAD DUP5 DUP3 SUB PUSH1 0x0 DUP7 ADD MSTORE PUSH2 0x2614 DUP3 DUP3 PUSH2 0x25AF JUMP JUMPDEST SWAP2 POP POP PUSH1 0x20 DUP4 ADD MLOAD DUP5 DUP3 SUB PUSH1 0x20 DUP7 ADD MSTORE PUSH2 0x262E DUP3 DUP3 PUSH2 0x25AF JUMP JUMPDEST SWAP2 POP POP PUSH1 0x40 DUP4 ADD MLOAD PUSH2 0x2643 PUSH1 0x40 DUP7 ADD DUP3 PUSH2 0x25E8 JUMP JUMPDEST POP DUP1 SWAP2 POP POP SWAP3 SWAP2 POP POP JUMP JUMPDEST PUSH1 0x0 PUSH2 0x265A DUP4 DUP4 PUSH2 0x25F7 JUMP JUMPDEST SWAP1 POP SWAP3 SWAP2 POP POP JUMP JUMPDEST PUSH1 0x0 PUSH1 0x20 DUP3 ADD SWAP1 POP SWAP2 SWAP1 POP JUMP JUMPDEST PUSH1 0x0 PUSH2 0x267A DUP3 PUSH2 0x2572 JUMP JUMPDEST PUSH2 0x2684 DUP2 DUP6 PUSH2 0x257D JUMP JUMPDEST SWAP4 POP DUP4 PUSH1 0x20 DUP3 MUL DUP6 ADD PUSH2 0x2696 DUP6 PUSH2 0x258E JUMP JUMPDEST DUP1 PUSH1 0x0 JUMPDEST DUP6 DUP2 LT ISZERO PUSH2 0x26D2 JUMPI DUP5 DUP5 SUB DUP10 MSTORE DUP2 MLOAD PUSH2 0x26B3 DUP6 DUP3 PUSH2 0x264E JUMP JUMPDEST SWAP5 POP PUSH2 0x26BE DUP4 PUSH2 0x2662 JUMP JUMPDEST SWAP3 POP PUSH1 0x20 DUP11 ADD SWAP10 POP POP PUSH1 0x1 DUP2 ADD SWAP1 POP PUSH2 0x269A JUMP JUMPDEST POP DUP3 SWAP8 POP DUP8 SWAP6 POP POP POP POP POP POP SWAP3 SWAP2 POP POP JUMP JUMPDEST PUSH1 0x0 PUSH1 0x20 DUP3 ADD SWAP1 POP DUP2 DUP2 SUB PUSH1 0x0 DUP4 ADD MSTORE PUSH2 0x26FE DUP2 DUP5 PUSH2 0x266F JUMP JUMPDEST SWAP1 POP SWAP3 SWAP2 POP POP JUMP JUMPDEST PUSH1 0x7 DUP2 LT PUSH2 0x2713 JUMPI PUSH1 0x0 DUP1 REVERT JUMPDEST POP JUMP JUMPDEST PUSH1 0x0 DUP2 CALLDATALOAD SWAP1 POP PUSH2 0x2725 DUP2 PUSH2 0x2706 JUMP JUMPDEST SWAP3 SWAP2 POP POP JUMP JUMPDEST PUSH1 0x0 PUSH1 0x20 DUP3 DUP5 SUB SLT ISZERO PUSH2 0x2741 JUMPI PUSH2 0x2740 PUSH2 0x20E2 JUMP JUMPDEST JUMPDEST PUSH1 0x0 PUSH2 0x274F DUP5 DUP3 DUP6 ADD PUSH2 0x2716 JUMP JUMPDEST SWAP2 POP POP SWAP3 SWAP2 POP POP JUMP JUMPDEST PUSH1 0x5 DUP2 LT PUSH2 0x2765 JUMPI PUSH1 0x0 DUP1 REVERT JUMPDEST POP JUMP JUMPDEST PUSH1 0x0 DUP2 CALLDATALOAD SWAP1 POP PUSH2 0x2777 DUP2 PUSH2 0x2758 JUMP JUMPDEST SWAP3 SWAP2 POP POP JUMP JUMPDEST PUSH1 0x0 DUP1 PUSH1 0x0 PUSH1 0x60 DUP5 DUP7 SUB SLT ISZERO PUSH2 0x2796 JUMPI PUSH2 0x2795 PUSH2 0x20E2 JUMP JUMPDEST JUMPDEST PUSH1 0x0 PUSH2 0x27A4 DUP7 DUP3 DUP8 ADD PUSH2 0x210D JUMP JUMPDEST SWAP4 POP POP PUSH1 0x20 PUSH2 0x27B5 DUP7 DUP3 DUP8 ADD PUSH2 0x2413 JUMP JUMPDEST SWAP3 POP POP PUSH1 0x40 PUSH2 0x27C6 DUP7 DUP3 DUP8 ADD PUSH2 0x2768 JUMP JUMPDEST SWAP2 POP POP SWAP3 POP SWAP3 POP SWAP3 JUMP JUMPDEST PUSH2 0x27D9 DUP2 PUSH2 0x23EA JUMP JUMPDEST DUP3 MSTORE POP POP JUMP JUMPDEST PUSH32 0x4E487B7100000000000000000000000000000000000000000000000000000000 PUSH1 0x0 MSTORE PUSH1 0x21 PUSH1 0x4 MSTORE PUSH1 0x24 PUSH1 0x0 REVERT JUMPDEST PUSH1 0x7 DUP2 LT PUSH2 0x281F JUMPI PUSH2 0x281E PUSH2 0x27DF JUMP JUMPDEST JUMPDEST POP JUMP JUMPDEST PUSH1 0x0 DUP2 SWAP1 POP PUSH2 0x2830 DUP3 PUSH2 0x280E JUMP JUMPDEST SWAP2 SWAP1 POP JUMP JUMPDEST PUSH1 0x0 PUSH2 0x2840 DUP3 PUSH2 0x2822 JUMP JUMPDEST SWAP1 POP SWAP2 SWAP1 POP JUMP JUMPDEST PUSH2 0x2850 DUP2 PUSH2 0x2835 JUMP JUMPDEST DUP3 MSTORE POP POP JUMP JUMPDEST PUSH1 0x0 PUSH1 0x80 DUP3 ADD SWAP1 POP PUSH2 0x286B PUSH1 0x0 DUP4 ADD DUP8 PUSH2 0x2468 JUMP JUMPDEST DUP2 DUP2 SUB PUSH1 0x20 DUP4 ADD MSTORE PUSH2 0x287D DUP2 DUP7 PUSH2 0x21AF JUMP JUMPDEST SWAP1 POP PUSH2 0x288C PUSH1 0x40 DUP4 ADD DUP6 PUSH2 0x27D0 JUMP JUMPDEST PUSH2 0x2899 PUSH1 0x60 DUP4 ADD DUP5 PUSH2 0x2847 JUMP JUMPDEST SWAP6 SWAP5 POP POP POP POP POP JUMP JUMPDEST PUSH1 0x0 PUSH1 0x20 DUP3 ADD SWAP1 POP PUSH2 0x28B7 PUSH1 0x0 DUP4 ADD DUP5 PUSH2 0x27D0 JUMP JUMPDEST SWAP3 SWAP2 POP POP JUMP JUMPDEST PUSH1 0x0 DUP2 ISZERO ISZERO SWAP1 POP SWAP2 SWAP1 POP JUMP JUMPDEST PUSH2 0x28D2 DUP2 PUSH2 0x28BD JUMP JUMPDEST DUP3 MSTORE POP POP JUMP JUMPDEST PUSH1 0x0 PUSH1 0x20 DUP3 ADD SWAP1 POP PUSH2 0x28ED PUSH1 0x0 DUP4 ADD DUP5 PUSH2 0x28C9 JUMP JUMPDEST SWAP3 SWAP2 POP POP JUMP JUMPDEST PUSH1 0x0 DUP1 PUSH1 0x40 DUP4 DUP6 SUB SLT ISZERO PUSH2 0x290A JUMPI PUSH2 0x2909 PUSH2 0x20E2 JUMP JUMPDEST JUMPDEST PUSH1 0x0 PUSH2 0x2918 DUP6 DUP3 DUP7 ADD PUSH2 0x210D JUMP JUMPDEST SWAP3 POP POP PUSH1 0x20 DUP4 ADD CALLDATALOAD PUSH8 0xFFFFFFFFFFFFFFFF DUP2 GT ISZERO PUSH2 0x2939 JUMPI PUSH2 0x2938 PUSH2 0x20E7 JUMP JUMPDEST JUMPDEST PUSH2 0x2945 DUP6 DUP3 DUP7 ADD PUSH2 0x2311 JUMP JUMPDEST SWAP2 POP POP SWAP3 POP SWAP3 SWAP1 POP JUMP JUMPDEST PUSH1 0x5 DUP2 LT PUSH2 0x2960 JUMPI PUSH2 0x295F PUSH2 0x27DF JUMP JUMPDEST JUMPDEST POP JUMP JUMPDEST PUSH1 0x0 DUP2 SWAP1 POP PUSH2 0x2971 DUP3 PUSH2 0x294F JUMP JUMPDEST SWAP2 SWAP1 POP JUMP JUMPDEST PUSH1 0x0 PUSH2 0x2981 DUP3 PUSH2 0x2963 JUMP JUMPDEST SWAP1 POP SWAP2 SWAP1 POP JUMP JUMPDEST PUSH2 0x2991 DUP2 PUSH2 0x2976 JUMP JUMPDEST DUP3 MSTORE POP POP JUMP JUMPDEST PUSH1 0x0 PUSH1 0x20 DUP3 ADD SWAP1 POP PUSH2 0x29AC PUSH1 0x0 DUP4 ADD DUP5 PUSH2 0x2988 JUMP JUMPDEST SWAP3 SWAP2 POP POP JUMP JUMPDEST PUSH32 0x50726F64756374206E6F74207265676973746572656400000000000000000000 PUSH1 0x0 DUP3 ADD MSTORE POP JUMP JUMPDEST PUSH1 0x0 PUSH2 0x29E8 PUSH1 0x16 DUP4 PUSH2 0x215A JUMP JUMPDEST SWAP2 POP PUSH2 0x29F3 DUP3 PUSH2 0x29B2 JUMP JUMPDEST PUSH1 0x20 DUP3 ADD SWAP1 POP SWAP2 SWAP1 POP JUMP JUMPDEST PUSH1 0x0 PUSH1 0x20 DUP3 ADD SWAP1 POP DUP2 DUP2 SUB PUSH1 0x0 DUP4 ADD MSTORE PUSH2 0x2A17 DUP2 PUSH2 0x29DB JUMP JUMPDEST SWAP1 POP SWAP2 SWAP1 POP JUMP JUMPDEST PUSH32 0x4F6E6C792063757272656E74206F776E65722063616E20636F6E6669726D2074 PUSH1 0x0 DUP3 ADD MSTORE PUSH32 0x72616E7366657200000000000000000000000000000000000000000000000000 PUSH1 0x20 DUP3 ADD MSTORE POP JUMP JUMPDEST PUSH1 0x0 PUSH2 0x2A7A PUSH1 0x27 DUP4 PUSH2 0x215A JUMP JUMPDEST SWAP2 POP PUSH2 0x2A85 DUP3 PUSH2 0x2A1E JUMP JUMPDEST PUSH1 0x40 DUP3 ADD SWAP1 POP SWAP2 SWAP1 POP JUMP JUMPDEST PUSH1 0x0 PUSH1 0x20 DUP3 ADD SWAP1 POP DUP2 DUP2 SUB PUSH1 0x0 DUP4 ADD MSTORE PUSH2 0x2AA9 DUP2 PUSH2 0x2A6D JUMP JUMPDEST SWAP1 POP SWAP2 SWAP1 POP JUMP JUMPDEST PUSH1 0x0 PUSH1 0x60 DUP3 ADD SWAP1 POP PUSH2 0x2AC5 PUSH1 0x0 DUP4 ADD DUP7 PUSH2 0x2468 JUMP JUMPDEST PUSH2 0x2AD2 PUSH1 0x20 DUP4 ADD DUP6 PUSH2 0x27D0 JUMP JUMPDEST PUSH2 0x2ADF PUSH1 0x40 DUP4 ADD DUP5 PUSH2 0x27D0 JUMP JUMPDEST SWAP5 SWAP4 POP POP POP POP JUMP JUMPDEST PUSH32 0x4163636573732064656E6965643A2077726F6E6720726F6C6520666F72207072 PUSH1 0x0 DUP3 ADD MSTORE PUSH32 0x6F64756374000000000000000000000000000000000000000000000000000000 PUSH1 0x20 DUP3 ADD MSTORE POP JUMP JUMPDEST PUSH1 0x0 PUSH2 0x2B43 PUSH1 0x25 DUP4 PUSH2 0x215A JUMP JUMPDEST SWAP2 POP PUSH2 0x2B4E DUP3 PUSH2 0x2AE7 JUMP JUMPDEST PUSH1 0x40 DUP3 ADD SWAP1 POP SWAP2 SWAP1 POP JUMP JUMPDEST PUSH1 0x0 PUSH1 0x20 DUP3 ADD SWAP1 POP DUP2 DUP2 SUB PUSH1 0x0 DUP4 ADD MSTORE PUSH2 0x2B72 DUP2 PUSH2 0x2B36 JUMP JUMPDEST SWAP1 POP SWAP2 SWAP1 POP JUMP JUMPDEST PUSH32 0x596F7520646F6E2774206F776E20746869732070726F64756374000000000000 PUSH1 0x0 DUP3 ADD MSTORE POP JUMP JUMPDEST PUSH1 0x0 PUSH2 0x2BAF PUSH1 0x1A DUP4 PUSH2 0x215A JUMP JUMPDEST SWAP2 POP PUSH2 0x2BBA DUP3 PUSH2 0x2B79 JUMP JUMPDEST PUSH1 0x20 DUP3 ADD SWAP1 POP SWAP2 SWAP1 POP JUMP JUMPDEST PUSH1 0x0 PUSH1 0x20 DUP3 ADD SWAP1 POP DUP2 DUP2 SUB PUSH1 0x0 DUP4 ADD MSTORE PUSH2 0x2BDE DUP2 PUSH2 0x2BA2 JUMP JUMPDEST SWAP1 POP SWAP2 SWAP1 POP JUMP JUMPDEST PUSH1 0x0 PUSH1 0x60 DUP3 ADD SWAP1 POP PUSH2 0x2BFA PUSH1 0x0 DUP4 ADD DUP7 PUSH2 0x2468 JUMP JUMPDEST DUP2 DUP2 SUB PUSH1 0x20 DUP4 ADD MSTORE PUSH2 0x2C0C DUP2 DUP6 PUSH2 0x21AF JUMP JUMPDEST SWAP1 POP DUP2 DUP2 SUB PUSH1 0x40 DUP4 ADD MSTORE PUSH2 0x2C20 DUP2 DUP5 PUSH2 0x21AF JUMP JUMPDEST SWAP1 POP SWAP5 SWAP4 POP POP POP POP JUMP JUMPDEST PUSH32 0x4F6E6C79206F776E65722063616E20696E697469617465207472616E73666572 PUSH1 0x0 DUP3 ADD MSTORE POP JUMP JUMPDEST PUSH1 0x0 PUSH2 0x2C60 PUSH1 0x20 DUP4 PUSH2 0x215A JUMP JUMPDEST SWAP2 POP PUSH2 0x2C6B DUP3 PUSH2 0x2C2A JUMP JUMPDEST PUSH1 0x20 DUP3 ADD SWAP1 POP SWAP2 SWAP1 POP JUMP JUMPDEST PUSH1 0x0 PUSH1 0x20 DUP3 ADD SWAP1 POP DUP2 DUP2 SUB PUSH1 0x0 DUP4 ADD MSTORE PUSH2 0x2C8F DUP2 PUSH2 0x2C53 JUMP JUMPDEST SWAP1 POP SWAP2 SWAP1 POP JUMP JUMPDEST PUSH32 0x496E76616C696420726563697069656E74000000000000000000000000000000 PUSH1 0x0 DUP3 ADD MSTORE POP JUMP JUMPDEST PUSH1 0x0 PUSH2 0x2CCC PUSH1 0x11 DUP4 PUSH2 0x215A JUMP JUMPDEST SWAP2 POP PUSH2 0x2CD7 DUP3 PUSH2 0x2C96 JUMP JUMPDEST PUSH1 0x20 DUP3 ADD SWAP1 POP SWAP2 SWAP1 POP JUMP JUMPDEST PUSH1 0x0 PUSH1 0x20 DUP3 ADD SWAP1 POP DUP2 DUP2 SUB PUSH1 0x0 DUP4 ADD MSTORE PUSH2 0x2CFB DUP2 PUSH2 0x2CBF JUMP JUMPDEST SWAP1 POP SWAP2 SWAP1 POP JUMP JUMPDEST PUSH32 0x4D757374207472616E7366657220746F204D616E756661637475726572000000 PUSH1 0x0 DUP3 ADD MSTORE POP JUMP JUMPDEST PUSH1 0x0 PUSH2 0x2D38 PUSH1 0x1D DUP4 PUSH2 0x215A JUMP JUMPDEST SWAP2 POP PUSH2 0x2D43 DUP3 PUSH2 0x2D02 JUMP JUMPDEST PUSH1 0x20 DUP3 ADD SWAP1 POP SWAP2 SWAP1 POP JUMP JUMPDEST PUSH1 0x0 PUSH1 0x20 DUP3 ADD SWAP1 POP DUP2 DUP2 SUB PUSH1 0x0 DUP4 ADD MSTORE PUSH2 0x2D67 DUP2 PUSH2 0x2D2B JUMP JUMPDEST SWAP1 POP SWAP2 SWAP1 POP JUMP JUMPDEST PUSH32 0x4D757374207472616E7366657220746F2052657461696C657200000000000000 PUSH1 0x0 DUP3 ADD MSTORE POP JUMP JUMPDEST PUSH1 0x0 PUSH2 0x2DA4 PUSH1 0x19 DUP4 PUSH2 0x215A JUMP JUMPDEST SWAP2 POP PUSH2 0x2DAF DUP3 PUSH2 0x2D6E JUMP JUMPDEST PUSH1 0x20 DUP3 ADD SWAP1 POP SWAP2 SWAP1 POP JUMP JUMPDEST PUSH1 0x0 PUSH1 0x20 DUP3 ADD SWAP1 POP DUP2 DUP2 SUB PUSH1 0x0 DUP4 ADD MSTORE PUSH2 0x2DD3 DUP2 PUSH2 0x2D97 JUMP JUMPDEST SWAP1 POP SWAP2 SWAP1 POP JUMP JUMPDEST PUSH32 0x4D757374207472616E7366657220746F20436F6E73756D657200000000000000 PUSH1 0x0 DUP3 ADD MSTORE POP JUMP JUMPDEST PUSH1 0x0 PUSH2 0x2E10 PUSH1 0x19 DUP4 PUSH2 0x215A JUMP JUMPDEST SWAP2 POP PUSH2 0x2E1B DUP3 PUSH2 0x2DDA JUMP JUMPDEST PUSH1 0x20 DUP3 ADD SWAP1 POP SWAP2 SWAP1 POP JUMP JUMPDEST PUSH1 0x0 PUSH1 0x20 DUP3 ADD SWAP1 POP DUP2 DUP2 SUB PUSH1 0x0 DUP4 ADD MSTORE PUSH2 0x2E3F DUP2 PUSH2 0x2E03 JUMP JUMPDEST SWAP1 POP SWAP2 SWAP1 POP JUMP JUMPDEST PUSH32 0x5472616E73666572206E6F7420616C6C6F776564206265747765656E20000000 DUP2 MSTORE POP JUMP JUMPDEST PUSH1 0x0 DUP2 SWAP1 POP SWAP3 SWAP2 POP POP JUMP JUMPDEST PUSH1 0x0 PUSH2 0x2E82 DUP3 PUSH2 0x214F JUMP JUMPDEST PUSH2 0x2E8C DUP2 DUP6 PUSH2 0x2E6C JUMP JUMPDEST SWAP4 POP PUSH2 0x2E9C DUP2 DUP6 PUSH1 0x20 DUP7 ADD PUSH2 0x216B JUMP JUMPDEST DUP1 DUP5 ADD SWAP2 POP POP SWAP3 SWAP2 POP POP JUMP JUMPDEST PUSH32 0x20616E6420000000000000000000000000000000000000000000000000000000 DUP2 MSTORE POP JUMP JUMPDEST PUSH1 0x0 PUSH2 0x2ED9 DUP3 PUSH2 0x2E46 JUMP JUMPDEST PUSH1 0x1D DUP3 ADD SWAP2 POP PUSH2 0x2EE9 DUP3 DUP6 PUSH2 0x2E77 JUMP JUMPDEST SWAP2 POP PUSH2 0x2EF4 DUP3 PUSH2 0x2EA8 JUMP JUMPDEST PUSH1 0x5 DUP3 ADD SWAP2 POP PUSH2 0x2F04 DUP3 DUP5 PUSH2 0x2E77 JUMP JUMPDEST SWAP2 POP DUP2 SWAP1 POP SWAP4 SWAP3 POP POP POP JUMP JUMPDEST PUSH32 0x4E487B7100000000000000000000000000000000000000000000000000000000 PUSH1 0x0 MSTORE PUSH1 0x22 PUSH1 0x4 MSTORE PUSH1 0x24 PUSH1 0x0 REVERT JUMPDEST PUSH1 0x0 PUSH1 0x2 DUP3 DIV SWAP1 POP PUSH1 0x1 DUP3 AND DUP1 PUSH2 0x2F57 JUMPI PUSH1 0x7F DUP3 AND SWAP2 POP JUMPDEST PUSH1 0x20 DUP3 LT DUP2 EQ ISZERO PUSH2 0x2F6B JUMPI PUSH2 0x2F6A PUSH2 0x2F10 JUMP JUMPDEST JUMPDEST POP SWAP2 SWAP1 POP JUMP JUMPDEST PUSH32 0x4F6E6C79206F776E65722063616E2061737369676E20726F6C65730000000000 PUSH1 0x0 DUP3 ADD MSTORE POP JUMP JUMPDEST PUSH1 0x0 PUSH2 0x2FA7 PUSH1 0x1B DUP4 PUSH2 0x215A JUMP JUMPDEST SWAP2 POP PUSH2 0x2FB2 DUP3 PUSH2 0x2F71 JUMP JUMPDEST PUSH1 0x20 DUP3 ADD SWAP1 POP SWAP2 SWAP1 POP JUMP JUMPDEST PUSH1 0x0 PUSH1 0x20 DUP3 ADD SWAP1 POP DUP2 DUP2 SUB PUSH1 0x0 DUP4 ADD MSTORE PUSH2 0x2FD6 DUP2 PUSH2 0x2F9A JUMP JUMPDEST SWAP1 POP SWAP2 SWAP1 POP JUMP JUMPDEST PUSH32 0x4F6E6C79206F776E65722063616E206C6F67206D616E75666163747572696E67 PUSH1 0x0 DUP3 ADD MSTORE POP JUMP JUMPDEST PUSH1 0x0 PUSH2 0x3013 PUSH1 0x20 DUP4 PUSH2 0x215A JUMP JUMPDEST SWAP2 POP PUSH2 0x301E DUP3 PUSH2 0x2FDD JUMP JUMPDEST PUSH1 0x20 DUP3 ADD SWAP1 POP SWAP2 SWAP1 POP JUMP JUMPDEST PUSH1 0x0 PUSH1 0x20 DUP3 ADD SWAP1 POP DUP2 DUP2 SUB PUSH1 0x0 DUP4 ADD MSTORE PUSH2 0x3042 DUP2 PUSH2 0x3006 JUMP JUMPDEST SWAP1 POP SWAP2 SWAP1 POP JUMP JUMPDEST PUSH1 0x0 PUSH1 0x40 DUP3 ADD SWAP1 POP PUSH2 0x305E PUSH1 0x0 DUP4 ADD DUP6 PUSH2 0x2468 JUMP JUMPDEST DUP2 DUP2 SUB PUSH1 0x20 DUP4 ADD MSTORE PUSH2 0x3070 DUP2 DUP5 PUSH2 0x21AF JUMP JUMPDEST SWAP1 POP SWAP4 SWAP3 POP POP POP JUMP JUMPDEST PUSH32 0x4E487B7100000000000000000000000000000000000000000000000000000000 PUSH1 0x0 MSTORE PUSH1 0x11 PUSH1 0x4 MSTORE PUSH1 0x24 PUSH1 0x0 REVERT JUMPDEST PUSH1 0x0 PUSH2 0x30B3 DUP3 PUSH2 0x20EC JUMP JUMPDEST SWAP2 POP PUSH32 0xFFFFFFFFFFFFFFFFFFFFFFFFFFFFFFFFFFFFFFFFFFFFFFFFFFFFFFFFFFFFFFFF DUP3 EQ ISZERO PUSH2 0x30E6 JUMPI PUSH2 0x30E5 PUSH2 0x3079 JUMP JUMPDEST JUMPDEST PUSH1 0x1 DUP3 ADD SWAP1 POP SWAP2 SWAP1 POP JUMP JUMPDEST PUSH1 0x0 PUSH1 0x40 DUP3 ADD SWAP1 POP PUSH2 0x3106 PUSH1 0x0 DUP4 ADD DUP6 PUSH2 0x2468 JUMP JUMPDEST PUSH2 0x3113 PUSH1 0x20 DUP4 ADD DUP5 PUSH2 0x27D0 JUMP JUMPDEST SWAP4 SWAP3 POP POP POP JUMP JUMPDEST PUSH32 0x4F6E6C79206F776E65722063616E20766572696679207175616C697479000000 PUSH1 0x0 DUP3 ADD MSTORE POP JUMP JUMPDEST PUSH1 0x0 PUSH2 0x3150 PUSH1 0x1D DUP4 PUSH2 0x215A JUMP JUMPDEST SWAP2 POP PUSH2 0x315B DUP3 PUSH2 0x311A JUMP JUMPDEST PUSH1 0x20 DUP3 ADD SWAP1 POP SWAP2 SWAP1 POP JUMP JUMPDEST PUSH1 0x0 PUSH1 0x20 DUP3 ADD SWAP1 POP DUP2 DUP2 SUB PUSH1 0x0 DUP4 ADD MSTORE PUSH2 0x317F DUP2 PUSH2 0x3143 JUMP JUMPDEST SWAP1 POP SWAP2 SWAP1 POP JUMP JUMPDEST PUSH32 0x56657269666965643A2000000000000000000000000000000000000000000000 PUSH1 0x0 DUP3 ADD MSTORE POP JUMP JUMPDEST PUSH1 0x0 PUSH2 0x31BC PUSH1 0xA DUP4 PUSH2 0x2E6C JUMP JUMPDEST SWAP2 POP PUSH2 0x31C7 DUP3 PUSH2 0x3186 JUMP JUMPDEST PUSH1 0xA DUP3 ADD SWAP1 POP SWAP2 SWAP1 POP JUMP JUMPDEST PUSH1 0x0 PUSH2 0x31DD DUP3 PUSH2 0x31AF JUMP JUMPDEST SWAP2 POP PUSH2 0x31E9 DUP3 DUP5 PUSH2 0x2E77 JUMP JUMPDEST SWAP2 POP DUP2 SWAP1 POP SWAP3 SWAP2 POP POP JUMP INVALID LOG2 PUSH5 0x6970667358 0x22 SLT KECCAK256 0xD8 ADDMOD CALLER 0xE2 0x2C 0xA5 0xCE 0x5E SDIV PUSH16 0xD9052E0E9810E831FAFF55AEC1E7069D PUSH17 0xF0575AAD3F64736F6C634300080C003300 "
				},
				"gasEstimates": {
					"creation": {
						"codeDepositCost": "2568400",
						"executionCost": "infinite",
						"totalCost": "infinite"
					},
					"external": {
						"assignRole(uint256,address,uint8)": "27488",
						"confirmTransfer(uint256)": "infinite",
						"getCurrentOwner(uint256)": "2916",
						"getMaterials(uint256)": "infinite",
						"getProductHistory(uint256)": "infinite",
						"getProductStatusString(uint256)": "infinite",
						"getRoleString(uint256,address)": "infinite",
						"initiateTransfer(uint256,address)": "infinite",
						"isProductRegistered(uint256)": "2885",
						"logManufacturing(uint256,string)": "infinite",
						"logMaterialInput(uint256,string,string)": "infinite",
						"nextProductId()": "2452",
						"owner()": "2578",
						"productRoles(uint256,address)": "3242",
						"products(uint256)": "infinite",
						"registerProduct()": "infinite",
						"statusToString(uint8)": "infinite",
						"verifyMaterialQuality(uint256,string)": "infinite"
					},
					"internal": {
						"roleToString(enum ProductContract.Role)": "infinite"
					}
				},
				"methodIdentifiers": {
					"assignRole(uint256,address,uint8)": "6db0168f",
					"confirmTransfer(uint256)": "2c48e7db",
					"getCurrentOwner(uint256)": "7ace341b",
					"getMaterials(uint256)": "680a9283",
					"getProductHistory(uint256)": "57a096a1",
					"getProductStatusString(uint256)": "03f6dfbc",
					"getRoleString(uint256,address)": "cb3cc377",
					"initiateTransfer(uint256,address)": "3a371b8e",
					"isProductRegistered(uint256)": "8fc15dc3",
					"logManufacturing(uint256,string)": "a552811b",
					"logMaterialInput(uint256,string,string)": "3010cda7",
					"nextProductId()": "4de91a63",
					"owner()": "8da5cb5b",
					"productRoles(uint256,address)": "da9a6f3e",
					"products(uint256)": "7acc0b20",
					"registerProduct()": "dfd92f8a",
					"statusToString(uint8)": "6d7b7fc9",
					"verifyMaterialQuality(uint256,string)": "e2f94b56"
				}
			},
			"storageLayout": {
				"storage": [
					{
						"astId": 3,
						"contract": "ProductContract.sol:ProductContract",
						"label": "owner",
						"offset": 0,
						"slot": "0",
						"type": "t_address"
					},
					{
						"astId": 48,
						"contract": "ProductContract.sol:ProductContract",
						"label": "productRoles",
						"offset": 0,
						"slot": "1",
						"type": "t_mapping(t_uint256,t_mapping(t_address,t_enum(Role)9))"
					},
					{
						"astId": 53,
						"contract": "ProductContract.sol:ProductContract",
						"label": "products",
						"offset": 0,
						"slot": "2",
						"type": "t_mapping(t_uint256,t_struct(Product)41_storage)"
					},
					{
						"astId": 57,
						"contract": "ProductContract.sol:ProductContract",
						"label": "isProductRegistered",
						"offset": 0,
						"slot": "3",
						"type": "t_mapping(t_uint256,t_bool)"
					},
					{
						"astId": 60,
						"contract": "ProductContract.sol:ProductContract",
						"label": "nextProductId",
						"offset": 0,
						"slot": "4",
						"type": "t_uint256"
					}
				],
				"types": {
					"t_address": {
						"encoding": "inplace",
						"label": "address",
						"numberOfBytes": "20"
					},
					"t_array(t_address)dyn_storage": {
						"base": "t_address",
						"encoding": "dynamic_array",
						"label": "address[]",
						"numberOfBytes": "32"
					},
					"t_array(t_struct(Material)24_storage)dyn_storage": {
						"base": "t_struct(Material)24_storage",
						"encoding": "dynamic_array",
						"label": "struct ProductContract.Material[]",
						"numberOfBytes": "32"
					},
					"t_bool": {
						"encoding": "inplace",
						"label": "bool",
						"numberOfBytes": "1"
					},
					"t_enum(ProductStatus)17": {
						"encoding": "inplace",
						"label": "enum ProductContract.ProductStatus",
						"numberOfBytes": "1"
					},
					"t_enum(Role)9": {
						"encoding": "inplace",
						"label": "enum ProductContract.Role",
						"numberOfBytes": "1"
					},
					"t_mapping(t_address,t_enum(Role)9)": {
						"encoding": "mapping",
						"key": "t_address",
						"label": "mapping(address => enum ProductContract.Role)",
						"numberOfBytes": "32",
						"value": "t_enum(Role)9"
					},
					"t_mapping(t_uint256,t_bool)": {
						"encoding": "mapping",
						"key": "t_uint256",
						"label": "mapping(uint256 => bool)",
						"numberOfBytes": "32",
						"value": "t_bool"
					},
					"t_mapping(t_uint256,t_mapping(t_address,t_enum(Role)9))": {
						"encoding": "mapping",
						"key": "t_uint256",
						"label": "mapping(uint256 => mapping(address => enum ProductContract.Role))",
						"numberOfBytes": "32",
						"value": "t_mapping(t_address,t_enum(Role)9)"
					},
					"t_mapping(t_uint256,t_struct(Product)41_storage)": {
						"encoding": "mapping",
						"key": "t_uint256",
						"label": "mapping(uint256 => struct ProductContract.Product)",
						"numberOfBytes": "32",
						"value": "t_struct(Product)41_storage"
					},
					"t_string_storage": {
						"encoding": "bytes",
						"label": "string",
						"numberOfBytes": "32"
					},
					"t_struct(Material)24_storage": {
						"encoding": "inplace",
						"label": "struct ProductContract.Material",
						"members": [
							{
								"astId": 19,
								"contract": "ProductContract.sol:ProductContract",
								"label": "name",
								"offset": 0,
								"slot": "0",
								"type": "t_string_storage"
							},
							{
								"astId": 21,
								"contract": "ProductContract.sol:ProductContract",
								"label": "origin",
								"offset": 0,
								"slot": "1",
								"type": "t_string_storage"
							},
							{
								"astId": 23,
								"contract": "ProductContract.sol:ProductContract",
								"label": "timestamp",
								"offset": 0,
								"slot": "2",
								"type": "t_uint256"
							}
						],
						"numberOfBytes": "96"
					},
					"t_struct(Product)41_storage": {
						"encoding": "inplace",
						"label": "struct ProductContract.Product",
						"members": [
							{
								"astId": 26,
								"contract": "ProductContract.sol:ProductContract",
								"label": "productId",
								"offset": 0,
								"slot": "0",
								"type": "t_uint256"
							},
							{
								"astId": 30,
								"contract": "ProductContract.sol:ProductContract",
								"label": "materials",
								"offset": 0,
								"slot": "1",
								"type": "t_array(t_struct(Material)24_storage)dyn_storage"
							},
							{
								"astId": 32,
								"contract": "ProductContract.sol:ProductContract",
								"label": "manufacturerNote",
								"offset": 0,
								"slot": "2",
								"type": "t_string_storage"
							},
							{
								"astId": 34,
								"contract": "ProductContract.sol:ProductContract",
								"label": "currentOwner",
								"offset": 0,
								"slot": "3",
								"type": "t_address"
							},
							{
								"astId": 37,
								"contract": "ProductContract.sol:ProductContract",
								"label": "ownershipHistory",
								"offset": 0,
								"slot": "4",
								"type": "t_array(t_address)dyn_storage"
							},
							{
								"astId": 40,
								"contract": "ProductContract.sol:ProductContract",
								"label": "status",
								"offset": 0,
								"slot": "5",
								"type": "t_enum(ProductStatus)17"
							}
						],
						"numberOfBytes": "192"
					},
					"t_uint256": {
						"encoding": "inplace",
						"label": "uint256",
						"numberOfBytes": "32"
					}
				}
			},
			"userdoc": {
				"events": {
					"ManufacturingLogged(uint256,string)": {
						"notice": "Emitted when a manufacturer logs production or quality"
					},
					"MaterialLogged(uint256,string,string)": {
						"notice": "Emitted when a material is logged"
					},
					"OwnershipTransferred(uint256,address,address)": {
						"notice": "Emitted when product ownership changes"
					},
					"ProductRegistered(uint256,address)": {
						"notice": "Emitted when a product is registered"
					}
				},
				"kind": "user",
				"methods": {
					"assignRole(uint256,address,uint8)": {
						"notice": "Assigns a role to a specific address"
					},
					"confirmTransfer(uint256)": {
						"notice": "Confirms transfer of ownership (e.g., by recipient)"
					},
					"getCurrentOwner(uint256)": {
						"notice": "Returns the current owner of a product"
					},
					"getMaterials(uint256)": {
						"notice": "Retrieves all materials logged for a product"
					},
					"getProductHistory(uint256)": {
						"notice": "Returns the full ownership history of a product"
					},
					"getRoleString(uint256,address)": {
						"notice": "Retrieves the role of a user in human-readable format"
					},
					"initiateTransfer(uint256,address)": {
						"notice": "Initiates transfer of product ownership"
					},
					"logManufacturing(uint256,string)": {
						"notice": "Logs manufacturing or processing details"
					},
					"logMaterialInput(uint256,string,string)": {
						"notice": "Logs material input details for a product"
					},
					"registerProduct()": {
						"notice": "Registers a new product on the blockchain"
					},
					"verifyMaterialQuality(uint256,string)": {
						"notice": "Verifies the quality of received materials"
					}
				},
				"version": 1
			}
		}
	}
}