{
	"ProductContract.sol": {
		"ProductContract": {
			"abi": [
				{
					"inputs": [
						{
							"internalType": "address",
							"name": "stakeholderAddress",
							"type": "address"
						}
					],
					"stateMutability": "nonpayable",
					"type": "constructor"
				},
				{
					"anonymous": false,
					"inputs": [
						{
							"indexed": false,
							"internalType": "uint256",
							"name": "productId",
							"type": "uint256"
						},
						{
							"indexed": false,
							"internalType": "string",
							"name": "note",
							"type": "string"
						}
					],
					"name": "ManufacturingLogged",
					"type": "event"
				},
				{
					"anonymous": false,
					"inputs": [
						{
							"indexed": false,
							"internalType": "uint256",
							"name": "productId",
							"type": "uint256"
						},
						{
							"indexed": false,
							"internalType": "string",
							"name": "name",
							"type": "string"
						},
						{
							"indexed": false,
							"internalType": "string",
							"name": "origin",
							"type": "string"
						}
					],
					"name": "MaterialLogged",
					"type": "event"
				},
				{
					"anonymous": false,
					"inputs": [
						{
							"indexed": false,
							"internalType": "uint256",
							"name": "productId",
							"type": "uint256"
						},
						{
							"indexed": false,
							"internalType": "address",
							"name": "from",
							"type": "address"
						},
						{
							"indexed": false,
							"internalType": "address",
							"name": "to",
							"type": "address"
						}
					],
					"name": "OwnershipTransferred",
					"type": "event"
				},
				{
					"anonymous": false,
					"inputs": [
						{
							"indexed": false,
							"internalType": "uint256",
							"name": "productId",
							"type": "uint256"
						},
						{
							"indexed": false,
							"internalType": "address",
							"name": "by",
							"type": "address"
						}
					],
					"name": "ProductRegistered",
					"type": "event"
				},
				{
					"inputs": [
						{
							"internalType": "uint256",
							"name": "productId",
							"type": "uint256"
						},
						{
							"internalType": "address",
							"name": "user",
							"type": "address"
						},
						{
							"internalType": "enum ProductContract.Role",
							"name": "role",
							"type": "uint8"
						}
					],
					"name": "assignRole",
					"outputs": [],
					"stateMutability": "nonpayable",
					"type": "function"
				},
				{
					"inputs": [
						{
							"internalType": "uint256",
							"name": "productId",
							"type": "uint256"
						}
					],
					"name": "confirmTransfer",
					"outputs": [],
					"stateMutability": "nonpayable",
					"type": "function"
				},
				{
					"inputs": [
						{
							"internalType": "uint256",
							"name": "productId",
							"type": "uint256"
						}
					],
					"name": "getCurrentOwner",
					"outputs": [
						{
							"internalType": "address",
							"name": "",
							"type": "address"
						}
					],
					"stateMutability": "view",
					"type": "function"
				},
				{
					"inputs": [
						{
							"internalType": "uint256",
							"name": "productId",
							"type": "uint256"
						}
					],
					"name": "getMaterials",
					"outputs": [
						{
							"components": [
								{
									"internalType": "string",
									"name": "name",
									"type": "string"
								},
								{
									"internalType": "string",
									"name": "origin",
									"type": "string"
								},
								{
									"internalType": "uint256",
									"name": "timestamp",
									"type": "uint256"
								}
							],
							"internalType": "struct ProductContract.Material[]",
							"name": "",
							"type": "tuple[]"
						}
					],
					"stateMutability": "view",
					"type": "function"
				},
				{
					"inputs": [
						{
							"internalType": "uint256",
							"name": "productId",
							"type": "uint256"
						}
					],
					"name": "getProductHistory",
					"outputs": [
						{
							"internalType": "address[]",
							"name": "",
							"type": "address[]"
						}
					],
					"stateMutability": "view",
					"type": "function"
				},
				{
					"inputs": [
						{
							"internalType": "uint256",
							"name": "productId",
							"type": "uint256"
						}
					],
					"name": "getProductStatusString",
					"outputs": [
						{
							"internalType": "string",
							"name": "",
							"type": "string"
						}
					],
					"stateMutability": "view",
					"type": "function"
				},
				{
					"inputs": [
						{
							"internalType": "uint256",
							"name": "productId",
							"type": "uint256"
						},
						{
							"internalType": "address",
							"name": "user",
							"type": "address"
						}
					],
					"name": "getRoleString",
					"outputs": [
						{
							"internalType": "string",
							"name": "",
							"type": "string"
						}
					],
					"stateMutability": "view",
					"type": "function"
				},
				{
					"inputs": [
						{
							"internalType": "uint256",
							"name": "productId",
							"type": "uint256"
						},
						{
							"internalType": "address",
							"name": "to",
							"type": "address"
						}
					],
					"name": "initiateTransfer",
					"outputs": [],
					"stateMutability": "nonpayable",
					"type": "function"
				},
				{
					"inputs": [
						{
							"internalType": "uint256",
							"name": "",
							"type": "uint256"
						}
					],
					"name": "isProductRegistered",
					"outputs": [
						{
							"internalType": "bool",
							"name": "",
							"type": "bool"
						}
					],
					"stateMutability": "view",
					"type": "function"
				},
				{
					"inputs": [
						{
							"internalType": "uint256",
							"name": "productId",
							"type": "uint256"
						},
						{
							"internalType": "string",
							"name": "note",
							"type": "string"
						}
					],
					"name": "logManufacturing",
					"outputs": [],
					"stateMutability": "nonpayable",
					"type": "function"
				},
				{
					"inputs": [
						{
							"internalType": "uint256",
							"name": "productId",
							"type": "uint256"
						},
						{
							"internalType": "string",
							"name": "name",
							"type": "string"
						},
						{
							"internalType": "string",
							"name": "origin",
							"type": "string"
						}
					],
					"name": "logMaterialInput",
					"outputs": [],
					"stateMutability": "nonpayable",
					"type": "function"
				},
				{
					"inputs": [],
					"name": "nextProductId",
					"outputs": [
						{
							"internalType": "uint256",
							"name": "",
							"type": "uint256"
						}
					],
					"stateMutability": "view",
					"type": "function"
				},
				{
					"inputs": [],
					"name": "owner",
					"outputs": [
						{
							"internalType": "address",
							"name": "",
							"type": "address"
						}
					],
					"stateMutability": "view",
					"type": "function"
				},
				{
					"inputs": [
						{
							"internalType": "uint256",
							"name": "",
							"type": "uint256"
						},
						{
							"internalType": "address",
							"name": "",
							"type": "address"
						}
					],
					"name": "productRoles",
					"outputs": [
						{
							"internalType": "enum ProductContract.Role",
							"name": "",
							"type": "uint8"
						}
					],
					"stateMutability": "view",
					"type": "function"
				},
				{
					"inputs": [
						{
							"internalType": "uint256",
							"name": "",
							"type": "uint256"
						}
					],
					"name": "products",
					"outputs": [
						{
							"internalType": "uint256",
							"name": "productId",
							"type": "uint256"
						},
						{
							"internalType": "string",
							"name": "manufacturerNote",
							"type": "string"
						},
						{
							"internalType": "address",
							"name": "currentOwner",
							"type": "address"
						},
						{
							"internalType": "enum ProductContract.ProductStatus",
							"name": "status",
							"type": "uint8"
						}
					],
					"stateMutability": "view",
					"type": "function"
				},
				{
					"inputs": [],
					"name": "registerProduct",
					"outputs": [
						{
							"internalType": "uint256",
							"name": "",
							"type": "uint256"
						}
					],
					"stateMutability": "nonpayable",
					"type": "function"
				},
				{
					"inputs": [
						{
							"internalType": "enum ProductContract.Role",
							"name": "role",
							"type": "uint8"
						}
					],
					"name": "roleToString",
					"outputs": [
						{
							"internalType": "string",
							"name": "",
							"type": "string"
						}
					],
					"stateMutability": "pure",
					"type": "function"
				},
				{
					"inputs": [
						{
							"internalType": "enum ProductContract.ProductStatus",
							"name": "status",
							"type": "uint8"
						}
					],
					"name": "statusToString",
					"outputs": [
						{
							"internalType": "string",
							"name": "",
							"type": "string"
						}
					],
					"stateMutability": "pure",
					"type": "function"
				},
				{
					"inputs": [
						{
							"internalType": "uint256",
							"name": "productId",
							"type": "uint256"
						},
						{
							"internalType": "string",
							"name": "qualityNote",
							"type": "string"
						}
					],
					"name": "verifyMaterialQuality",
					"outputs": [],
					"stateMutability": "nonpayable",
					"type": "function"
				}
			],
			"devdoc": {
				"kind": "dev",
				"methods": {
					"assignRole(uint256,address,uint8)": {
						"details": "Only contract owner can use this function",
						"params": {
							"role": "The role enum value",
							"user": "Address to assign role to"
						}
					},
					"confirmTransfer(uint256)": {
						"details": "Called by new owner to confirm receipt",
						"params": {
							"productId": "ID of the product being confirmed"
						}
					},
					"getCurrentOwner(uint256)": {
						"params": {
							"productId": "ID of the product"
						},
						"returns": {
							"_0": "Address of the current owner"
						}
					},
					"getMaterials(uint256)": {
						"params": {
							"productId": "ID of the product"
						},
						"returns": {
							"_0": "Array of Material structs"
						}
					},
					"getProductHistory(uint256)": {
						"params": {
							"productId": "ID of the product"
						},
						"returns": {
							"_0": "Array of addresses who previously owned the product"
						}
					},
					"getRoleString(uint256,address)": {
						"details": "Converts internal enum to string for UI use",
						"params": {
							"user": "Address to retrieve role for"
						},
						"returns": {
							"_0": "The role as a string (\"Supplier\", \"Manufacturer\", etc.)"
						}
					},
					"initiateTransfer(uint256,address)": {
						"details": "Sender must be current owner",
						"params": {
							"productId": "ID of the product",
							"to": "Address of the next stakeholder"
						}
					},
					"logManufacturing(uint256,string)": {
						"details": "Used by the manufacturer to log actions taken on the product",
						"params": {
							"note": "Description of manufacturing or transformation",
							"productId": "ID of the product"
						}
					},
					"logMaterialInput(uint256,string,string)": {
						"details": "Only the product's current owner (typically the supplier) can log",
						"params": {
							"name": "Name of the material",
							"origin": "Geographic source of the material",
							"productId": "ID of the product"
						}
					},
					"registerProduct()": {
						"details": "Everyone can register a raw material product, and considered as Supplier for that product",
						"returns": {
							"_0": "productId Unique ID assigned to the product"
						}
					},
					"verifyMaterialQuality(uint256,string)": {
						"details": "Manufacturer must be the current owner",
						"params": {
							"productId": "ID of the product",
							"qualityNote": "Quality assurance or inspection note"
						}
					}
				},
				"version": 1
			},
			"evm": {
				"assembly": "    /* \"ProductContract.sol\":101:11535  contract ProductContract {... */\n  mstore(0x40, 0x80)\n    /* \"ProductContract.sol\":1329:1330  1 */\n  0x01\n    /* \"ProductContract.sol\":1301:1330  uint public nextProductId = 1 */\n  0x04\n  sstore\n    /* \"ProductContract.sol\":2082:2453  constructor(address stakeholderAddress) {... */\n  callvalue\n  dup1\n  iszero\n  tag_1\n  jumpi\n  0x00\n  dup1\n  revert\ntag_1:\n  pop\n  mload(0x40)\n  sub(codesize, bytecodeSize)\n  dup1\n  bytecodeSize\n  dup4\n  codecopy\n  dup2\n  dup2\n  add\n  0x40\n  mstore\n  dup2\n  add\n  swap1\n  tag_2\n  swap2\n  swap1\n  tag_3\n  jump\t// in\ntag_2:\n    /* \"ProductContract.sol\":2171:2172  0 */\n  0x00\n    /* \"ProductContract.sol\":2141:2173  stakeholderAddress != address(0) */\n  0xffffffffffffffffffffffffffffffffffffffff\n  and\n    /* \"ProductContract.sol\":2141:2159  stakeholderAddress */\n  dup2\n    /* \"ProductContract.sol\":2141:2173  stakeholderAddress != address(0) */\n  0xffffffffffffffffffffffffffffffffffffffff\n  and\n  eq\n  iszero\n    /* \"ProductContract.sol\":2133:2202  require(stakeholderAddress != address(0), \"Invalid address inputted\") */\n  tag_6\n  jumpi\n  mload(0x40)\n  0x08c379a000000000000000000000000000000000000000000000000000000000\n  dup2\n  mstore\n  0x04\n  add\n  tag_7\n  swap1\n  tag_8\n  jump\t// in\ntag_7:\n  mload(0x40)\n  dup1\n  swap2\n  sub\n  swap1\n  revert\ntag_6:\n    /* \"ProductContract.sol\":2222:2232  msg.sender */\n  caller\n    /* \"ProductContract.sol\":2214:2219  owner */\n  0x00\n  dup1\n    /* \"ProductContract.sol\":2214:2232  owner = msg.sender */\n  0x0100\n  exp\n  dup2\n  sload\n  dup2\n  0xffffffffffffffffffffffffffffffffffffffff\n  mul\n  not\n  and\n  swap1\n  dup4\n  0xffffffffffffffffffffffffffffffffffffffff\n  and\n  mul\n  or\n  swap1\n  sstore\n  pop\n    /* \"ProductContract.sol\":2082:2453  constructor(address stakeholderAddress) {... */\n  pop\n    /* \"ProductContract.sol\":101:11535  contract ProductContract {... */\n  jump(tag_9)\n    /* \"#utility.yul\":88:205   */\ntag_11:\n    /* \"#utility.yul\":197:198   */\n  0x00\n    /* \"#utility.yul\":194:195   */\n  dup1\n    /* \"#utility.yul\":187:199   */\n  revert\n    /* \"#utility.yul\":334:460   */\ntag_13:\n    /* \"#utility.yul\":371:378   */\n  0x00\n    /* \"#utility.yul\":411:453   */\n  0xffffffffffffffffffffffffffffffffffffffff\n    /* \"#utility.yul\":404:409   */\n  dup3\n    /* \"#utility.yul\":400:454   */\n  and\n    /* \"#utility.yul\":389:454   */\n  swap1\n  pop\n    /* \"#utility.yul\":334:460   */\n  swap2\n  swap1\n  pop\n  jump\t// out\n    /* \"#utility.yul\":466:562   */\ntag_14:\n    /* \"#utility.yul\":503:510   */\n  0x00\n    /* \"#utility.yul\":532:556   */\n  tag_26\n    /* \"#utility.yul\":550:555   */\n  dup3\n    /* \"#utility.yul\":532:556   */\n  tag_13\n  jump\t// in\ntag_26:\n    /* \"#utility.yul\":521:556   */\n  swap1\n  pop\n    /* \"#utility.yul\":466:562   */\n  swap2\n  swap1\n  pop\n  jump\t// out\n    /* \"#utility.yul\":568:690   */\ntag_15:\n    /* \"#utility.yul\":641:665   */\n  tag_28\n    /* \"#utility.yul\":659:664   */\n  dup2\n    /* \"#utility.yul\":641:665   */\n  tag_14\n  jump\t// in\ntag_28:\n    /* \"#utility.yul\":634:639   */\n  dup2\n    /* \"#utility.yul\":631:666   */\n  eq\n    /* \"#utility.yul\":621:684   */\n  tag_29\n  jumpi\n    /* \"#utility.yul\":680:681   */\n  0x00\n    /* \"#utility.yul\":677:678   */\n  dup1\n    /* \"#utility.yul\":670:682   */\n  revert\n    /* \"#utility.yul\":621:684   */\ntag_29:\n    /* \"#utility.yul\":568:690   */\n  pop\n  jump\t// out\n    /* \"#utility.yul\":696:839   */\ntag_16:\n    /* \"#utility.yul\":753:758   */\n  0x00\n    /* \"#utility.yul\":784:790   */\n  dup2\n    /* \"#utility.yul\":778:791   */\n  mload\n    /* \"#utility.yul\":769:791   */\n  swap1\n  pop\n    /* \"#utility.yul\":800:833   */\n  tag_31\n    /* \"#utility.yul\":827:832   */\n  dup2\n    /* \"#utility.yul\":800:833   */\n  tag_15\n  jump\t// in\ntag_31:\n    /* \"#utility.yul\":696:839   */\n  swap3\n  swap2\n  pop\n  pop\n  jump\t// out\n    /* \"#utility.yul\":845:1196   */\ntag_3:\n    /* \"#utility.yul\":915:921   */\n  0x00\n    /* \"#utility.yul\":964:966   */\n  0x20\n    /* \"#utility.yul\":952:961   */\n  dup3\n    /* \"#utility.yul\":943:950   */\n  dup5\n    /* \"#utility.yul\":939:962   */\n  sub\n    /* \"#utility.yul\":935:967   */\n  slt\n    /* \"#utility.yul\":932:1051   */\n  iszero\n  tag_33\n  jumpi\n    /* \"#utility.yul\":970:1049   */\n  tag_34\n  tag_11\n  jump\t// in\ntag_34:\n    /* \"#utility.yul\":932:1051   */\ntag_33:\n    /* \"#utility.yul\":1090:1091   */\n  0x00\n    /* \"#utility.yul\":1115:1179   */\n  tag_35\n    /* \"#utility.yul\":1171:1178   */\n  dup5\n    /* \"#utility.yul\":1162:1168   */\n  dup3\n    /* \"#utility.yul\":1151:1160   */\n  dup6\n    /* \"#utility.yul\":1147:1169   */\n  add\n    /* \"#utility.yul\":1115:1179   */\n  tag_16\n  jump\t// in\ntag_35:\n    /* \"#utility.yul\":1105:1179   */\n  swap2\n  pop\n    /* \"#utility.yul\":1061:1189   */\n  pop\n    /* \"#utility.yul\":845:1196   */\n  swap3\n  swap2\n  pop\n  pop\n  jump\t// out\n    /* \"#utility.yul\":1202:1371   */\ntag_17:\n    /* \"#utility.yul\":1286:1297   */\n  0x00\n    /* \"#utility.yul\":1320:1326   */\n  dup3\n    /* \"#utility.yul\":1315:1318   */\n  dup3\n    /* \"#utility.yul\":1308:1327   */\n  mstore\n    /* \"#utility.yul\":1360:1364   */\n  0x20\n    /* \"#utility.yul\":1355:1358   */\n  dup3\n    /* \"#utility.yul\":1351:1365   */\n  add\n    /* \"#utility.yul\":1336:1365   */\n  swap1\n  pop\n    /* \"#utility.yul\":1202:1371   */\n  swap3\n  swap2\n  pop\n  pop\n  jump\t// out\n    /* \"#utility.yul\":1377:1551   */\ntag_18:\n    /* \"#utility.yul\":1517:1543   */\n  0x496e76616c6964206164647265737320696e7075747465640000000000000000\n    /* \"#utility.yul\":1513:1514   */\n  0x00\n    /* \"#utility.yul\":1505:1511   */\n  dup3\n    /* \"#utility.yul\":1501:1515   */\n  add\n    /* \"#utility.yul\":1494:1544   */\n  mstore\n    /* \"#utility.yul\":1377:1551   */\n  pop\n  jump\t// out\n    /* \"#utility.yul\":1557:1923   */\ntag_19:\n    /* \"#utility.yul\":1699:1702   */\n  0x00\n    /* \"#utility.yul\":1720:1787   */\n  tag_39\n    /* \"#utility.yul\":1784:1786   */\n  0x18\n    /* \"#utility.yul\":1779:1782   */\n  dup4\n    /* \"#utility.yul\":1720:1787   */\n  tag_17\n  jump\t// in\ntag_39:\n    /* \"#utility.yul\":1713:1787   */\n  swap2\n  pop\n    /* \"#utility.yul\":1796:1889   */\n  tag_40\n    /* \"#utility.yul\":1885:1888   */\n  dup3\n    /* \"#utility.yul\":1796:1889   */\n  tag_18\n  jump\t// in\ntag_40:\n    /* \"#utility.yul\":1914:1916   */\n  0x20\n    /* \"#utility.yul\":1909:1912   */\n  dup3\n    /* \"#utility.yul\":1905:1917   */\n  add\n    /* \"#utility.yul\":1898:1917   */\n  swap1\n  pop\n    /* \"#utility.yul\":1557:1923   */\n  swap2\n  swap1\n  pop\n  jump\t// out\n    /* \"#utility.yul\":1929:2348   */\ntag_8:\n    /* \"#utility.yul\":2095:2099   */\n  0x00\n    /* \"#utility.yul\":2133:2135   */\n  0x20\n    /* \"#utility.yul\":2122:2131   */\n  dup3\n    /* \"#utility.yul\":2118:2136   */\n  add\n    /* \"#utility.yul\":2110:2136   */\n  swap1\n  pop\n    /* \"#utility.yul\":2182:2191   */\n  dup2\n    /* \"#utility.yul\":2176:2180   */\n  dup2\n    /* \"#utility.yul\":2172:2192   */\n  sub\n    /* \"#utility.yul\":2168:2169   */\n  0x00\n    /* \"#utility.yul\":2157:2166   */\n  dup4\n    /* \"#utility.yul\":2153:2170   */\n  add\n    /* \"#utility.yul\":2146:2193   */\n  mstore\n    /* \"#utility.yul\":2210:2341   */\n  tag_42\n    /* \"#utility.yul\":2336:2340   */\n  dup2\n    /* \"#utility.yul\":2210:2341   */\n  tag_19\n  jump\t// in\ntag_42:\n    /* \"#utility.yul\":2202:2341   */\n  swap1\n  pop\n    /* \"#utility.yul\":1929:2348   */\n  swap2\n  swap1\n  pop\n  jump\t// out\n    /* \"ProductContract.sol\":101:11535  contract ProductContract {... */\ntag_9:\n  dataSize(sub_0)\n  dup1\n  dataOffset(sub_0)\n  0x00\n  codecopy\n  0x00\n  return\nstop\n\nsub_0: assembly {\n        /* \"ProductContract.sol\":101:11535  contract ProductContract {... */\n      mstore(0x40, 0x80)\n      callvalue\n      dup1\n      iszero\n      tag_1\n      jumpi\n      0x00\n      dup1\n      revert\n    tag_1:\n      pop\n      jumpi(tag_2, lt(calldatasize, 0x04))\n      shr(0xe0, calldataload(0x00))\n      dup1\n      0x7946bb0b\n      gt\n      tag_22\n      jumpi\n      dup1\n      0xa552811b\n      gt\n      tag_23\n      jumpi\n      dup1\n      0xa552811b\n      eq\n      tag_17\n      jumpi\n      dup1\n      0xcb3cc377\n      eq\n      tag_18\n      jumpi\n      dup1\n      0xda9a6f3e\n      eq\n      tag_19\n      jumpi\n      dup1\n      0xdfd92f8a\n      eq\n      tag_20\n      jumpi\n      dup1\n      0xe2f94b56\n      eq\n      tag_21\n      jumpi\n      jump(tag_2)\n    tag_23:\n      dup1\n      0x7946bb0b\n      eq\n      tag_12\n      jumpi\n      dup1\n      0x7acc0b20\n      eq\n      tag_13\n      jumpi\n      dup1\n      0x7ace341b\n      eq\n      tag_14\n      jumpi\n      dup1\n      0x8da5cb5b\n      eq\n      tag_15\n      jumpi\n      dup1\n      0x8fc15dc3\n      eq\n      tag_16\n      jumpi\n      jump(tag_2)\n    tag_22:\n      dup1\n      0x4de91a63\n      gt\n      tag_24\n      jumpi\n      dup1\n      0x4de91a63\n      eq\n      tag_7\n      jumpi\n      dup1\n      0x57a096a1\n      eq\n      tag_8\n      jumpi\n      dup1\n      0x680a9283\n      eq\n      tag_9\n      jumpi\n      dup1\n      0x6d7b7fc9\n      eq\n      tag_10\n      jumpi\n      dup1\n      0x6db0168f\n      eq\n      tag_11\n      jumpi\n      jump(tag_2)\n    tag_24:\n      dup1\n      0x03f6dfbc\n      eq\n      tag_3\n      jumpi\n      dup1\n      0x2c48e7db\n      eq\n      tag_4\n      jumpi\n      dup1\n      0x3010cda7\n      eq\n      tag_5\n      jumpi\n      dup1\n      0x3a371b8e\n      eq\n      tag_6\n      jumpi\n    tag_2:\n      0x00\n      dup1\n      revert\n        /* \"ProductContract.sol\":10707:10955  function getProductStatusString(uint productId) public view returns (string memory) {... */\n    tag_3:\n      tag_25\n      0x04\n      dup1\n      calldatasize\n      sub\n      dup2\n      add\n      swap1\n      tag_26\n      swap2\n      swap1\n      tag_27\n      jump\t// in\n    tag_26:\n      tag_28\n      jump\t// in\n    tag_25:\n      mload(0x40)\n      tag_29\n      swap2\n      swap1\n      tag_30\n      jump\t// in\n    tag_29:\n      mload(0x40)\n      dup1\n      swap2\n      sub\n      swap1\n      return\n        /* \"ProductContract.sol\":8821:9312  function confirmTransfer(uint productId) public {... */\n    tag_4:\n      tag_31\n      0x04\n      dup1\n      calldatasize\n      sub\n      dup2\n      add\n      swap1\n      tag_32\n      swap2\n      swap1\n      tag_27\n      jump\t// in\n    tag_32:\n      tag_33\n      jump\t// in\n    tag_31:\n      stop\n        /* \"ProductContract.sol\":4362:4918  function logMaterialInput(uint productId, string memory name, string memory origin) public onlyRole(productId, Role.Supplier) {... */\n    tag_5:\n      tag_34\n      0x04\n      dup1\n      calldatasize\n      sub\n      dup2\n      add\n      swap1\n      tag_35\n      swap2\n      swap1\n      tag_36\n      jump\t// in\n    tag_35:\n      tag_37\n      jump\t// in\n    tag_34:\n      stop\n        /* \"ProductContract.sol\":7199:8631  function initiateTransfer(uint productId, address to) public {... */\n    tag_6:\n      tag_38\n      0x04\n      dup1\n      calldatasize\n      sub\n      dup2\n      add\n      swap1\n      tag_39\n      swap2\n      swap1\n      tag_40\n      jump\t// in\n    tag_39:\n      tag_41\n      jump\t// in\n    tag_38:\n      stop\n        /* \"ProductContract.sol\":1301:1330  uint public nextProductId = 1 */\n    tag_7:\n      tag_42\n      tag_43\n      jump\t// in\n    tag_42:\n      mload(0x40)\n      tag_44\n      swap2\n      swap1\n      tag_45\n      jump\t// in\n    tag_44:\n      mload(0x40)\n      dup1\n      swap2\n      sub\n      swap1\n      return\n        /* \"ProductContract.sol\":9532:9676  function getProductHistory(uint productId) public view returns (address[] memory) {... */\n    tag_8:\n      tag_46\n      0x04\n      dup1\n      calldatasize\n      sub\n      dup2\n      add\n      swap1\n      tag_47\n      swap2\n      swap1\n      tag_27\n      jump\t// in\n    tag_47:\n      tag_48\n      jump\t// in\n    tag_46:\n      mload(0x40)\n      tag_49\n      swap2\n      swap1\n      tag_50\n      jump\t// in\n    tag_49:\n      mload(0x40)\n      dup1\n      swap2\n      sub\n      swap1\n      return\n        /* \"ProductContract.sol\":10177:10310  function getMaterials(uint productId) public view returns (Material[] memory) {... */\n    tag_9:\n      tag_51\n      0x04\n      dup1\n      calldatasize\n      sub\n      dup2\n      add\n      swap1\n      tag_52\n      swap2\n      swap1\n      tag_27\n      jump\t// in\n    tag_52:\n      tag_53\n      jump\t// in\n    tag_51:\n      mload(0x40)\n      tag_54\n      swap2\n      swap1\n      tag_55\n      jump\t// in\n    tag_54:\n      mload(0x40)\n      dup1\n      swap2\n      sub\n      swap1\n      return\n        /* \"ProductContract.sol\":10963:11528  function statusToString(ProductStatus status) public pure returns (string memory) {... */\n    tag_10:\n      tag_56\n      0x04\n      dup1\n      calldatasize\n      sub\n      dup2\n      add\n      swap1\n      tag_57\n      swap2\n      swap1\n      tag_58\n      jump\t// in\n    tag_57:\n      tag_59\n      jump\t// in\n    tag_56:\n      mload(0x40)\n      tag_60\n      swap2\n      swap1\n      tag_30\n      jump\t// in\n    tag_60:\n      mload(0x40)\n      dup1\n      swap2\n      sub\n      swap1\n      return\n        /* \"ProductContract.sol\":2691:2884  function assignRole(uint productId, address user, Role role) public {... */\n    tag_11:\n      tag_61\n      0x04\n      dup1\n      calldatasize\n      sub\n      dup2\n      add\n      swap1\n      tag_62\n      swap2\n      swap1\n      tag_63\n      jump\t// in\n    tag_62:\n      tag_64\n      jump\t// in\n    tag_61:\n      stop\n        /* \"ProductContract.sol\":10367:10699  function roleToString(Role role) public pure returns (string memory) {... */\n    tag_12:\n      tag_65\n      0x04\n      dup1\n      calldatasize\n      sub\n      dup2\n      add\n      swap1\n      tag_66\n      swap2\n      swap1\n      tag_67\n      jump\t// in\n    tag_66:\n      tag_68\n      jump\t// in\n    tag_65:\n      mload(0x40)\n      tag_69\n      swap2\n      swap1\n      tag_30\n      jump\t// in\n    tag_69:\n      mload(0x40)\n      dup1\n      swap2\n      sub\n      swap1\n      return\n        /* \"ProductContract.sol\":1199:1239  mapping(uint => Product) public products */\n    tag_13:\n      tag_70\n      0x04\n      dup1\n      calldatasize\n      sub\n      dup2\n      add\n      swap1\n      tag_71\n      swap2\n      swap1\n      tag_27\n      jump\t// in\n    tag_71:\n      tag_72\n      jump\t// in\n    tag_70:\n      mload(0x40)\n      tag_73\n      swap5\n      swap4\n      swap3\n      swap2\n      swap1\n      tag_74\n      jump\t// in\n    tag_73:\n      mload(0x40)\n      dup1\n      swap2\n      sub\n      swap1\n      return\n        /* \"ProductContract.sol\":9860:9989  function getCurrentOwner(uint productId) public view returns (address) {... */\n    tag_14:\n      tag_75\n      0x04\n      dup1\n      calldatasize\n      sub\n      dup2\n      add\n      swap1\n      tag_76\n      swap2\n      swap1\n      tag_27\n      jump\t// in\n    tag_76:\n      tag_77\n      jump\t// in\n    tag_75:\n      mload(0x40)\n      tag_78\n      swap2\n      swap1\n      tag_79\n      jump\t// in\n    tag_78:\n      mload(0x40)\n      dup1\n      swap2\n      sub\n      swap1\n      return\n        /* \"ProductContract.sol\":133:153  address public owner */\n    tag_15:\n      tag_80\n      tag_81\n      jump\t// in\n    tag_80:\n      mload(0x40)\n      tag_82\n      swap2\n      swap1\n      tag_79\n      jump\t// in\n    tag_82:\n      mload(0x40)\n      dup1\n      swap2\n      sub\n      swap1\n      return\n        /* \"ProductContract.sol\":1246:1294  mapping(uint => bool) public isProductRegistered */\n    tag_16:\n      tag_83\n      0x04\n      dup1\n      calldatasize\n      sub\n      dup2\n      add\n      swap1\n      tag_84\n      swap2\n      swap1\n      tag_27\n      jump\t// in\n    tag_84:\n      tag_85\n      jump\t// in\n    tag_83:\n      mload(0x40)\n      tag_86\n      swap2\n      swap1\n      tag_87\n      jump\t// in\n    tag_86:\n      mload(0x40)\n      dup1\n      swap2\n      sub\n      swap1\n      return\n        /* \"ProductContract.sol\":6051:6962  function logManufacturing(uint productId, string memory note) public onlyRole(productId, Role.Manufacturer) {... */\n    tag_17:\n      tag_88\n      0x04\n      dup1\n      calldatasize\n      sub\n      dup2\n      add\n      swap1\n      tag_89\n      swap2\n      swap1\n      tag_90\n      jump\t// in\n    tag_89:\n      tag_91\n      jump\t// in\n    tag_88:\n      stop\n        /* \"ProductContract.sol\":3144:3302  function getRoleString(uint productId, address user) public view returns (string memory) {... */\n    tag_18:\n      tag_92\n      0x04\n      dup1\n      calldatasize\n      sub\n      dup2\n      add\n      swap1\n      tag_93\n      swap2\n      swap1\n      tag_40\n      jump\t// in\n    tag_93:\n      tag_94\n      jump\t// in\n    tag_92:\n      mload(0x40)\n      tag_95\n      swap2\n      swap1\n      tag_30\n      jump\t// in\n    tag_95:\n      mload(0x40)\n      dup1\n      swap2\n      sub\n      swap1\n      return\n        /* \"ProductContract.sol\":1131:1192  mapping(uint => mapping(address => Role)) public productRoles */\n    tag_19:\n      tag_96\n      0x04\n      dup1\n      calldatasize\n      sub\n      dup2\n      add\n      swap1\n      tag_97\n      swap2\n      swap1\n      tag_40\n      jump\t// in\n    tag_97:\n      tag_98\n      jump\t// in\n    tag_96:\n      mload(0x40)\n      tag_99\n      swap2\n      swap1\n      tag_100\n      jump\t// in\n    tag_99:\n      mload(0x40)\n      dup1\n      swap2\n      sub\n      swap1\n      return\n        /* \"ProductContract.sol\":3571:4039  function registerProduct() public returns (uint) {... */\n    tag_20:\n      tag_101\n      tag_102\n      jump\t// in\n    tag_101:\n      mload(0x40)\n      tag_103\n      swap2\n      swap1\n      tag_45\n      jump\t// in\n    tag_103:\n      mload(0x40)\n      dup1\n      swap2\n      sub\n      swap1\n      return\n        /* \"ProductContract.sol\":5148:5762  function verifyMaterialQuality(uint productId, string memory qualityNote) public onlyRole(productId, Role.Manufacturer) {... */\n    tag_21:\n      tag_104\n      0x04\n      dup1\n      calldatasize\n      sub\n      dup2\n      add\n      swap1\n      tag_105\n      swap2\n      swap1\n      tag_90\n      jump\t// in\n    tag_105:\n      tag_106\n      jump\t// in\n    tag_104:\n      stop\n        /* \"ProductContract.sol\":10707:10955  function getProductStatusString(uint productId) public view returns (string memory) {... */\n    tag_28:\n        /* \"ProductContract.sol\":10776:10789  string memory */\n      0x60\n        /* \"ProductContract.sol\":10846:10856  msg.sender */\n      caller\n        /* \"ProductContract.sol\":10810:10856  products[productId].currentOwner == msg.sender */\n      0xffffffffffffffffffffffffffffffffffffffff\n      and\n        /* \"ProductContract.sol\":10810:10818  products */\n      0x02\n        /* \"ProductContract.sol\":10810:10829  products[productId] */\n      0x00\n        /* \"ProductContract.sol\":10819:10828  productId */\n      dup5\n        /* \"ProductContract.sol\":10810:10829  products[productId] */\n      dup2\n      mstore\n      0x20\n      add\n      swap1\n      dup2\n      mstore\n      0x20\n      add\n      0x00\n      keccak256\n        /* \"ProductContract.sol\":10810:10842  products[productId].currentOwner */\n      0x03\n      add\n      0x00\n      swap1\n      sload\n      swap1\n      0x0100\n      exp\n      swap1\n      div\n      0xffffffffffffffffffffffffffffffffffffffff\n      and\n        /* \"ProductContract.sol\":10810:10856  products[productId].currentOwner == msg.sender */\n      0xffffffffffffffffffffffffffffffffffffffff\n      and\n      eq\n        /* \"ProductContract.sol\":10802:10887  require(products[productId].currentOwner == msg.sender, \"You don't own this product\") */\n      tag_108\n      jumpi\n      mload(0x40)\n      0x08c379a000000000000000000000000000000000000000000000000000000000\n      dup2\n      mstore\n      0x04\n      add\n      tag_109\n      swap1\n      tag_110\n      jump\t// in\n    tag_109:\n      mload(0x40)\n      dup1\n      swap2\n      sub\n      swap1\n      revert\n    tag_108:\n        /* \"ProductContract.sol\":10905:10947  statusToString(products[productId].status) */\n      tag_111\n        /* \"ProductContract.sol\":10920:10928  products */\n      0x02\n        /* \"ProductContract.sol\":10920:10939  products[productId] */\n      0x00\n        /* \"ProductContract.sol\":10929:10938  productId */\n      dup5\n        /* \"ProductContract.sol\":10920:10939  products[productId] */\n      dup2\n      mstore\n      0x20\n      add\n      swap1\n      dup2\n      mstore\n      0x20\n      add\n      0x00\n      keccak256\n        /* \"ProductContract.sol\":10920:10946  products[productId].status */\n      0x05\n      add\n      0x00\n      swap1\n      sload\n      swap1\n      0x0100\n      exp\n      swap1\n      div\n      0xff\n      and\n        /* \"ProductContract.sol\":10905:10919  statusToString */\n      tag_59\n        /* \"ProductContract.sol\":10905:10947  statusToString(products[productId].status) */\n      jump\t// in\n    tag_111:\n        /* \"ProductContract.sol\":10898:10947  return statusToString(products[productId].status) */\n      swap1\n      pop\n        /* \"ProductContract.sol\":10707:10955  function getProductStatusString(uint productId) public view returns (string memory) {... */\n      swap2\n      swap1\n      pop\n      jump\t// out\n        /* \"ProductContract.sol\":8821:9312  function confirmTransfer(uint productId) public {... */\n    tag_33:\n        /* \"ProductContract.sol\":8888:8907  isProductRegistered */\n      0x03\n        /* \"ProductContract.sol\":8888:8918  isProductRegistered[productId] */\n      0x00\n        /* \"ProductContract.sol\":8908:8917  productId */\n      dup3\n        /* \"ProductContract.sol\":8888:8918  isProductRegistered[productId] */\n      dup2\n      mstore\n      0x20\n      add\n      swap1\n      dup2\n      mstore\n      0x20\n      add\n      0x00\n      keccak256\n      0x00\n      swap1\n      sload\n      swap1\n      0x0100\n      exp\n      swap1\n      div\n      0xff\n      and\n        /* \"ProductContract.sol\":8880:8945  require(isProductRegistered[productId], \"Product not registered\") */\n      tag_113\n      jumpi\n      mload(0x40)\n      0x08c379a000000000000000000000000000000000000000000000000000000000\n      dup2\n      mstore\n      0x04\n      add\n      tag_114\n      swap1\n      tag_115\n      jump\t// in\n    tag_114:\n      mload(0x40)\n      dup1\n      swap2\n      sub\n      swap1\n      revert\n    tag_113:\n        /* \"ProductContract.sol\":9000:9010  msg.sender */\n      caller\n        /* \"ProductContract.sol\":8964:9010  products[productId].currentOwner == msg.sender */\n      0xffffffffffffffffffffffffffffffffffffffff\n      and\n        /* \"ProductContract.sol\":8964:8972  products */\n      0x02\n        /* \"ProductContract.sol\":8964:8983  products[productId] */\n      0x00\n        /* \"ProductContract.sol\":8973:8982  productId */\n      dup4\n        /* \"ProductContract.sol\":8964:8983  products[productId] */\n      dup2\n      mstore\n      0x20\n      add\n      swap1\n      dup2\n      mstore\n      0x20\n      add\n      0x00\n      keccak256\n        /* \"ProductContract.sol\":8964:8996  products[productId].currentOwner */\n      0x03\n      add\n      0x00\n      swap1\n      sload\n      swap1\n      0x0100\n      exp\n      swap1\n      div\n      0xffffffffffffffffffffffffffffffffffffffff\n      and\n        /* \"ProductContract.sol\":8964:9010  products[productId].currentOwner == msg.sender */\n      0xffffffffffffffffffffffffffffffffffffffff\n      and\n      eq\n        /* \"ProductContract.sol\":8956:9054  require(products[productId].currentOwner == msg.sender, \"Only current owner can confirm transfer\") */\n      tag_116\n      jumpi\n      mload(0x40)\n      0x08c379a000000000000000000000000000000000000000000000000000000000\n      dup2\n      mstore\n      0x04\n      add\n      tag_117\n      swap1\n      tag_118\n      jump\t// in\n    tag_117:\n      mload(0x40)\n      dup1\n      swap2\n      sub\n      swap1\n      revert\n    tag_116:\n        /* \"ProductContract.sol\":9096:9119  ProductStatus.Finalised */\n      0x06\n        /* \"ProductContract.sol\":9067:9075  products */\n      0x02\n        /* \"ProductContract.sol\":9067:9086  products[productId] */\n      0x00\n        /* \"ProductContract.sol\":9076:9085  productId */\n      dup4\n        /* \"ProductContract.sol\":9067:9086  products[productId] */\n      dup2\n      mstore\n      0x20\n      add\n      swap1\n      dup2\n      mstore\n      0x20\n      add\n      0x00\n      keccak256\n        /* \"ProductContract.sol\":9067:9093  products[productId].status */\n      0x05\n      add\n      0x00\n        /* \"ProductContract.sol\":9067:9119  products[productId].status = ProductStatus.Finalised */\n      0x0100\n      exp\n      dup2\n      sload\n      dup2\n      0xff\n      mul\n      not\n      and\n      swap1\n      dup4\n      0x06\n      dup2\n      gt\n      iszero\n      tag_119\n      jumpi\n      tag_120\n      tag_121\n      jump\t// in\n    tag_120:\n    tag_119:\n      mul\n      or\n      swap1\n      sstore\n      pop\n        /* \"ProductContract.sol\":9219:9274  OwnershipTransferred(productId, msg.sender, msg.sender) */\n      0x16b85f49bf01212961345d3016c9a531894accf62eb7680f2045d79185cc0ec0\n        /* \"ProductContract.sol\":9240:9249  productId */\n      dup2\n        /* \"ProductContract.sol\":9251:9261  msg.sender */\n      caller\n        /* \"ProductContract.sol\":9263:9273  msg.sender */\n      caller\n        /* \"ProductContract.sol\":9219:9274  OwnershipTransferred(productId, msg.sender, msg.sender) */\n      mload(0x40)\n      tag_122\n      swap4\n      swap3\n      swap2\n      swap1\n      tag_123\n      jump\t// in\n    tag_122:\n      mload(0x40)\n      dup1\n      swap2\n      sub\n      swap1\n      log1\n        /* \"ProductContract.sol\":8821:9312  function confirmTransfer(uint productId) public {... */\n      pop\n      jump\t// out\n        /* \"ProductContract.sol\":4362:4918  function logMaterialInput(uint productId, string memory name, string memory origin) public onlyRole(productId, Role.Supplier) {... */\n    tag_37:\n        /* \"ProductContract.sol\":4462:4471  productId */\n      dup3\n        /* \"ProductContract.sol\":4473:4486  Role.Supplier */\n      0x01\n        /* \"ProductContract.sol\":1507:1512  _role */\n      dup1\n        /* \"ProductContract.sol\":1468:1512  productRoles[productId][msg.sender] == _role */\n      0x04\n      dup2\n      gt\n      iszero\n      tag_125\n      jumpi\n      tag_126\n      tag_121\n      jump\t// in\n    tag_126:\n    tag_125:\n        /* \"ProductContract.sol\":1468:1480  productRoles */\n      0x01\n        /* \"ProductContract.sol\":1468:1491  productRoles[productId] */\n      0x00\n        /* \"ProductContract.sol\":1481:1490  productId */\n      dup5\n        /* \"ProductContract.sol\":1468:1491  productRoles[productId] */\n      dup2\n      mstore\n      0x20\n      add\n      swap1\n      dup2\n      mstore\n      0x20\n      add\n      0x00\n      keccak256\n        /* \"ProductContract.sol\":1468:1503  productRoles[productId][msg.sender] */\n      0x00\n        /* \"ProductContract.sol\":1492:1502  msg.sender */\n      caller\n        /* \"ProductContract.sol\":1468:1503  productRoles[productId][msg.sender] */\n      0xffffffffffffffffffffffffffffffffffffffff\n      and\n      0xffffffffffffffffffffffffffffffffffffffff\n      and\n      dup2\n      mstore\n      0x20\n      add\n      swap1\n      dup2\n      mstore\n      0x20\n      add\n      0x00\n      keccak256\n      0x00\n      swap1\n      sload\n      swap1\n      0x0100\n      exp\n      swap1\n      div\n      0xff\n      and\n        /* \"ProductContract.sol\":1468:1512  productRoles[productId][msg.sender] == _role */\n      0x04\n      dup2\n      gt\n      iszero\n      tag_127\n      jumpi\n      tag_128\n      tag_121\n      jump\t// in\n    tag_128:\n    tag_127:\n      eq\n        /* \"ProductContract.sol\":1460:1554  require(productRoles[productId][msg.sender] == _role, \"Access denied: wrong role for product\") */\n      tag_129\n      jumpi\n      mload(0x40)\n      0x08c379a000000000000000000000000000000000000000000000000000000000\n      dup2\n      mstore\n      0x04\n      add\n      tag_130\n      swap1\n      tag_131\n      jump\t// in\n    tag_130:\n      mload(0x40)\n      dup1\n      swap2\n      sub\n      swap1\n      revert\n    tag_129:\n        /* \"ProductContract.sol\":4507:4526  isProductRegistered */\n      0x03\n        /* \"ProductContract.sol\":4507:4537  isProductRegistered[productId] */\n      0x00\n        /* \"ProductContract.sol\":4527:4536  productId */\n      dup7\n        /* \"ProductContract.sol\":4507:4537  isProductRegistered[productId] */\n      dup2\n      mstore\n      0x20\n      add\n      swap1\n      dup2\n      mstore\n      0x20\n      add\n      0x00\n      keccak256\n      0x00\n      swap1\n      sload\n      swap1\n      0x0100\n      exp\n      swap1\n      div\n      0xff\n      and\n        /* \"ProductContract.sol\":4499:4564  require(isProductRegistered[productId], \"Product not registered\") */\n      tag_133\n      jumpi\n      mload(0x40)\n      0x08c379a000000000000000000000000000000000000000000000000000000000\n      dup2\n      mstore\n      0x04\n      add\n      tag_134\n      swap1\n      tag_115\n      jump\t// in\n    tag_134:\n      mload(0x40)\n      dup1\n      swap2\n      sub\n      swap1\n      revert\n    tag_133:\n        /* \"ProductContract.sol\":4619:4629  msg.sender */\n      caller\n        /* \"ProductContract.sol\":4583:4629  products[productId].currentOwner == msg.sender */\n      0xffffffffffffffffffffffffffffffffffffffff\n      and\n        /* \"ProductContract.sol\":4583:4591  products */\n      0x02\n        /* \"ProductContract.sol\":4583:4602  products[productId] */\n      0x00\n        /* \"ProductContract.sol\":4592:4601  productId */\n      dup8\n        /* \"ProductContract.sol\":4583:4602  products[productId] */\n      dup2\n      mstore\n      0x20\n      add\n      swap1\n      dup2\n      mstore\n      0x20\n      add\n      0x00\n      keccak256\n        /* \"ProductContract.sol\":4583:4615  products[productId].currentOwner */\n      0x03\n      add\n      0x00\n      swap1\n      sload\n      swap1\n      0x0100\n      exp\n      swap1\n      div\n      0xffffffffffffffffffffffffffffffffffffffff\n      and\n        /* \"ProductContract.sol\":4583:4629  products[productId].currentOwner == msg.sender */\n      0xffffffffffffffffffffffffffffffffffffffff\n      and\n      eq\n        /* \"ProductContract.sol\":4575:4660  require(products[productId].currentOwner == msg.sender, \"You don't own this product\") */\n      tag_135\n      jumpi\n      mload(0x40)\n      0x08c379a000000000000000000000000000000000000000000000000000000000\n      dup2\n      mstore\n      0x04\n      add\n      tag_136\n      swap1\n      tag_110\n      jump\t// in\n    tag_136:\n      mload(0x40)\n      dup1\n      swap2\n      sub\n      swap1\n      revert\n    tag_135:\n        /* \"ProductContract.sol\":4673:4692  Material memory mat */\n      0x00\n        /* \"ProductContract.sol\":4695:4734  Material(name, origin, block.timestamp) */\n      mload(0x40)\n      dup1\n      0x60\n      add\n      0x40\n      mstore\n      dup1\n        /* \"ProductContract.sol\":4704:4708  name */\n      dup7\n        /* \"ProductContract.sol\":4695:4734  Material(name, origin, block.timestamp) */\n      dup2\n      mstore\n      0x20\n      add\n        /* \"ProductContract.sol\":4710:4716  origin */\n      dup6\n        /* \"ProductContract.sol\":4695:4734  Material(name, origin, block.timestamp) */\n      dup2\n      mstore\n      0x20\n      add\n        /* \"ProductContract.sol\":4718:4733  block.timestamp */\n      timestamp\n        /* \"ProductContract.sol\":4695:4734  Material(name, origin, block.timestamp) */\n      dup2\n      mstore\n      pop\n        /* \"ProductContract.sol\":4673:4734  Material memory mat = Material(name, origin, block.timestamp) */\n      swap1\n      pop\n        /* \"ProductContract.sol\":4745:4753  products */\n      0x02\n        /* \"ProductContract.sol\":4745:4764  products[productId] */\n      0x00\n        /* \"ProductContract.sol\":4754:4763  productId */\n      dup8\n        /* \"ProductContract.sol\":4745:4764  products[productId] */\n      dup2\n      mstore\n      0x20\n      add\n      swap1\n      dup2\n      mstore\n      0x20\n      add\n      0x00\n      keccak256\n        /* \"ProductContract.sol\":4745:4774  products[productId].materials */\n      0x01\n      add\n        /* \"ProductContract.sol\":4780:4783  mat */\n      dup2\n        /* \"ProductContract.sol\":4745:4784  products[productId].materials.push(mat) */\n      swap1\n      dup1\n      0x01\n      dup2\n      sload\n      add\n      dup1\n      dup3\n      sstore\n      dup1\n      swap2\n      pop\n      pop\n      0x01\n      swap1\n      sub\n      swap1\n      0x00\n      mstore\n      keccak256(0x00, 0x20)\n      swap1\n      0x03\n      mul\n      add\n      0x00\n      swap1\n      swap2\n      swap1\n      swap2\n      swap1\n      swap2\n      pop\n      0x00\n      dup3\n      add\n      mload\n      dup2\n      0x00\n      add\n      swap1\n      dup1\n      mload\n      swap1\n      0x20\n      add\n      swap1\n      tag_138\n      swap3\n      swap2\n      swap1\n      tag_139\n      jump\t// in\n    tag_138:\n      pop\n      0x20\n      dup3\n      add\n      mload\n      dup2\n      0x01\n      add\n      swap1\n      dup1\n      mload\n      swap1\n      0x20\n      add\n      swap1\n      tag_140\n      swap3\n      swap2\n      swap1\n      tag_139\n      jump\t// in\n    tag_140:\n      pop\n      0x40\n      dup3\n      add\n      mload\n      dup2\n      0x02\n      add\n      sstore\n      pop\n      pop\n        /* \"ProductContract.sol\":4824:4853  ProductStatus.MaterialsLogged */\n      0x01\n        /* \"ProductContract.sol\":4795:4803  products */\n      0x02\n        /* \"ProductContract.sol\":4795:4814  products[productId] */\n      0x00\n        /* \"ProductContract.sol\":4804:4813  productId */\n      dup9\n        /* \"ProductContract.sol\":4795:4814  products[productId] */\n      dup2\n      mstore\n      0x20\n      add\n      swap1\n      dup2\n      mstore\n      0x20\n      add\n      0x00\n      keccak256\n        /* \"ProductContract.sol\":4795:4821  products[productId].status */\n      0x05\n      add\n      0x00\n        /* \"ProductContract.sol\":4795:4853  products[productId].status = ProductStatus.MaterialsLogged */\n      0x0100\n      exp\n      dup2\n      sload\n      dup2\n      0xff\n      mul\n      not\n      and\n      swap1\n      dup4\n      0x06\n      dup2\n      gt\n      iszero\n      tag_141\n      jumpi\n      tag_142\n      tag_121\n      jump\t// in\n    tag_142:\n    tag_141:\n      mul\n      or\n      swap1\n      sstore\n      pop\n        /* \"ProductContract.sol\":4871:4910  MaterialLogged(productId, name, origin) */\n      0x2e9abb49e8b9a29ba75d12b719df776b1b523eac921c6f1e773272ff48455bb8\n        /* \"ProductContract.sol\":4886:4895  productId */\n      dup7\n        /* \"ProductContract.sol\":4897:4901  name */\n      dup7\n        /* \"ProductContract.sol\":4903:4909  origin */\n      dup7\n        /* \"ProductContract.sol\":4871:4910  MaterialLogged(productId, name, origin) */\n      mload(0x40)\n      tag_143\n      swap4\n      swap3\n      swap2\n      swap1\n      tag_144\n      jump\t// in\n    tag_143:\n      mload(0x40)\n      dup1\n      swap2\n      sub\n      swap1\n      log1\n        /* \"ProductContract.sol\":4488:4918  {... */\n      pop\n        /* \"ProductContract.sol\":4362:4918  function logMaterialInput(uint productId, string memory name, string memory origin) public onlyRole(productId, Role.Supplier) {... */\n      pop\n      pop\n      pop\n      pop\n      pop\n      jump\t// out\n        /* \"ProductContract.sol\":7199:8631  function initiateTransfer(uint productId, address to) public {... */\n    tag_41:\n        /* \"ProductContract.sol\":7279:7298  isProductRegistered */\n      0x03\n        /* \"ProductContract.sol\":7279:7309  isProductRegistered[productId] */\n      0x00\n        /* \"ProductContract.sol\":7299:7308  productId */\n      dup4\n        /* \"ProductContract.sol\":7279:7309  isProductRegistered[productId] */\n      dup2\n      mstore\n      0x20\n      add\n      swap1\n      dup2\n      mstore\n      0x20\n      add\n      0x00\n      keccak256\n      0x00\n      swap1\n      sload\n      swap1\n      0x0100\n      exp\n      swap1\n      div\n      0xff\n      and\n        /* \"ProductContract.sol\":7271:7336  require(isProductRegistered[productId], \"Product not registered\") */\n      tag_146\n      jumpi\n      mload(0x40)\n      0x08c379a000000000000000000000000000000000000000000000000000000000\n      dup2\n      mstore\n      0x04\n      add\n      tag_147\n      swap1\n      tag_115\n      jump\t// in\n    tag_147:\n      mload(0x40)\n      dup1\n      swap2\n      sub\n      swap1\n      revert\n    tag_146:\n        /* \"ProductContract.sol\":7391:7401  msg.sender */\n      caller\n        /* \"ProductContract.sol\":7355:7401  products[productId].currentOwner == msg.sender */\n      0xffffffffffffffffffffffffffffffffffffffff\n      and\n        /* \"ProductContract.sol\":7355:7363  products */\n      0x02\n        /* \"ProductContract.sol\":7355:7374  products[productId] */\n      0x00\n        /* \"ProductContract.sol\":7364:7373  productId */\n      dup5\n        /* \"ProductContract.sol\":7355:7374  products[productId] */\n      dup2\n      mstore\n      0x20\n      add\n      swap1\n      dup2\n      mstore\n      0x20\n      add\n      0x00\n      keccak256\n        /* \"ProductContract.sol\":7355:7387  products[productId].currentOwner */\n      0x03\n      add\n      0x00\n      swap1\n      sload\n      swap1\n      0x0100\n      exp\n      swap1\n      div\n      0xffffffffffffffffffffffffffffffffffffffff\n      and\n        /* \"ProductContract.sol\":7355:7401  products[productId].currentOwner == msg.sender */\n      0xffffffffffffffffffffffffffffffffffffffff\n      and\n      eq\n        /* \"ProductContract.sol\":7347:7438  require(products[productId].currentOwner == msg.sender, \"Only owner can initiate transfer\") */\n      tag_148\n      jumpi\n      mload(0x40)\n      0x08c379a000000000000000000000000000000000000000000000000000000000\n      dup2\n      mstore\n      0x04\n      add\n      tag_149\n      swap1\n      tag_150\n      jump\t// in\n    tag_149:\n      mload(0x40)\n      dup1\n      swap2\n      sub\n      swap1\n      revert\n    tag_148:\n        /* \"ProductContract.sol\":7471:7472  0 */\n      0x00\n        /* \"ProductContract.sol\":7457:7473  to != address(0) */\n      0xffffffffffffffffffffffffffffffffffffffff\n      and\n        /* \"ProductContract.sol\":7457:7459  to */\n      dup2\n        /* \"ProductContract.sol\":7457:7473  to != address(0) */\n      0xffffffffffffffffffffffffffffffffffffffff\n      and\n      eq\n      iszero\n        /* \"ProductContract.sol\":7449:7495  require(to != address(0), \"Invalid recipient\") */\n      tag_151\n      jumpi\n      mload(0x40)\n      0x08c379a000000000000000000000000000000000000000000000000000000000\n      dup2\n      mstore\n      0x04\n      add\n      tag_152\n      swap1\n      tag_153\n      jump\t// in\n    tag_152:\n      mload(0x40)\n      dup1\n      swap2\n      sub\n      swap1\n      revert\n    tag_151:\n        /* \"ProductContract.sol\":7508:7523  Role senderRole */\n      0x00\n        /* \"ProductContract.sol\":7526:7538  productRoles */\n      0x01\n        /* \"ProductContract.sol\":7526:7549  productRoles[productId] */\n      0x00\n        /* \"ProductContract.sol\":7539:7548  productId */\n      dup5\n        /* \"ProductContract.sol\":7526:7549  productRoles[productId] */\n      dup2\n      mstore\n      0x20\n      add\n      swap1\n      dup2\n      mstore\n      0x20\n      add\n      0x00\n      keccak256\n        /* \"ProductContract.sol\":7526:7561  productRoles[productId][msg.sender] */\n      0x00\n        /* \"ProductContract.sol\":7550:7560  msg.sender */\n      caller\n        /* \"ProductContract.sol\":7526:7561  productRoles[productId][msg.sender] */\n      0xffffffffffffffffffffffffffffffffffffffff\n      and\n      0xffffffffffffffffffffffffffffffffffffffff\n      and\n      dup2\n      mstore\n      0x20\n      add\n      swap1\n      dup2\n      mstore\n      0x20\n      add\n      0x00\n      keccak256\n      0x00\n      swap1\n      sload\n      swap1\n      0x0100\n      exp\n      swap1\n      div\n      0xff\n      and\n        /* \"ProductContract.sol\":7508:7561  Role senderRole = productRoles[productId][msg.sender] */\n      swap1\n      pop\n        /* \"ProductContract.sol\":7572:7590  Role recipientRole */\n      0x00\n        /* \"ProductContract.sol\":7593:7605  productRoles */\n      0x01\n        /* \"ProductContract.sol\":7593:7616  productRoles[productId] */\n      0x00\n        /* \"ProductContract.sol\":7606:7615  productId */\n      dup6\n        /* \"ProductContract.sol\":7593:7616  productRoles[productId] */\n      dup2\n      mstore\n      0x20\n      add\n      swap1\n      dup2\n      mstore\n      0x20\n      add\n      0x00\n      keccak256\n        /* \"ProductContract.sol\":7593:7620  productRoles[productId][to] */\n      0x00\n        /* \"ProductContract.sol\":7617:7619  to */\n      dup5\n        /* \"ProductContract.sol\":7593:7620  productRoles[productId][to] */\n      0xffffffffffffffffffffffffffffffffffffffff\n      and\n      0xffffffffffffffffffffffffffffffffffffffff\n      and\n      dup2\n      mstore\n      0x20\n      add\n      swap1\n      dup2\n      mstore\n      0x20\n      add\n      0x00\n      keccak256\n      0x00\n      swap1\n      sload\n      swap1\n      0x0100\n      exp\n      swap1\n      div\n      0xff\n      and\n        /* \"ProductContract.sol\":7572:7620  Role recipientRole = productRoles[productId][to] */\n      swap1\n      pop\n        /* \"ProductContract.sol\":7748:7761  Role.Supplier */\n      0x01\n        /* \"ProductContract.sol\":7734:7761  senderRole == Role.Supplier */\n      0x04\n      dup2\n      gt\n      iszero\n      tag_154\n      jumpi\n      tag_155\n      tag_121\n      jump\t// in\n    tag_155:\n    tag_154:\n        /* \"ProductContract.sol\":7734:7744  senderRole */\n      dup3\n        /* \"ProductContract.sol\":7734:7761  senderRole == Role.Supplier */\n      0x04\n      dup2\n      gt\n      iszero\n      tag_156\n      jumpi\n      tag_157\n      tag_121\n      jump\t// in\n    tag_157:\n    tag_156:\n      eq\n        /* \"ProductContract.sol\":7730:8392  if (senderRole == Role.Supplier) {... */\n      iszero\n      tag_158\n      jumpi\n        /* \"ProductContract.sol\":7803:7820  Role.Manufacturer */\n      0x02\n        /* \"ProductContract.sol\":7786:7820  recipientRole == Role.Manufacturer */\n      0x04\n      dup2\n      gt\n      iszero\n      tag_159\n      jumpi\n      tag_160\n      tag_121\n      jump\t// in\n    tag_160:\n    tag_159:\n        /* \"ProductContract.sol\":7786:7799  recipientRole */\n      dup2\n        /* \"ProductContract.sol\":7786:7820  recipientRole == Role.Manufacturer */\n      0x04\n      dup2\n      gt\n      iszero\n      tag_161\n      jumpi\n      tag_162\n      tag_121\n      jump\t// in\n    tag_162:\n    tag_161:\n      eq\n        /* \"ProductContract.sol\":7778:7854  require(recipientRole == Role.Manufacturer, \"Must transfer to Manufacturer\") */\n      tag_163\n      jumpi\n      mload(0x40)\n      0x08c379a000000000000000000000000000000000000000000000000000000000\n      dup2\n      mstore\n      0x04\n      add\n      tag_164\n      swap1\n      tag_165\n      jump\t// in\n    tag_164:\n      mload(0x40)\n      dup1\n      swap2\n      sub\n      swap1\n      revert\n    tag_163:\n        /* \"ProductContract.sol\":7730:8392  if (senderRole == Role.Supplier) {... */\n      jump(tag_166)\n    tag_158:\n        /* \"ProductContract.sol\":7890:7907  Role.Manufacturer */\n      0x02\n        /* \"ProductContract.sol\":7876:7907  senderRole == Role.Manufacturer */\n      0x04\n      dup2\n      gt\n      iszero\n      tag_167\n      jumpi\n      tag_168\n      tag_121\n      jump\t// in\n    tag_168:\n    tag_167:\n        /* \"ProductContract.sol\":7876:7886  senderRole */\n      dup3\n        /* \"ProductContract.sol\":7876:7907  senderRole == Role.Manufacturer */\n      0x04\n      dup2\n      gt\n      iszero\n      tag_169\n      jumpi\n      tag_170\n      tag_121\n      jump\t// in\n    tag_170:\n    tag_169:\n      eq\n        /* \"ProductContract.sol\":7872:8392  if (senderRole == Role.Manufacturer) {... */\n      iszero\n      tag_171\n      jumpi\n        /* \"ProductContract.sol\":7949:7962  Role.Retailer */\n      0x03\n        /* \"ProductContract.sol\":7932:7962  recipientRole == Role.Retailer */\n      0x04\n      dup2\n      gt\n      iszero\n      tag_172\n      jumpi\n      tag_173\n      tag_121\n      jump\t// in\n    tag_173:\n    tag_172:\n        /* \"ProductContract.sol\":7932:7945  recipientRole */\n      dup2\n        /* \"ProductContract.sol\":7932:7962  recipientRole == Role.Retailer */\n      0x04\n      dup2\n      gt\n      iszero\n      tag_174\n      jumpi\n      tag_175\n      tag_121\n      jump\t// in\n    tag_175:\n    tag_174:\n      eq\n        /* \"ProductContract.sol\":7924:7992  require(recipientRole == Role.Retailer, \"Must transfer to Retailer\") */\n      tag_176\n      jumpi\n      mload(0x40)\n      0x08c379a000000000000000000000000000000000000000000000000000000000\n      dup2\n      mstore\n      0x04\n      add\n      tag_177\n      swap1\n      tag_178\n      jump\t// in\n    tag_177:\n      mload(0x40)\n      dup1\n      swap2\n      sub\n      swap1\n      revert\n    tag_176:\n        /* \"ProductContract.sol\":7872:8392  if (senderRole == Role.Manufacturer) {... */\n      jump(tag_179)\n    tag_171:\n        /* \"ProductContract.sol\":8028:8041  Role.Retailer */\n      0x03\n        /* \"ProductContract.sol\":8014:8041  senderRole == Role.Retailer */\n      0x04\n      dup2\n      gt\n      iszero\n      tag_180\n      jumpi\n      tag_181\n      tag_121\n      jump\t// in\n    tag_181:\n    tag_180:\n        /* \"ProductContract.sol\":8014:8024  senderRole */\n      dup3\n        /* \"ProductContract.sol\":8014:8041  senderRole == Role.Retailer */\n      0x04\n      dup2\n      gt\n      iszero\n      tag_182\n      jumpi\n      tag_183\n      tag_121\n      jump\t// in\n    tag_183:\n    tag_182:\n      eq\n        /* \"ProductContract.sol\":8010:8392  if (senderRole == Role.Retailer) {... */\n      iszero\n      tag_184\n      jumpi\n        /* \"ProductContract.sol\":8083:8096  Role.Consumer */\n      0x04\n        /* \"ProductContract.sol\":8066:8096  recipientRole == Role.Consumer */\n      dup1\n      dup2\n      gt\n      iszero\n      tag_185\n      jumpi\n      tag_186\n      tag_121\n      jump\t// in\n    tag_186:\n    tag_185:\n        /* \"ProductContract.sol\":8066:8079  recipientRole */\n      dup2\n        /* \"ProductContract.sol\":8066:8096  recipientRole == Role.Consumer */\n      0x04\n      dup2\n      gt\n      iszero\n      tag_187\n      jumpi\n      tag_188\n      tag_121\n      jump\t// in\n    tag_188:\n    tag_187:\n      eq\n        /* \"ProductContract.sol\":8058:8126  require(recipientRole == Role.Consumer, \"Must transfer to Consumer\") */\n      tag_189\n      jumpi\n      mload(0x40)\n      0x08c379a000000000000000000000000000000000000000000000000000000000\n      dup2\n      mstore\n      0x04\n      add\n      tag_190\n      swap1\n      tag_191\n      jump\t// in\n    tag_190:\n      mload(0x40)\n      dup1\n      swap2\n      sub\n      swap1\n      revert\n    tag_189:\n        /* \"ProductContract.sol\":8010:8392  if (senderRole == Role.Retailer) {... */\n      jump(tag_192)\n    tag_184:\n        /* \"ProductContract.sol\":8162:8175  Role.Consumer */\n      0x04\n        /* \"ProductContract.sol\":8148:8175  senderRole == Role.Consumer */\n      dup1\n      dup2\n      gt\n      iszero\n      tag_193\n      jumpi\n      tag_194\n      tag_121\n      jump\t// in\n    tag_194:\n    tag_193:\n        /* \"ProductContract.sol\":8148:8158  senderRole */\n      dup3\n        /* \"ProductContract.sol\":8148:8175  senderRole == Role.Consumer */\n      0x04\n      dup2\n      gt\n      iszero\n      tag_195\n      jumpi\n      tag_196\n      tag_121\n      jump\t// in\n    tag_196:\n    tag_195:\n      eq\n        /* \"ProductContract.sol\":8144:8392  if (senderRole == Role.Consumer) {... */\n      iszero\n      tag_197\n      jumpi\n        /* \"ProductContract.sol\":8213:8226  Role.Consumer */\n      0x04\n        /* \"ProductContract.sol\":8196:8226  recipientRole != Role.Consumer */\n      dup1\n      dup2\n      gt\n      iszero\n      tag_198\n      jumpi\n      tag_199\n      tag_121\n      jump\t// in\n    tag_199:\n    tag_198:\n        /* \"ProductContract.sol\":8196:8209  recipientRole */\n      dup2\n        /* \"ProductContract.sol\":8196:8226  recipientRole != Role.Consumer */\n      0x04\n      dup2\n      gt\n      iszero\n      tag_200\n      jumpi\n      tag_201\n      tag_121\n      jump\t// in\n    tag_201:\n    tag_200:\n      eq\n        /* \"ProductContract.sol\":8192:8381  if (recipientRole != Role.Consumer) {... */\n      tag_202\n      jumpi\n        /* \"ProductContract.sol\":8301:8325  roleToString(senderRole) */\n      tag_203\n        /* \"ProductContract.sol\":8314:8324  senderRole */\n      dup3\n        /* \"ProductContract.sol\":8301:8313  roleToString */\n      tag_68\n        /* \"ProductContract.sol\":8301:8325  roleToString(senderRole) */\n      jump\t// in\n    tag_203:\n        /* \"ProductContract.sol\":8336:8363  roleToString(recipientRole) */\n      tag_204\n        /* \"ProductContract.sol\":8349:8362  recipientRole */\n      dup3\n        /* \"ProductContract.sol\":8336:8348  roleToString */\n      tag_68\n        /* \"ProductContract.sol\":8336:8363  roleToString(recipientRole) */\n      jump\t// in\n    tag_204:\n        /* \"ProductContract.sol\":8254:8364  string.concat(\"Transfer not allowed between \", roleToString(senderRole), \" and \", roleToString(recipientRole)) */\n      add(0x20, mload(0x40))\n      tag_205\n      swap3\n      swap2\n      swap1\n      tag_206\n      jump\t// in\n    tag_205:\n      mload(0x40)\n      0x20\n      dup2\n      dup4\n      sub\n      sub\n      dup2\n      mstore\n      swap1\n      0x40\n      mstore\n        /* \"ProductContract.sol\":8247:8365  revert(string.concat(\"Transfer not allowed between \", roleToString(senderRole), \" and \", roleToString(recipientRole))) */\n      mload(0x40)\n      0x08c379a000000000000000000000000000000000000000000000000000000000\n      dup2\n      mstore\n      0x04\n      add\n      tag_207\n      swap2\n      swap1\n      tag_30\n      jump\t// in\n    tag_207:\n      mload(0x40)\n      dup1\n      swap2\n      sub\n      swap1\n      revert\n        /* \"ProductContract.sol\":8192:8381  if (recipientRole != Role.Consumer) {... */\n    tag_202:\n        /* \"ProductContract.sol\":8144:8392  if (senderRole == Role.Consumer) {... */\n    tag_197:\n        /* \"ProductContract.sol\":8010:8392  if (senderRole == Role.Retailer) {... */\n    tag_192:\n        /* \"ProductContract.sol\":7872:8392  if (senderRole == Role.Manufacturer) {... */\n    tag_179:\n        /* \"ProductContract.sol\":7730:8392  if (senderRole == Role.Supplier) {... */\n    tag_166:\n        /* \"ProductContract.sol\":8433:8456  ProductStatus.InTransit */\n      0x04\n        /* \"ProductContract.sol\":8404:8412  products */\n      0x02\n        /* \"ProductContract.sol\":8404:8423  products[productId] */\n      0x00\n        /* \"ProductContract.sol\":8413:8422  productId */\n      dup7\n        /* \"ProductContract.sol\":8404:8423  products[productId] */\n      dup2\n      mstore\n      0x20\n      add\n      swap1\n      dup2\n      mstore\n      0x20\n      add\n      0x00\n      keccak256\n        /* \"ProductContract.sol\":8404:8430  products[productId].status */\n      0x05\n      add\n      0x00\n        /* \"ProductContract.sol\":8404:8456  products[productId].status = ProductStatus.InTransit */\n      0x0100\n      exp\n      dup2\n      sload\n      dup2\n      0xff\n      mul\n      not\n      and\n      swap1\n      dup4\n      0x06\n      dup2\n      gt\n      iszero\n      tag_208\n      jumpi\n      tag_209\n      tag_121\n      jump\t// in\n    tag_209:\n    tag_208:\n      mul\n      or\n      swap1\n      sstore\n      pop\n        /* \"ProductContract.sol\":8502:8504  to */\n      dup3\n        /* \"ProductContract.sol\":8467:8475  products */\n      0x02\n        /* \"ProductContract.sol\":8467:8486  products[productId] */\n      0x00\n        /* \"ProductContract.sol\":8476:8485  productId */\n      dup7\n        /* \"ProductContract.sol\":8467:8486  products[productId] */\n      dup2\n      mstore\n      0x20\n      add\n      swap1\n      dup2\n      mstore\n      0x20\n      add\n      0x00\n      keccak256\n        /* \"ProductContract.sol\":8467:8499  products[productId].currentOwner */\n      0x03\n      add\n      0x00\n        /* \"ProductContract.sol\":8467:8504  products[productId].currentOwner = to */\n      0x0100\n      exp\n      dup2\n      sload\n      dup2\n      0xffffffffffffffffffffffffffffffffffffffff\n      mul\n      not\n      and\n      swap1\n      dup4\n      0xffffffffffffffffffffffffffffffffffffffff\n      and\n      mul\n      or\n      swap1\n      sstore\n      pop\n        /* \"ProductContract.sol\":8515:8523  products */\n      0x02\n        /* \"ProductContract.sol\":8515:8534  products[productId] */\n      0x00\n        /* \"ProductContract.sol\":8524:8533  productId */\n      dup6\n        /* \"ProductContract.sol\":8515:8534  products[productId] */\n      dup2\n      mstore\n      0x20\n      add\n      swap1\n      dup2\n      mstore\n      0x20\n      add\n      0x00\n      keccak256\n        /* \"ProductContract.sol\":8515:8551  products[productId].ownershipHistory */\n      0x04\n      add\n        /* \"ProductContract.sol\":8557:8559  to */\n      dup4\n        /* \"ProductContract.sol\":8515:8560  products[productId].ownershipHistory.push(to) */\n      swap1\n      dup1\n      0x01\n      dup2\n      sload\n      add\n      dup1\n      dup3\n      sstore\n      dup1\n      swap2\n      pop\n      pop\n      0x01\n      swap1\n      sub\n      swap1\n      0x00\n      mstore\n      keccak256(0x00, 0x20)\n      add\n      0x00\n      swap1\n      swap2\n      swap1\n      swap2\n      swap1\n      swap2\n      0x0100\n      exp\n      dup2\n      sload\n      dup2\n      0xffffffffffffffffffffffffffffffffffffffff\n      mul\n      not\n      and\n      swap1\n      dup4\n      0xffffffffffffffffffffffffffffffffffffffff\n      and\n      mul\n      or\n      swap1\n      sstore\n      pop\n        /* \"ProductContract.sol\":8576:8623  OwnershipTransferred(productId, msg.sender, to) */\n      0x16b85f49bf01212961345d3016c9a531894accf62eb7680f2045d79185cc0ec0\n        /* \"ProductContract.sol\":8597:8606  productId */\n      dup5\n        /* \"ProductContract.sol\":8608:8618  msg.sender */\n      caller\n        /* \"ProductContract.sol\":8620:8622  to */\n      dup6\n        /* \"ProductContract.sol\":8576:8623  OwnershipTransferred(productId, msg.sender, to) */\n      mload(0x40)\n      tag_211\n      swap4\n      swap3\n      swap2\n      swap1\n      tag_123\n      jump\t// in\n    tag_211:\n      mload(0x40)\n      dup1\n      swap2\n      sub\n      swap1\n      log1\n        /* \"ProductContract.sol\":7260:8631  {... */\n      pop\n      pop\n        /* \"ProductContract.sol\":7199:8631  function initiateTransfer(uint productId, address to) public {... */\n      pop\n      pop\n      jump\t// out\n        /* \"ProductContract.sol\":1301:1330  uint public nextProductId = 1 */\n    tag_43:\n      sload(0x04)\n      dup2\n      jump\t// out\n        /* \"ProductContract.sol\":9532:9676  function getProductHistory(uint productId) public view returns (address[] memory) {... */\n    tag_48:\n        /* \"ProductContract.sol\":9596:9612  address[] memory */\n      0x60\n        /* \"ProductContract.sol\":9632:9640  products */\n      0x02\n        /* \"ProductContract.sol\":9632:9651  products[productId] */\n      0x00\n        /* \"ProductContract.sol\":9641:9650  productId */\n      dup4\n        /* \"ProductContract.sol\":9632:9651  products[productId] */\n      dup2\n      mstore\n      0x20\n      add\n      swap1\n      dup2\n      mstore\n      0x20\n      add\n      0x00\n      keccak256\n        /* \"ProductContract.sol\":9632:9668  products[productId].ownershipHistory */\n      0x04\n      add\n        /* \"ProductContract.sol\":9625:9668  return products[productId].ownershipHistory */\n      dup1\n      sload\n      dup1\n      0x20\n      mul\n      0x20\n      add\n      mload(0x40)\n      swap1\n      dup2\n      add\n      0x40\n      mstore\n      dup1\n      swap3\n      swap2\n      swap1\n      dup2\n      dup2\n      mstore\n      0x20\n      add\n      dup3\n      dup1\n      sload\n      dup1\n      iszero\n      tag_213\n      jumpi\n      0x20\n      mul\n      dup3\n      add\n      swap2\n      swap1\n      0x00\n      mstore\n      keccak256(0x00, 0x20)\n      swap1\n    tag_214:\n      dup2\n      0x00\n      swap1\n      sload\n      swap1\n      0x0100\n      exp\n      swap1\n      div\n      0xffffffffffffffffffffffffffffffffffffffff\n      and\n      0xffffffffffffffffffffffffffffffffffffffff\n      and\n      dup2\n      mstore\n      0x20\n      add\n      swap1\n      0x01\n      add\n      swap1\n      dup1\n      dup4\n      gt\n      tag_214\n      jumpi\n    tag_213:\n      pop\n      pop\n      pop\n      pop\n      pop\n      swap1\n      pop\n        /* \"ProductContract.sol\":9532:9676  function getProductHistory(uint productId) public view returns (address[] memory) {... */\n      swap2\n      swap1\n      pop\n      jump\t// out\n        /* \"ProductContract.sol\":10177:10310  function getMaterials(uint productId) public view returns (Material[] memory) {... */\n    tag_53:\n        /* \"ProductContract.sol\":10236:10253  Material[] memory */\n      0x60\n        /* \"ProductContract.sol\":10273:10281  products */\n      0x02\n        /* \"ProductContract.sol\":10273:10292  products[productId] */\n      0x00\n        /* \"ProductContract.sol\":10282:10291  productId */\n      dup4\n        /* \"ProductContract.sol\":10273:10292  products[productId] */\n      dup2\n      mstore\n      0x20\n      add\n      swap1\n      dup2\n      mstore\n      0x20\n      add\n      0x00\n      keccak256\n        /* \"ProductContract.sol\":10273:10302  products[productId].materials */\n      0x01\n      add\n        /* \"ProductContract.sol\":10266:10302  return products[productId].materials */\n      dup1\n      sload\n      dup1\n      0x20\n      mul\n      0x20\n      add\n      mload(0x40)\n      swap1\n      dup2\n      add\n      0x40\n      mstore\n      dup1\n      swap3\n      swap2\n      swap1\n      dup2\n      dup2\n      mstore\n      0x20\n      add\n      0x00\n      swap1\n    tag_216:\n      dup3\n      dup3\n      lt\n      iszero\n      tag_217\n      jumpi\n      dup4\n      dup3\n      swap1\n      0x00\n      mstore\n      keccak256(0x00, 0x20)\n      swap1\n      0x03\n      mul\n      add\n      mload(0x40)\n      dup1\n      0x60\n      add\n      0x40\n      mstore\n      swap1\n      dup2\n      0x00\n      dup3\n      add\n      dup1\n      sload\n      tag_219\n      swap1\n      tag_220\n      jump\t// in\n    tag_219:\n      dup1\n      0x1f\n      add\n      0x20\n      dup1\n      swap2\n      div\n      mul\n      0x20\n      add\n      mload(0x40)\n      swap1\n      dup2\n      add\n      0x40\n      mstore\n      dup1\n      swap3\n      swap2\n      swap1\n      dup2\n      dup2\n      mstore\n      0x20\n      add\n      dup3\n      dup1\n      sload\n      tag_221\n      swap1\n      tag_220\n      jump\t// in\n    tag_221:\n      dup1\n      iszero\n      tag_222\n      jumpi\n      dup1\n      0x1f\n      lt\n      tag_223\n      jumpi\n      0x0100\n      dup1\n      dup4\n      sload\n      div\n      mul\n      dup4\n      mstore\n      swap2\n      0x20\n      add\n      swap2\n      jump(tag_222)\n    tag_223:\n      dup3\n      add\n      swap2\n      swap1\n      0x00\n      mstore\n      keccak256(0x00, 0x20)\n      swap1\n    tag_224:\n      dup2\n      sload\n      dup2\n      mstore\n      swap1\n      0x01\n      add\n      swap1\n      0x20\n      add\n      dup1\n      dup4\n      gt\n      tag_224\n      jumpi\n      dup3\n      swap1\n      sub\n      0x1f\n      and\n      dup3\n      add\n      swap2\n    tag_222:\n      pop\n      pop\n      pop\n      pop\n      pop\n      dup2\n      mstore\n      0x20\n      add\n      0x01\n      dup3\n      add\n      dup1\n      sload\n      tag_225\n      swap1\n      tag_220\n      jump\t// in\n    tag_225:\n      dup1\n      0x1f\n      add\n      0x20\n      dup1\n      swap2\n      div\n      mul\n      0x20\n      add\n      mload(0x40)\n      swap1\n      dup2\n      add\n      0x40\n      mstore\n      dup1\n      swap3\n      swap2\n      swap1\n      dup2\n      dup2\n      mstore\n      0x20\n      add\n      dup3\n      dup1\n      sload\n      tag_226\n      swap1\n      tag_220\n      jump\t// in\n    tag_226:\n      dup1\n      iszero\n      tag_227\n      jumpi\n      dup1\n      0x1f\n      lt\n      tag_228\n      jumpi\n      0x0100\n      dup1\n      dup4\n      sload\n      div\n      mul\n      dup4\n      mstore\n      swap2\n      0x20\n      add\n      swap2\n      jump(tag_227)\n    tag_228:\n      dup3\n      add\n      swap2\n      swap1\n      0x00\n      mstore\n      keccak256(0x00, 0x20)\n      swap1\n    tag_229:\n      dup2\n      sload\n      dup2\n      mstore\n      swap1\n      0x01\n      add\n      swap1\n      0x20\n      add\n      dup1\n      dup4\n      gt\n      tag_229\n      jumpi\n      dup3\n      swap1\n      sub\n      0x1f\n      and\n      dup3\n      add\n      swap2\n    tag_227:\n      pop\n      pop\n      pop\n      pop\n      pop\n      dup2\n      mstore\n      0x20\n      add\n      0x02\n      dup3\n      add\n      sload\n      dup2\n      mstore\n      pop\n      pop\n      dup2\n      mstore\n      0x20\n      add\n      swap1\n      0x01\n      add\n      swap1\n      jump(tag_216)\n    tag_217:\n      pop\n      pop\n      pop\n      pop\n      swap1\n      pop\n        /* \"ProductContract.sol\":10177:10310  function getMaterials(uint productId) public view returns (Material[] memory) {... */\n      swap2\n      swap1\n      pop\n      jump\t// out\n        /* \"ProductContract.sol\":10963:11528  function statusToString(ProductStatus status) public pure returns (string memory) {... */\n    tag_59:\n        /* \"ProductContract.sol\":11030:11043  string memory */\n      0x60\n        /* \"ProductContract.sol\":11070:11091  ProductStatus.Created */\n      0x00\n        /* \"ProductContract.sol\":11060:11091  status == ProductStatus.Created */\n      0x06\n      dup2\n      gt\n      iszero\n      tag_231\n      jumpi\n      tag_232\n      tag_121\n      jump\t// in\n    tag_232:\n    tag_231:\n        /* \"ProductContract.sol\":11060:11066  status */\n      dup3\n        /* \"ProductContract.sol\":11060:11091  status == ProductStatus.Created */\n      0x06\n      dup2\n      gt\n      iszero\n      tag_233\n      jumpi\n      tag_234\n      tag_121\n      jump\t// in\n    tag_234:\n    tag_233:\n      eq\n        /* \"ProductContract.sol\":11056:11109  if (status == ProductStatus.Created) return \"Created\" */\n      iszero\n      tag_235\n      jumpi\n        /* \"ProductContract.sol\":11093:11109  return \"Created\" */\n      mload(0x40)\n      dup1\n      0x40\n      add\n      0x40\n      mstore\n      dup1\n      0x07\n      dup2\n      mstore\n      0x20\n      add\n      0x4372656174656400000000000000000000000000000000000000000000000000\n      dup2\n      mstore\n      pop\n      swap1\n      pop\n      jump(tag_230)\n        /* \"ProductContract.sol\":11056:11109  if (status == ProductStatus.Created) return \"Created\" */\n    tag_235:\n        /* \"ProductContract.sol\":11134:11163  ProductStatus.MaterialsLogged */\n      0x01\n        /* \"ProductContract.sol\":11124:11163  status == ProductStatus.MaterialsLogged */\n      0x06\n      dup2\n      gt\n      iszero\n      tag_236\n      jumpi\n      tag_237\n      tag_121\n      jump\t// in\n    tag_237:\n    tag_236:\n        /* \"ProductContract.sol\":11124:11130  status */\n      dup3\n        /* \"ProductContract.sol\":11124:11163  status == ProductStatus.MaterialsLogged */\n      0x06\n      dup2\n      gt\n      iszero\n      tag_238\n      jumpi\n      tag_239\n      tag_121\n      jump\t// in\n    tag_239:\n    tag_238:\n      eq\n        /* \"ProductContract.sol\":11120:11189  if (status == ProductStatus.MaterialsLogged) return \"MaterialsLogged\" */\n      iszero\n      tag_240\n      jumpi\n        /* \"ProductContract.sol\":11165:11189  return \"MaterialsLogged\" */\n      mload(0x40)\n      dup1\n      0x40\n      add\n      0x40\n      mstore\n      dup1\n      0x0f\n      dup2\n      mstore\n      0x20\n      add\n      0x4d6174657269616c734c6f676765640000000000000000000000000000000000\n      dup2\n      mstore\n      pop\n      swap1\n      pop\n      jump(tag_230)\n        /* \"ProductContract.sol\":11120:11189  if (status == ProductStatus.MaterialsLogged) return \"MaterialsLogged\" */\n    tag_240:\n        /* \"ProductContract.sol\":11214:11249  ProductStatus.ManufacturingVerified */\n      0x02\n        /* \"ProductContract.sol\":11204:11249  status == ProductStatus.ManufacturingVerified */\n      0x06\n      dup2\n      gt\n      iszero\n      tag_241\n      jumpi\n      tag_242\n      tag_121\n      jump\t// in\n    tag_242:\n    tag_241:\n        /* \"ProductContract.sol\":11204:11210  status */\n      dup3\n        /* \"ProductContract.sol\":11204:11249  status == ProductStatus.ManufacturingVerified */\n      0x06\n      dup2\n      gt\n      iszero\n      tag_243\n      jumpi\n      tag_244\n      tag_121\n      jump\t// in\n    tag_244:\n    tag_243:\n      eq\n        /* \"ProductContract.sol\":11200:11281  if (status == ProductStatus.ManufacturingVerified) return \"ManufacturingVerified\" */\n      iszero\n      tag_245\n      jumpi\n        /* \"ProductContract.sol\":11251:11281  return \"ManufacturingVerified\" */\n      mload(0x40)\n      dup1\n      0x40\n      add\n      0x40\n      mstore\n      dup1\n      0x15\n      dup2\n      mstore\n      0x20\n      add\n      0x4d616e75666163747572696e6756657269666965640000000000000000000000\n      dup2\n      mstore\n      pop\n      swap1\n      pop\n      jump(tag_230)\n        /* \"ProductContract.sol\":11200:11281  if (status == ProductStatus.ManufacturingVerified) return \"ManufacturingVerified\" */\n    tag_245:\n        /* \"ProductContract.sol\":11306:11332  ProductStatus.Manufactured */\n      0x03\n        /* \"ProductContract.sol\":11296:11332  status == ProductStatus.Manufactured */\n      0x06\n      dup2\n      gt\n      iszero\n      tag_246\n      jumpi\n      tag_247\n      tag_121\n      jump\t// in\n    tag_247:\n    tag_246:\n        /* \"ProductContract.sol\":11296:11302  status */\n      dup3\n        /* \"ProductContract.sol\":11296:11332  status == ProductStatus.Manufactured */\n      0x06\n      dup2\n      gt\n      iszero\n      tag_248\n      jumpi\n      tag_249\n      tag_121\n      jump\t// in\n    tag_249:\n    tag_248:\n      eq\n        /* \"ProductContract.sol\":11292:11355  if (status == ProductStatus.Manufactured) return \"Manufactured\" */\n      iszero\n      tag_250\n      jumpi\n        /* \"ProductContract.sol\":11334:11355  return \"Manufactured\" */\n      mload(0x40)\n      dup1\n      0x40\n      add\n      0x40\n      mstore\n      dup1\n      0x0c\n      dup2\n      mstore\n      0x20\n      add\n      0x4d616e7566616374757265640000000000000000000000000000000000000000\n      dup2\n      mstore\n      pop\n      swap1\n      pop\n      jump(tag_230)\n        /* \"ProductContract.sol\":11292:11355  if (status == ProductStatus.Manufactured) return \"Manufactured\" */\n    tag_250:\n        /* \"ProductContract.sol\":11380:11403  ProductStatus.InTransit */\n      0x04\n        /* \"ProductContract.sol\":11370:11403  status == ProductStatus.InTransit */\n      0x06\n      dup2\n      gt\n      iszero\n      tag_251\n      jumpi\n      tag_252\n      tag_121\n      jump\t// in\n    tag_252:\n    tag_251:\n        /* \"ProductContract.sol\":11370:11376  status */\n      dup3\n        /* \"ProductContract.sol\":11370:11403  status == ProductStatus.InTransit */\n      0x06\n      dup2\n      gt\n      iszero\n      tag_253\n      jumpi\n      tag_254\n      tag_121\n      jump\t// in\n    tag_254:\n    tag_253:\n      eq\n        /* \"ProductContract.sol\":11366:11423  if (status == ProductStatus.InTransit) return \"InTransit\" */\n      iszero\n      tag_255\n      jumpi\n        /* \"ProductContract.sol\":11405:11423  return \"InTransit\" */\n      mload(0x40)\n      dup1\n      0x40\n      add\n      0x40\n      mstore\n      dup1\n      0x09\n      dup2\n      mstore\n      0x20\n      add\n      0x496e5472616e7369740000000000000000000000000000000000000000000000\n      dup2\n      mstore\n      pop\n      swap1\n      pop\n      jump(tag_230)\n        /* \"ProductContract.sol\":11366:11423  if (status == ProductStatus.InTransit) return \"InTransit\" */\n    tag_255:\n        /* \"ProductContract.sol\":11448:11471  ProductStatus.Delivered */\n      0x05\n        /* \"ProductContract.sol\":11438:11471  status == ProductStatus.Delivered */\n      0x06\n      dup2\n      gt\n      iszero\n      tag_256\n      jumpi\n      tag_257\n      tag_121\n      jump\t// in\n    tag_257:\n    tag_256:\n        /* \"ProductContract.sol\":11438:11444  status */\n      dup3\n        /* \"ProductContract.sol\":11438:11471  status == ProductStatus.Delivered */\n      0x06\n      dup2\n      gt\n      iszero\n      tag_258\n      jumpi\n      tag_259\n      tag_121\n      jump\t// in\n    tag_259:\n    tag_258:\n      eq\n        /* \"ProductContract.sol\":11434:11491  if (status == ProductStatus.Delivered) return \"Delivered\" */\n      iszero\n      tag_260\n      jumpi\n        /* \"ProductContract.sol\":11473:11491  return \"Delivered\" */\n      mload(0x40)\n      dup1\n      0x40\n      add\n      0x40\n      mstore\n      dup1\n      0x09\n      dup2\n      mstore\n      0x20\n      add\n      0x44656c6976657265640000000000000000000000000000000000000000000000\n      dup2\n      mstore\n      pop\n      swap1\n      pop\n      jump(tag_230)\n        /* \"ProductContract.sol\":11434:11491  if (status == ProductStatus.Delivered) return \"Delivered\" */\n    tag_260:\n        /* \"ProductContract.sol\":11502:11520  return \"Finalised\" */\n      mload(0x40)\n      dup1\n      0x40\n      add\n      0x40\n      mstore\n      dup1\n      0x09\n      dup2\n      mstore\n      0x20\n      add\n      0x46696e616c697365640000000000000000000000000000000000000000000000\n      dup2\n      mstore\n      pop\n      swap1\n      pop\n        /* \"ProductContract.sol\":10963:11528  function statusToString(ProductStatus status) public pure returns (string memory) {... */\n    tag_230:\n      swap2\n      swap1\n      pop\n      jump\t// out\n        /* \"ProductContract.sol\":2691:2884  function assignRole(uint productId, address user, Role role) public {... */\n    tag_64:\n        /* \"ProductContract.sol\":2792:2797  owner */\n      0x00\n      dup1\n      sload\n      swap1\n      0x0100\n      exp\n      swap1\n      div\n      0xffffffffffffffffffffffffffffffffffffffff\n      and\n        /* \"ProductContract.sol\":2778:2797  msg.sender == owner */\n      0xffffffffffffffffffffffffffffffffffffffff\n      and\n        /* \"ProductContract.sol\":2778:2788  msg.sender */\n      caller\n        /* \"ProductContract.sol\":2778:2797  msg.sender == owner */\n      0xffffffffffffffffffffffffffffffffffffffff\n      and\n      eq\n        /* \"ProductContract.sol\":2770:2829  require(msg.sender == owner, \"Only owner can assign roles\") */\n      tag_262\n      jumpi\n      mload(0x40)\n      0x08c379a000000000000000000000000000000000000000000000000000000000\n      dup2\n      mstore\n      0x04\n      add\n      tag_263\n      swap1\n      tag_264\n      jump\t// in\n    tag_263:\n      mload(0x40)\n      dup1\n      swap2\n      sub\n      swap1\n      revert\n    tag_262:\n        /* \"ProductContract.sol\":2872:2876  role */\n      dup1\n        /* \"ProductContract.sol\":2840:2852  productRoles */\n      0x01\n        /* \"ProductContract.sol\":2840:2863  productRoles[productId] */\n      0x00\n        /* \"ProductContract.sol\":2853:2862  productId */\n      dup6\n        /* \"ProductContract.sol\":2840:2863  productRoles[productId] */\n      dup2\n      mstore\n      0x20\n      add\n      swap1\n      dup2\n      mstore\n      0x20\n      add\n      0x00\n      keccak256\n        /* \"ProductContract.sol\":2840:2869  productRoles[productId][user] */\n      0x00\n        /* \"ProductContract.sol\":2864:2868  user */\n      dup5\n        /* \"ProductContract.sol\":2840:2869  productRoles[productId][user] */\n      0xffffffffffffffffffffffffffffffffffffffff\n      and\n      0xffffffffffffffffffffffffffffffffffffffff\n      and\n      dup2\n      mstore\n      0x20\n      add\n      swap1\n      dup2\n      mstore\n      0x20\n      add\n      0x00\n      keccak256\n      0x00\n        /* \"ProductContract.sol\":2840:2876  productRoles[productId][user] = role */\n      0x0100\n      exp\n      dup2\n      sload\n      dup2\n      0xff\n      mul\n      not\n      and\n      swap1\n      dup4\n      0x04\n      dup2\n      gt\n      iszero\n      tag_265\n      jumpi\n      tag_266\n      tag_121\n      jump\t// in\n    tag_266:\n    tag_265:\n      mul\n      or\n      swap1\n      sstore\n      pop\n        /* \"ProductContract.sol\":2691:2884  function assignRole(uint productId, address user, Role role) public {... */\n      pop\n      pop\n      pop\n      jump\t// out\n        /* \"ProductContract.sol\":10367:10699  function roleToString(Role role) public pure returns (string memory) {... */\n    tag_68:\n        /* \"ProductContract.sol\":10421:10434  string memory */\n      0x60\n        /* \"ProductContract.sol\":10459:10472  Role.Supplier */\n      0x01\n        /* \"ProductContract.sol\":10451:10472  role == Role.Supplier */\n      0x04\n      dup2\n      gt\n      iszero\n      tag_268\n      jumpi\n      tag_269\n      tag_121\n      jump\t// in\n    tag_269:\n    tag_268:\n        /* \"ProductContract.sol\":10451:10455  role */\n      dup3\n        /* \"ProductContract.sol\":10451:10472  role == Role.Supplier */\n      0x04\n      dup2\n      gt\n      iszero\n      tag_270\n      jumpi\n      tag_271\n      tag_121\n      jump\t// in\n    tag_271:\n    tag_270:\n      eq\n        /* \"ProductContract.sol\":10447:10491  if (role == Role.Supplier) return \"Supplier\" */\n      iszero\n      tag_272\n      jumpi\n        /* \"ProductContract.sol\":10474:10491  return \"Supplier\" */\n      mload(0x40)\n      dup1\n      0x40\n      add\n      0x40\n      mstore\n      dup1\n      0x08\n      dup2\n      mstore\n      0x20\n      add\n      0x537570706c696572000000000000000000000000000000000000000000000000\n      dup2\n      mstore\n      pop\n      swap1\n      pop\n      jump(tag_267)\n        /* \"ProductContract.sol\":10447:10491  if (role == Role.Supplier) return \"Supplier\" */\n    tag_272:\n        /* \"ProductContract.sol\":10514:10531  Role.Manufacturer */\n      0x02\n        /* \"ProductContract.sol\":10506:10531  role == Role.Manufacturer */\n      0x04\n      dup2\n      gt\n      iszero\n      tag_273\n      jumpi\n      tag_274\n      tag_121\n      jump\t// in\n    tag_274:\n    tag_273:\n        /* \"ProductContract.sol\":10506:10510  role */\n      dup3\n        /* \"ProductContract.sol\":10506:10531  role == Role.Manufacturer */\n      0x04\n      dup2\n      gt\n      iszero\n      tag_275\n      jumpi\n      tag_276\n      tag_121\n      jump\t// in\n    tag_276:\n    tag_275:\n      eq\n        /* \"ProductContract.sol\":10502:10554  if (role == Role.Manufacturer) return \"Manufacturer\" */\n      iszero\n      tag_277\n      jumpi\n        /* \"ProductContract.sol\":10533:10554  return \"Manufacturer\" */\n      mload(0x40)\n      dup1\n      0x40\n      add\n      0x40\n      mstore\n      dup1\n      0x0c\n      dup2\n      mstore\n      0x20\n      add\n      0x4d616e7566616374757265720000000000000000000000000000000000000000\n      dup2\n      mstore\n      pop\n      swap1\n      pop\n      jump(tag_267)\n        /* \"ProductContract.sol\":10502:10554  if (role == Role.Manufacturer) return \"Manufacturer\" */\n    tag_277:\n        /* \"ProductContract.sol\":10577:10590  Role.Retailer */\n      0x03\n        /* \"ProductContract.sol\":10569:10590  role == Role.Retailer */\n      0x04\n      dup2\n      gt\n      iszero\n      tag_278\n      jumpi\n      tag_279\n      tag_121\n      jump\t// in\n    tag_279:\n    tag_278:\n        /* \"ProductContract.sol\":10569:10573  role */\n      dup3\n        /* \"ProductContract.sol\":10569:10590  role == Role.Retailer */\n      0x04\n      dup2\n      gt\n      iszero\n      tag_280\n      jumpi\n      tag_281\n      tag_121\n      jump\t// in\n    tag_281:\n    tag_280:\n      eq\n        /* \"ProductContract.sol\":10565:10609  if (role == Role.Retailer) return \"Retailer\" */\n      iszero\n      tag_282\n      jumpi\n        /* \"ProductContract.sol\":10592:10609  return \"Retailer\" */\n      mload(0x40)\n      dup1\n      0x40\n      add\n      0x40\n      mstore\n      dup1\n      0x08\n      dup2\n      mstore\n      0x20\n      add\n      0x52657461696c6572000000000000000000000000000000000000000000000000\n      dup2\n      mstore\n      pop\n      swap1\n      pop\n      jump(tag_267)\n        /* \"ProductContract.sol\":10565:10609  if (role == Role.Retailer) return \"Retailer\" */\n    tag_282:\n        /* \"ProductContract.sol\":10632:10645  Role.Consumer */\n      0x04\n        /* \"ProductContract.sol\":10624:10645  role == Role.Consumer */\n      dup1\n      dup2\n      gt\n      iszero\n      tag_283\n      jumpi\n      tag_284\n      tag_121\n      jump\t// in\n    tag_284:\n    tag_283:\n        /* \"ProductContract.sol\":10624:10628  role */\n      dup3\n        /* \"ProductContract.sol\":10624:10645  role == Role.Consumer */\n      0x04\n      dup2\n      gt\n      iszero\n      tag_285\n      jumpi\n      tag_286\n      tag_121\n      jump\t// in\n    tag_286:\n    tag_285:\n      eq\n        /* \"ProductContract.sol\":10620:10664  if (role == Role.Consumer) return \"Consumer\" */\n      iszero\n      tag_287\n      jumpi\n        /* \"ProductContract.sol\":10647:10664  return \"Consumer\" */\n      mload(0x40)\n      dup1\n      0x40\n      add\n      0x40\n      mstore\n      dup1\n      0x08\n      dup2\n      mstore\n      0x20\n      add\n      0x436f6e73756d6572000000000000000000000000000000000000000000000000\n      dup2\n      mstore\n      pop\n      swap1\n      pop\n      jump(tag_267)\n        /* \"ProductContract.sol\":10620:10664  if (role == Role.Consumer) return \"Consumer\" */\n    tag_287:\n        /* \"ProductContract.sol\":10675:10691  return \"Unknown\" */\n      mload(0x40)\n      dup1\n      0x40\n      add\n      0x40\n      mstore\n      dup1\n      0x07\n      dup2\n      mstore\n      0x20\n      add\n      0x556e6b6e6f776e00000000000000000000000000000000000000000000000000\n      dup2\n      mstore\n      pop\n      swap1\n      pop\n        /* \"ProductContract.sol\":10367:10699  function roleToString(Role role) public pure returns (string memory) {... */\n    tag_267:\n      swap2\n      swap1\n      pop\n      jump\t// out\n        /* \"ProductContract.sol\":1199:1239  mapping(uint => Product) public products */\n    tag_72:\n      mstore(0x20, 0x02)\n      dup1\n      0x00\n      mstore\n      keccak256(0x00, 0x40)\n      0x00\n      swap2\n      pop\n      swap1\n      pop\n      dup1\n      0x00\n      add\n      sload\n      swap1\n      dup1\n      0x02\n      add\n      dup1\n      sload\n      tag_288\n      swap1\n      tag_220\n      jump\t// in\n    tag_288:\n      dup1\n      0x1f\n      add\n      0x20\n      dup1\n      swap2\n      div\n      mul\n      0x20\n      add\n      mload(0x40)\n      swap1\n      dup2\n      add\n      0x40\n      mstore\n      dup1\n      swap3\n      swap2\n      swap1\n      dup2\n      dup2\n      mstore\n      0x20\n      add\n      dup3\n      dup1\n      sload\n      tag_289\n      swap1\n      tag_220\n      jump\t// in\n    tag_289:\n      dup1\n      iszero\n      tag_290\n      jumpi\n      dup1\n      0x1f\n      lt\n      tag_291\n      jumpi\n      0x0100\n      dup1\n      dup4\n      sload\n      div\n      mul\n      dup4\n      mstore\n      swap2\n      0x20\n      add\n      swap2\n      jump(tag_290)\n    tag_291:\n      dup3\n      add\n      swap2\n      swap1\n      0x00\n      mstore\n      keccak256(0x00, 0x20)\n      swap1\n    tag_292:\n      dup2\n      sload\n      dup2\n      mstore\n      swap1\n      0x01\n      add\n      swap1\n      0x20\n      add\n      dup1\n      dup4\n      gt\n      tag_292\n      jumpi\n      dup3\n      swap1\n      sub\n      0x1f\n      and\n      dup3\n      add\n      swap2\n    tag_290:\n      pop\n      pop\n      pop\n      pop\n      pop\n      swap1\n      dup1\n      0x03\n      add\n      0x00\n      swap1\n      sload\n      swap1\n      0x0100\n      exp\n      swap1\n      div\n      0xffffffffffffffffffffffffffffffffffffffff\n      and\n      swap1\n      dup1\n      0x05\n      add\n      0x00\n      swap1\n      sload\n      swap1\n      0x0100\n      exp\n      swap1\n      div\n      0xff\n      and\n      swap1\n      pop\n      dup5\n      jump\t// out\n        /* \"ProductContract.sol\":9860:9989  function getCurrentOwner(uint productId) public view returns (address) {... */\n    tag_77:\n        /* \"ProductContract.sol\":9922:9929  address */\n      0x00\n        /* \"ProductContract.sol\":9949:9957  products */\n      0x02\n        /* \"ProductContract.sol\":9949:9968  products[productId] */\n      0x00\n        /* \"ProductContract.sol\":9958:9967  productId */\n      dup4\n        /* \"ProductContract.sol\":9949:9968  products[productId] */\n      dup2\n      mstore\n      0x20\n      add\n      swap1\n      dup2\n      mstore\n      0x20\n      add\n      0x00\n      keccak256\n        /* \"ProductContract.sol\":9949:9981  products[productId].currentOwner */\n      0x03\n      add\n      0x00\n      swap1\n      sload\n      swap1\n      0x0100\n      exp\n      swap1\n      div\n      0xffffffffffffffffffffffffffffffffffffffff\n      and\n        /* \"ProductContract.sol\":9942:9981  return products[productId].currentOwner */\n      swap1\n      pop\n        /* \"ProductContract.sol\":9860:9989  function getCurrentOwner(uint productId) public view returns (address) {... */\n      swap2\n      swap1\n      pop\n      jump\t// out\n        /* \"ProductContract.sol\":133:153  address public owner */\n    tag_81:\n      0x00\n      dup1\n      sload\n      swap1\n      0x0100\n      exp\n      swap1\n      div\n      0xffffffffffffffffffffffffffffffffffffffff\n      and\n      dup2\n      jump\t// out\n        /* \"ProductContract.sol\":1246:1294  mapping(uint => bool) public isProductRegistered */\n    tag_85:\n      mstore(0x20, 0x03)\n      dup1\n      0x00\n      mstore\n      keccak256(0x00, 0x40)\n      0x00\n      swap2\n      pop\n      sload\n      swap1\n      0x0100\n      exp\n      swap1\n      div\n      0xff\n      and\n      dup2\n      jump\t// out\n        /* \"ProductContract.sol\":6051:6962  function logManufacturing(uint productId, string memory note) public onlyRole(productId, Role.Manufacturer) {... */\n    tag_91:\n        /* \"ProductContract.sol\":6129:6138  productId */\n      dup2\n        /* \"ProductContract.sol\":6140:6157  Role.Manufacturer */\n      0x02\n        /* \"ProductContract.sol\":1507:1512  _role */\n      dup1\n        /* \"ProductContract.sol\":1468:1512  productRoles[productId][msg.sender] == _role */\n      0x04\n      dup2\n      gt\n      iszero\n      tag_295\n      jumpi\n      tag_296\n      tag_121\n      jump\t// in\n    tag_296:\n    tag_295:\n        /* \"ProductContract.sol\":1468:1480  productRoles */\n      0x01\n        /* \"ProductContract.sol\":1468:1491  productRoles[productId] */\n      0x00\n        /* \"ProductContract.sol\":1481:1490  productId */\n      dup5\n        /* \"ProductContract.sol\":1468:1491  productRoles[productId] */\n      dup2\n      mstore\n      0x20\n      add\n      swap1\n      dup2\n      mstore\n      0x20\n      add\n      0x00\n      keccak256\n        /* \"ProductContract.sol\":1468:1503  productRoles[productId][msg.sender] */\n      0x00\n        /* \"ProductContract.sol\":1492:1502  msg.sender */\n      caller\n        /* \"ProductContract.sol\":1468:1503  productRoles[productId][msg.sender] */\n      0xffffffffffffffffffffffffffffffffffffffff\n      and\n      0xffffffffffffffffffffffffffffffffffffffff\n      and\n      dup2\n      mstore\n      0x20\n      add\n      swap1\n      dup2\n      mstore\n      0x20\n      add\n      0x00\n      keccak256\n      0x00\n      swap1\n      sload\n      swap1\n      0x0100\n      exp\n      swap1\n      div\n      0xff\n      and\n        /* \"ProductContract.sol\":1468:1512  productRoles[productId][msg.sender] == _role */\n      0x04\n      dup2\n      gt\n      iszero\n      tag_297\n      jumpi\n      tag_298\n      tag_121\n      jump\t// in\n    tag_298:\n    tag_297:\n      eq\n        /* \"ProductContract.sol\":1460:1554  require(productRoles[productId][msg.sender] == _role, \"Access denied: wrong role for product\") */\n      tag_299\n      jumpi\n      mload(0x40)\n      0x08c379a000000000000000000000000000000000000000000000000000000000\n      dup2\n      mstore\n      0x04\n      add\n      tag_300\n      swap1\n      tag_131\n      jump\t// in\n    tag_300:\n      mload(0x40)\n      dup1\n      swap2\n      sub\n      swap1\n      revert\n    tag_299:\n        /* \"ProductContract.sol\":6178:6197  isProductRegistered */\n      0x03\n        /* \"ProductContract.sol\":6178:6208  isProductRegistered[productId] */\n      0x00\n        /* \"ProductContract.sol\":6198:6207  productId */\n      dup6\n        /* \"ProductContract.sol\":6178:6208  isProductRegistered[productId] */\n      dup2\n      mstore\n      0x20\n      add\n      swap1\n      dup2\n      mstore\n      0x20\n      add\n      0x00\n      keccak256\n      0x00\n      swap1\n      sload\n      swap1\n      0x0100\n      exp\n      swap1\n      div\n      0xff\n      and\n        /* \"ProductContract.sol\":6170:6235  require(isProductRegistered[productId], \"Product not registered\") */\n      tag_302\n      jumpi\n      mload(0x40)\n      0x08c379a000000000000000000000000000000000000000000000000000000000\n      dup2\n      mstore\n      0x04\n      add\n      tag_303\n      swap1\n      tag_115\n      jump\t// in\n    tag_303:\n      mload(0x40)\n      dup1\n      swap2\n      sub\n      swap1\n      revert\n    tag_302:\n        /* \"ProductContract.sol\":6725:6735  msg.sender */\n      caller\n        /* \"ProductContract.sol\":6689:6735  products[productId].currentOwner == msg.sender */\n      0xffffffffffffffffffffffffffffffffffffffff\n      and\n        /* \"ProductContract.sol\":6689:6697  products */\n      0x02\n        /* \"ProductContract.sol\":6689:6708  products[productId] */\n      0x00\n        /* \"ProductContract.sol\":6698:6707  productId */\n      dup7\n        /* \"ProductContract.sol\":6689:6708  products[productId] */\n      dup2\n      mstore\n      0x20\n      add\n      swap1\n      dup2\n      mstore\n      0x20\n      add\n      0x00\n      keccak256\n        /* \"ProductContract.sol\":6689:6721  products[productId].currentOwner */\n      0x03\n      add\n      0x00\n      swap1\n      sload\n      swap1\n      0x0100\n      exp\n      swap1\n      div\n      0xffffffffffffffffffffffffffffffffffffffff\n      and\n        /* \"ProductContract.sol\":6689:6735  products[productId].currentOwner == msg.sender */\n      0xffffffffffffffffffffffffffffffffffffffff\n      and\n      eq\n        /* \"ProductContract.sol\":6681:6772  require(products[productId].currentOwner == msg.sender, \"Only owner can log manufacturing\") */\n      tag_304\n      jumpi\n      mload(0x40)\n      0x08c379a000000000000000000000000000000000000000000000000000000000\n      dup2\n      mstore\n      0x04\n      add\n      tag_305\n      swap1\n      tag_306\n      jump\t// in\n    tag_305:\n      mload(0x40)\n      dup1\n      swap2\n      sub\n      swap1\n      revert\n    tag_304:\n        /* \"ProductContract.sol\":6822:6826  note */\n      dup3\n        /* \"ProductContract.sol\":6783:6791  products */\n      0x02\n        /* \"ProductContract.sol\":6783:6802  products[productId] */\n      0x00\n        /* \"ProductContract.sol\":6792:6801  productId */\n      dup7\n        /* \"ProductContract.sol\":6783:6802  products[productId] */\n      dup2\n      mstore\n      0x20\n      add\n      swap1\n      dup2\n      mstore\n      0x20\n      add\n      0x00\n      keccak256\n        /* \"ProductContract.sol\":6783:6819  products[productId].manufacturerNote */\n      0x02\n      add\n        /* \"ProductContract.sol\":6783:6826  products[productId].manufacturerNote = note */\n      swap1\n      dup1\n      mload\n      swap1\n      0x20\n      add\n      swap1\n      tag_307\n      swap3\n      swap2\n      swap1\n      tag_139\n      jump\t// in\n    tag_307:\n      pop\n        /* \"ProductContract.sol\":6866:6892  ProductStatus.Manufactured */\n      0x03\n        /* \"ProductContract.sol\":6837:6845  products */\n      0x02\n        /* \"ProductContract.sol\":6837:6856  products[productId] */\n      0x00\n        /* \"ProductContract.sol\":6846:6855  productId */\n      dup7\n        /* \"ProductContract.sol\":6837:6856  products[productId] */\n      dup2\n      mstore\n      0x20\n      add\n      swap1\n      dup2\n      mstore\n      0x20\n      add\n      0x00\n      keccak256\n        /* \"ProductContract.sol\":6837:6863  products[productId].status */\n      0x05\n      add\n      0x00\n        /* \"ProductContract.sol\":6837:6892  products[productId].status = ProductStatus.Manufactured */\n      0x0100\n      exp\n      dup2\n      sload\n      dup2\n      0xff\n      mul\n      not\n      and\n      swap1\n      dup4\n      0x06\n      dup2\n      gt\n      iszero\n      tag_308\n      jumpi\n      tag_309\n      tag_121\n      jump\t// in\n    tag_309:\n    tag_308:\n      mul\n      or\n      swap1\n      sstore\n      pop\n        /* \"ProductContract.sol\":6918:6954  ManufacturingLogged(productId, note) */\n      0xec3ae4350812c56655d3ac5aea7ecc17434d05fb3571eca3e293b924ff187332\n        /* \"ProductContract.sol\":6938:6947  productId */\n      dup5\n        /* \"ProductContract.sol\":6949:6953  note */\n      dup5\n        /* \"ProductContract.sol\":6918:6954  ManufacturingLogged(productId, note) */\n      mload(0x40)\n      tag_310\n      swap3\n      swap2\n      swap1\n      tag_311\n      jump\t// in\n    tag_310:\n      mload(0x40)\n      dup1\n      swap2\n      sub\n      swap1\n      log1\n        /* \"ProductContract.sol\":6051:6962  function logManufacturing(uint productId, string memory note) public onlyRole(productId, Role.Manufacturer) {... */\n      pop\n      pop\n      pop\n      pop\n      jump\t// out\n        /* \"ProductContract.sol\":3144:3302  function getRoleString(uint productId, address user) public view returns (string memory) {... */\n    tag_94:\n        /* \"ProductContract.sol\":3218:3231  string memory */\n      0x60\n        /* \"ProductContract.sol\":3251:3294  roleToString(productRoles[productId][user]) */\n      tag_313\n        /* \"ProductContract.sol\":3264:3276  productRoles */\n      0x01\n        /* \"ProductContract.sol\":3264:3287  productRoles[productId] */\n      0x00\n        /* \"ProductContract.sol\":3277:3286  productId */\n      dup6\n        /* \"ProductContract.sol\":3264:3287  productRoles[productId] */\n      dup2\n      mstore\n      0x20\n      add\n      swap1\n      dup2\n      mstore\n      0x20\n      add\n      0x00\n      keccak256\n        /* \"ProductContract.sol\":3264:3293  productRoles[productId][user] */\n      0x00\n        /* \"ProductContract.sol\":3288:3292  user */\n      dup5\n        /* \"ProductContract.sol\":3264:3293  productRoles[productId][user] */\n      0xffffffffffffffffffffffffffffffffffffffff\n      and\n      0xffffffffffffffffffffffffffffffffffffffff\n      and\n      dup2\n      mstore\n      0x20\n      add\n      swap1\n      dup2\n      mstore\n      0x20\n      add\n      0x00\n      keccak256\n      0x00\n      swap1\n      sload\n      swap1\n      0x0100\n      exp\n      swap1\n      div\n      0xff\n      and\n        /* \"ProductContract.sol\":3251:3263  roleToString */\n      tag_68\n        /* \"ProductContract.sol\":3251:3294  roleToString(productRoles[productId][user]) */\n      jump\t// in\n    tag_313:\n        /* \"ProductContract.sol\":3244:3294  return roleToString(productRoles[productId][user]) */\n      swap1\n      pop\n        /* \"ProductContract.sol\":3144:3302  function getRoleString(uint productId, address user) public view returns (string memory) {... */\n      swap3\n      swap2\n      pop\n      pop\n      jump\t// out\n        /* \"ProductContract.sol\":1131:1192  mapping(uint => mapping(address => Role)) public productRoles */\n    tag_98:\n      mstore(0x20, 0x01)\n      dup2\n      0x00\n      mstore\n      mstore(0x20, keccak256(0x00, 0x40))\n      dup1\n      0x00\n      mstore\n      keccak256(0x00, 0x40)\n      0x00\n      swap2\n      pop\n      swap2\n      pop\n      swap1\n      sload\n      swap1\n      0x0100\n      exp\n      swap1\n      div\n      0xff\n      and\n      dup2\n      jump\t// out\n        /* \"ProductContract.sol\":3571:4039  function registerProduct() public returns (uint) {... */\n    tag_102:\n        /* \"ProductContract.sol\":3614:3618  uint */\n      0x00\n        /* \"ProductContract.sol\":3631:3638  uint id */\n      dup1\n        /* \"ProductContract.sol\":3641:3654  nextProductId */\n      0x04\n      0x00\n        /* \"ProductContract.sol\":3641:3656  nextProductId++ */\n      dup2\n      sload\n      dup1\n      swap3\n      swap2\n      swap1\n      tag_315\n      swap1\n      tag_316\n      jump\t// in\n    tag_315:\n      swap2\n      swap1\n      pop\n      sstore\n        /* \"ProductContract.sol\":3631:3656  uint id = nextProductId++ */\n      swap1\n      pop\n        /* \"ProductContract.sol\":3702:3704  id */\n      dup1\n        /* \"ProductContract.sol\":3677:3685  products */\n      0x02\n        /* \"ProductContract.sol\":3677:3689  products[id] */\n      0x00\n        /* \"ProductContract.sol\":3686:3688  id */\n      dup4\n        /* \"ProductContract.sol\":3677:3689  products[id] */\n      dup2\n      mstore\n      0x20\n      add\n      swap1\n      dup2\n      mstore\n      0x20\n      add\n      0x00\n      keccak256\n        /* \"ProductContract.sol\":3677:3699  products[id].productId */\n      0x00\n      add\n        /* \"ProductContract.sol\":3677:3704  products[id].productId = id */\n      dup2\n      swap1\n      sstore\n      pop\n        /* \"ProductContract.sol\":3743:3753  msg.sender */\n      caller\n        /* \"ProductContract.sol\":3715:3723  products */\n      0x02\n        /* \"ProductContract.sol\":3715:3727  products[id] */\n      0x00\n        /* \"ProductContract.sol\":3724:3726  id */\n      dup4\n        /* \"ProductContract.sol\":3715:3727  products[id] */\n      dup2\n      mstore\n      0x20\n      add\n      swap1\n      dup2\n      mstore\n      0x20\n      add\n      0x00\n      keccak256\n        /* \"ProductContract.sol\":3715:3740  products[id].currentOwner */\n      0x03\n      add\n      0x00\n        /* \"ProductContract.sol\":3715:3753  products[id].currentOwner = msg.sender */\n      0x0100\n      exp\n      dup2\n      sload\n      dup2\n      0xffffffffffffffffffffffffffffffffffffffff\n      mul\n      not\n      and\n      swap1\n      dup4\n      0xffffffffffffffffffffffffffffffffffffffff\n      and\n      mul\n      or\n      swap1\n      sstore\n      pop\n        /* \"ProductContract.sol\":3764:3772  products */\n      0x02\n        /* \"ProductContract.sol\":3764:3776  products[id] */\n      0x00\n        /* \"ProductContract.sol\":3773:3775  id */\n      dup3\n        /* \"ProductContract.sol\":3764:3776  products[id] */\n      dup2\n      mstore\n      0x20\n      add\n      swap1\n      dup2\n      mstore\n      0x20\n      add\n      0x00\n      keccak256\n        /* \"ProductContract.sol\":3764:3793  products[id].ownershipHistory */\n      0x04\n      add\n        /* \"ProductContract.sol\":3799:3809  msg.sender */\n      caller\n        /* \"ProductContract.sol\":3764:3810  products[id].ownershipHistory.push(msg.sender) */\n      swap1\n      dup1\n      0x01\n      dup2\n      sload\n      add\n      dup1\n      dup3\n      sstore\n      dup1\n      swap2\n      pop\n      pop\n      0x01\n      swap1\n      sub\n      swap1\n      0x00\n      mstore\n      keccak256(0x00, 0x20)\n      add\n      0x00\n      swap1\n      swap2\n      swap1\n      swap2\n      swap1\n      swap2\n      0x0100\n      exp\n      dup2\n      sload\n      dup2\n      0xffffffffffffffffffffffffffffffffffffffff\n      mul\n      not\n      and\n      swap1\n      dup4\n      0xffffffffffffffffffffffffffffffffffffffff\n      and\n      mul\n      or\n      swap1\n      sstore\n      pop\n        /* \"ProductContract.sol\":3843:3864  ProductStatus.Created */\n      0x00\n        /* \"ProductContract.sol\":3821:3829  products */\n      0x02\n        /* \"ProductContract.sol\":3821:3833  products[id] */\n      0x00\n        /* \"ProductContract.sol\":3830:3832  id */\n      dup4\n        /* \"ProductContract.sol\":3821:3833  products[id] */\n      dup2\n      mstore\n      0x20\n      add\n      swap1\n      dup2\n      mstore\n      0x20\n      add\n      0x00\n      keccak256\n        /* \"ProductContract.sol\":3821:3840  products[id].status */\n      0x05\n      add\n      0x00\n        /* \"ProductContract.sol\":3821:3864  products[id].status = ProductStatus.Created */\n      0x0100\n      exp\n      dup2\n      sload\n      dup2\n      0xff\n      mul\n      not\n      and\n      swap1\n      dup4\n      0x06\n      dup2\n      gt\n      iszero\n      tag_318\n      jumpi\n      tag_319\n      tag_121\n      jump\t// in\n    tag_319:\n    tag_318:\n      mul\n      or\n      swap1\n      sstore\n      pop\n        /* \"ProductContract.sol\":3903:3907  true */\n      0x01\n        /* \"ProductContract.sol\":3877:3896  isProductRegistered */\n      0x03\n        /* \"ProductContract.sol\":3877:3900  isProductRegistered[id] */\n      0x00\n        /* \"ProductContract.sol\":3897:3899  id */\n      dup4\n        /* \"ProductContract.sol\":3877:3900  isProductRegistered[id] */\n      dup2\n      mstore\n      0x20\n      add\n      swap1\n      dup2\n      mstore\n      0x20\n      add\n      0x00\n      keccak256\n      0x00\n        /* \"ProductContract.sol\":3877:3907  isProductRegistered[id] = true */\n      0x0100\n      exp\n      dup2\n      sload\n      dup2\n      0xff\n      mul\n      not\n      and\n      swap1\n      dup4\n      iszero\n      iszero\n      mul\n      or\n      swap1\n      sstore\n      pop\n        /* \"ProductContract.sol\":3949:3962  Role.Supplier */\n      0x01\n        /* \"ProductContract.sol\":3918:3930  productRoles */\n      dup1\n        /* \"ProductContract.sol\":3918:3934  productRoles[id] */\n      0x00\n        /* \"ProductContract.sol\":3931:3933  id */\n      dup4\n        /* \"ProductContract.sol\":3918:3934  productRoles[id] */\n      dup2\n      mstore\n      0x20\n      add\n      swap1\n      dup2\n      mstore\n      0x20\n      add\n      0x00\n      keccak256\n        /* \"ProductContract.sol\":3918:3946  productRoles[id][msg.sender] */\n      0x00\n        /* \"ProductContract.sol\":3935:3945  msg.sender */\n      caller\n        /* \"ProductContract.sol\":3918:3946  productRoles[id][msg.sender] */\n      0xffffffffffffffffffffffffffffffffffffffff\n      and\n      0xffffffffffffffffffffffffffffffffffffffff\n      and\n      dup2\n      mstore\n      0x20\n      add\n      swap1\n      dup2\n      mstore\n      0x20\n      add\n      0x00\n      keccak256\n      0x00\n        /* \"ProductContract.sol\":3918:3962  productRoles[id][msg.sender] = Role.Supplier */\n      0x0100\n      exp\n      dup2\n      sload\n      dup2\n      0xff\n      mul\n      not\n      and\n      swap1\n      dup4\n      0x04\n      dup2\n      gt\n      iszero\n      tag_320\n      jumpi\n      tag_321\n      tag_121\n      jump\t// in\n    tag_321:\n    tag_320:\n      mul\n      or\n      swap1\n      sstore\n      pop\n        /* \"ProductContract.sol\":3978:4011  ProductRegistered(id, msg.sender) */\n      0x73e014c0a076665d9511a27e878fadccb6d7171f5754ba1167a670023760b015\n        /* \"ProductContract.sol\":3996:3998  id */\n      dup2\n        /* \"ProductContract.sol\":4000:4010  msg.sender */\n      caller\n        /* \"ProductContract.sol\":3978:4011  ProductRegistered(id, msg.sender) */\n      mload(0x40)\n      tag_322\n      swap3\n      swap2\n      swap1\n      tag_323\n      jump\t// in\n    tag_322:\n      mload(0x40)\n      dup1\n      swap2\n      sub\n      swap1\n      log1\n        /* \"ProductContract.sol\":4029:4031  id */\n      dup1\n        /* \"ProductContract.sol\":4022:4031  return id */\n      swap2\n      pop\n      pop\n        /* \"ProductContract.sol\":3571:4039  function registerProduct() public returns (uint) {... */\n      swap1\n      jump\t// out\n        /* \"ProductContract.sol\":5148:5762  function verifyMaterialQuality(uint productId, string memory qualityNote) public onlyRole(productId, Role.Manufacturer) {... */\n    tag_106:\n        /* \"ProductContract.sol\":5238:5247  productId */\n      dup2\n        /* \"ProductContract.sol\":5249:5266  Role.Manufacturer */\n      0x02\n        /* \"ProductContract.sol\":1507:1512  _role */\n      dup1\n        /* \"ProductContract.sol\":1468:1512  productRoles[productId][msg.sender] == _role */\n      0x04\n      dup2\n      gt\n      iszero\n      tag_325\n      jumpi\n      tag_326\n      tag_121\n      jump\t// in\n    tag_326:\n    tag_325:\n        /* \"ProductContract.sol\":1468:1480  productRoles */\n      0x01\n        /* \"ProductContract.sol\":1468:1491  productRoles[productId] */\n      0x00\n        /* \"ProductContract.sol\":1481:1490  productId */\n      dup5\n        /* \"ProductContract.sol\":1468:1491  productRoles[productId] */\n      dup2\n      mstore\n      0x20\n      add\n      swap1\n      dup2\n      mstore\n      0x20\n      add\n      0x00\n      keccak256\n        /* \"ProductContract.sol\":1468:1503  productRoles[productId][msg.sender] */\n      0x00\n        /* \"ProductContract.sol\":1492:1502  msg.sender */\n      caller\n        /* \"ProductContract.sol\":1468:1503  productRoles[productId][msg.sender] */\n      0xffffffffffffffffffffffffffffffffffffffff\n      and\n      0xffffffffffffffffffffffffffffffffffffffff\n      and\n      dup2\n      mstore\n      0x20\n      add\n      swap1\n      dup2\n      mstore\n      0x20\n      add\n      0x00\n      keccak256\n      0x00\n      swap1\n      sload\n      swap1\n      0x0100\n      exp\n      swap1\n      div\n      0xff\n      and\n        /* \"ProductContract.sol\":1468:1512  productRoles[productId][msg.sender] == _role */\n      0x04\n      dup2\n      gt\n      iszero\n      tag_327\n      jumpi\n      tag_328\n      tag_121\n      jump\t// in\n    tag_328:\n    tag_327:\n      eq\n        /* \"ProductContract.sol\":1460:1554  require(productRoles[productId][msg.sender] == _role, \"Access denied: wrong role for product\") */\n      tag_329\n      jumpi\n      mload(0x40)\n      0x08c379a000000000000000000000000000000000000000000000000000000000\n      dup2\n      mstore\n      0x04\n      add\n      tag_330\n      swap1\n      tag_131\n      jump\t// in\n    tag_330:\n      mload(0x40)\n      dup1\n      swap2\n      sub\n      swap1\n      revert\n    tag_329:\n        /* \"ProductContract.sol\":5287:5306  isProductRegistered */\n      0x03\n        /* \"ProductContract.sol\":5287:5317  isProductRegistered[productId] */\n      0x00\n        /* \"ProductContract.sol\":5307:5316  productId */\n      dup6\n        /* \"ProductContract.sol\":5287:5317  isProductRegistered[productId] */\n      dup2\n      mstore\n      0x20\n      add\n      swap1\n      dup2\n      mstore\n      0x20\n      add\n      0x00\n      keccak256\n      0x00\n      swap1\n      sload\n      swap1\n      0x0100\n      exp\n      swap1\n      div\n      0xff\n      and\n        /* \"ProductContract.sol\":5279:5344  require(isProductRegistered[productId], \"Product not registered\") */\n      tag_332\n      jumpi\n      mload(0x40)\n      0x08c379a000000000000000000000000000000000000000000000000000000000\n      dup2\n      mstore\n      0x04\n      add\n      tag_333\n      swap1\n      tag_115\n      jump\t// in\n    tag_333:\n      mload(0x40)\n      dup1\n      swap2\n      sub\n      swap1\n      revert\n    tag_332:\n        /* \"ProductContract.sol\":5399:5409  msg.sender */\n      caller\n        /* \"ProductContract.sol\":5363:5409  products[productId].currentOwner == msg.sender */\n      0xffffffffffffffffffffffffffffffffffffffff\n      and\n        /* \"ProductContract.sol\":5363:5371  products */\n      0x02\n        /* \"ProductContract.sol\":5363:5382  products[productId] */\n      0x00\n        /* \"ProductContract.sol\":5372:5381  productId */\n      dup7\n        /* \"ProductContract.sol\":5363:5382  products[productId] */\n      dup2\n      mstore\n      0x20\n      add\n      swap1\n      dup2\n      mstore\n      0x20\n      add\n      0x00\n      keccak256\n        /* \"ProductContract.sol\":5363:5395  products[productId].currentOwner */\n      0x03\n      add\n      0x00\n      swap1\n      sload\n      swap1\n      0x0100\n      exp\n      swap1\n      div\n      0xffffffffffffffffffffffffffffffffffffffff\n      and\n        /* \"ProductContract.sol\":5363:5409  products[productId].currentOwner == msg.sender */\n      0xffffffffffffffffffffffffffffffffffffffff\n      and\n      eq\n        /* \"ProductContract.sol\":5355:5443  require(products[productId].currentOwner == msg.sender, \"Only owner can verify quality\") */\n      tag_334\n      jumpi\n      mload(0x40)\n      0x08c379a000000000000000000000000000000000000000000000000000000000\n      dup2\n      mstore\n      0x04\n      add\n      tag_335\n      swap1\n      tag_336\n      jump\t// in\n    tag_335:\n      mload(0x40)\n      dup1\n      swap2\n      sub\n      swap1\n      revert\n    tag_334:\n        /* \"ProductContract.sol\":5559:5594  ProductStatus.ManufacturingVerified */\n      0x02\n        /* \"ProductContract.sol\":5530:5538  products */\n      dup1\n        /* \"ProductContract.sol\":5530:5549  products[productId] */\n      0x00\n        /* \"ProductContract.sol\":5539:5548  productId */\n      dup7\n        /* \"ProductContract.sol\":5530:5549  products[productId] */\n      dup2\n      mstore\n      0x20\n      add\n      swap1\n      dup2\n      mstore\n      0x20\n      add\n      0x00\n      keccak256\n        /* \"ProductContract.sol\":5530:5556  products[productId].status */\n      0x05\n      add\n      0x00\n        /* \"ProductContract.sol\":5530:5594  products[productId].status = ProductStatus.ManufacturingVerified */\n      0x0100\n      exp\n      dup2\n      sload\n      dup2\n      0xff\n      mul\n      not\n      and\n      swap1\n      dup4\n      0x06\n      dup2\n      gt\n      iszero\n      tag_337\n      jumpi\n      tag_338\n      tag_121\n      jump\t// in\n    tag_338:\n    tag_337:\n      mul\n      or\n      swap1\n      sstore\n      pop\n        /* \"ProductContract.sol\":5644:5655  qualityNote */\n      dup3\n        /* \"ProductContract.sol\":5605:5613  products */\n      0x02\n        /* \"ProductContract.sol\":5605:5624  products[productId] */\n      0x00\n        /* \"ProductContract.sol\":5614:5623  productId */\n      dup7\n        /* \"ProductContract.sol\":5605:5624  products[productId] */\n      dup2\n      mstore\n      0x20\n      add\n      swap1\n      dup2\n      mstore\n      0x20\n      add\n      0x00\n      keccak256\n        /* \"ProductContract.sol\":5605:5641  products[productId].manufacturerNote */\n      0x02\n      add\n        /* \"ProductContract.sol\":5605:5655  products[productId].manufacturerNote = qualityNote */\n      swap1\n      dup1\n      mload\n      swap1\n      0x20\n      add\n      swap1\n      tag_339\n      swap3\n      swap2\n      swap1\n      tag_139\n      jump\t// in\n    tag_339:\n      pop\n        /* \"ProductContract.sol\":5671:5754  ManufacturingLogged(productId, string(abi.encodePacked(\"Verified: \", qualityNote))) */\n      0xec3ae4350812c56655d3ac5aea7ecc17434d05fb3571eca3e293b924ff187332\n        /* \"ProductContract.sol\":5691:5700  productId */\n      dup5\n        /* \"ProductContract.sol\":5740:5751  qualityNote */\n      dup5\n        /* \"ProductContract.sol\":5709:5752  abi.encodePacked(\"Verified: \", qualityNote) */\n      add(0x20, mload(0x40))\n      tag_340\n      swap2\n      swap1\n      tag_341\n      jump\t// in\n    tag_340:\n      mload(0x40)\n      0x20\n      dup2\n      dup4\n      sub\n      sub\n      dup2\n      mstore\n      swap1\n      0x40\n      mstore\n        /* \"ProductContract.sol\":5671:5754  ManufacturingLogged(productId, string(abi.encodePacked(\"Verified: \", qualityNote))) */\n      mload(0x40)\n      tag_342\n      swap3\n      swap2\n      swap1\n      tag_311\n      jump\t// in\n    tag_342:\n      mload(0x40)\n      dup1\n      swap2\n      sub\n      swap1\n      log1\n        /* \"ProductContract.sol\":5148:5762  function verifyMaterialQuality(uint productId, string memory qualityNote) public onlyRole(productId, Role.Manufacturer) {... */\n      pop\n      pop\n      pop\n      pop\n      jump\t// out\n    tag_139:\n      dup3\n      dup1\n      sload\n      tag_343\n      swap1\n      tag_220\n      jump\t// in\n    tag_343:\n      swap1\n      0x00\n      mstore\n      keccak256(0x00, 0x20)\n      swap1\n      0x1f\n      add\n      0x20\n      swap1\n      div\n      dup2\n      add\n      swap3\n      dup3\n      tag_345\n      jumpi\n      0x00\n      dup6\n      sstore\n      jump(tag_344)\n    tag_345:\n      dup3\n      0x1f\n      lt\n      tag_346\n      jumpi\n      dup1\n      mload\n      not(0xff)\n      and\n      dup4\n      dup1\n      add\n      or\n      dup6\n      sstore\n      jump(tag_344)\n    tag_346:\n      dup3\n      dup1\n      add\n      0x01\n      add\n      dup6\n      sstore\n      dup3\n      iszero\n      tag_344\n      jumpi\n      swap2\n      dup3\n      add\n    tag_347:\n      dup3\n      dup2\n      gt\n      iszero\n      tag_348\n      jumpi\n      dup3\n      mload\n      dup3\n      sstore\n      swap2\n      0x20\n      add\n      swap2\n      swap1\n      0x01\n      add\n      swap1\n      jump(tag_347)\n    tag_348:\n    tag_344:\n      pop\n      swap1\n      pop\n      tag_349\n      swap2\n      swap1\n      tag_350\n      jump\t// in\n    tag_349:\n      pop\n      swap1\n      jump\t// out\n    tag_350:\n    tag_351:\n      dup1\n      dup3\n      gt\n      iszero\n      tag_352\n      jumpi\n      0x00\n      dup2\n      0x00\n      swap1\n      sstore\n      pop\n      0x01\n      add\n      jump(tag_351)\n    tag_352:\n      pop\n      swap1\n      jump\t// out\n        /* \"#utility.yul\":7:82   */\n    tag_353:\n        /* \"#utility.yul\":40:46   */\n      0x00\n        /* \"#utility.yul\":73:75   */\n      0x40\n        /* \"#utility.yul\":67:76   */\n      mload\n        /* \"#utility.yul\":57:76   */\n      swap1\n      pop\n        /* \"#utility.yul\":7:82   */\n      swap1\n      jump\t// out\n        /* \"#utility.yul\":88:205   */\n    tag_354:\n        /* \"#utility.yul\":197:198   */\n      0x00\n        /* \"#utility.yul\":194:195   */\n      dup1\n        /* \"#utility.yul\":187:199   */\n      revert\n        /* \"#utility.yul\":211:328   */\n    tag_355:\n        /* \"#utility.yul\":320:321   */\n      0x00\n        /* \"#utility.yul\":317:318   */\n      dup1\n        /* \"#utility.yul\":310:322   */\n      revert\n        /* \"#utility.yul\":334:411   */\n    tag_356:\n        /* \"#utility.yul\":371:378   */\n      0x00\n        /* \"#utility.yul\":400:405   */\n      dup2\n        /* \"#utility.yul\":389:405   */\n      swap1\n      pop\n        /* \"#utility.yul\":334:411   */\n      swap2\n      swap1\n      pop\n      jump\t// out\n        /* \"#utility.yul\":417:539   */\n    tag_357:\n        /* \"#utility.yul\":490:514   */\n      tag_448\n        /* \"#utility.yul\":508:513   */\n      dup2\n        /* \"#utility.yul\":490:514   */\n      tag_356\n      jump\t// in\n    tag_448:\n        /* \"#utility.yul\":483:488   */\n      dup2\n        /* \"#utility.yul\":480:515   */\n      eq\n        /* \"#utility.yul\":470:533   */\n      tag_449\n      jumpi\n        /* \"#utility.yul\":529:530   */\n      0x00\n        /* \"#utility.yul\":526:527   */\n      dup1\n        /* \"#utility.yul\":519:531   */\n      revert\n        /* \"#utility.yul\":470:533   */\n    tag_449:\n        /* \"#utility.yul\":417:539   */\n      pop\n      jump\t// out\n        /* \"#utility.yul\":545:684   */\n    tag_358:\n        /* \"#utility.yul\":591:596   */\n      0x00\n        /* \"#utility.yul\":629:635   */\n      dup2\n        /* \"#utility.yul\":616:636   */\n      calldataload\n        /* \"#utility.yul\":607:636   */\n      swap1\n      pop\n        /* \"#utility.yul\":645:678   */\n      tag_451\n        /* \"#utility.yul\":672:677   */\n      dup2\n        /* \"#utility.yul\":645:678   */\n      tag_357\n      jump\t// in\n    tag_451:\n        /* \"#utility.yul\":545:684   */\n      swap3\n      swap2\n      pop\n      pop\n      jump\t// out\n        /* \"#utility.yul\":690:1019   */\n    tag_27:\n        /* \"#utility.yul\":749:755   */\n      0x00\n        /* \"#utility.yul\":798:800   */\n      0x20\n        /* \"#utility.yul\":786:795   */\n      dup3\n        /* \"#utility.yul\":777:784   */\n      dup5\n        /* \"#utility.yul\":773:796   */\n      sub\n        /* \"#utility.yul\":769:801   */\n      slt\n        /* \"#utility.yul\":766:885   */\n      iszero\n      tag_453\n      jumpi\n        /* \"#utility.yul\":804:883   */\n      tag_454\n      tag_354\n      jump\t// in\n    tag_454:\n        /* \"#utility.yul\":766:885   */\n    tag_453:\n        /* \"#utility.yul\":924:925   */\n      0x00\n        /* \"#utility.yul\":949:1002   */\n      tag_455\n        /* \"#utility.yul\":994:1001   */\n      dup5\n        /* \"#utility.yul\":985:991   */\n      dup3\n        /* \"#utility.yul\":974:983   */\n      dup6\n        /* \"#utility.yul\":970:992   */\n      add\n        /* \"#utility.yul\":949:1002   */\n      tag_358\n      jump\t// in\n    tag_455:\n        /* \"#utility.yul\":939:1002   */\n      swap2\n      pop\n        /* \"#utility.yul\":895:1012   */\n      pop\n        /* \"#utility.yul\":690:1019   */\n      swap3\n      swap2\n      pop\n      pop\n      jump\t// out\n        /* \"#utility.yul\":1025:1124   */\n    tag_359:\n        /* \"#utility.yul\":1077:1083   */\n      0x00\n        /* \"#utility.yul\":1111:1116   */\n      dup2\n        /* \"#utility.yul\":1105:1117   */\n      mload\n        /* \"#utility.yul\":1095:1117   */\n      swap1\n      pop\n        /* \"#utility.yul\":1025:1124   */\n      swap2\n      swap1\n      pop\n      jump\t// out\n        /* \"#utility.yul\":1130:1299   */\n    tag_360:\n        /* \"#utility.yul\":1214:1225   */\n      0x00\n        /* \"#utility.yul\":1248:1254   */\n      dup3\n        /* \"#utility.yul\":1243:1246   */\n      dup3\n        /* \"#utility.yul\":1236:1255   */\n      mstore\n        /* \"#utility.yul\":1288:1292   */\n      0x20\n        /* \"#utility.yul\":1283:1286   */\n      dup3\n        /* \"#utility.yul\":1279:1293   */\n      add\n        /* \"#utility.yul\":1264:1293   */\n      swap1\n      pop\n        /* \"#utility.yul\":1130:1299   */\n      swap3\n      swap2\n      pop\n      pop\n      jump\t// out\n        /* \"#utility.yul\":1305:1612   */\n    tag_361:\n        /* \"#utility.yul\":1373:1374   */\n      0x00\n        /* \"#utility.yul\":1383:1496   */\n    tag_459:\n        /* \"#utility.yul\":1397:1403   */\n      dup4\n        /* \"#utility.yul\":1394:1395   */\n      dup2\n        /* \"#utility.yul\":1391:1404   */\n      lt\n        /* \"#utility.yul\":1383:1496   */\n      iszero\n      tag_461\n      jumpi\n        /* \"#utility.yul\":1482:1483   */\n      dup1\n        /* \"#utility.yul\":1477:1480   */\n      dup3\n        /* \"#utility.yul\":1473:1484   */\n      add\n        /* \"#utility.yul\":1467:1485   */\n      mload\n        /* \"#utility.yul\":1463:1464   */\n      dup2\n        /* \"#utility.yul\":1458:1461   */\n      dup5\n        /* \"#utility.yul\":1454:1465   */\n      add\n        /* \"#utility.yul\":1447:1486   */\n      mstore\n        /* \"#utility.yul\":1419:1421   */\n      0x20\n        /* \"#utility.yul\":1416:1417   */\n      dup2\n        /* \"#utility.yul\":1412:1422   */\n      add\n        /* \"#utility.yul\":1407:1422   */\n      swap1\n      pop\n        /* \"#utility.yul\":1383:1496   */\n      jump(tag_459)\n    tag_461:\n        /* \"#utility.yul\":1514:1520   */\n      dup4\n        /* \"#utility.yul\":1511:1512   */\n      dup2\n        /* \"#utility.yul\":1508:1521   */\n      gt\n        /* \"#utility.yul\":1505:1606   */\n      iszero\n      tag_462\n      jumpi\n        /* \"#utility.yul\":1594:1595   */\n      0x00\n        /* \"#utility.yul\":1585:1591   */\n      dup5\n        /* \"#utility.yul\":1580:1583   */\n      dup5\n        /* \"#utility.yul\":1576:1592   */\n      add\n        /* \"#utility.yul\":1569:1596   */\n      mstore\n        /* \"#utility.yul\":1505:1606   */\n    tag_462:\n        /* \"#utility.yul\":1354:1612   */\n      pop\n        /* \"#utility.yul\":1305:1612   */\n      pop\n      pop\n      pop\n      jump\t// out\n        /* \"#utility.yul\":1618:1720   */\n    tag_362:\n        /* \"#utility.yul\":1659:1665   */\n      0x00\n        /* \"#utility.yul\":1710:1712   */\n      0x1f\n        /* \"#utility.yul\":1706:1713   */\n      not\n        /* \"#utility.yul\":1701:1703   */\n      0x1f\n        /* \"#utility.yul\":1694:1699   */\n      dup4\n        /* \"#utility.yul\":1690:1704   */\n      add\n        /* \"#utility.yul\":1686:1714   */\n      and\n        /* \"#utility.yul\":1676:1714   */\n      swap1\n      pop\n        /* \"#utility.yul\":1618:1720   */\n      swap2\n      swap1\n      pop\n      jump\t// out\n        /* \"#utility.yul\":1726:2090   */\n    tag_363:\n        /* \"#utility.yul\":1814:1817   */\n      0x00\n        /* \"#utility.yul\":1842:1881   */\n      tag_465\n        /* \"#utility.yul\":1875:1880   */\n      dup3\n        /* \"#utility.yul\":1842:1881   */\n      tag_359\n      jump\t// in\n    tag_465:\n        /* \"#utility.yul\":1897:1968   */\n      tag_466\n        /* \"#utility.yul\":1961:1967   */\n      dup2\n        /* \"#utility.yul\":1956:1959   */\n      dup6\n        /* \"#utility.yul\":1897:1968   */\n      tag_360\n      jump\t// in\n    tag_466:\n        /* \"#utility.yul\":1890:1968   */\n      swap4\n      pop\n        /* \"#utility.yul\":1977:2029   */\n      tag_467\n        /* \"#utility.yul\":2022:2028   */\n      dup2\n        /* \"#utility.yul\":2017:2020   */\n      dup6\n        /* \"#utility.yul\":2010:2014   */\n      0x20\n        /* \"#utility.yul\":2003:2008   */\n      dup7\n        /* \"#utility.yul\":1999:2015   */\n      add\n        /* \"#utility.yul\":1977:2029   */\n      tag_361\n      jump\t// in\n    tag_467:\n        /* \"#utility.yul\":2054:2083   */\n      tag_468\n        /* \"#utility.yul\":2076:2082   */\n      dup2\n        /* \"#utility.yul\":2054:2083   */\n      tag_362\n      jump\t// in\n    tag_468:\n        /* \"#utility.yul\":2049:2052   */\n      dup5\n        /* \"#utility.yul\":2045:2084   */\n      add\n        /* \"#utility.yul\":2038:2084   */\n      swap2\n      pop\n        /* \"#utility.yul\":1818:2090   */\n      pop\n        /* \"#utility.yul\":1726:2090   */\n      swap3\n      swap2\n      pop\n      pop\n      jump\t// out\n        /* \"#utility.yul\":2096:2409   */\n    tag_30:\n        /* \"#utility.yul\":2209:2213   */\n      0x00\n        /* \"#utility.yul\":2247:2249   */\n      0x20\n        /* \"#utility.yul\":2236:2245   */\n      dup3\n        /* \"#utility.yul\":2232:2250   */\n      add\n        /* \"#utility.yul\":2224:2250   */\n      swap1\n      pop\n        /* \"#utility.yul\":2296:2305   */\n      dup2\n        /* \"#utility.yul\":2290:2294   */\n      dup2\n        /* \"#utility.yul\":2286:2306   */\n      sub\n        /* \"#utility.yul\":2282:2283   */\n      0x00\n        /* \"#utility.yul\":2271:2280   */\n      dup4\n        /* \"#utility.yul\":2267:2284   */\n      add\n        /* \"#utility.yul\":2260:2307   */\n      mstore\n        /* \"#utility.yul\":2324:2402   */\n      tag_470\n        /* \"#utility.yul\":2397:2401   */\n      dup2\n        /* \"#utility.yul\":2388:2394   */\n      dup5\n        /* \"#utility.yul\":2324:2402   */\n      tag_363\n      jump\t// in\n    tag_470:\n        /* \"#utility.yul\":2316:2402   */\n      swap1\n      pop\n        /* \"#utility.yul\":2096:2409   */\n      swap3\n      swap2\n      pop\n      pop\n      jump\t// out\n        /* \"#utility.yul\":2415:2532   */\n    tag_364:\n        /* \"#utility.yul\":2524:2525   */\n      0x00\n        /* \"#utility.yul\":2521:2522   */\n      dup1\n        /* \"#utility.yul\":2514:2526   */\n      revert\n        /* \"#utility.yul\":2538:2655   */\n    tag_365:\n        /* \"#utility.yul\":2647:2648   */\n      0x00\n        /* \"#utility.yul\":2644:2645   */\n      dup1\n        /* \"#utility.yul\":2637:2649   */\n      revert\n        /* \"#utility.yul\":2661:2841   */\n    tag_366:\n        /* \"#utility.yul\":2709:2786   */\n      0x4e487b7100000000000000000000000000000000000000000000000000000000\n        /* \"#utility.yul\":2706:2707   */\n      0x00\n        /* \"#utility.yul\":2699:2787   */\n      mstore\n        /* \"#utility.yul\":2806:2810   */\n      0x41\n        /* \"#utility.yul\":2803:2804   */\n      0x04\n        /* \"#utility.yul\":2796:2811   */\n      mstore\n        /* \"#utility.yul\":2830:2834   */\n      0x24\n        /* \"#utility.yul\":2827:2828   */\n      0x00\n        /* \"#utility.yul\":2820:2835   */\n      revert\n        /* \"#utility.yul\":2847:3128   */\n    tag_367:\n        /* \"#utility.yul\":2930:2957   */\n      tag_475\n        /* \"#utility.yul\":2952:2956   */\n      dup3\n        /* \"#utility.yul\":2930:2957   */\n      tag_362\n      jump\t// in\n    tag_475:\n        /* \"#utility.yul\":2922:2928   */\n      dup2\n        /* \"#utility.yul\":2918:2958   */\n      add\n        /* \"#utility.yul\":3060:3066   */\n      dup2\n        /* \"#utility.yul\":3048:3058   */\n      dup2\n        /* \"#utility.yul\":3045:3067   */\n      lt\n        /* \"#utility.yul\":3024:3042   */\n      0xffffffffffffffff\n        /* \"#utility.yul\":3012:3022   */\n      dup3\n        /* \"#utility.yul\":3009:3043   */\n      gt\n        /* \"#utility.yul\":3006:3068   */\n      or\n        /* \"#utility.yul\":3003:3091   */\n      iszero\n      tag_476\n      jumpi\n        /* \"#utility.yul\":3071:3089   */\n      tag_477\n      tag_366\n      jump\t// in\n    tag_477:\n        /* \"#utility.yul\":3003:3091   */\n    tag_476:\n        /* \"#utility.yul\":3111:3121   */\n      dup1\n        /* \"#utility.yul\":3107:3109   */\n      0x40\n        /* \"#utility.yul\":3100:3122   */\n      mstore\n        /* \"#utility.yul\":2890:3128   */\n      pop\n        /* \"#utility.yul\":2847:3128   */\n      pop\n      pop\n      jump\t// out\n        /* \"#utility.yul\":3134:3263   */\n    tag_368:\n        /* \"#utility.yul\":3168:3174   */\n      0x00\n        /* \"#utility.yul\":3195:3215   */\n      tag_479\n      tag_353\n      jump\t// in\n    tag_479:\n        /* \"#utility.yul\":3185:3215   */\n      swap1\n      pop\n        /* \"#utility.yul\":3224:3257   */\n      tag_480\n        /* \"#utility.yul\":3252:3256   */\n      dup3\n        /* \"#utility.yul\":3244:3250   */\n      dup3\n        /* \"#utility.yul\":3224:3257   */\n      tag_367\n      jump\t// in\n    tag_480:\n        /* \"#utility.yul\":3134:3263   */\n      swap2\n      swap1\n      pop\n      jump\t// out\n        /* \"#utility.yul\":3269:3577   */\n    tag_369:\n        /* \"#utility.yul\":3331:3335   */\n      0x00\n        /* \"#utility.yul\":3421:3439   */\n      0xffffffffffffffff\n        /* \"#utility.yul\":3413:3419   */\n      dup3\n        /* \"#utility.yul\":3410:3440   */\n      gt\n        /* \"#utility.yul\":3407:3463   */\n      iszero\n      tag_482\n      jumpi\n        /* \"#utility.yul\":3443:3461   */\n      tag_483\n      tag_366\n      jump\t// in\n    tag_483:\n        /* \"#utility.yul\":3407:3463   */\n    tag_482:\n        /* \"#utility.yul\":3481:3510   */\n      tag_484\n        /* \"#utility.yul\":3503:3509   */\n      dup3\n        /* \"#utility.yul\":3481:3510   */\n      tag_362\n      jump\t// in\n    tag_484:\n        /* \"#utility.yul\":3473:3510   */\n      swap1\n      pop\n        /* \"#utility.yul\":3565:3569   */\n      0x20\n        /* \"#utility.yul\":3559:3563   */\n      dup2\n        /* \"#utility.yul\":3555:3570   */\n      add\n        /* \"#utility.yul\":3547:3570   */\n      swap1\n      pop\n        /* \"#utility.yul\":3269:3577   */\n      swap2\n      swap1\n      pop\n      jump\t// out\n        /* \"#utility.yul\":3583:3737   */\n    tag_370:\n        /* \"#utility.yul\":3667:3673   */\n      dup3\n        /* \"#utility.yul\":3662:3665   */\n      dup2\n        /* \"#utility.yul\":3657:3660   */\n      dup4\n        /* \"#utility.yul\":3644:3674   */\n      calldatacopy\n        /* \"#utility.yul\":3729:3730   */\n      0x00\n        /* \"#utility.yul\":3720:3726   */\n      dup4\n        /* \"#utility.yul\":3715:3718   */\n      dup4\n        /* \"#utility.yul\":3711:3727   */\n      add\n        /* \"#utility.yul\":3704:3731   */\n      mstore\n        /* \"#utility.yul\":3583:3737   */\n      pop\n      pop\n      pop\n      jump\t// out\n        /* \"#utility.yul\":3743:4155   */\n    tag_371:\n        /* \"#utility.yul\":3821:3826   */\n      0x00\n        /* \"#utility.yul\":3846:3912   */\n      tag_487\n        /* \"#utility.yul\":3862:3911   */\n      tag_488\n        /* \"#utility.yul\":3904:3910   */\n      dup5\n        /* \"#utility.yul\":3862:3911   */\n      tag_369\n      jump\t// in\n    tag_488:\n        /* \"#utility.yul\":3846:3912   */\n      tag_368\n      jump\t// in\n    tag_487:\n        /* \"#utility.yul\":3837:3912   */\n      swap1\n      pop\n        /* \"#utility.yul\":3935:3941   */\n      dup3\n        /* \"#utility.yul\":3928:3933   */\n      dup2\n        /* \"#utility.yul\":3921:3942   */\n      mstore\n        /* \"#utility.yul\":3973:3977   */\n      0x20\n        /* \"#utility.yul\":3966:3971   */\n      dup2\n        /* \"#utility.yul\":3962:3978   */\n      add\n        /* \"#utility.yul\":4011:4014   */\n      dup5\n        /* \"#utility.yul\":4002:4008   */\n      dup5\n        /* \"#utility.yul\":3997:4000   */\n      dup5\n        /* \"#utility.yul\":3993:4009   */\n      add\n        /* \"#utility.yul\":3990:4015   */\n      gt\n        /* \"#utility.yul\":3987:4099   */\n      iszero\n      tag_489\n      jumpi\n        /* \"#utility.yul\":4018:4097   */\n      tag_490\n      tag_365\n      jump\t// in\n    tag_490:\n        /* \"#utility.yul\":3987:4099   */\n    tag_489:\n        /* \"#utility.yul\":4108:4149   */\n      tag_491\n        /* \"#utility.yul\":4142:4148   */\n      dup5\n        /* \"#utility.yul\":4137:4140   */\n      dup3\n        /* \"#utility.yul\":4132:4135   */\n      dup6\n        /* \"#utility.yul\":4108:4149   */\n      tag_370\n      jump\t// in\n    tag_491:\n        /* \"#utility.yul\":3827:4155   */\n      pop\n        /* \"#utility.yul\":3743:4155   */\n      swap4\n      swap3\n      pop\n      pop\n      pop\n      jump\t// out\n        /* \"#utility.yul\":4175:4515   */\n    tag_372:\n        /* \"#utility.yul\":4231:4236   */\n      0x00\n        /* \"#utility.yul\":4280:4283   */\n      dup3\n        /* \"#utility.yul\":4273:4277   */\n      0x1f\n        /* \"#utility.yul\":4265:4271   */\n      dup4\n        /* \"#utility.yul\":4261:4278   */\n      add\n        /* \"#utility.yul\":4257:4284   */\n      slt\n        /* \"#utility.yul\":4247:4369   */\n      tag_493\n      jumpi\n        /* \"#utility.yul\":4288:4367   */\n      tag_494\n      tag_364\n      jump\t// in\n    tag_494:\n        /* \"#utility.yul\":4247:4369   */\n    tag_493:\n        /* \"#utility.yul\":4405:4411   */\n      dup2\n        /* \"#utility.yul\":4392:4412   */\n      calldataload\n        /* \"#utility.yul\":4430:4509   */\n      tag_495\n        /* \"#utility.yul\":4505:4508   */\n      dup5\n        /* \"#utility.yul\":4497:4503   */\n      dup3\n        /* \"#utility.yul\":4490:4494   */\n      0x20\n        /* \"#utility.yul\":4482:4488   */\n      dup7\n        /* \"#utility.yul\":4478:4495   */\n      add\n        /* \"#utility.yul\":4430:4509   */\n      tag_371\n      jump\t// in\n    tag_495:\n        /* \"#utility.yul\":4421:4509   */\n      swap2\n      pop\n        /* \"#utility.yul\":4237:4515   */\n      pop\n        /* \"#utility.yul\":4175:4515   */\n      swap3\n      swap2\n      pop\n      pop\n      jump\t// out\n        /* \"#utility.yul\":4521:5500   */\n    tag_36:\n        /* \"#utility.yul\":4618:4624   */\n      0x00\n        /* \"#utility.yul\":4626:4632   */\n      dup1\n        /* \"#utility.yul\":4634:4640   */\n      0x00\n        /* \"#utility.yul\":4683:4685   */\n      0x60\n        /* \"#utility.yul\":4671:4680   */\n      dup5\n        /* \"#utility.yul\":4662:4669   */\n      dup7\n        /* \"#utility.yul\":4658:4681   */\n      sub\n        /* \"#utility.yul\":4654:4686   */\n      slt\n        /* \"#utility.yul\":4651:4770   */\n      iszero\n      tag_497\n      jumpi\n        /* \"#utility.yul\":4689:4768   */\n      tag_498\n      tag_354\n      jump\t// in\n    tag_498:\n        /* \"#utility.yul\":4651:4770   */\n    tag_497:\n        /* \"#utility.yul\":4809:4810   */\n      0x00\n        /* \"#utility.yul\":4834:4887   */\n      tag_499\n        /* \"#utility.yul\":4879:4886   */\n      dup7\n        /* \"#utility.yul\":4870:4876   */\n      dup3\n        /* \"#utility.yul\":4859:4868   */\n      dup8\n        /* \"#utility.yul\":4855:4877   */\n      add\n        /* \"#utility.yul\":4834:4887   */\n      tag_358\n      jump\t// in\n    tag_499:\n        /* \"#utility.yul\":4824:4887   */\n      swap4\n      pop\n        /* \"#utility.yul\":4780:4897   */\n      pop\n        /* \"#utility.yul\":4964:4966   */\n      0x20\n        /* \"#utility.yul\":4953:4962   */\n      dup5\n        /* \"#utility.yul\":4949:4967   */\n      add\n        /* \"#utility.yul\":4936:4968   */\n      calldataload\n        /* \"#utility.yul\":4995:5013   */\n      0xffffffffffffffff\n        /* \"#utility.yul\":4987:4993   */\n      dup2\n        /* \"#utility.yul\":4984:5014   */\n      gt\n        /* \"#utility.yul\":4981:5098   */\n      iszero\n      tag_500\n      jumpi\n        /* \"#utility.yul\":5017:5096   */\n      tag_501\n      tag_355\n      jump\t// in\n    tag_501:\n        /* \"#utility.yul\":4981:5098   */\n    tag_500:\n        /* \"#utility.yul\":5122:5185   */\n      tag_502\n        /* \"#utility.yul\":5177:5184   */\n      dup7\n        /* \"#utility.yul\":5168:5174   */\n      dup3\n        /* \"#utility.yul\":5157:5166   */\n      dup8\n        /* \"#utility.yul\":5153:5175   */\n      add\n        /* \"#utility.yul\":5122:5185   */\n      tag_372\n      jump\t// in\n    tag_502:\n        /* \"#utility.yul\":5112:5185   */\n      swap3\n      pop\n        /* \"#utility.yul\":4907:5195   */\n      pop\n        /* \"#utility.yul\":5262:5264   */\n      0x40\n        /* \"#utility.yul\":5251:5260   */\n      dup5\n        /* \"#utility.yul\":5247:5265   */\n      add\n        /* \"#utility.yul\":5234:5266   */\n      calldataload\n        /* \"#utility.yul\":5293:5311   */\n      0xffffffffffffffff\n        /* \"#utility.yul\":5285:5291   */\n      dup2\n        /* \"#utility.yul\":5282:5312   */\n      gt\n        /* \"#utility.yul\":5279:5396   */\n      iszero\n      tag_503\n      jumpi\n        /* \"#utility.yul\":5315:5394   */\n      tag_504\n      tag_355\n      jump\t// in\n    tag_504:\n        /* \"#utility.yul\":5279:5396   */\n    tag_503:\n        /* \"#utility.yul\":5420:5483   */\n      tag_505\n        /* \"#utility.yul\":5475:5482   */\n      dup7\n        /* \"#utility.yul\":5466:5472   */\n      dup3\n        /* \"#utility.yul\":5455:5464   */\n      dup8\n        /* \"#utility.yul\":5451:5473   */\n      add\n        /* \"#utility.yul\":5420:5483   */\n      tag_372\n      jump\t// in\n    tag_505:\n        /* \"#utility.yul\":5410:5483   */\n      swap2\n      pop\n        /* \"#utility.yul\":5205:5493   */\n      pop\n        /* \"#utility.yul\":4521:5500   */\n      swap3\n      pop\n      swap3\n      pop\n      swap3\n      jump\t// out\n        /* \"#utility.yul\":5506:5632   */\n    tag_373:\n        /* \"#utility.yul\":5543:5550   */\n      0x00\n        /* \"#utility.yul\":5583:5625   */\n      0xffffffffffffffffffffffffffffffffffffffff\n        /* \"#utility.yul\":5576:5581   */\n      dup3\n        /* \"#utility.yul\":5572:5626   */\n      and\n        /* \"#utility.yul\":5561:5626   */\n      swap1\n      pop\n        /* \"#utility.yul\":5506:5632   */\n      swap2\n      swap1\n      pop\n      jump\t// out\n        /* \"#utility.yul\":5638:5734   */\n    tag_374:\n        /* \"#utility.yul\":5675:5682   */\n      0x00\n        /* \"#utility.yul\":5704:5728   */\n      tag_508\n        /* \"#utility.yul\":5722:5727   */\n      dup3\n        /* \"#utility.yul\":5704:5728   */\n      tag_373\n      jump\t// in\n    tag_508:\n        /* \"#utility.yul\":5693:5728   */\n      swap1\n      pop\n        /* \"#utility.yul\":5638:5734   */\n      swap2\n      swap1\n      pop\n      jump\t// out\n        /* \"#utility.yul\":5740:5862   */\n    tag_375:\n        /* \"#utility.yul\":5813:5837   */\n      tag_510\n        /* \"#utility.yul\":5831:5836   */\n      dup2\n        /* \"#utility.yul\":5813:5837   */\n      tag_374\n      jump\t// in\n    tag_510:\n        /* \"#utility.yul\":5806:5811   */\n      dup2\n        /* \"#utility.yul\":5803:5838   */\n      eq\n        /* \"#utility.yul\":5793:5856   */\n      tag_511\n      jumpi\n        /* \"#utility.yul\":5852:5853   */\n      0x00\n        /* \"#utility.yul\":5849:5850   */\n      dup1\n        /* \"#utility.yul\":5842:5854   */\n      revert\n        /* \"#utility.yul\":5793:5856   */\n    tag_511:\n        /* \"#utility.yul\":5740:5862   */\n      pop\n      jump\t// out\n        /* \"#utility.yul\":5868:6007   */\n    tag_376:\n        /* \"#utility.yul\":5914:5919   */\n      0x00\n        /* \"#utility.yul\":5952:5958   */\n      dup2\n        /* \"#utility.yul\":5939:5959   */\n      calldataload\n        /* \"#utility.yul\":5930:5959   */\n      swap1\n      pop\n        /* \"#utility.yul\":5968:6001   */\n      tag_513\n        /* \"#utility.yul\":5995:6000   */\n      dup2\n        /* \"#utility.yul\":5968:6001   */\n      tag_375\n      jump\t// in\n    tag_513:\n        /* \"#utility.yul\":5868:6007   */\n      swap3\n      swap2\n      pop\n      pop\n      jump\t// out\n        /* \"#utility.yul\":6013:6487   */\n    tag_40:\n        /* \"#utility.yul\":6081:6087   */\n      0x00\n        /* \"#utility.yul\":6089:6095   */\n      dup1\n        /* \"#utility.yul\":6138:6140   */\n      0x40\n        /* \"#utility.yul\":6126:6135   */\n      dup4\n        /* \"#utility.yul\":6117:6124   */\n      dup6\n        /* \"#utility.yul\":6113:6136   */\n      sub\n        /* \"#utility.yul\":6109:6141   */\n      slt\n        /* \"#utility.yul\":6106:6225   */\n      iszero\n      tag_515\n      jumpi\n        /* \"#utility.yul\":6144:6223   */\n      tag_516\n      tag_354\n      jump\t// in\n    tag_516:\n        /* \"#utility.yul\":6106:6225   */\n    tag_515:\n        /* \"#utility.yul\":6264:6265   */\n      0x00\n        /* \"#utility.yul\":6289:6342   */\n      tag_517\n        /* \"#utility.yul\":6334:6341   */\n      dup6\n        /* \"#utility.yul\":6325:6331   */\n      dup3\n        /* \"#utility.yul\":6314:6323   */\n      dup7\n        /* \"#utility.yul\":6310:6332   */\n      add\n        /* \"#utility.yul\":6289:6342   */\n      tag_358\n      jump\t// in\n    tag_517:\n        /* \"#utility.yul\":6279:6342   */\n      swap3\n      pop\n        /* \"#utility.yul\":6235:6352   */\n      pop\n        /* \"#utility.yul\":6391:6393   */\n      0x20\n        /* \"#utility.yul\":6417:6470   */\n      tag_518\n        /* \"#utility.yul\":6462:6469   */\n      dup6\n        /* \"#utility.yul\":6453:6459   */\n      dup3\n        /* \"#utility.yul\":6442:6451   */\n      dup7\n        /* \"#utility.yul\":6438:6460   */\n      add\n        /* \"#utility.yul\":6417:6470   */\n      tag_376\n      jump\t// in\n    tag_518:\n        /* \"#utility.yul\":6407:6470   */\n      swap2\n      pop\n        /* \"#utility.yul\":6362:6480   */\n      pop\n        /* \"#utility.yul\":6013:6487   */\n      swap3\n      pop\n      swap3\n      swap1\n      pop\n      jump\t// out\n        /* \"#utility.yul\":6493:6611   */\n    tag_377:\n        /* \"#utility.yul\":6580:6604   */\n      tag_520\n        /* \"#utility.yul\":6598:6603   */\n      dup2\n        /* \"#utility.yul\":6580:6604   */\n      tag_356\n      jump\t// in\n    tag_520:\n        /* \"#utility.yul\":6575:6578   */\n      dup3\n        /* \"#utility.yul\":6568:6605   */\n      mstore\n        /* \"#utility.yul\":6493:6611   */\n      pop\n      pop\n      jump\t// out\n        /* \"#utility.yul\":6617:6839   */\n    tag_45:\n        /* \"#utility.yul\":6710:6714   */\n      0x00\n        /* \"#utility.yul\":6748:6750   */\n      0x20\n        /* \"#utility.yul\":6737:6746   */\n      dup3\n        /* \"#utility.yul\":6733:6751   */\n      add\n        /* \"#utility.yul\":6725:6751   */\n      swap1\n      pop\n        /* \"#utility.yul\":6761:6832   */\n      tag_522\n        /* \"#utility.yul\":6829:6830   */\n      0x00\n        /* \"#utility.yul\":6818:6827   */\n      dup4\n        /* \"#utility.yul\":6814:6831   */\n      add\n        /* \"#utility.yul\":6805:6811   */\n      dup5\n        /* \"#utility.yul\":6761:6832   */\n      tag_377\n      jump\t// in\n    tag_522:\n        /* \"#utility.yul\":6617:6839   */\n      swap3\n      swap2\n      pop\n      pop\n      jump\t// out\n        /* \"#utility.yul\":6845:6959   */\n    tag_378:\n        /* \"#utility.yul\":6912:6918   */\n      0x00\n        /* \"#utility.yul\":6946:6951   */\n      dup2\n        /* \"#utility.yul\":6940:6952   */\n      mload\n        /* \"#utility.yul\":6930:6952   */\n      swap1\n      pop\n        /* \"#utility.yul\":6845:6959   */\n      swap2\n      swap1\n      pop\n      jump\t// out\n        /* \"#utility.yul\":6965:7149   */\n    tag_379:\n        /* \"#utility.yul\":7064:7075   */\n      0x00\n        /* \"#utility.yul\":7098:7104   */\n      dup3\n        /* \"#utility.yul\":7093:7096   */\n      dup3\n        /* \"#utility.yul\":7086:7105   */\n      mstore\n        /* \"#utility.yul\":7138:7142   */\n      0x20\n        /* \"#utility.yul\":7133:7136   */\n      dup3\n        /* \"#utility.yul\":7129:7143   */\n      add\n        /* \"#utility.yul\":7114:7143   */\n      swap1\n      pop\n        /* \"#utility.yul\":6965:7149   */\n      swap3\n      swap2\n      pop\n      pop\n      jump\t// out\n        /* \"#utility.yul\":7155:7287   */\n    tag_380:\n        /* \"#utility.yul\":7222:7226   */\n      0x00\n        /* \"#utility.yul\":7245:7248   */\n      dup2\n        /* \"#utility.yul\":7237:7248   */\n      swap1\n      pop\n        /* \"#utility.yul\":7275:7279   */\n      0x20\n        /* \"#utility.yul\":7270:7273   */\n      dup3\n        /* \"#utility.yul\":7266:7280   */\n      add\n        /* \"#utility.yul\":7258:7280   */\n      swap1\n      pop\n        /* \"#utility.yul\":7155:7287   */\n      swap2\n      swap1\n      pop\n      jump\t// out\n        /* \"#utility.yul\":7293:7401   */\n    tag_381:\n        /* \"#utility.yul\":7370:7394   */\n      tag_527\n        /* \"#utility.yul\":7388:7393   */\n      dup2\n        /* \"#utility.yul\":7370:7394   */\n      tag_374\n      jump\t// in\n    tag_527:\n        /* \"#utility.yul\":7365:7368   */\n      dup3\n        /* \"#utility.yul\":7358:7395   */\n      mstore\n        /* \"#utility.yul\":7293:7401   */\n      pop\n      pop\n      jump\t// out\n        /* \"#utility.yul\":7407:7586   */\n    tag_382:\n        /* \"#utility.yul\":7476:7486   */\n      0x00\n        /* \"#utility.yul\":7497:7543   */\n      tag_529\n        /* \"#utility.yul\":7539:7542   */\n      dup4\n        /* \"#utility.yul\":7531:7537   */\n      dup4\n        /* \"#utility.yul\":7497:7543   */\n      tag_381\n      jump\t// in\n    tag_529:\n        /* \"#utility.yul\":7575:7579   */\n      0x20\n        /* \"#utility.yul\":7570:7573   */\n      dup4\n        /* \"#utility.yul\":7566:7580   */\n      add\n        /* \"#utility.yul\":7552:7580   */\n      swap1\n      pop\n        /* \"#utility.yul\":7407:7586   */\n      swap3\n      swap2\n      pop\n      pop\n      jump\t// out\n        /* \"#utility.yul\":7592:7705   */\n    tag_383:\n        /* \"#utility.yul\":7662:7666   */\n      0x00\n        /* \"#utility.yul\":7694:7698   */\n      0x20\n        /* \"#utility.yul\":7689:7692   */\n      dup3\n        /* \"#utility.yul\":7685:7699   */\n      add\n        /* \"#utility.yul\":7677:7699   */\n      swap1\n      pop\n        /* \"#utility.yul\":7592:7705   */\n      swap2\n      swap1\n      pop\n      jump\t// out\n        /* \"#utility.yul\":7741:8473   */\n    tag_384:\n        /* \"#utility.yul\":7860:7863   */\n      0x00\n        /* \"#utility.yul\":7889:7943   */\n      tag_532\n        /* \"#utility.yul\":7937:7942   */\n      dup3\n        /* \"#utility.yul\":7889:7943   */\n      tag_378\n      jump\t// in\n    tag_532:\n        /* \"#utility.yul\":7959:8045   */\n      tag_533\n        /* \"#utility.yul\":8038:8044   */\n      dup2\n        /* \"#utility.yul\":8033:8036   */\n      dup6\n        /* \"#utility.yul\":7959:8045   */\n      tag_379\n      jump\t// in\n    tag_533:\n        /* \"#utility.yul\":7952:8045   */\n      swap4\n      pop\n        /* \"#utility.yul\":8069:8125   */\n      tag_534\n        /* \"#utility.yul\":8119:8124   */\n      dup4\n        /* \"#utility.yul\":8069:8125   */\n      tag_380\n      jump\t// in\n    tag_534:\n        /* \"#utility.yul\":8148:8155   */\n      dup1\n        /* \"#utility.yul\":8179:8180   */\n      0x00\n        /* \"#utility.yul\":8164:8448   */\n    tag_535:\n        /* \"#utility.yul\":8189:8195   */\n      dup4\n        /* \"#utility.yul\":8186:8187   */\n      dup2\n        /* \"#utility.yul\":8183:8196   */\n      lt\n        /* \"#utility.yul\":8164:8448   */\n      iszero\n      tag_537\n      jumpi\n        /* \"#utility.yul\":8265:8271   */\n      dup2\n        /* \"#utility.yul\":8259:8272   */\n      mload\n        /* \"#utility.yul\":8292:8355   */\n      tag_538\n        /* \"#utility.yul\":8351:8354   */\n      dup9\n        /* \"#utility.yul\":8336:8349   */\n      dup3\n        /* \"#utility.yul\":8292:8355   */\n      tag_382\n      jump\t// in\n    tag_538:\n        /* \"#utility.yul\":8285:8355   */\n      swap8\n      pop\n        /* \"#utility.yul\":8378:8438   */\n      tag_539\n        /* \"#utility.yul\":8431:8437   */\n      dup4\n        /* \"#utility.yul\":8378:8438   */\n      tag_383\n      jump\t// in\n    tag_539:\n        /* \"#utility.yul\":8368:8438   */\n      swap3\n      pop\n        /* \"#utility.yul\":8224:8448   */\n      pop\n        /* \"#utility.yul\":8211:8212   */\n      0x01\n        /* \"#utility.yul\":8208:8209   */\n      dup2\n        /* \"#utility.yul\":8204:8213   */\n      add\n        /* \"#utility.yul\":8199:8213   */\n      swap1\n      pop\n        /* \"#utility.yul\":8164:8448   */\n      jump(tag_535)\n    tag_537:\n        /* \"#utility.yul\":8168:8182   */\n      pop\n        /* \"#utility.yul\":8464:8467   */\n      dup6\n        /* \"#utility.yul\":8457:8467   */\n      swap4\n      pop\n        /* \"#utility.yul\":7865:8473   */\n      pop\n      pop\n      pop\n        /* \"#utility.yul\":7741:8473   */\n      swap3\n      swap2\n      pop\n      pop\n      jump\t// out\n        /* \"#utility.yul\":8479:8852   */\n    tag_50:\n        /* \"#utility.yul\":8622:8626   */\n      0x00\n        /* \"#utility.yul\":8660:8662   */\n      0x20\n        /* \"#utility.yul\":8649:8658   */\n      dup3\n        /* \"#utility.yul\":8645:8663   */\n      add\n        /* \"#utility.yul\":8637:8663   */\n      swap1\n      pop\n        /* \"#utility.yul\":8709:8718   */\n      dup2\n        /* \"#utility.yul\":8703:8707   */\n      dup2\n        /* \"#utility.yul\":8699:8719   */\n      sub\n        /* \"#utility.yul\":8695:8696   */\n      0x00\n        /* \"#utility.yul\":8684:8693   */\n      dup4\n        /* \"#utility.yul\":8680:8697   */\n      add\n        /* \"#utility.yul\":8673:8720   */\n      mstore\n        /* \"#utility.yul\":8737:8845   */\n      tag_541\n        /* \"#utility.yul\":8840:8844   */\n      dup2\n        /* \"#utility.yul\":8831:8837   */\n      dup5\n        /* \"#utility.yul\":8737:8845   */\n      tag_384\n      jump\t// in\n    tag_541:\n        /* \"#utility.yul\":8729:8845   */\n      swap1\n      pop\n        /* \"#utility.yul\":8479:8852   */\n      swap3\n      swap2\n      pop\n      pop\n      jump\t// out\n        /* \"#utility.yul\":8858:8996   */\n    tag_385:\n        /* \"#utility.yul\":8949:8955   */\n      0x00\n        /* \"#utility.yul\":8983:8988   */\n      dup2\n        /* \"#utility.yul\":8977:8989   */\n      mload\n        /* \"#utility.yul\":8967:8989   */\n      swap1\n      pop\n        /* \"#utility.yul\":8858:8996   */\n      swap2\n      swap1\n      pop\n      jump\t// out\n        /* \"#utility.yul\":9002:9210   */\n    tag_386:\n        /* \"#utility.yul\":9125:9136   */\n      0x00\n        /* \"#utility.yul\":9159:9165   */\n      dup3\n        /* \"#utility.yul\":9154:9157   */\n      dup3\n        /* \"#utility.yul\":9147:9166   */\n      mstore\n        /* \"#utility.yul\":9199:9203   */\n      0x20\n        /* \"#utility.yul\":9194:9197   */\n      dup3\n        /* \"#utility.yul\":9190:9204   */\n      add\n        /* \"#utility.yul\":9175:9204   */\n      swap1\n      pop\n        /* \"#utility.yul\":9002:9210   */\n      swap3\n      swap2\n      pop\n      pop\n      jump\t// out\n        /* \"#utility.yul\":9216:9372   */\n    tag_387:\n        /* \"#utility.yul\":9307:9311   */\n      0x00\n        /* \"#utility.yul\":9330:9333   */\n      dup2\n        /* \"#utility.yul\":9322:9333   */\n      swap1\n      pop\n        /* \"#utility.yul\":9360:9364   */\n      0x20\n        /* \"#utility.yul\":9355:9358   */\n      dup3\n        /* \"#utility.yul\":9351:9365   */\n      add\n        /* \"#utility.yul\":9343:9365   */\n      swap1\n      pop\n        /* \"#utility.yul\":9216:9372   */\n      swap2\n      swap1\n      pop\n      jump\t// out\n        /* \"#utility.yul\":9378:9537   */\n    tag_388:\n        /* \"#utility.yul\":9452:9463   */\n      0x00\n        /* \"#utility.yul\":9486:9492   */\n      dup3\n        /* \"#utility.yul\":9481:9484   */\n      dup3\n        /* \"#utility.yul\":9474:9493   */\n      mstore\n        /* \"#utility.yul\":9526:9530   */\n      0x20\n        /* \"#utility.yul\":9521:9524   */\n      dup3\n        /* \"#utility.yul\":9517:9531   */\n      add\n        /* \"#utility.yul\":9502:9531   */\n      swap1\n      pop\n        /* \"#utility.yul\":9378:9537   */\n      swap3\n      swap2\n      pop\n      pop\n      jump\t// out\n        /* \"#utility.yul\":9543:9887   */\n    tag_389:\n        /* \"#utility.yul\":9621:9624   */\n      0x00\n        /* \"#utility.yul\":9649:9688   */\n      tag_547\n        /* \"#utility.yul\":9682:9687   */\n      dup3\n        /* \"#utility.yul\":9649:9688   */\n      tag_359\n      jump\t// in\n    tag_547:\n        /* \"#utility.yul\":9704:9765   */\n      tag_548\n        /* \"#utility.yul\":9758:9764   */\n      dup2\n        /* \"#utility.yul\":9753:9756   */\n      dup6\n        /* \"#utility.yul\":9704:9765   */\n      tag_388\n      jump\t// in\n    tag_548:\n        /* \"#utility.yul\":9697:9765   */\n      swap4\n      pop\n        /* \"#utility.yul\":9774:9826   */\n      tag_549\n        /* \"#utility.yul\":9819:9825   */\n      dup2\n        /* \"#utility.yul\":9814:9817   */\n      dup6\n        /* \"#utility.yul\":9807:9811   */\n      0x20\n        /* \"#utility.yul\":9800:9805   */\n      dup7\n        /* \"#utility.yul\":9796:9812   */\n      add\n        /* \"#utility.yul\":9774:9826   */\n      tag_361\n      jump\t// in\n    tag_549:\n        /* \"#utility.yul\":9851:9880   */\n      tag_550\n        /* \"#utility.yul\":9873:9879   */\n      dup2\n        /* \"#utility.yul\":9851:9880   */\n      tag_362\n      jump\t// in\n    tag_550:\n        /* \"#utility.yul\":9846:9849   */\n      dup5\n        /* \"#utility.yul\":9842:9881   */\n      add\n        /* \"#utility.yul\":9835:9881   */\n      swap2\n      pop\n        /* \"#utility.yul\":9625:9887   */\n      pop\n        /* \"#utility.yul\":9543:9887   */\n      swap3\n      swap2\n      pop\n      pop\n      jump\t// out\n        /* \"#utility.yul\":9893:10001   */\n    tag_390:\n        /* \"#utility.yul\":9970:9994   */\n      tag_552\n        /* \"#utility.yul\":9988:9993   */\n      dup2\n        /* \"#utility.yul\":9970:9994   */\n      tag_356\n      jump\t// in\n    tag_552:\n        /* \"#utility.yul\":9965:9968   */\n      dup3\n        /* \"#utility.yul\":9958:9995   */\n      mstore\n        /* \"#utility.yul\":9893:10001   */\n      pop\n      pop\n      jump\t// out\n        /* \"#utility.yul\":10081:10927   */\n    tag_391:\n        /* \"#utility.yul\":10188:10191   */\n      0x00\n        /* \"#utility.yul\":10224:10228   */\n      0x60\n        /* \"#utility.yul\":10219:10222   */\n      dup4\n        /* \"#utility.yul\":10215:10229   */\n      add\n        /* \"#utility.yul\":10311:10315   */\n      0x00\n        /* \"#utility.yul\":10304:10309   */\n      dup4\n        /* \"#utility.yul\":10300:10316   */\n      add\n        /* \"#utility.yul\":10294:10317   */\n      mload\n        /* \"#utility.yul\":10364:10367   */\n      dup5\n        /* \"#utility.yul\":10358:10362   */\n      dup3\n        /* \"#utility.yul\":10354:10368   */\n      sub\n        /* \"#utility.yul\":10347:10351   */\n      0x00\n        /* \"#utility.yul\":10342:10345   */\n      dup7\n        /* \"#utility.yul\":10338:10352   */\n      add\n        /* \"#utility.yul\":10331:10369   */\n      mstore\n        /* \"#utility.yul\":10390:10463   */\n      tag_554\n        /* \"#utility.yul\":10458:10462   */\n      dup3\n        /* \"#utility.yul\":10444:10456   */\n      dup3\n        /* \"#utility.yul\":10390:10463   */\n      tag_389\n      jump\t// in\n    tag_554:\n        /* \"#utility.yul\":10382:10463   */\n      swap2\n      pop\n        /* \"#utility.yul\":10239:10474   */\n      pop\n        /* \"#utility.yul\":10558:10562   */\n      0x20\n        /* \"#utility.yul\":10551:10556   */\n      dup4\n        /* \"#utility.yul\":10547:10563   */\n      add\n        /* \"#utility.yul\":10541:10564   */\n      mload\n        /* \"#utility.yul\":10611:10614   */\n      dup5\n        /* \"#utility.yul\":10605:10609   */\n      dup3\n        /* \"#utility.yul\":10601:10615   */\n      sub\n        /* \"#utility.yul\":10594:10598   */\n      0x20\n        /* \"#utility.yul\":10589:10592   */\n      dup7\n        /* \"#utility.yul\":10585:10599   */\n      add\n        /* \"#utility.yul\":10578:10616   */\n      mstore\n        /* \"#utility.yul\":10637:10710   */\n      tag_555\n        /* \"#utility.yul\":10705:10709   */\n      dup3\n        /* \"#utility.yul\":10691:10703   */\n      dup3\n        /* \"#utility.yul\":10637:10710   */\n      tag_389\n      jump\t// in\n    tag_555:\n        /* \"#utility.yul\":10629:10710   */\n      swap2\n      pop\n        /* \"#utility.yul\":10484:10721   */\n      pop\n        /* \"#utility.yul\":10808:10812   */\n      0x40\n        /* \"#utility.yul\":10801:10806   */\n      dup4\n        /* \"#utility.yul\":10797:10813   */\n      add\n        /* \"#utility.yul\":10791:10814   */\n      mload\n        /* \"#utility.yul\":10827:10890   */\n      tag_556\n        /* \"#utility.yul\":10884:10888   */\n      0x40\n        /* \"#utility.yul\":10879:10882   */\n      dup7\n        /* \"#utility.yul\":10875:10889   */\n      add\n        /* \"#utility.yul\":10861:10873   */\n      dup3\n        /* \"#utility.yul\":10827:10890   */\n      tag_390\n      jump\t// in\n    tag_556:\n        /* \"#utility.yul\":10731:10900   */\n      pop\n        /* \"#utility.yul\":10917:10921   */\n      dup1\n        /* \"#utility.yul\":10910:10921   */\n      swap2\n      pop\n        /* \"#utility.yul\":10193:10927   */\n      pop\n        /* \"#utility.yul\":10081:10927   */\n      swap3\n      swap2\n      pop\n      pop\n      jump\t// out\n        /* \"#utility.yul\":10933:11185   */\n    tag_392:\n        /* \"#utility.yul\":11050:11060   */\n      0x00\n        /* \"#utility.yul\":11085:11179   */\n      tag_558\n        /* \"#utility.yul\":11175:11178   */\n      dup4\n        /* \"#utility.yul\":11167:11173   */\n      dup4\n        /* \"#utility.yul\":11085:11179   */\n      tag_391\n      jump\t// in\n    tag_558:\n        /* \"#utility.yul\":11071:11179   */\n      swap1\n      pop\n        /* \"#utility.yul\":10933:11185   */\n      swap3\n      swap2\n      pop\n      pop\n      jump\t// out\n        /* \"#utility.yul\":11191:11328   */\n    tag_393:\n        /* \"#utility.yul\":11285:11289   */\n      0x00\n        /* \"#utility.yul\":11317:11321   */\n      0x20\n        /* \"#utility.yul\":11312:11315   */\n      dup3\n        /* \"#utility.yul\":11308:11322   */\n      add\n        /* \"#utility.yul\":11300:11322   */\n      swap1\n      pop\n        /* \"#utility.yul\":11191:11328   */\n      swap2\n      swap1\n      pop\n      jump\t// out\n        /* \"#utility.yul\":11412:12515   */\n    tag_394:\n        /* \"#utility.yul\":11579:11582   */\n      0x00\n        /* \"#utility.yul\":11608:11686   */\n      tag_561\n        /* \"#utility.yul\":11680:11685   */\n      dup3\n        /* \"#utility.yul\":11608:11686   */\n      tag_385\n      jump\t// in\n    tag_561:\n        /* \"#utility.yul\":11702:11812   */\n      tag_562\n        /* \"#utility.yul\":11805:11811   */\n      dup2\n        /* \"#utility.yul\":11800:11803   */\n      dup6\n        /* \"#utility.yul\":11702:11812   */\n      tag_386\n      jump\t// in\n    tag_562:\n        /* \"#utility.yul\":11695:11812   */\n      swap4\n      pop\n        /* \"#utility.yul\":11838:11841   */\n      dup4\n        /* \"#utility.yul\":11883:11887   */\n      0x20\n        /* \"#utility.yul\":11875:11881   */\n      dup3\n        /* \"#utility.yul\":11871:11888   */\n      mul\n        /* \"#utility.yul\":11866:11869   */\n      dup6\n        /* \"#utility.yul\":11862:11889   */\n      add\n        /* \"#utility.yul\":11913:11993   */\n      tag_563\n        /* \"#utility.yul\":11987:11992   */\n      dup6\n        /* \"#utility.yul\":11913:11993   */\n      tag_387\n      jump\t// in\n    tag_563:\n        /* \"#utility.yul\":12016:12023   */\n      dup1\n        /* \"#utility.yul\":12047:12048   */\n      0x00\n        /* \"#utility.yul\":12032:12470   */\n    tag_564:\n        /* \"#utility.yul\":12057:12063   */\n      dup6\n        /* \"#utility.yul\":12054:12055   */\n      dup2\n        /* \"#utility.yul\":12051:12064   */\n      lt\n        /* \"#utility.yul\":12032:12470   */\n      iszero\n      tag_566\n      jumpi\n        /* \"#utility.yul\":12128:12137   */\n      dup5\n        /* \"#utility.yul\":12122:12126   */\n      dup5\n        /* \"#utility.yul\":12118:12138   */\n      sub\n        /* \"#utility.yul\":12113:12116   */\n      dup10\n        /* \"#utility.yul\":12106:12139   */\n      mstore\n        /* \"#utility.yul\":12179:12185   */\n      dup2\n        /* \"#utility.yul\":12173:12186   */\n      mload\n        /* \"#utility.yul\":12207:12319   */\n      tag_567\n        /* \"#utility.yul\":12314:12318   */\n      dup6\n        /* \"#utility.yul\":12299:12312   */\n      dup3\n        /* \"#utility.yul\":12207:12319   */\n      tag_392\n      jump\t// in\n    tag_567:\n        /* \"#utility.yul\":12199:12319   */\n      swap5\n      pop\n        /* \"#utility.yul\":12342:12426   */\n      tag_568\n        /* \"#utility.yul\":12419:12425   */\n      dup4\n        /* \"#utility.yul\":12342:12426   */\n      tag_393\n      jump\t// in\n    tag_568:\n        /* \"#utility.yul\":12332:12426   */\n      swap3\n      pop\n        /* \"#utility.yul\":12455:12459   */\n      0x20\n        /* \"#utility.yul\":12450:12453   */\n      dup11\n        /* \"#utility.yul\":12446:12460   */\n      add\n        /* \"#utility.yul\":12439:12460   */\n      swap10\n      pop\n        /* \"#utility.yul\":12092:12470   */\n      pop\n        /* \"#utility.yul\":12079:12080   */\n      0x01\n        /* \"#utility.yul\":12076:12077   */\n      dup2\n        /* \"#utility.yul\":12072:12081   */\n      add\n        /* \"#utility.yul\":12067:12081   */\n      swap1\n      pop\n        /* \"#utility.yul\":12032:12470   */\n      jump(tag_564)\n    tag_566:\n        /* \"#utility.yul\":12036:12050   */\n      pop\n        /* \"#utility.yul\":12486:12490   */\n      dup3\n        /* \"#utility.yul\":12479:12490   */\n      swap8\n      pop\n        /* \"#utility.yul\":12506:12509   */\n      dup8\n        /* \"#utility.yul\":12499:12509   */\n      swap6\n      pop\n        /* \"#utility.yul\":11584:12515   */\n      pop\n      pop\n      pop\n      pop\n      pop\n        /* \"#utility.yul\":11412:12515   */\n      swap3\n      swap2\n      pop\n      pop\n      jump\t// out\n        /* \"#utility.yul\":12521:12990   */\n    tag_55:\n        /* \"#utility.yul\":12712:12716   */\n      0x00\n        /* \"#utility.yul\":12750:12752   */\n      0x20\n        /* \"#utility.yul\":12739:12748   */\n      dup3\n        /* \"#utility.yul\":12735:12753   */\n      add\n        /* \"#utility.yul\":12727:12753   */\n      swap1\n      pop\n        /* \"#utility.yul\":12799:12808   */\n      dup2\n        /* \"#utility.yul\":12793:12797   */\n      dup2\n        /* \"#utility.yul\":12789:12809   */\n      sub\n        /* \"#utility.yul\":12785:12786   */\n      0x00\n        /* \"#utility.yul\":12774:12783   */\n      dup4\n        /* \"#utility.yul\":12770:12787   */\n      add\n        /* \"#utility.yul\":12763:12810   */\n      mstore\n        /* \"#utility.yul\":12827:12983   */\n      tag_570\n        /* \"#utility.yul\":12978:12982   */\n      dup2\n        /* \"#utility.yul\":12969:12975   */\n      dup5\n        /* \"#utility.yul\":12827:12983   */\n      tag_394\n      jump\t// in\n    tag_570:\n        /* \"#utility.yul\":12819:12983   */\n      swap1\n      pop\n        /* \"#utility.yul\":12521:12990   */\n      swap3\n      swap2\n      pop\n      pop\n      jump\t// out\n        /* \"#utility.yul\":12996:13111   */\n    tag_395:\n        /* \"#utility.yul\":13085:13086   */\n      0x07\n        /* \"#utility.yul\":13078:13083   */\n      dup2\n        /* \"#utility.yul\":13075:13087   */\n      lt\n        /* \"#utility.yul\":13065:13105   */\n      tag_572\n      jumpi\n        /* \"#utility.yul\":13101:13102   */\n      0x00\n        /* \"#utility.yul\":13098:13099   */\n      dup1\n        /* \"#utility.yul\":13091:13103   */\n      revert\n        /* \"#utility.yul\":13065:13105   */\n    tag_572:\n        /* \"#utility.yul\":12996:13111   */\n      pop\n      jump\t// out\n        /* \"#utility.yul\":13117:13288   */\n    tag_396:\n        /* \"#utility.yul\":13179:13184   */\n      0x00\n        /* \"#utility.yul\":13217:13223   */\n      dup2\n        /* \"#utility.yul\":13204:13224   */\n      calldataload\n        /* \"#utility.yul\":13195:13224   */\n      swap1\n      pop\n        /* \"#utility.yul\":13233:13282   */\n      tag_574\n        /* \"#utility.yul\":13276:13281   */\n      dup2\n        /* \"#utility.yul\":13233:13282   */\n      tag_395\n      jump\t// in\n    tag_574:\n        /* \"#utility.yul\":13117:13288   */\n      swap3\n      swap2\n      pop\n      pop\n      jump\t// out\n        /* \"#utility.yul\":13294:13655   */\n    tag_58:\n        /* \"#utility.yul\":13369:13375   */\n      0x00\n        /* \"#utility.yul\":13418:13420   */\n      0x20\n        /* \"#utility.yul\":13406:13415   */\n      dup3\n        /* \"#utility.yul\":13397:13404   */\n      dup5\n        /* \"#utility.yul\":13393:13416   */\n      sub\n        /* \"#utility.yul\":13389:13421   */\n      slt\n        /* \"#utility.yul\":13386:13505   */\n      iszero\n      tag_576\n      jumpi\n        /* \"#utility.yul\":13424:13503   */\n      tag_577\n      tag_354\n      jump\t// in\n    tag_577:\n        /* \"#utility.yul\":13386:13505   */\n    tag_576:\n        /* \"#utility.yul\":13544:13545   */\n      0x00\n        /* \"#utility.yul\":13569:13638   */\n      tag_578\n        /* \"#utility.yul\":13630:13637   */\n      dup5\n        /* \"#utility.yul\":13621:13627   */\n      dup3\n        /* \"#utility.yul\":13610:13619   */\n      dup6\n        /* \"#utility.yul\":13606:13628   */\n      add\n        /* \"#utility.yul\":13569:13638   */\n      tag_396\n      jump\t// in\n    tag_578:\n        /* \"#utility.yul\":13559:13638   */\n      swap2\n      pop\n        /* \"#utility.yul\":13515:13648   */\n      pop\n        /* \"#utility.yul\":13294:13655   */\n      swap3\n      swap2\n      pop\n      pop\n      jump\t// out\n        /* \"#utility.yul\":13661:13766   */\n    tag_397:\n        /* \"#utility.yul\":13740:13741   */\n      0x05\n        /* \"#utility.yul\":13733:13738   */\n      dup2\n        /* \"#utility.yul\":13730:13742   */\n      lt\n        /* \"#utility.yul\":13720:13760   */\n      tag_580\n      jumpi\n        /* \"#utility.yul\":13756:13757   */\n      0x00\n        /* \"#utility.yul\":13753:13754   */\n      dup1\n        /* \"#utility.yul\":13746:13758   */\n      revert\n        /* \"#utility.yul\":13720:13760   */\n    tag_580:\n        /* \"#utility.yul\":13661:13766   */\n      pop\n      jump\t// out\n        /* \"#utility.yul\":13772:13923   */\n    tag_398:\n        /* \"#utility.yul\":13824:13829   */\n      0x00\n        /* \"#utility.yul\":13862:13868   */\n      dup2\n        /* \"#utility.yul\":13849:13869   */\n      calldataload\n        /* \"#utility.yul\":13840:13869   */\n      swap1\n      pop\n        /* \"#utility.yul\":13878:13917   */\n      tag_582\n        /* \"#utility.yul\":13911:13916   */\n      dup2\n        /* \"#utility.yul\":13878:13917   */\n      tag_397\n      jump\t// in\n    tag_582:\n        /* \"#utility.yul\":13772:13923   */\n      swap3\n      swap2\n      pop\n      pop\n      jump\t// out\n        /* \"#utility.yul\":13929:14560   */\n    tag_63:\n        /* \"#utility.yul\":14012:14018   */\n      0x00\n        /* \"#utility.yul\":14020:14026   */\n      dup1\n        /* \"#utility.yul\":14028:14034   */\n      0x00\n        /* \"#utility.yul\":14077:14079   */\n      0x60\n        /* \"#utility.yul\":14065:14074   */\n      dup5\n        /* \"#utility.yul\":14056:14063   */\n      dup7\n        /* \"#utility.yul\":14052:14075   */\n      sub\n        /* \"#utility.yul\":14048:14080   */\n      slt\n        /* \"#utility.yul\":14045:14164   */\n      iszero\n      tag_584\n      jumpi\n        /* \"#utility.yul\":14083:14162   */\n      tag_585\n      tag_354\n      jump\t// in\n    tag_585:\n        /* \"#utility.yul\":14045:14164   */\n    tag_584:\n        /* \"#utility.yul\":14203:14204   */\n      0x00\n        /* \"#utility.yul\":14228:14281   */\n      tag_586\n        /* \"#utility.yul\":14273:14280   */\n      dup7\n        /* \"#utility.yul\":14264:14270   */\n      dup3\n        /* \"#utility.yul\":14253:14262   */\n      dup8\n        /* \"#utility.yul\":14249:14271   */\n      add\n        /* \"#utility.yul\":14228:14281   */\n      tag_358\n      jump\t// in\n    tag_586:\n        /* \"#utility.yul\":14218:14281   */\n      swap4\n      pop\n        /* \"#utility.yul\":14174:14291   */\n      pop\n        /* \"#utility.yul\":14330:14332   */\n      0x20\n        /* \"#utility.yul\":14356:14409   */\n      tag_587\n        /* \"#utility.yul\":14401:14408   */\n      dup7\n        /* \"#utility.yul\":14392:14398   */\n      dup3\n        /* \"#utility.yul\":14381:14390   */\n      dup8\n        /* \"#utility.yul\":14377:14399   */\n      add\n        /* \"#utility.yul\":14356:14409   */\n      tag_376\n      jump\t// in\n    tag_587:\n        /* \"#utility.yul\":14346:14409   */\n      swap3\n      pop\n        /* \"#utility.yul\":14301:14419   */\n      pop\n        /* \"#utility.yul\":14458:14460   */\n      0x40\n        /* \"#utility.yul\":14484:14543   */\n      tag_588\n        /* \"#utility.yul\":14535:14542   */\n      dup7\n        /* \"#utility.yul\":14526:14532   */\n      dup3\n        /* \"#utility.yul\":14515:14524   */\n      dup8\n        /* \"#utility.yul\":14511:14533   */\n      add\n        /* \"#utility.yul\":14484:14543   */\n      tag_398\n      jump\t// in\n    tag_588:\n        /* \"#utility.yul\":14474:14543   */\n      swap2\n      pop\n        /* \"#utility.yul\":14429:14553   */\n      pop\n        /* \"#utility.yul\":13929:14560   */\n      swap3\n      pop\n      swap3\n      pop\n      swap3\n      jump\t// out\n        /* \"#utility.yul\":14566:14907   */\n    tag_67:\n        /* \"#utility.yul\":14631:14637   */\n      0x00\n        /* \"#utility.yul\":14680:14682   */\n      0x20\n        /* \"#utility.yul\":14668:14677   */\n      dup3\n        /* \"#utility.yul\":14659:14666   */\n      dup5\n        /* \"#utility.yul\":14655:14678   */\n      sub\n        /* \"#utility.yul\":14651:14683   */\n      slt\n        /* \"#utility.yul\":14648:14767   */\n      iszero\n      tag_590\n      jumpi\n        /* \"#utility.yul\":14686:14765   */\n      tag_591\n      tag_354\n      jump\t// in\n    tag_591:\n        /* \"#utility.yul\":14648:14767   */\n    tag_590:\n        /* \"#utility.yul\":14806:14807   */\n      0x00\n        /* \"#utility.yul\":14831:14890   */\n      tag_592\n        /* \"#utility.yul\":14882:14889   */\n      dup5\n        /* \"#utility.yul\":14873:14879   */\n      dup3\n        /* \"#utility.yul\":14862:14871   */\n      dup6\n        /* \"#utility.yul\":14858:14880   */\n      add\n        /* \"#utility.yul\":14831:14890   */\n      tag_398\n      jump\t// in\n    tag_592:\n        /* \"#utility.yul\":14821:14890   */\n      swap2\n      pop\n        /* \"#utility.yul\":14777:14900   */\n      pop\n        /* \"#utility.yul\":14566:14907   */\n      swap3\n      swap2\n      pop\n      pop\n      jump\t// out\n        /* \"#utility.yul\":14913:15031   */\n    tag_399:\n        /* \"#utility.yul\":15000:15024   */\n      tag_594\n        /* \"#utility.yul\":15018:15023   */\n      dup2\n        /* \"#utility.yul\":15000:15024   */\n      tag_374\n      jump\t// in\n    tag_594:\n        /* \"#utility.yul\":14995:14998   */\n      dup3\n        /* \"#utility.yul\":14988:15025   */\n      mstore\n        /* \"#utility.yul\":14913:15031   */\n      pop\n      pop\n      jump\t// out\n        /* \"#utility.yul\":15037:15217   */\n    tag_121:\n        /* \"#utility.yul\":15085:15162   */\n      0x4e487b7100000000000000000000000000000000000000000000000000000000\n        /* \"#utility.yul\":15082:15083   */\n      0x00\n        /* \"#utility.yul\":15075:15163   */\n      mstore\n        /* \"#utility.yul\":15182:15186   */\n      0x21\n        /* \"#utility.yul\":15179:15180   */\n      0x04\n        /* \"#utility.yul\":15172:15187   */\n      mstore\n        /* \"#utility.yul\":15206:15210   */\n      0x24\n        /* \"#utility.yul\":15203:15204   */\n      0x00\n        /* \"#utility.yul\":15196:15211   */\n      revert\n        /* \"#utility.yul\":15223:15344   */\n    tag_400:\n        /* \"#utility.yul\":15312:15313   */\n      0x07\n        /* \"#utility.yul\":15305:15310   */\n      dup2\n        /* \"#utility.yul\":15302:15314   */\n      lt\n        /* \"#utility.yul\":15292:15338   */\n      tag_597\n      jumpi\n        /* \"#utility.yul\":15318:15336   */\n      tag_598\n      tag_121\n      jump\t// in\n    tag_598:\n        /* \"#utility.yul\":15292:15338   */\n    tag_597:\n        /* \"#utility.yul\":15223:15344   */\n      pop\n      jump\t// out\n        /* \"#utility.yul\":15350:15493   */\n    tag_401:\n        /* \"#utility.yul\":15403:15410   */\n      0x00\n        /* \"#utility.yul\":15432:15437   */\n      dup2\n        /* \"#utility.yul\":15421:15437   */\n      swap1\n      pop\n        /* \"#utility.yul\":15438:15487   */\n      tag_600\n        /* \"#utility.yul\":15481:15486   */\n      dup3\n        /* \"#utility.yul\":15438:15487   */\n      tag_400\n      jump\t// in\n    tag_600:\n        /* \"#utility.yul\":15350:15493   */\n      swap2\n      swap1\n      pop\n      jump\t// out\n        /* \"#utility.yul\":15499:15642   */\n    tag_402:\n        /* \"#utility.yul\":15563:15572   */\n      0x00\n        /* \"#utility.yul\":15596:15636   */\n      tag_602\n        /* \"#utility.yul\":15630:15635   */\n      dup3\n        /* \"#utility.yul\":15596:15636   */\n      tag_401\n      jump\t// in\n    tag_602:\n        /* \"#utility.yul\":15583:15636   */\n      swap1\n      pop\n        /* \"#utility.yul\":15499:15642   */\n      swap2\n      swap1\n      pop\n      jump\t// out\n        /* \"#utility.yul\":15648:15807   */\n    tag_403:\n        /* \"#utility.yul\":15749:15800   */\n      tag_604\n        /* \"#utility.yul\":15794:15799   */\n      dup2\n        /* \"#utility.yul\":15749:15800   */\n      tag_402\n      jump\t// in\n    tag_604:\n        /* \"#utility.yul\":15744:15747   */\n      dup3\n        /* \"#utility.yul\":15737:15801   */\n      mstore\n        /* \"#utility.yul\":15648:15807   */\n      pop\n      pop\n      jump\t// out\n        /* \"#utility.yul\":15813:16485   */\n    tag_74:\n        /* \"#utility.yul\":16024:16028   */\n      0x00\n        /* \"#utility.yul\":16062:16065   */\n      0x80\n        /* \"#utility.yul\":16051:16060   */\n      dup3\n        /* \"#utility.yul\":16047:16066   */\n      add\n        /* \"#utility.yul\":16039:16066   */\n      swap1\n      pop\n        /* \"#utility.yul\":16076:16147   */\n      tag_606\n        /* \"#utility.yul\":16144:16145   */\n      0x00\n        /* \"#utility.yul\":16133:16142   */\n      dup4\n        /* \"#utility.yul\":16129:16146   */\n      add\n        /* \"#utility.yul\":16120:16126   */\n      dup8\n        /* \"#utility.yul\":16076:16147   */\n      tag_377\n      jump\t// in\n    tag_606:\n        /* \"#utility.yul\":16194:16203   */\n      dup2\n        /* \"#utility.yul\":16188:16192   */\n      dup2\n        /* \"#utility.yul\":16184:16204   */\n      sub\n        /* \"#utility.yul\":16179:16181   */\n      0x20\n        /* \"#utility.yul\":16168:16177   */\n      dup4\n        /* \"#utility.yul\":16164:16182   */\n      add\n        /* \"#utility.yul\":16157:16205   */\n      mstore\n        /* \"#utility.yul\":16222:16300   */\n      tag_607\n        /* \"#utility.yul\":16295:16299   */\n      dup2\n        /* \"#utility.yul\":16286:16292   */\n      dup7\n        /* \"#utility.yul\":16222:16300   */\n      tag_363\n      jump\t// in\n    tag_607:\n        /* \"#utility.yul\":16214:16300   */\n      swap1\n      pop\n        /* \"#utility.yul\":16310:16382   */\n      tag_608\n        /* \"#utility.yul\":16378:16380   */\n      0x40\n        /* \"#utility.yul\":16367:16376   */\n      dup4\n        /* \"#utility.yul\":16363:16381   */\n      add\n        /* \"#utility.yul\":16354:16360   */\n      dup6\n        /* \"#utility.yul\":16310:16382   */\n      tag_399\n      jump\t// in\n    tag_608:\n        /* \"#utility.yul\":16392:16478   */\n      tag_609\n        /* \"#utility.yul\":16474:16476   */\n      0x60\n        /* \"#utility.yul\":16463:16472   */\n      dup4\n        /* \"#utility.yul\":16459:16477   */\n      add\n        /* \"#utility.yul\":16450:16456   */\n      dup5\n        /* \"#utility.yul\":16392:16478   */\n      tag_403\n      jump\t// in\n    tag_609:\n        /* \"#utility.yul\":15813:16485   */\n      swap6\n      swap5\n      pop\n      pop\n      pop\n      pop\n      pop\n      jump\t// out\n        /* \"#utility.yul\":16491:16713   */\n    tag_79:\n        /* \"#utility.yul\":16584:16588   */\n      0x00\n        /* \"#utility.yul\":16622:16624   */\n      0x20\n        /* \"#utility.yul\":16611:16620   */\n      dup3\n        /* \"#utility.yul\":16607:16625   */\n      add\n        /* \"#utility.yul\":16599:16625   */\n      swap1\n      pop\n        /* \"#utility.yul\":16635:16706   */\n      tag_611\n        /* \"#utility.yul\":16703:16704   */\n      0x00\n        /* \"#utility.yul\":16692:16701   */\n      dup4\n        /* \"#utility.yul\":16688:16705   */\n      add\n        /* \"#utility.yul\":16679:16685   */\n      dup5\n        /* \"#utility.yul\":16635:16706   */\n      tag_399\n      jump\t// in\n    tag_611:\n        /* \"#utility.yul\":16491:16713   */\n      swap3\n      swap2\n      pop\n      pop\n      jump\t// out\n        /* \"#utility.yul\":16719:16809   */\n    tag_404:\n        /* \"#utility.yul\":16753:16760   */\n      0x00\n        /* \"#utility.yul\":16796:16801   */\n      dup2\n        /* \"#utility.yul\":16789:16802   */\n      iszero\n        /* \"#utility.yul\":16782:16803   */\n      iszero\n        /* \"#utility.yul\":16771:16803   */\n      swap1\n      pop\n        /* \"#utility.yul\":16719:16809   */\n      swap2\n      swap1\n      pop\n      jump\t// out\n        /* \"#utility.yul\":16815:16924   */\n    tag_405:\n        /* \"#utility.yul\":16896:16917   */\n      tag_614\n        /* \"#utility.yul\":16911:16916   */\n      dup2\n        /* \"#utility.yul\":16896:16917   */\n      tag_404\n      jump\t// in\n    tag_614:\n        /* \"#utility.yul\":16891:16894   */\n      dup3\n        /* \"#utility.yul\":16884:16918   */\n      mstore\n        /* \"#utility.yul\":16815:16924   */\n      pop\n      pop\n      jump\t// out\n        /* \"#utility.yul\":16930:17140   */\n    tag_87:\n        /* \"#utility.yul\":17017:17021   */\n      0x00\n        /* \"#utility.yul\":17055:17057   */\n      0x20\n        /* \"#utility.yul\":17044:17053   */\n      dup3\n        /* \"#utility.yul\":17040:17058   */\n      add\n        /* \"#utility.yul\":17032:17058   */\n      swap1\n      pop\n        /* \"#utility.yul\":17068:17133   */\n      tag_616\n        /* \"#utility.yul\":17130:17131   */\n      0x00\n        /* \"#utility.yul\":17119:17128   */\n      dup4\n        /* \"#utility.yul\":17115:17132   */\n      add\n        /* \"#utility.yul\":17106:17112   */\n      dup5\n        /* \"#utility.yul\":17068:17133   */\n      tag_405\n      jump\t// in\n    tag_616:\n        /* \"#utility.yul\":16930:17140   */\n      swap3\n      swap2\n      pop\n      pop\n      jump\t// out\n        /* \"#utility.yul\":17146:17800   */\n    tag_90:\n        /* \"#utility.yul\":17224:17230   */\n      0x00\n        /* \"#utility.yul\":17232:17238   */\n      dup1\n        /* \"#utility.yul\":17281:17283   */\n      0x40\n        /* \"#utility.yul\":17269:17278   */\n      dup4\n        /* \"#utility.yul\":17260:17267   */\n      dup6\n        /* \"#utility.yul\":17256:17279   */\n      sub\n        /* \"#utility.yul\":17252:17284   */\n      slt\n        /* \"#utility.yul\":17249:17368   */\n      iszero\n      tag_618\n      jumpi\n        /* \"#utility.yul\":17287:17366   */\n      tag_619\n      tag_354\n      jump\t// in\n    tag_619:\n        /* \"#utility.yul\":17249:17368   */\n    tag_618:\n        /* \"#utility.yul\":17407:17408   */\n      0x00\n        /* \"#utility.yul\":17432:17485   */\n      tag_620\n        /* \"#utility.yul\":17477:17484   */\n      dup6\n        /* \"#utility.yul\":17468:17474   */\n      dup3\n        /* \"#utility.yul\":17457:17466   */\n      dup7\n        /* \"#utility.yul\":17453:17475   */\n      add\n        /* \"#utility.yul\":17432:17485   */\n      tag_358\n      jump\t// in\n    tag_620:\n        /* \"#utility.yul\":17422:17485   */\n      swap3\n      pop\n        /* \"#utility.yul\":17378:17495   */\n      pop\n        /* \"#utility.yul\":17562:17564   */\n      0x20\n        /* \"#utility.yul\":17551:17560   */\n      dup4\n        /* \"#utility.yul\":17547:17565   */\n      add\n        /* \"#utility.yul\":17534:17566   */\n      calldataload\n        /* \"#utility.yul\":17593:17611   */\n      0xffffffffffffffff\n        /* \"#utility.yul\":17585:17591   */\n      dup2\n        /* \"#utility.yul\":17582:17612   */\n      gt\n        /* \"#utility.yul\":17579:17696   */\n      iszero\n      tag_621\n      jumpi\n        /* \"#utility.yul\":17615:17694   */\n      tag_622\n      tag_355\n      jump\t// in\n    tag_622:\n        /* \"#utility.yul\":17579:17696   */\n    tag_621:\n        /* \"#utility.yul\":17720:17783   */\n      tag_623\n        /* \"#utility.yul\":17775:17782   */\n      dup6\n        /* \"#utility.yul\":17766:17772   */\n      dup3\n        /* \"#utility.yul\":17755:17764   */\n      dup7\n        /* \"#utility.yul\":17751:17773   */\n      add\n        /* \"#utility.yul\":17720:17783   */\n      tag_372\n      jump\t// in\n    tag_623:\n        /* \"#utility.yul\":17710:17783   */\n      swap2\n      pop\n        /* \"#utility.yul\":17505:17793   */\n      pop\n        /* \"#utility.yul\":17146:17800   */\n      swap3\n      pop\n      swap3\n      swap1\n      pop\n      jump\t// out\n        /* \"#utility.yul\":17806:17917   */\n    tag_406:\n        /* \"#utility.yul\":17885:17886   */\n      0x05\n        /* \"#utility.yul\":17878:17883   */\n      dup2\n        /* \"#utility.yul\":17875:17887   */\n      lt\n        /* \"#utility.yul\":17865:17911   */\n      tag_625\n      jumpi\n        /* \"#utility.yul\":17891:17909   */\n      tag_626\n      tag_121\n      jump\t// in\n    tag_626:\n        /* \"#utility.yul\":17865:17911   */\n    tag_625:\n        /* \"#utility.yul\":17806:17917   */\n      pop\n      jump\t// out\n        /* \"#utility.yul\":17923:18046   */\n    tag_407:\n        /* \"#utility.yul\":17966:17973   */\n      0x00\n        /* \"#utility.yul\":17995:18000   */\n      dup2\n        /* \"#utility.yul\":17984:18000   */\n      swap1\n      pop\n        /* \"#utility.yul\":18001:18040   */\n      tag_628\n        /* \"#utility.yul\":18034:18039   */\n      dup3\n        /* \"#utility.yul\":18001:18040   */\n      tag_406\n      jump\t// in\n    tag_628:\n        /* \"#utility.yul\":17923:18046   */\n      swap2\n      swap1\n      pop\n      jump\t// out\n        /* \"#utility.yul\":18052:18175   */\n    tag_408:\n        /* \"#utility.yul\":18106:18115   */\n      0x00\n        /* \"#utility.yul\":18139:18169   */\n      tag_630\n        /* \"#utility.yul\":18163:18168   */\n      dup3\n        /* \"#utility.yul\":18139:18169   */\n      tag_407\n      jump\t// in\n    tag_630:\n        /* \"#utility.yul\":18126:18169   */\n      swap1\n      pop\n        /* \"#utility.yul\":18052:18175   */\n      swap2\n      swap1\n      pop\n      jump\t// out\n        /* \"#utility.yul\":18181:18320   */\n    tag_409:\n        /* \"#utility.yul\":18272:18313   */\n      tag_632\n        /* \"#utility.yul\":18307:18312   */\n      dup2\n        /* \"#utility.yul\":18272:18313   */\n      tag_408\n      jump\t// in\n    tag_632:\n        /* \"#utility.yul\":18267:18270   */\n      dup3\n        /* \"#utility.yul\":18260:18314   */\n      mstore\n        /* \"#utility.yul\":18181:18320   */\n      pop\n      pop\n      jump\t// out\n        /* \"#utility.yul\":18326:18556   */\n    tag_100:\n        /* \"#utility.yul\":18423:18427   */\n      0x00\n        /* \"#utility.yul\":18461:18463   */\n      0x20\n        /* \"#utility.yul\":18450:18459   */\n      dup3\n        /* \"#utility.yul\":18446:18464   */\n      add\n        /* \"#utility.yul\":18438:18464   */\n      swap1\n      pop\n        /* \"#utility.yul\":18474:18549   */\n      tag_634\n        /* \"#utility.yul\":18546:18547   */\n      0x00\n        /* \"#utility.yul\":18535:18544   */\n      dup4\n        /* \"#utility.yul\":18531:18548   */\n      add\n        /* \"#utility.yul\":18522:18528   */\n      dup5\n        /* \"#utility.yul\":18474:18549   */\n      tag_409\n      jump\t// in\n    tag_634:\n        /* \"#utility.yul\":18326:18556   */\n      swap3\n      swap2\n      pop\n      pop\n      jump\t// out\n        /* \"#utility.yul\":18562:18738   */\n    tag_410:\n        /* \"#utility.yul\":18702:18730   */\n      0x596f7520646f6e2774206f776e20746869732070726f64756374000000000000\n        /* \"#utility.yul\":18698:18699   */\n      0x00\n        /* \"#utility.yul\":18690:18696   */\n      dup3\n        /* \"#utility.yul\":18686:18700   */\n      add\n        /* \"#utility.yul\":18679:18731   */\n      mstore\n        /* \"#utility.yul\":18562:18738   */\n      pop\n      jump\t// out\n        /* \"#utility.yul\":18744:19110   */\n    tag_411:\n        /* \"#utility.yul\":18886:18889   */\n      0x00\n        /* \"#utility.yul\":18907:18974   */\n      tag_637\n        /* \"#utility.yul\":18971:18973   */\n      0x1a\n        /* \"#utility.yul\":18966:18969   */\n      dup4\n        /* \"#utility.yul\":18907:18974   */\n      tag_360\n      jump\t// in\n    tag_637:\n        /* \"#utility.yul\":18900:18974   */\n      swap2\n      pop\n        /* \"#utility.yul\":18983:19076   */\n      tag_638\n        /* \"#utility.yul\":19072:19075   */\n      dup3\n        /* \"#utility.yul\":18983:19076   */\n      tag_410\n      jump\t// in\n    tag_638:\n        /* \"#utility.yul\":19101:19103   */\n      0x20\n        /* \"#utility.yul\":19096:19099   */\n      dup3\n        /* \"#utility.yul\":19092:19104   */\n      add\n        /* \"#utility.yul\":19085:19104   */\n      swap1\n      pop\n        /* \"#utility.yul\":18744:19110   */\n      swap2\n      swap1\n      pop\n      jump\t// out\n        /* \"#utility.yul\":19116:19535   */\n    tag_110:\n        /* \"#utility.yul\":19282:19286   */\n      0x00\n        /* \"#utility.yul\":19320:19322   */\n      0x20\n        /* \"#utility.yul\":19309:19318   */\n      dup3\n        /* \"#utility.yul\":19305:19323   */\n      add\n        /* \"#utility.yul\":19297:19323   */\n      swap1\n      pop\n        /* \"#utility.yul\":19369:19378   */\n      dup2\n        /* \"#utility.yul\":19363:19367   */\n      dup2\n        /* \"#utility.yul\":19359:19379   */\n      sub\n        /* \"#utility.yul\":19355:19356   */\n      0x00\n        /* \"#utility.yul\":19344:19353   */\n      dup4\n        /* \"#utility.yul\":19340:19357   */\n      add\n        /* \"#utility.yul\":19333:19380   */\n      mstore\n        /* \"#utility.yul\":19397:19528   */\n      tag_640\n        /* \"#utility.yul\":19523:19527   */\n      dup2\n        /* \"#utility.yul\":19397:19528   */\n      tag_411\n      jump\t// in\n    tag_640:\n        /* \"#utility.yul\":19389:19528   */\n      swap1\n      pop\n        /* \"#utility.yul\":19116:19535   */\n      swap2\n      swap1\n      pop\n      jump\t// out\n        /* \"#utility.yul\":19541:19713   */\n    tag_412:\n        /* \"#utility.yul\":19681:19705   */\n      0x50726f64756374206e6f74207265676973746572656400000000000000000000\n        /* \"#utility.yul\":19677:19678   */\n      0x00\n        /* \"#utility.yul\":19669:19675   */\n      dup3\n        /* \"#utility.yul\":19665:19679   */\n      add\n        /* \"#utility.yul\":19658:19706   */\n      mstore\n        /* \"#utility.yul\":19541:19713   */\n      pop\n      jump\t// out\n        /* \"#utility.yul\":19719:20085   */\n    tag_413:\n        /* \"#utility.yul\":19861:19864   */\n      0x00\n        /* \"#utility.yul\":19882:19949   */\n      tag_643\n        /* \"#utility.yul\":19946:19948   */\n      0x16\n        /* \"#utility.yul\":19941:19944   */\n      dup4\n        /* \"#utility.yul\":19882:19949   */\n      tag_360\n      jump\t// in\n    tag_643:\n        /* \"#utility.yul\":19875:19949   */\n      swap2\n      pop\n        /* \"#utility.yul\":19958:20051   */\n      tag_644\n        /* \"#utility.yul\":20047:20050   */\n      dup3\n        /* \"#utility.yul\":19958:20051   */\n      tag_412\n      jump\t// in\n    tag_644:\n        /* \"#utility.yul\":20076:20078   */\n      0x20\n        /* \"#utility.yul\":20071:20074   */\n      dup3\n        /* \"#utility.yul\":20067:20079   */\n      add\n        /* \"#utility.yul\":20060:20079   */\n      swap1\n      pop\n        /* \"#utility.yul\":19719:20085   */\n      swap2\n      swap1\n      pop\n      jump\t// out\n        /* \"#utility.yul\":20091:20510   */\n    tag_115:\n        /* \"#utility.yul\":20257:20261   */\n      0x00\n        /* \"#utility.yul\":20295:20297   */\n      0x20\n        /* \"#utility.yul\":20284:20293   */\n      dup3\n        /* \"#utility.yul\":20280:20298   */\n      add\n        /* \"#utility.yul\":20272:20298   */\n      swap1\n      pop\n        /* \"#utility.yul\":20344:20353   */\n      dup2\n        /* \"#utility.yul\":20338:20342   */\n      dup2\n        /* \"#utility.yul\":20334:20354   */\n      sub\n        /* \"#utility.yul\":20330:20331   */\n      0x00\n        /* \"#utility.yul\":20319:20328   */\n      dup4\n        /* \"#utility.yul\":20315:20332   */\n      add\n        /* \"#utility.yul\":20308:20355   */\n      mstore\n        /* \"#utility.yul\":20372:20503   */\n      tag_646\n        /* \"#utility.yul\":20498:20502   */\n      dup2\n        /* \"#utility.yul\":20372:20503   */\n      tag_413\n      jump\t// in\n    tag_646:\n        /* \"#utility.yul\":20364:20503   */\n      swap1\n      pop\n        /* \"#utility.yul\":20091:20510   */\n      swap2\n      swap1\n      pop\n      jump\t// out\n        /* \"#utility.yul\":20516:20742   */\n    tag_414:\n        /* \"#utility.yul\":20656:20690   */\n      0x4f6e6c792063757272656e74206f776e65722063616e20636f6e6669726d2074\n        /* \"#utility.yul\":20652:20653   */\n      0x00\n        /* \"#utility.yul\":20644:20650   */\n      dup3\n        /* \"#utility.yul\":20640:20654   */\n      add\n        /* \"#utility.yul\":20633:20691   */\n      mstore\n        /* \"#utility.yul\":20725:20734   */\n      0x72616e7366657200000000000000000000000000000000000000000000000000\n        /* \"#utility.yul\":20720:20722   */\n      0x20\n        /* \"#utility.yul\":20712:20718   */\n      dup3\n        /* \"#utility.yul\":20708:20723   */\n      add\n        /* \"#utility.yul\":20701:20735   */\n      mstore\n        /* \"#utility.yul\":20516:20742   */\n      pop\n      jump\t// out\n        /* \"#utility.yul\":20748:21114   */\n    tag_415:\n        /* \"#utility.yul\":20890:20893   */\n      0x00\n        /* \"#utility.yul\":20911:20978   */\n      tag_649\n        /* \"#utility.yul\":20975:20977   */\n      0x27\n        /* \"#utility.yul\":20970:20973   */\n      dup4\n        /* \"#utility.yul\":20911:20978   */\n      tag_360\n      jump\t// in\n    tag_649:\n        /* \"#utility.yul\":20904:20978   */\n      swap2\n      pop\n        /* \"#utility.yul\":20987:21080   */\n      tag_650\n        /* \"#utility.yul\":21076:21079   */\n      dup3\n        /* \"#utility.yul\":20987:21080   */\n      tag_414\n      jump\t// in\n    tag_650:\n        /* \"#utility.yul\":21105:21107   */\n      0x40\n        /* \"#utility.yul\":21100:21103   */\n      dup3\n        /* \"#utility.yul\":21096:21108   */\n      add\n        /* \"#utility.yul\":21089:21108   */\n      swap1\n      pop\n        /* \"#utility.yul\":20748:21114   */\n      swap2\n      swap1\n      pop\n      jump\t// out\n        /* \"#utility.yul\":21120:21539   */\n    tag_118:\n        /* \"#utility.yul\":21286:21290   */\n      0x00\n        /* \"#utility.yul\":21324:21326   */\n      0x20\n        /* \"#utility.yul\":21313:21322   */\n      dup3\n        /* \"#utility.yul\":21309:21327   */\n      add\n        /* \"#utility.yul\":21301:21327   */\n      swap1\n      pop\n        /* \"#utility.yul\":21373:21382   */\n      dup2\n        /* \"#utility.yul\":21367:21371   */\n      dup2\n        /* \"#utility.yul\":21363:21383   */\n      sub\n        /* \"#utility.yul\":21359:21360   */\n      0x00\n        /* \"#utility.yul\":21348:21357   */\n      dup4\n        /* \"#utility.yul\":21344:21361   */\n      add\n        /* \"#utility.yul\":21337:21384   */\n      mstore\n        /* \"#utility.yul\":21401:21532   */\n      tag_652\n        /* \"#utility.yul\":21527:21531   */\n      dup2\n        /* \"#utility.yul\":21401:21532   */\n      tag_415\n      jump\t// in\n    tag_652:\n        /* \"#utility.yul\":21393:21532   */\n      swap1\n      pop\n        /* \"#utility.yul\":21120:21539   */\n      swap2\n      swap1\n      pop\n      jump\t// out\n        /* \"#utility.yul\":21545:21987   */\n    tag_123:\n        /* \"#utility.yul\":21694:21698   */\n      0x00\n        /* \"#utility.yul\":21732:21734   */\n      0x60\n        /* \"#utility.yul\":21721:21730   */\n      dup3\n        /* \"#utility.yul\":21717:21735   */\n      add\n        /* \"#utility.yul\":21709:21735   */\n      swap1\n      pop\n        /* \"#utility.yul\":21745:21816   */\n      tag_654\n        /* \"#utility.yul\":21813:21814   */\n      0x00\n        /* \"#utility.yul\":21802:21811   */\n      dup4\n        /* \"#utility.yul\":21798:21815   */\n      add\n        /* \"#utility.yul\":21789:21795   */\n      dup7\n        /* \"#utility.yul\":21745:21816   */\n      tag_377\n      jump\t// in\n    tag_654:\n        /* \"#utility.yul\":21826:21898   */\n      tag_655\n        /* \"#utility.yul\":21894:21896   */\n      0x20\n        /* \"#utility.yul\":21883:21892   */\n      dup4\n        /* \"#utility.yul\":21879:21897   */\n      add\n        /* \"#utility.yul\":21870:21876   */\n      dup6\n        /* \"#utility.yul\":21826:21898   */\n      tag_399\n      jump\t// in\n    tag_655:\n        /* \"#utility.yul\":21908:21980   */\n      tag_656\n        /* \"#utility.yul\":21976:21978   */\n      0x40\n        /* \"#utility.yul\":21965:21974   */\n      dup4\n        /* \"#utility.yul\":21961:21979   */\n      add\n        /* \"#utility.yul\":21952:21958   */\n      dup5\n        /* \"#utility.yul\":21908:21980   */\n      tag_399\n      jump\t// in\n    tag_656:\n        /* \"#utility.yul\":21545:21987   */\n      swap5\n      swap4\n      pop\n      pop\n      pop\n      pop\n      jump\t// out\n        /* \"#utility.yul\":21993:22217   */\n    tag_416:\n        /* \"#utility.yul\":22133:22167   */\n      0x4163636573732064656e6965643a2077726f6e6720726f6c6520666f72207072\n        /* \"#utility.yul\":22129:22130   */\n      0x00\n        /* \"#utility.yul\":22121:22127   */\n      dup3\n        /* \"#utility.yul\":22117:22131   */\n      add\n        /* \"#utility.yul\":22110:22168   */\n      mstore\n        /* \"#utility.yul\":22202:22209   */\n      0x6f64756374000000000000000000000000000000000000000000000000000000\n        /* \"#utility.yul\":22197:22199   */\n      0x20\n        /* \"#utility.yul\":22189:22195   */\n      dup3\n        /* \"#utility.yul\":22185:22200   */\n      add\n        /* \"#utility.yul\":22178:22210   */\n      mstore\n        /* \"#utility.yul\":21993:22217   */\n      pop\n      jump\t// out\n        /* \"#utility.yul\":22223:22589   */\n    tag_417:\n        /* \"#utility.yul\":22365:22368   */\n      0x00\n        /* \"#utility.yul\":22386:22453   */\n      tag_659\n        /* \"#utility.yul\":22450:22452   */\n      0x25\n        /* \"#utility.yul\":22445:22448   */\n      dup4\n        /* \"#utility.yul\":22386:22453   */\n      tag_360\n      jump\t// in\n    tag_659:\n        /* \"#utility.yul\":22379:22453   */\n      swap2\n      pop\n        /* \"#utility.yul\":22462:22555   */\n      tag_660\n        /* \"#utility.yul\":22551:22554   */\n      dup3\n        /* \"#utility.yul\":22462:22555   */\n      tag_416\n      jump\t// in\n    tag_660:\n        /* \"#utility.yul\":22580:22582   */\n      0x40\n        /* \"#utility.yul\":22575:22578   */\n      dup3\n        /* \"#utility.yul\":22571:22583   */\n      add\n        /* \"#utility.yul\":22564:22583   */\n      swap1\n      pop\n        /* \"#utility.yul\":22223:22589   */\n      swap2\n      swap1\n      pop\n      jump\t// out\n        /* \"#utility.yul\":22595:23014   */\n    tag_131:\n        /* \"#utility.yul\":22761:22765   */\n      0x00\n        /* \"#utility.yul\":22799:22801   */\n      0x20\n        /* \"#utility.yul\":22788:22797   */\n      dup3\n        /* \"#utility.yul\":22784:22802   */\n      add\n        /* \"#utility.yul\":22776:22802   */\n      swap1\n      pop\n        /* \"#utility.yul\":22848:22857   */\n      dup2\n        /* \"#utility.yul\":22842:22846   */\n      dup2\n        /* \"#utility.yul\":22838:22858   */\n      sub\n        /* \"#utility.yul\":22834:22835   */\n      0x00\n        /* \"#utility.yul\":22823:22832   */\n      dup4\n        /* \"#utility.yul\":22819:22836   */\n      add\n        /* \"#utility.yul\":22812:22859   */\n      mstore\n        /* \"#utility.yul\":22876:23007   */\n      tag_662\n        /* \"#utility.yul\":23002:23006   */\n      dup2\n        /* \"#utility.yul\":22876:23007   */\n      tag_417\n      jump\t// in\n    tag_662:\n        /* \"#utility.yul\":22868:23007   */\n      swap1\n      pop\n        /* \"#utility.yul\":22595:23014   */\n      swap2\n      swap1\n      pop\n      jump\t// out\n        /* \"#utility.yul\":23020:23644   */\n    tag_144:\n        /* \"#utility.yul\":23209:23213   */\n      0x00\n        /* \"#utility.yul\":23247:23249   */\n      0x60\n        /* \"#utility.yul\":23236:23245   */\n      dup3\n        /* \"#utility.yul\":23232:23250   */\n      add\n        /* \"#utility.yul\":23224:23250   */\n      swap1\n      pop\n        /* \"#utility.yul\":23260:23331   */\n      tag_664\n        /* \"#utility.yul\":23328:23329   */\n      0x00\n        /* \"#utility.yul\":23317:23326   */\n      dup4\n        /* \"#utility.yul\":23313:23330   */\n      add\n        /* \"#utility.yul\":23304:23310   */\n      dup7\n        /* \"#utility.yul\":23260:23331   */\n      tag_377\n      jump\t// in\n    tag_664:\n        /* \"#utility.yul\":23378:23387   */\n      dup2\n        /* \"#utility.yul\":23372:23376   */\n      dup2\n        /* \"#utility.yul\":23368:23388   */\n      sub\n        /* \"#utility.yul\":23363:23365   */\n      0x20\n        /* \"#utility.yul\":23352:23361   */\n      dup4\n        /* \"#utility.yul\":23348:23366   */\n      add\n        /* \"#utility.yul\":23341:23389   */\n      mstore\n        /* \"#utility.yul\":23406:23484   */\n      tag_665\n        /* \"#utility.yul\":23479:23483   */\n      dup2\n        /* \"#utility.yul\":23470:23476   */\n      dup6\n        /* \"#utility.yul\":23406:23484   */\n      tag_363\n      jump\t// in\n    tag_665:\n        /* \"#utility.yul\":23398:23484   */\n      swap1\n      pop\n        /* \"#utility.yul\":23531:23540   */\n      dup2\n        /* \"#utility.yul\":23525:23529   */\n      dup2\n        /* \"#utility.yul\":23521:23541   */\n      sub\n        /* \"#utility.yul\":23516:23518   */\n      0x40\n        /* \"#utility.yul\":23505:23514   */\n      dup4\n        /* \"#utility.yul\":23501:23519   */\n      add\n        /* \"#utility.yul\":23494:23542   */\n      mstore\n        /* \"#utility.yul\":23559:23637   */\n      tag_666\n        /* \"#utility.yul\":23632:23636   */\n      dup2\n        /* \"#utility.yul\":23623:23629   */\n      dup5\n        /* \"#utility.yul\":23559:23637   */\n      tag_363\n      jump\t// in\n    tag_666:\n        /* \"#utility.yul\":23551:23637   */\n      swap1\n      pop\n        /* \"#utility.yul\":23020:23644   */\n      swap5\n      swap4\n      pop\n      pop\n      pop\n      pop\n      jump\t// out\n        /* \"#utility.yul\":23650:23832   */\n    tag_418:\n        /* \"#utility.yul\":23790:23824   */\n      0x4f6e6c79206f776e65722063616e20696e697469617465207472616e73666572\n        /* \"#utility.yul\":23786:23787   */\n      0x00\n        /* \"#utility.yul\":23778:23784   */\n      dup3\n        /* \"#utility.yul\":23774:23788   */\n      add\n        /* \"#utility.yul\":23767:23825   */\n      mstore\n        /* \"#utility.yul\":23650:23832   */\n      pop\n      jump\t// out\n        /* \"#utility.yul\":23838:24204   */\n    tag_419:\n        /* \"#utility.yul\":23980:23983   */\n      0x00\n        /* \"#utility.yul\":24001:24068   */\n      tag_669\n        /* \"#utility.yul\":24065:24067   */\n      0x20\n        /* \"#utility.yul\":24060:24063   */\n      dup4\n        /* \"#utility.yul\":24001:24068   */\n      tag_360\n      jump\t// in\n    tag_669:\n        /* \"#utility.yul\":23994:24068   */\n      swap2\n      pop\n        /* \"#utility.yul\":24077:24170   */\n      tag_670\n        /* \"#utility.yul\":24166:24169   */\n      dup3\n        /* \"#utility.yul\":24077:24170   */\n      tag_418\n      jump\t// in\n    tag_670:\n        /* \"#utility.yul\":24195:24197   */\n      0x20\n        /* \"#utility.yul\":24190:24193   */\n      dup3\n        /* \"#utility.yul\":24186:24198   */\n      add\n        /* \"#utility.yul\":24179:24198   */\n      swap1\n      pop\n        /* \"#utility.yul\":23838:24204   */\n      swap2\n      swap1\n      pop\n      jump\t// out\n        /* \"#utility.yul\":24210:24629   */\n    tag_150:\n        /* \"#utility.yul\":24376:24380   */\n      0x00\n        /* \"#utility.yul\":24414:24416   */\n      0x20\n        /* \"#utility.yul\":24403:24412   */\n      dup3\n        /* \"#utility.yul\":24399:24417   */\n      add\n        /* \"#utility.yul\":24391:24417   */\n      swap1\n      pop\n        /* \"#utility.yul\":24463:24472   */\n      dup2\n        /* \"#utility.yul\":24457:24461   */\n      dup2\n        /* \"#utility.yul\":24453:24473   */\n      sub\n        /* \"#utility.yul\":24449:24450   */\n      0x00\n        /* \"#utility.yul\":24438:24447   */\n      dup4\n        /* \"#utility.yul\":24434:24451   */\n      add\n        /* \"#utility.yul\":24427:24474   */\n      mstore\n        /* \"#utility.yul\":24491:24622   */\n      tag_672\n        /* \"#utility.yul\":24617:24621   */\n      dup2\n        /* \"#utility.yul\":24491:24622   */\n      tag_419\n      jump\t// in\n    tag_672:\n        /* \"#utility.yul\":24483:24622   */\n      swap1\n      pop\n        /* \"#utility.yul\":24210:24629   */\n      swap2\n      swap1\n      pop\n      jump\t// out\n        /* \"#utility.yul\":24635:24802   */\n    tag_420:\n        /* \"#utility.yul\":24775:24794   */\n      0x496e76616c696420726563697069656e74000000000000000000000000000000\n        /* \"#utility.yul\":24771:24772   */\n      0x00\n        /* \"#utility.yul\":24763:24769   */\n      dup3\n        /* \"#utility.yul\":24759:24773   */\n      add\n        /* \"#utility.yul\":24752:24795   */\n      mstore\n        /* \"#utility.yul\":24635:24802   */\n      pop\n      jump\t// out\n        /* \"#utility.yul\":24808:25174   */\n    tag_421:\n        /* \"#utility.yul\":24950:24953   */\n      0x00\n        /* \"#utility.yul\":24971:25038   */\n      tag_675\n        /* \"#utility.yul\":25035:25037   */\n      0x11\n        /* \"#utility.yul\":25030:25033   */\n      dup4\n        /* \"#utility.yul\":24971:25038   */\n      tag_360\n      jump\t// in\n    tag_675:\n        /* \"#utility.yul\":24964:25038   */\n      swap2\n      pop\n        /* \"#utility.yul\":25047:25140   */\n      tag_676\n        /* \"#utility.yul\":25136:25139   */\n      dup3\n        /* \"#utility.yul\":25047:25140   */\n      tag_420\n      jump\t// in\n    tag_676:\n        /* \"#utility.yul\":25165:25167   */\n      0x20\n        /* \"#utility.yul\":25160:25163   */\n      dup3\n        /* \"#utility.yul\":25156:25168   */\n      add\n        /* \"#utility.yul\":25149:25168   */\n      swap1\n      pop\n        /* \"#utility.yul\":24808:25174   */\n      swap2\n      swap1\n      pop\n      jump\t// out\n        /* \"#utility.yul\":25180:25599   */\n    tag_153:\n        /* \"#utility.yul\":25346:25350   */\n      0x00\n        /* \"#utility.yul\":25384:25386   */\n      0x20\n        /* \"#utility.yul\":25373:25382   */\n      dup3\n        /* \"#utility.yul\":25369:25387   */\n      add\n        /* \"#utility.yul\":25361:25387   */\n      swap1\n      pop\n        /* \"#utility.yul\":25433:25442   */\n      dup2\n        /* \"#utility.yul\":25427:25431   */\n      dup2\n        /* \"#utility.yul\":25423:25443   */\n      sub\n        /* \"#utility.yul\":25419:25420   */\n      0x00\n        /* \"#utility.yul\":25408:25417   */\n      dup4\n        /* \"#utility.yul\":25404:25421   */\n      add\n        /* \"#utility.yul\":25397:25444   */\n      mstore\n        /* \"#utility.yul\":25461:25592   */\n      tag_678\n        /* \"#utility.yul\":25587:25591   */\n      dup2\n        /* \"#utility.yul\":25461:25592   */\n      tag_421\n      jump\t// in\n    tag_678:\n        /* \"#utility.yul\":25453:25592   */\n      swap1\n      pop\n        /* \"#utility.yul\":25180:25599   */\n      swap2\n      swap1\n      pop\n      jump\t// out\n        /* \"#utility.yul\":25605:25784   */\n    tag_422:\n        /* \"#utility.yul\":25745:25776   */\n      0x4d757374207472616e7366657220746f204d616e756661637475726572000000\n        /* \"#utility.yul\":25741:25742   */\n      0x00\n        /* \"#utility.yul\":25733:25739   */\n      dup3\n        /* \"#utility.yul\":25729:25743   */\n      add\n        /* \"#utility.yul\":25722:25777   */\n      mstore\n        /* \"#utility.yul\":25605:25784   */\n      pop\n      jump\t// out\n        /* \"#utility.yul\":25790:26156   */\n    tag_423:\n        /* \"#utility.yul\":25932:25935   */\n      0x00\n        /* \"#utility.yul\":25953:26020   */\n      tag_681\n        /* \"#utility.yul\":26017:26019   */\n      0x1d\n        /* \"#utility.yul\":26012:26015   */\n      dup4\n        /* \"#utility.yul\":25953:26020   */\n      tag_360\n      jump\t// in\n    tag_681:\n        /* \"#utility.yul\":25946:26020   */\n      swap2\n      pop\n        /* \"#utility.yul\":26029:26122   */\n      tag_682\n        /* \"#utility.yul\":26118:26121   */\n      dup3\n        /* \"#utility.yul\":26029:26122   */\n      tag_422\n      jump\t// in\n    tag_682:\n        /* \"#utility.yul\":26147:26149   */\n      0x20\n        /* \"#utility.yul\":26142:26145   */\n      dup3\n        /* \"#utility.yul\":26138:26150   */\n      add\n        /* \"#utility.yul\":26131:26150   */\n      swap1\n      pop\n        /* \"#utility.yul\":25790:26156   */\n      swap2\n      swap1\n      pop\n      jump\t// out\n        /* \"#utility.yul\":26162:26581   */\n    tag_165:\n        /* \"#utility.yul\":26328:26332   */\n      0x00\n        /* \"#utility.yul\":26366:26368   */\n      0x20\n        /* \"#utility.yul\":26355:26364   */\n      dup3\n        /* \"#utility.yul\":26351:26369   */\n      add\n        /* \"#utility.yul\":26343:26369   */\n      swap1\n      pop\n        /* \"#utility.yul\":26415:26424   */\n      dup2\n        /* \"#utility.yul\":26409:26413   */\n      dup2\n        /* \"#utility.yul\":26405:26425   */\n      sub\n        /* \"#utility.yul\":26401:26402   */\n      0x00\n        /* \"#utility.yul\":26390:26399   */\n      dup4\n        /* \"#utility.yul\":26386:26403   */\n      add\n        /* \"#utility.yul\":26379:26426   */\n      mstore\n        /* \"#utility.yul\":26443:26574   */\n      tag_684\n        /* \"#utility.yul\":26569:26573   */\n      dup2\n        /* \"#utility.yul\":26443:26574   */\n      tag_423\n      jump\t// in\n    tag_684:\n        /* \"#utility.yul\":26435:26574   */\n      swap1\n      pop\n        /* \"#utility.yul\":26162:26581   */\n      swap2\n      swap1\n      pop\n      jump\t// out\n        /* \"#utility.yul\":26587:26762   */\n    tag_424:\n        /* \"#utility.yul\":26727:26754   */\n      0x4d757374207472616e7366657220746f2052657461696c657200000000000000\n        /* \"#utility.yul\":26723:26724   */\n      0x00\n        /* \"#utility.yul\":26715:26721   */\n      dup3\n        /* \"#utility.yul\":26711:26725   */\n      add\n        /* \"#utility.yul\":26704:26755   */\n      mstore\n        /* \"#utility.yul\":26587:26762   */\n      pop\n      jump\t// out\n        /* \"#utility.yul\":26768:27134   */\n    tag_425:\n        /* \"#utility.yul\":26910:26913   */\n      0x00\n        /* \"#utility.yul\":26931:26998   */\n      tag_687\n        /* \"#utility.yul\":26995:26997   */\n      0x19\n        /* \"#utility.yul\":26990:26993   */\n      dup4\n        /* \"#utility.yul\":26931:26998   */\n      tag_360\n      jump\t// in\n    tag_687:\n        /* \"#utility.yul\":26924:26998   */\n      swap2\n      pop\n        /* \"#utility.yul\":27007:27100   */\n      tag_688\n        /* \"#utility.yul\":27096:27099   */\n      dup3\n        /* \"#utility.yul\":27007:27100   */\n      tag_424\n      jump\t// in\n    tag_688:\n        /* \"#utility.yul\":27125:27127   */\n      0x20\n        /* \"#utility.yul\":27120:27123   */\n      dup3\n        /* \"#utility.yul\":27116:27128   */\n      add\n        /* \"#utility.yul\":27109:27128   */\n      swap1\n      pop\n        /* \"#utility.yul\":26768:27134   */\n      swap2\n      swap1\n      pop\n      jump\t// out\n        /* \"#utility.yul\":27140:27559   */\n    tag_178:\n        /* \"#utility.yul\":27306:27310   */\n      0x00\n        /* \"#utility.yul\":27344:27346   */\n      0x20\n        /* \"#utility.yul\":27333:27342   */\n      dup3\n        /* \"#utility.yul\":27329:27347   */\n      add\n        /* \"#utility.yul\":27321:27347   */\n      swap1\n      pop\n        /* \"#utility.yul\":27393:27402   */\n      dup2\n        /* \"#utility.yul\":27387:27391   */\n      dup2\n        /* \"#utility.yul\":27383:27403   */\n      sub\n        /* \"#utility.yul\":27379:27380   */\n      0x00\n        /* \"#utility.yul\":27368:27377   */\n      dup4\n        /* \"#utility.yul\":27364:27381   */\n      add\n        /* \"#utility.yul\":27357:27404   */\n      mstore\n        /* \"#utility.yul\":27421:27552   */\n      tag_690\n        /* \"#utility.yul\":27547:27551   */\n      dup2\n        /* \"#utility.yul\":27421:27552   */\n      tag_425\n      jump\t// in\n    tag_690:\n        /* \"#utility.yul\":27413:27552   */\n      swap1\n      pop\n        /* \"#utility.yul\":27140:27559   */\n      swap2\n      swap1\n      pop\n      jump\t// out\n        /* \"#utility.yul\":27565:27740   */\n    tag_426:\n        /* \"#utility.yul\":27705:27732   */\n      0x4d757374207472616e7366657220746f20436f6e73756d657200000000000000\n        /* \"#utility.yul\":27701:27702   */\n      0x00\n        /* \"#utility.yul\":27693:27699   */\n      dup3\n        /* \"#utility.yul\":27689:27703   */\n      add\n        /* \"#utility.yul\":27682:27733   */\n      mstore\n        /* \"#utility.yul\":27565:27740   */\n      pop\n      jump\t// out\n        /* \"#utility.yul\":27746:28112   */\n    tag_427:\n        /* \"#utility.yul\":27888:27891   */\n      0x00\n        /* \"#utility.yul\":27909:27976   */\n      tag_693\n        /* \"#utility.yul\":27973:27975   */\n      0x19\n        /* \"#utility.yul\":27968:27971   */\n      dup4\n        /* \"#utility.yul\":27909:27976   */\n      tag_360\n      jump\t// in\n    tag_693:\n        /* \"#utility.yul\":27902:27976   */\n      swap2\n      pop\n        /* \"#utility.yul\":27985:28078   */\n      tag_694\n        /* \"#utility.yul\":28074:28077   */\n      dup3\n        /* \"#utility.yul\":27985:28078   */\n      tag_426\n      jump\t// in\n    tag_694:\n        /* \"#utility.yul\":28103:28105   */\n      0x20\n        /* \"#utility.yul\":28098:28101   */\n      dup3\n        /* \"#utility.yul\":28094:28106   */\n      add\n        /* \"#utility.yul\":28087:28106   */\n      swap1\n      pop\n        /* \"#utility.yul\":27746:28112   */\n      swap2\n      swap1\n      pop\n      jump\t// out\n        /* \"#utility.yul\":28118:28537   */\n    tag_191:\n        /* \"#utility.yul\":28284:28288   */\n      0x00\n        /* \"#utility.yul\":28322:28324   */\n      0x20\n        /* \"#utility.yul\":28311:28320   */\n      dup3\n        /* \"#utility.yul\":28307:28325   */\n      add\n        /* \"#utility.yul\":28299:28325   */\n      swap1\n      pop\n        /* \"#utility.yul\":28371:28380   */\n      dup2\n        /* \"#utility.yul\":28365:28369   */\n      dup2\n        /* \"#utility.yul\":28361:28381   */\n      sub\n        /* \"#utility.yul\":28357:28358   */\n      0x00\n        /* \"#utility.yul\":28346:28355   */\n      dup4\n        /* \"#utility.yul\":28342:28359   */\n      add\n        /* \"#utility.yul\":28335:28382   */\n      mstore\n        /* \"#utility.yul\":28399:28530   */\n      tag_696\n        /* \"#utility.yul\":28525:28529   */\n      dup2\n        /* \"#utility.yul\":28399:28530   */\n      tag_427\n      jump\t// in\n    tag_696:\n        /* \"#utility.yul\":28391:28530   */\n      swap1\n      pop\n        /* \"#utility.yul\":28118:28537   */\n      swap2\n      swap1\n      pop\n      jump\t// out\n        /* \"#utility.yul\":28543:28750   */\n    tag_428:\n        /* \"#utility.yul\":28712:28743   */\n      0x5472616e73666572206e6f7420616c6c6f776564206265747765656e20000000\n        /* \"#utility.yul\":28707:28710   */\n      dup2\n        /* \"#utility.yul\":28700:28744   */\n      mstore\n        /* \"#utility.yul\":28543:28750   */\n      pop\n      jump\t// out\n        /* \"#utility.yul\":28756:28904   */\n    tag_429:\n        /* \"#utility.yul\":28858:28869   */\n      0x00\n        /* \"#utility.yul\":28895:28898   */\n      dup2\n        /* \"#utility.yul\":28880:28898   */\n      swap1\n      pop\n        /* \"#utility.yul\":28756:28904   */\n      swap3\n      swap2\n      pop\n      pop\n      jump\t// out\n        /* \"#utility.yul\":28910:29287   */\n    tag_430:\n        /* \"#utility.yul\":29016:29019   */\n      0x00\n        /* \"#utility.yul\":29044:29083   */\n      tag_700\n        /* \"#utility.yul\":29077:29082   */\n      dup3\n        /* \"#utility.yul\":29044:29083   */\n      tag_359\n      jump\t// in\n    tag_700:\n        /* \"#utility.yul\":29099:29188   */\n      tag_701\n        /* \"#utility.yul\":29181:29187   */\n      dup2\n        /* \"#utility.yul\":29176:29179   */\n      dup6\n        /* \"#utility.yul\":29099:29188   */\n      tag_429\n      jump\t// in\n    tag_701:\n        /* \"#utility.yul\":29092:29188   */\n      swap4\n      pop\n        /* \"#utility.yul\":29197:29249   */\n      tag_702\n        /* \"#utility.yul\":29242:29248   */\n      dup2\n        /* \"#utility.yul\":29237:29240   */\n      dup6\n        /* \"#utility.yul\":29230:29234   */\n      0x20\n        /* \"#utility.yul\":29223:29228   */\n      dup7\n        /* \"#utility.yul\":29219:29235   */\n      add\n        /* \"#utility.yul\":29197:29249   */\n      tag_361\n      jump\t// in\n    tag_702:\n        /* \"#utility.yul\":29274:29280   */\n      dup1\n        /* \"#utility.yul\":29269:29272   */\n      dup5\n        /* \"#utility.yul\":29265:29281   */\n      add\n        /* \"#utility.yul\":29258:29281   */\n      swap2\n      pop\n        /* \"#utility.yul\":29020:29287   */\n      pop\n        /* \"#utility.yul\":28910:29287   */\n      swap3\n      swap2\n      pop\n      pop\n      jump\t// out\n        /* \"#utility.yul\":29293:29475   */\n    tag_431:\n        /* \"#utility.yul\":29461:29468   */\n      0x20616e6420000000000000000000000000000000000000000000000000000000\n        /* \"#utility.yul\":29456:29459   */\n      dup2\n        /* \"#utility.yul\":29449:29469   */\n      mstore\n        /* \"#utility.yul\":29293:29475   */\n      pop\n      jump\t// out\n        /* \"#utility.yul\":29481:30447   */\n    tag_206:\n        /* \"#utility.yul\":29842:29845   */\n      0x00\n        /* \"#utility.yul\":29857:29995   */\n      tag_705\n        /* \"#utility.yul\":29991:29994   */\n      dup3\n        /* \"#utility.yul\":29857:29995   */\n      tag_428\n      jump\t// in\n    tag_705:\n        /* \"#utility.yul\":30020:30022   */\n      0x1d\n        /* \"#utility.yul\":30015:30018   */\n      dup3\n        /* \"#utility.yul\":30011:30023   */\n      add\n        /* \"#utility.yul\":30004:30023   */\n      swap2\n      pop\n        /* \"#utility.yul\":30040:30135   */\n      tag_706\n        /* \"#utility.yul\":30131:30134   */\n      dup3\n        /* \"#utility.yul\":30122:30128   */\n      dup6\n        /* \"#utility.yul\":30040:30135   */\n      tag_430\n      jump\t// in\n    tag_706:\n        /* \"#utility.yul\":30033:30135   */\n      swap2\n      pop\n        /* \"#utility.yul\":30145:30282   */\n      tag_707\n        /* \"#utility.yul\":30278:30281   */\n      dup3\n        /* \"#utility.yul\":30145:30282   */\n      tag_431\n      jump\t// in\n    tag_707:\n        /* \"#utility.yul\":30307:30308   */\n      0x05\n        /* \"#utility.yul\":30302:30305   */\n      dup3\n        /* \"#utility.yul\":30298:30309   */\n      add\n        /* \"#utility.yul\":30291:30309   */\n      swap2\n      pop\n        /* \"#utility.yul\":30326:30421   */\n      tag_708\n        /* \"#utility.yul\":30417:30420   */\n      dup3\n        /* \"#utility.yul\":30408:30414   */\n      dup5\n        /* \"#utility.yul\":30326:30421   */\n      tag_430\n      jump\t// in\n    tag_708:\n        /* \"#utility.yul\":30319:30421   */\n      swap2\n      pop\n        /* \"#utility.yul\":30438:30441   */\n      dup2\n        /* \"#utility.yul\":30431:30441   */\n      swap1\n      pop\n        /* \"#utility.yul\":29481:30447   */\n      swap4\n      swap3\n      pop\n      pop\n      pop\n      jump\t// out\n        /* \"#utility.yul\":30453:30633   */\n    tag_432:\n        /* \"#utility.yul\":30501:30578   */\n      0x4e487b7100000000000000000000000000000000000000000000000000000000\n        /* \"#utility.yul\":30498:30499   */\n      0x00\n        /* \"#utility.yul\":30491:30579   */\n      mstore\n        /* \"#utility.yul\":30598:30602   */\n      0x22\n        /* \"#utility.yul\":30595:30596   */\n      0x04\n        /* \"#utility.yul\":30588:30603   */\n      mstore\n        /* \"#utility.yul\":30622:30626   */\n      0x24\n        /* \"#utility.yul\":30619:30620   */\n      0x00\n        /* \"#utility.yul\":30612:30627   */\n      revert\n        /* \"#utility.yul\":30639:30959   */\n    tag_220:\n        /* \"#utility.yul\":30683:30689   */\n      0x00\n        /* \"#utility.yul\":30720:30721   */\n      0x02\n        /* \"#utility.yul\":30714:30718   */\n      dup3\n        /* \"#utility.yul\":30710:30722   */\n      div\n        /* \"#utility.yul\":30700:30722   */\n      swap1\n      pop\n        /* \"#utility.yul\":30767:30768   */\n      0x01\n        /* \"#utility.yul\":30761:30765   */\n      dup3\n        /* \"#utility.yul\":30757:30769   */\n      and\n        /* \"#utility.yul\":30788:30806   */\n      dup1\n        /* \"#utility.yul\":30778:30859   */\n      tag_711\n      jumpi\n        /* \"#utility.yul\":30844:30848   */\n      0x7f\n        /* \"#utility.yul\":30836:30842   */\n      dup3\n        /* \"#utility.yul\":30832:30849   */\n      and\n        /* \"#utility.yul\":30822:30849   */\n      swap2\n      pop\n        /* \"#utility.yul\":30778:30859   */\n    tag_711:\n        /* \"#utility.yul\":30906:30908   */\n      0x20\n        /* \"#utility.yul\":30898:30904   */\n      dup3\n        /* \"#utility.yul\":30895:30909   */\n      lt\n        /* \"#utility.yul\":30875:30893   */\n      dup2\n        /* \"#utility.yul\":30872:30910   */\n      eq\n        /* \"#utility.yul\":30869:30953   */\n      iszero\n      tag_712\n      jumpi\n        /* \"#utility.yul\":30925:30943   */\n      tag_713\n      tag_432\n      jump\t// in\n    tag_713:\n        /* \"#utility.yul\":30869:30953   */\n    tag_712:\n        /* \"#utility.yul\":30690:30959   */\n      pop\n        /* \"#utility.yul\":30639:30959   */\n      swap2\n      swap1\n      pop\n      jump\t// out\n        /* \"#utility.yul\":30965:31142   */\n    tag_433:\n        /* \"#utility.yul\":31105:31134   */\n      0x4f6e6c79206f776e65722063616e2061737369676e20726f6c65730000000000\n        /* \"#utility.yul\":31101:31102   */\n      0x00\n        /* \"#utility.yul\":31093:31099   */\n      dup3\n        /* \"#utility.yul\":31089:31103   */\n      add\n        /* \"#utility.yul\":31082:31135   */\n      mstore\n        /* \"#utility.yul\":30965:31142   */\n      pop\n      jump\t// out\n        /* \"#utility.yul\":31148:31514   */\n    tag_434:\n        /* \"#utility.yul\":31290:31293   */\n      0x00\n        /* \"#utility.yul\":31311:31378   */\n      tag_716\n        /* \"#utility.yul\":31375:31377   */\n      0x1b\n        /* \"#utility.yul\":31370:31373   */\n      dup4\n        /* \"#utility.yul\":31311:31378   */\n      tag_360\n      jump\t// in\n    tag_716:\n        /* \"#utility.yul\":31304:31378   */\n      swap2\n      pop\n        /* \"#utility.yul\":31387:31480   */\n      tag_717\n        /* \"#utility.yul\":31476:31479   */\n      dup3\n        /* \"#utility.yul\":31387:31480   */\n      tag_433\n      jump\t// in\n    tag_717:\n        /* \"#utility.yul\":31505:31507   */\n      0x20\n        /* \"#utility.yul\":31500:31503   */\n      dup3\n        /* \"#utility.yul\":31496:31508   */\n      add\n        /* \"#utility.yul\":31489:31508   */\n      swap1\n      pop\n        /* \"#utility.yul\":31148:31514   */\n      swap2\n      swap1\n      pop\n      jump\t// out\n        /* \"#utility.yul\":31520:31939   */\n    tag_264:\n        /* \"#utility.yul\":31686:31690   */\n      0x00\n        /* \"#utility.yul\":31724:31726   */\n      0x20\n        /* \"#utility.yul\":31713:31722   */\n      dup3\n        /* \"#utility.yul\":31709:31727   */\n      add\n        /* \"#utility.yul\":31701:31727   */\n      swap1\n      pop\n        /* \"#utility.yul\":31773:31782   */\n      dup2\n        /* \"#utility.yul\":31767:31771   */\n      dup2\n        /* \"#utility.yul\":31763:31783   */\n      sub\n        /* \"#utility.yul\":31759:31760   */\n      0x00\n        /* \"#utility.yul\":31748:31757   */\n      dup4\n        /* \"#utility.yul\":31744:31761   */\n      add\n        /* \"#utility.yul\":31737:31784   */\n      mstore\n        /* \"#utility.yul\":31801:31932   */\n      tag_719\n        /* \"#utility.yul\":31927:31931   */\n      dup2\n        /* \"#utility.yul\":31801:31932   */\n      tag_434\n      jump\t// in\n    tag_719:\n        /* \"#utility.yul\":31793:31932   */\n      swap1\n      pop\n        /* \"#utility.yul\":31520:31939   */\n      swap2\n      swap1\n      pop\n      jump\t// out\n        /* \"#utility.yul\":31945:32127   */\n    tag_435:\n        /* \"#utility.yul\":32085:32119   */\n      0x4f6e6c79206f776e65722063616e206c6f67206d616e75666163747572696e67\n        /* \"#utility.yul\":32081:32082   */\n      0x00\n        /* \"#utility.yul\":32073:32079   */\n      dup3\n        /* \"#utility.yul\":32069:32083   */\n      add\n        /* \"#utility.yul\":32062:32120   */\n      mstore\n        /* \"#utility.yul\":31945:32127   */\n      pop\n      jump\t// out\n        /* \"#utility.yul\":32133:32499   */\n    tag_436:\n        /* \"#utility.yul\":32275:32278   */\n      0x00\n        /* \"#utility.yul\":32296:32363   */\n      tag_722\n        /* \"#utility.yul\":32360:32362   */\n      0x20\n        /* \"#utility.yul\":32355:32358   */\n      dup4\n        /* \"#utility.yul\":32296:32363   */\n      tag_360\n      jump\t// in\n    tag_722:\n        /* \"#utility.yul\":32289:32363   */\n      swap2\n      pop\n        /* \"#utility.yul\":32372:32465   */\n      tag_723\n        /* \"#utility.yul\":32461:32464   */\n      dup3\n        /* \"#utility.yul\":32372:32465   */\n      tag_435\n      jump\t// in\n    tag_723:\n        /* \"#utility.yul\":32490:32492   */\n      0x20\n        /* \"#utility.yul\":32485:32488   */\n      dup3\n        /* \"#utility.yul\":32481:32493   */\n      add\n        /* \"#utility.yul\":32474:32493   */\n      swap1\n      pop\n        /* \"#utility.yul\":32133:32499   */\n      swap2\n      swap1\n      pop\n      jump\t// out\n        /* \"#utility.yul\":32505:32924   */\n    tag_306:\n        /* \"#utility.yul\":32671:32675   */\n      0x00\n        /* \"#utility.yul\":32709:32711   */\n      0x20\n        /* \"#utility.yul\":32698:32707   */\n      dup3\n        /* \"#utility.yul\":32694:32712   */\n      add\n        /* \"#utility.yul\":32686:32712   */\n      swap1\n      pop\n        /* \"#utility.yul\":32758:32767   */\n      dup2\n        /* \"#utility.yul\":32752:32756   */\n      dup2\n        /* \"#utility.yul\":32748:32768   */\n      sub\n        /* \"#utility.yul\":32744:32745   */\n      0x00\n        /* \"#utility.yul\":32733:32742   */\n      dup4\n        /* \"#utility.yul\":32729:32746   */\n      add\n        /* \"#utility.yul\":32722:32769   */\n      mstore\n        /* \"#utility.yul\":32786:32917   */\n      tag_725\n        /* \"#utility.yul\":32912:32916   */\n      dup2\n        /* \"#utility.yul\":32786:32917   */\n      tag_436\n      jump\t// in\n    tag_725:\n        /* \"#utility.yul\":32778:32917   */\n      swap1\n      pop\n        /* \"#utility.yul\":32505:32924   */\n      swap2\n      swap1\n      pop\n      jump\t// out\n        /* \"#utility.yul\":32930:33353   */\n    tag_311:\n        /* \"#utility.yul\":33071:33075   */\n      0x00\n        /* \"#utility.yul\":33109:33111   */\n      0x40\n        /* \"#utility.yul\":33098:33107   */\n      dup3\n        /* \"#utility.yul\":33094:33112   */\n      add\n        /* \"#utility.yul\":33086:33112   */\n      swap1\n      pop\n        /* \"#utility.yul\":33122:33193   */\n      tag_727\n        /* \"#utility.yul\":33190:33191   */\n      0x00\n        /* \"#utility.yul\":33179:33188   */\n      dup4\n        /* \"#utility.yul\":33175:33192   */\n      add\n        /* \"#utility.yul\":33166:33172   */\n      dup6\n        /* \"#utility.yul\":33122:33193   */\n      tag_377\n      jump\t// in\n    tag_727:\n        /* \"#utility.yul\":33240:33249   */\n      dup2\n        /* \"#utility.yul\":33234:33238   */\n      dup2\n        /* \"#utility.yul\":33230:33250   */\n      sub\n        /* \"#utility.yul\":33225:33227   */\n      0x20\n        /* \"#utility.yul\":33214:33223   */\n      dup4\n        /* \"#utility.yul\":33210:33228   */\n      add\n        /* \"#utility.yul\":33203:33251   */\n      mstore\n        /* \"#utility.yul\":33268:33346   */\n      tag_728\n        /* \"#utility.yul\":33341:33345   */\n      dup2\n        /* \"#utility.yul\":33332:33338   */\n      dup5\n        /* \"#utility.yul\":33268:33346   */\n      tag_363\n      jump\t// in\n    tag_728:\n        /* \"#utility.yul\":33260:33346   */\n      swap1\n      pop\n        /* \"#utility.yul\":32930:33353   */\n      swap4\n      swap3\n      pop\n      pop\n      pop\n      jump\t// out\n        /* \"#utility.yul\":33359:33539   */\n    tag_437:\n        /* \"#utility.yul\":33407:33484   */\n      0x4e487b7100000000000000000000000000000000000000000000000000000000\n        /* \"#utility.yul\":33404:33405   */\n      0x00\n        /* \"#utility.yul\":33397:33485   */\n      mstore\n        /* \"#utility.yul\":33504:33508   */\n      0x11\n        /* \"#utility.yul\":33501:33502   */\n      0x04\n        /* \"#utility.yul\":33494:33509   */\n      mstore\n        /* \"#utility.yul\":33528:33532   */\n      0x24\n        /* \"#utility.yul\":33525:33526   */\n      0x00\n        /* \"#utility.yul\":33518:33533   */\n      revert\n        /* \"#utility.yul\":33545:33778   */\n    tag_316:\n        /* \"#utility.yul\":33584:33587   */\n      0x00\n        /* \"#utility.yul\":33607:33631   */\n      tag_731\n        /* \"#utility.yul\":33625:33630   */\n      dup3\n        /* \"#utility.yul\":33607:33631   */\n      tag_356\n      jump\t// in\n    tag_731:\n        /* \"#utility.yul\":33598:33631   */\n      swap2\n      pop\n        /* \"#utility.yul\":33653:33719   */\n      0xffffffffffffffffffffffffffffffffffffffffffffffffffffffffffffffff\n        /* \"#utility.yul\":33646:33651   */\n      dup3\n        /* \"#utility.yul\":33643:33720   */\n      eq\n        /* \"#utility.yul\":33640:33743   */\n      iszero\n      tag_732\n      jumpi\n        /* \"#utility.yul\":33723:33741   */\n      tag_733\n      tag_437\n      jump\t// in\n    tag_733:\n        /* \"#utility.yul\":33640:33743   */\n    tag_732:\n        /* \"#utility.yul\":33770:33771   */\n      0x01\n        /* \"#utility.yul\":33763:33768   */\n      dup3\n        /* \"#utility.yul\":33759:33772   */\n      add\n        /* \"#utility.yul\":33752:33772   */\n      swap1\n      pop\n        /* \"#utility.yul\":33545:33778   */\n      swap2\n      swap1\n      pop\n      jump\t// out\n        /* \"#utility.yul\":33784:34116   */\n    tag_323:\n        /* \"#utility.yul\":33905:33909   */\n      0x00\n        /* \"#utility.yul\":33943:33945   */\n      0x40\n        /* \"#utility.yul\":33932:33941   */\n      dup3\n        /* \"#utility.yul\":33928:33946   */\n      add\n        /* \"#utility.yul\":33920:33946   */\n      swap1\n      pop\n        /* \"#utility.yul\":33956:34027   */\n      tag_735\n        /* \"#utility.yul\":34024:34025   */\n      0x00\n        /* \"#utility.yul\":34013:34022   */\n      dup4\n        /* \"#utility.yul\":34009:34026   */\n      add\n        /* \"#utility.yul\":34000:34006   */\n      dup6\n        /* \"#utility.yul\":33956:34027   */\n      tag_377\n      jump\t// in\n    tag_735:\n        /* \"#utility.yul\":34037:34109   */\n      tag_736\n        /* \"#utility.yul\":34105:34107   */\n      0x20\n        /* \"#utility.yul\":34094:34103   */\n      dup4\n        /* \"#utility.yul\":34090:34108   */\n      add\n        /* \"#utility.yul\":34081:34087   */\n      dup5\n        /* \"#utility.yul\":34037:34109   */\n      tag_399\n      jump\t// in\n    tag_736:\n        /* \"#utility.yul\":33784:34116   */\n      swap4\n      swap3\n      pop\n      pop\n      pop\n      jump\t// out\n        /* \"#utility.yul\":34122:34301   */\n    tag_438:\n        /* \"#utility.yul\":34262:34293   */\n      0x4f6e6c79206f776e65722063616e20766572696679207175616c697479000000\n        /* \"#utility.yul\":34258:34259   */\n      0x00\n        /* \"#utility.yul\":34250:34256   */\n      dup3\n        /* \"#utility.yul\":34246:34260   */\n      add\n        /* \"#utility.yul\":34239:34294   */\n      mstore\n        /* \"#utility.yul\":34122:34301   */\n      pop\n      jump\t// out\n        /* \"#utility.yul\":34307:34673   */\n    tag_439:\n        /* \"#utility.yul\":34449:34452   */\n      0x00\n        /* \"#utility.yul\":34470:34537   */\n      tag_739\n        /* \"#utility.yul\":34534:34536   */\n      0x1d\n        /* \"#utility.yul\":34529:34532   */\n      dup4\n        /* \"#utility.yul\":34470:34537   */\n      tag_360\n      jump\t// in\n    tag_739:\n        /* \"#utility.yul\":34463:34537   */\n      swap2\n      pop\n        /* \"#utility.yul\":34546:34639   */\n      tag_740\n        /* \"#utility.yul\":34635:34638   */\n      dup3\n        /* \"#utility.yul\":34546:34639   */\n      tag_438\n      jump\t// in\n    tag_740:\n        /* \"#utility.yul\":34664:34666   */\n      0x20\n        /* \"#utility.yul\":34659:34662   */\n      dup3\n        /* \"#utility.yul\":34655:34667   */\n      add\n        /* \"#utility.yul\":34648:34667   */\n      swap1\n      pop\n        /* \"#utility.yul\":34307:34673   */\n      swap2\n      swap1\n      pop\n      jump\t// out\n        /* \"#utility.yul\":34679:35098   */\n    tag_336:\n        /* \"#utility.yul\":34845:34849   */\n      0x00\n        /* \"#utility.yul\":34883:34885   */\n      0x20\n        /* \"#utility.yul\":34872:34881   */\n      dup3\n        /* \"#utility.yul\":34868:34886   */\n      add\n        /* \"#utility.yul\":34860:34886   */\n      swap1\n      pop\n        /* \"#utility.yul\":34932:34941   */\n      dup2\n        /* \"#utility.yul\":34926:34930   */\n      dup2\n        /* \"#utility.yul\":34922:34942   */\n      sub\n        /* \"#utility.yul\":34918:34919   */\n      0x00\n        /* \"#utility.yul\":34907:34916   */\n      dup4\n        /* \"#utility.yul\":34903:34920   */\n      add\n        /* \"#utility.yul\":34896:34943   */\n      mstore\n        /* \"#utility.yul\":34960:35091   */\n      tag_742\n        /* \"#utility.yul\":35086:35090   */\n      dup2\n        /* \"#utility.yul\":34960:35091   */\n      tag_439\n      jump\t// in\n    tag_742:\n        /* \"#utility.yul\":34952:35091   */\n      swap1\n      pop\n        /* \"#utility.yul\":34679:35098   */\n      swap2\n      swap1\n      pop\n      jump\t// out\n        /* \"#utility.yul\":35104:35264   */\n    tag_440:\n        /* \"#utility.yul\":35244:35256   */\n      0x56657269666965643a2000000000000000000000000000000000000000000000\n        /* \"#utility.yul\":35240:35241   */\n      0x00\n        /* \"#utility.yul\":35232:35238   */\n      dup3\n        /* \"#utility.yul\":35228:35242   */\n      add\n        /* \"#utility.yul\":35221:35257   */\n      mstore\n        /* \"#utility.yul\":35104:35264   */\n      pop\n      jump\t// out\n        /* \"#utility.yul\":35270:35672   */\n    tag_441:\n        /* \"#utility.yul\":35430:35433   */\n      0x00\n        /* \"#utility.yul\":35451:35536   */\n      tag_745\n        /* \"#utility.yul\":35533:35535   */\n      0x0a\n        /* \"#utility.yul\":35528:35531   */\n      dup4\n        /* \"#utility.yul\":35451:35536   */\n      tag_429\n      jump\t// in\n    tag_745:\n        /* \"#utility.yul\":35444:35536   */\n      swap2\n      pop\n        /* \"#utility.yul\":35545:35638   */\n      tag_746\n        /* \"#utility.yul\":35634:35637   */\n      dup3\n        /* \"#utility.yul\":35545:35638   */\n      tag_440\n      jump\t// in\n    tag_746:\n        /* \"#utility.yul\":35663:35665   */\n      0x0a\n        /* \"#utility.yul\":35658:35661   */\n      dup3\n        /* \"#utility.yul\":35654:35666   */\n      add\n        /* \"#utility.yul\":35647:35666   */\n      swap1\n      pop\n        /* \"#utility.yul\":35270:35672   */\n      swap2\n      swap1\n      pop\n      jump\t// out\n        /* \"#utility.yul\":35678:36219   */\n    tag_341:\n        /* \"#utility.yul\":35911:35914   */\n      0x00\n        /* \"#utility.yul\":35933:36081   */\n      tag_748\n        /* \"#utility.yul\":36077:36080   */\n      dup3\n        /* \"#utility.yul\":35933:36081   */\n      tag_441\n      jump\t// in\n    tag_748:\n        /* \"#utility.yul\":35926:36081   */\n      swap2\n      pop\n        /* \"#utility.yul\":36098:36193   */\n      tag_749\n        /* \"#utility.yul\":36189:36192   */\n      dup3\n        /* \"#utility.yul\":36180:36186   */\n      dup5\n        /* \"#utility.yul\":36098:36193   */\n      tag_430\n      jump\t// in\n    tag_749:\n        /* \"#utility.yul\":36091:36193   */\n      swap2\n      pop\n        /* \"#utility.yul\":36210:36213   */\n      dup2\n        /* \"#utility.yul\":36203:36213   */\n      swap1\n      pop\n        /* \"#utility.yul\":35678:36219   */\n      swap3\n      swap2\n      pop\n      pop\n      jump\t// out\n\n    auxdata: 0xa2646970667358221220d52bc55c60a15e6c54024bca88af331532104cc018c444d2c8c836d5e82e296f64736f6c634300080c0033\n}\n",
				"bytecode": {
					"linkReferences": {},
					"object": "608060405260016004553480156200001657600080fd5b50604051620034e1380380620034e183398181016040528101906200003c919062000160565b600073ffffffffffffffffffffffffffffffffffffffff168173ffffffffffffffffffffffffffffffffffffffff161415620000af576040517f08c379a0000000000000000000000000000000000000000000000000000000008152600401620000a690620001f3565b60405180910390fd5b336000806101000a81548173ffffffffffffffffffffffffffffffffffffffff021916908373ffffffffffffffffffffffffffffffffffffffff1602179055505062000215565b600080fd5b600073ffffffffffffffffffffffffffffffffffffffff82169050919050565b60006200012882620000fb565b9050919050565b6200013a816200011b565b81146200014657600080fd5b50565b6000815190506200015a816200012f565b92915050565b600060208284031215620001795762000178620000f6565b5b6000620001898482850162000149565b91505092915050565b600082825260208201905092915050565b7f496e76616c6964206164647265737320696e7075747465640000000000000000600082015250565b6000620001db60188362000192565b9150620001e882620001a3565b602082019050919050565b600060208201905081810360008301526200020e81620001cc565b9050919050565b6132bc80620002256000396000f3fe608060405234801561001057600080fd5b50600436106101215760003560e01c80637946bb0b116100ad578063a552811b11610071578063a552811b14610355578063cb3cc37714610371578063da9a6f3e146103a1578063dfd92f8a146103d1578063e2f94b56146103ef57610121565b80637946bb0b146102745780637acc0b20146102a45780637ace341b146102d75780638da5cb5b146103075780638fc15dc31461032557610121565b80634de91a63116100f45780634de91a63146101aa57806357a096a1146101c8578063680a9283146101f85780636d7b7fc9146102285780636db0168f1461025857610121565b806303f6dfbc146101265780632c48e7db146101565780633010cda7146101725780633a371b8e1461018e575b600080fd5b610140600480360381019061013b9190612187565b61040b565b60405161014d919061224d565b60405180910390f35b610170600480360381019061016b9190612187565b6104e4565b005b61018c600480360381019061018791906123a4565b610665565b005b6101a860048036038101906101a3919061248d565b610956565b005b6101b2610f6d565b6040516101bf91906124dc565b60405180910390f35b6101e260048036038101906101dd9190612187565b610f73565b6040516101ef91906125b5565b60405180910390f35b610212600480360381019061020d9190612187565b611017565b60405161021f9190612749565b60405180910390f35b610242600480360381019061023d9190612790565b6111ba565b60405161024f919061224d565b60405180910390f35b610272600480360381019061026d91906127e2565b611476565b005b61028e60048036038101906102899190612835565b611581565b60405161029b919061224d565b60405180910390f35b6102be60048036038101906102b99190612187565b611768565b6040516102ce94939291906128e8565b60405180910390f35b6102f160048036038101906102ec9190612187565b61184d565b6040516102fe9190612934565b60405180910390f35b61030f61188d565b60405161031c9190612934565b60405180910390f35b61033f600480360381019061033a9190612187565b6118b1565b60405161034c919061296a565b60405180910390f35b61036f600480360381019061036a9190612985565b6118d1565b005b61038b6004803603810190610386919061248d565b611b44565b604051610398919061224d565b60405180910390f35b6103bb60048036038101906103b6919061248d565b611bb4565b6040516103c89190612a29565b60405180910390f35b6103d9611be3565b6040516103e691906124dc565b60405180910390f35b61040960048036038101906104049190612985565b611e09565b005b60603373ffffffffffffffffffffffffffffffffffffffff166002600084815260200190815260200160002060030160009054906101000a900473ffffffffffffffffffffffffffffffffffffffff1673ffffffffffffffffffffffffffffffffffffffff16146104b1576040517f08c379a00000000000000000000000000000000000000000000000000000000081526004016104a890612a90565b60405180910390fd5b6104dd6002600084815260200190815260200160002060050160009054906101000a900460ff166111ba565b9050919050565b6003600082815260200190815260200160002060009054906101000a900460ff16610544576040517f08c379a000000000000000000000000000000000000000000000000000000000815260040161053b90612afc565b60405180910390fd5b3373ffffffffffffffffffffffffffffffffffffffff166002600083815260200190815260200160002060030160009054906101000a900473ffffffffffffffffffffffffffffffffffffffff1673ffffffffffffffffffffffffffffffffffffffff16146105e8576040517f08c379a00000000000000000000000000000000000000000000000000000000081526004016105df90612b8e565b60405180910390fd5b60066002600083815260200190815260200160002060050160006101000a81548160ff0219169083600681111561062257610621612871565b5b02179055507f16b85f49bf01212961345d3016c9a531894accf62eb7680f2045d79185cc0ec081333360405161065a93929190612bae565b60405180910390a150565b82600180600481111561067b5761067a612871565b5b6001600084815260200190815260200160002060003373ffffffffffffffffffffffffffffffffffffffff1673ffffffffffffffffffffffffffffffffffffffff16815260200190815260200160002060009054906101000a900460ff1660048111156106eb576106ea612871565b5b1461072b576040517f08c379a000000000000000000000000000000000000000000000000000000000815260040161072290612c57565b60405180910390fd5b6003600086815260200190815260200160002060009054906101000a900460ff1661078b576040517f08c379a000000000000000000000000000000000000000000000000000000000815260040161078290612afc565b60405180910390fd5b3373ffffffffffffffffffffffffffffffffffffffff166002600087815260200190815260200160002060030160009054906101000a900473ffffffffffffffffffffffffffffffffffffffff1673ffffffffffffffffffffffffffffffffffffffff161461082f576040517f08c379a000000000000000000000000000000000000000000000000000000000815260040161082690612a90565b60405180910390fd5b600060405180606001604052808681526020018581526020014281525090506002600087815260200190815260200160002060010181908060018154018082558091505060019003906000526020600020906003020160009091909190915060008201518160000190805190602001906108aa92919061209a565b5060208201518160010190805190602001906108c792919061209a565b5060408201518160020155505060016002600088815260200190815260200160002060050160006101000a81548160ff0219169083600681111561090e5761090d612871565b5b02179055507f2e9abb49e8b9a29ba75d12b719df776b1b523eac921c6f1e773272ff48455bb886868660405161094693929190612c77565b60405180910390a1505050505050565b6003600083815260200190815260200160002060009054906101000a900460ff166109b6576040517f08c379a00000000000000000000000000000000000000000000000000000000081526004016109ad90612afc565b60405180910390fd5b3373ffffffffffffffffffffffffffffffffffffffff166002600084815260200190815260200160002060030160009054906101000a900473ffffffffffffffffffffffffffffffffffffffff1673ffffffffffffffffffffffffffffffffffffffff1614610a5a576040517f08c379a0000000000000000000000000000000000000000000000000000000008152600401610a5190612d08565b60405180910390fd5b600073ffffffffffffffffffffffffffffffffffffffff168173ffffffffffffffffffffffffffffffffffffffff161415610aca576040517f08c379a0000000000000000000000000000000000000000000000000000000008152600401610ac190612d74565b60405180910390fd5b60006001600084815260200190815260200160002060003373ffffffffffffffffffffffffffffffffffffffff1673ffffffffffffffffffffffffffffffffffffffff16815260200190815260200160002060009054906101000a900460ff16905060006001600085815260200190815260200160002060008473ffffffffffffffffffffffffffffffffffffffff1673ffffffffffffffffffffffffffffffffffffffff16815260200190815260200160002060009054906101000a900460ff16905060016004811115610ba257610ba1612871565b5b826004811115610bb557610bb4612871565b5b1415610c275760026004811115610bcf57610bce612871565b5b816004811115610be257610be1612871565b5b14610c22576040517f08c379a0000000000000000000000000000000000000000000000000000000008152600401610c1990612de0565b60405180910390fd5b610e21565b60026004811115610c3b57610c3a612871565b5b826004811115610c4e57610c4d612871565b5b1415610cc05760036004811115610c6857610c67612871565b5b816004811115610c7b57610c7a612871565b5b14610cbb576040517f08c379a0000000000000000000000000000000000000000000000000000000008152600401610cb290612e4c565b60405180910390fd5b610e20565b60036004811115610cd457610cd3612871565b5b826004811115610ce757610ce6612871565b5b1415610d5857600480811115610d0057610cff612871565b5b816004811115610d1357610d12612871565b5b14610d53576040517f08c379a0000000000000000000000000000000000000000000000000000000008152600401610d4a90612eb8565b60405180910390fd5b610e1f565b600480811115610d6b57610d6a612871565b5b826004811115610d7e57610d7d612871565b5b1415610e1e57600480811115610d9757610d96612871565b5b816004811115610daa57610da9612871565b5b14610e1d57610db882611581565b610dc182611581565b604051602001610dd2929190612f60565b6040516020818303038152906040526040517f08c379a0000000000000000000000000000000000000000000000000000000008152600401610e14919061224d565b60405180910390fd5b5b5b5b5b60046002600086815260200190815260200160002060050160006101000a81548160ff02191690836006811115610e5b57610e5a612871565b5b0217905550826002600086815260200190815260200160002060030160006101000a81548173ffffffffffffffffffffffffffffffffffffffff021916908373ffffffffffffffffffffffffffffffffffffffff16021790555060026000858152602001908152602001600020600401839080600181540180825580915050600190039060005260206000200160009091909190916101000a81548173ffffffffffffffffffffffffffffffffffffffff021916908373ffffffffffffffffffffffffffffffffffffffff1602179055507f16b85f49bf01212961345d3016c9a531894accf62eb7680f2045d79185cc0ec0843385604051610f5f93929190612bae565b60405180910390a150505050565b60045481565b60606002600083815260200190815260200160002060040180548060200260200160405190810160405280929190818152602001828054801561100b57602002820191906000526020600020905b8160009054906101000a900473ffffffffffffffffffffffffffffffffffffffff1673ffffffffffffffffffffffffffffffffffffffff1681526020019060010190808311610fc1575b50505050509050919050565b606060026000838152602001908152602001600020600101805480602002602001604051908101604052809291908181526020016000905b828210156111af578382906000526020600020906003020160405180606001604052908160008201805461108290612fd1565b80601f01602080910402602001604051908101604052809291908181526020018280546110ae90612fd1565b80156110fb5780601f106110d0576101008083540402835291602001916110fb565b820191906000526020600020905b8154815290600101906020018083116110de57829003601f168201915b5050505050815260200160018201805461111490612fd1565b80601f016020809104026020016040519081016040528092919081815260200182805461114090612fd1565b801561118d5780601f106111625761010080835404028352916020019161118d565b820191906000526020600020905b81548152906001019060200180831161117057829003601f168201915b505050505081526020016002820154815250508152602001906001019061104f565b505050509050919050565b6060600060068111156111d0576111cf612871565b5b8260068111156111e3576111e2612871565b5b1415611226576040518060400160405280600781526020017f43726561746564000000000000000000000000000000000000000000000000008152509050611471565b6001600681111561123a57611239612871565b5b82600681111561124d5761124c612871565b5b1415611290576040518060400160405280600f81526020017f4d6174657269616c734c6f6767656400000000000000000000000000000000008152509050611471565b600260068111156112a4576112a3612871565b5b8260068111156112b7576112b6612871565b5b14156112fa576040518060400160405280601581526020017f4d616e75666163747572696e67566572696669656400000000000000000000008152509050611471565b6003600681111561130e5761130d612871565b5b82600681111561132157611320612871565b5b1415611364576040518060400160405280600c81526020017f4d616e75666163747572656400000000000000000000000000000000000000008152509050611471565b6004600681111561137857611377612871565b5b82600681111561138b5761138a612871565b5b14156113ce576040518060400160405280600981526020017f496e5472616e73697400000000000000000000000000000000000000000000008152509050611471565b600560068111156113e2576113e1612871565b5b8260068111156113f5576113f4612871565b5b1415611438576040518060400160405280600981526020017f44656c69766572656400000000000000000000000000000000000000000000008152509050611471565b6040518060400160405280600981526020017f46696e616c69736564000000000000000000000000000000000000000000000081525090505b919050565b60008054906101000a900473ffffffffffffffffffffffffffffffffffffffff1673ffffffffffffffffffffffffffffffffffffffff163373ffffffffffffffffffffffffffffffffffffffff1614611504576040517f08c379a00000000000000000000000000000000000000000000000000000000081526004016114fb9061304f565b60405180910390fd5b806001600085815260200190815260200160002060008473ffffffffffffffffffffffffffffffffffffffff1673ffffffffffffffffffffffffffffffffffffffff16815260200190815260200160002060006101000a81548160ff0219169083600481111561157757611576612871565b5b0217905550505050565b60606001600481111561159757611596612871565b5b8260048111156115aa576115a9612871565b5b14156115ed576040518060400160405280600881526020017f537570706c6965720000000000000000000000000000000000000000000000008152509050611763565b6002600481111561160157611600612871565b5b82600481111561161457611613612871565b5b1415611657576040518060400160405280600c81526020017f4d616e75666163747572657200000000000000000000000000000000000000008152509050611763565b6003600481111561166b5761166a612871565b5b82600481111561167e5761167d612871565b5b14156116c1576040518060400160405280600881526020017f52657461696c65720000000000000000000000000000000000000000000000008152509050611763565b6004808111156116d4576116d3612871565b5b8260048111156116e7576116e6612871565b5b141561172a576040518060400160405280600881526020017f436f6e73756d65720000000000000000000000000000000000000000000000008152509050611763565b6040518060400160405280600781526020017f556e6b6e6f776e0000000000000000000000000000000000000000000000000081525090505b919050565b600260205280600052604060002060009150905080600001549080600201805461179190612fd1565b80601f01602080910402602001604051908101604052809291908181526020018280546117bd90612fd1565b801561180a5780601f106117df5761010080835404028352916020019161180a565b820191906000526020600020905b8154815290600101906020018083116117ed57829003601f168201915b5050505050908060030160009054906101000a900473ffffffffffffffffffffffffffffffffffffffff16908060050160009054906101000a900460ff16905084565b60006002600083815260200190815260200160002060030160009054906101000a900473ffffffffffffffffffffffffffffffffffffffff169050919050565b60008054906101000a900473ffffffffffffffffffffffffffffffffffffffff1681565b60036020528060005260406000206000915054906101000a900460ff1681565b8160028060048111156118e7576118e6612871565b5b6001600084815260200190815260200160002060003373ffffffffffffffffffffffffffffffffffffffff1673ffffffffffffffffffffffffffffffffffffffff16815260200190815260200160002060009054906101000a900460ff16600481111561195757611956612871565b5b14611997576040517f08c379a000000000000000000000000000000000000000000000000000000000815260040161198e90612c57565b60405180910390fd5b6003600085815260200190815260200160002060009054906101000a900460ff166119f7576040517f08c379a00000000000000000000000000000000000000000000000000000000081526004016119ee90612afc565b60405180910390fd5b3373ffffffffffffffffffffffffffffffffffffffff166002600086815260200190815260200160002060030160009054906101000a900473ffffffffffffffffffffffffffffffffffffffff1673ffffffffffffffffffffffffffffffffffffffff1614611a9b576040517f08c379a0000000000000000000000000000000000000000000000000000000008152600401611a92906130bb565b60405180910390fd5b82600260008681526020019081526020016000206002019080519060200190611ac592919061209a565b5060036002600086815260200190815260200160002060050160006101000a81548160ff02191690836006811115611b0057611aff612871565b5b02179055507fec3ae4350812c56655d3ac5aea7ecc17434d05fb3571eca3e293b924ff1873328484604051611b369291906130db565b60405180910390a150505050565b6060611bac6001600085815260200190815260200160002060008473ffffffffffffffffffffffffffffffffffffffff1673ffffffffffffffffffffffffffffffffffffffff16815260200190815260200160002060009054906101000a900460ff16611581565b905092915050565b60016020528160005260406000206020528060005260406000206000915091509054906101000a900460ff1681565b60008060046000815480929190611bf99061313a565b919050559050806002600083815260200190815260200160002060000181905550336002600083815260200190815260200160002060030160006101000a81548173ffffffffffffffffffffffffffffffffffffffff021916908373ffffffffffffffffffffffffffffffffffffffff16021790555060026000828152602001908152602001600020600401339080600181540180825580915050600190039060005260206000200160009091909190916101000a81548173ffffffffffffffffffffffffffffffffffffffff021916908373ffffffffffffffffffffffffffffffffffffffff16021790555060006002600083815260200190815260200160002060050160006101000a81548160ff02191690836006811115611d2057611d1f612871565b5b021790555060016003600083815260200190815260200160002060006101000a81548160ff021916908315150217905550600180600083815260200190815260200160002060003373ffffffffffffffffffffffffffffffffffffffff1673ffffffffffffffffffffffffffffffffffffffff16815260200190815260200160002060006101000a81548160ff02191690836004811115611dc457611dc3612871565b5b02179055507f73e014c0a076665d9511a27e878fadccb6d7171f5754ba1167a670023760b0158133604051611dfa929190613183565b60405180910390a18091505090565b816002806004811115611e1f57611e1e612871565b5b6001600084815260200190815260200160002060003373ffffffffffffffffffffffffffffffffffffffff1673ffffffffffffffffffffffffffffffffffffffff16815260200190815260200160002060009054906101000a900460ff166004811115611e8f57611e8e612871565b5b14611ecf576040517f08c379a0000000000000000000000000000000000000000000000000000000008152600401611ec690612c57565b60405180910390fd5b6003600085815260200190815260200160002060009054906101000a900460ff16611f2f576040517f08c379a0000000000000000000000000000000000000000000000000000000008152600401611f2690612afc565b60405180910390fd5b3373ffffffffffffffffffffffffffffffffffffffff166002600086815260200190815260200160002060030160009054906101000a900473ffffffffffffffffffffffffffffffffffffffff1673ffffffffffffffffffffffffffffffffffffffff1614611fd3576040517f08c379a0000000000000000000000000000000000000000000000000000000008152600401611fca906131f8565b60405180910390fd5b600280600086815260200190815260200160002060050160006101000a81548160ff0219169083600681111561200c5761200b612871565b5b02179055508260026000868152602001908152602001600020600201908051906020019061203b92919061209a565b507fec3ae4350812c56655d3ac5aea7ecc17434d05fb3571eca3e293b924ff187332848460405160200161206f9190613264565b60405160208183030381529060405260405161208c9291906130db565b60405180910390a150505050565b8280546120a690612fd1565b90600052602060002090601f0160209004810192826120c8576000855561210f565b82601f106120e157805160ff191683800117855561210f565b8280016001018555821561210f579182015b8281111561210e5782518255916020019190600101906120f3565b5b50905061211c9190612120565b5090565b5b80821115612139576000816000905550600101612121565b5090565b6000604051905090565b600080fd5b600080fd5b6000819050919050565b61216481612151565b811461216f57600080fd5b50565b6000813590506121818161215b565b92915050565b60006020828403121561219d5761219c612147565b5b60006121ab84828501612172565b91505092915050565b600081519050919050565b600082825260208201905092915050565b60005b838110156121ee5780820151818401526020810190506121d3565b838111156121fd576000848401525b50505050565b6000601f19601f8301169050919050565b600061221f826121b4565b61222981856121bf565b93506122398185602086016121d0565b61224281612203565b840191505092915050565b600060208201905081810360008301526122678184612214565b905092915050565b600080fd5b600080fd5b7f4e487b7100000000000000000000000000000000000000000000000000000000600052604160045260246000fd5b6122b182612203565b810181811067ffffffffffffffff821117156122d0576122cf612279565b5b80604052505050565b60006122e361213d565b90506122ef82826122a8565b919050565b600067ffffffffffffffff82111561230f5761230e612279565b5b61231882612203565b9050602081019050919050565b82818337600083830152505050565b6000612347612342846122f4565b6122d9565b90508281526020810184848401111561236357612362612274565b5b61236e848285612325565b509392505050565b600082601f83011261238b5761238a61226f565b5b813561239b848260208601612334565b91505092915050565b6000806000606084860312156123bd576123bc612147565b5b60006123cb86828701612172565b935050602084013567ffffffffffffffff8111156123ec576123eb61214c565b5b6123f886828701612376565b925050604084013567ffffffffffffffff8111156124195761241861214c565b5b61242586828701612376565b9150509250925092565b600073ffffffffffffffffffffffffffffffffffffffff82169050919050565b600061245a8261242f565b9050919050565b61246a8161244f565b811461247557600080fd5b50565b60008135905061248781612461565b92915050565b600080604083850312156124a4576124a3612147565b5b60006124b285828601612172565b92505060206124c385828601612478565b9150509250929050565b6124d681612151565b82525050565b60006020820190506124f160008301846124cd565b92915050565b600081519050919050565b600082825260208201905092915050565b6000819050602082019050919050565b61252c8161244f565b82525050565b600061253e8383612523565b60208301905092915050565b6000602082019050919050565b6000612562826124f7565b61256c8185612502565b935061257783612513565b8060005b838110156125a857815161258f8882612532565b975061259a8361254a565b92505060018101905061257b565b5085935050505092915050565b600060208201905081810360008301526125cf8184612557565b905092915050565b600081519050919050565b600082825260208201905092915050565b6000819050602082019050919050565b600082825260208201905092915050565b600061261f826121b4565b6126298185612603565b93506126398185602086016121d0565b61264281612203565b840191505092915050565b61265681612151565b82525050565b600060608301600083015184820360008601526126798282612614565b915050602083015184820360208601526126938282612614565b91505060408301516126a8604086018261264d565b508091505092915050565b60006126bf838361265c565b905092915050565b6000602082019050919050565b60006126df826125d7565b6126e981856125e2565b9350836020820285016126fb856125f3565b8060005b85811015612737578484038952815161271885826126b3565b9450612723836126c7565b925060208a019950506001810190506126ff565b50829750879550505050505092915050565b6000602082019050818103600083015261276381846126d4565b905092915050565b6007811061277857600080fd5b50565b60008135905061278a8161276b565b92915050565b6000602082840312156127a6576127a5612147565b5b60006127b48482850161277b565b91505092915050565b600581106127ca57600080fd5b50565b6000813590506127dc816127bd565b92915050565b6000806000606084860312156127fb576127fa612147565b5b600061280986828701612172565b935050602061281a86828701612478565b925050604061282b868287016127cd565b9150509250925092565b60006020828403121561284b5761284a612147565b5b6000612859848285016127cd565b91505092915050565b61286b8161244f565b82525050565b7f4e487b7100000000000000000000000000000000000000000000000000000000600052602160045260246000fd5b600781106128b1576128b0612871565b5b50565b60008190506128c2826128a0565b919050565b60006128d2826128b4565b9050919050565b6128e2816128c7565b82525050565b60006080820190506128fd60008301876124cd565b818103602083015261290f8186612214565b905061291e6040830185612862565b61292b60608301846128d9565b95945050505050565b60006020820190506129496000830184612862565b92915050565b60008115159050919050565b6129648161294f565b82525050565b600060208201905061297f600083018461295b565b92915050565b6000806040838503121561299c5761299b612147565b5b60006129aa85828601612172565b925050602083013567ffffffffffffffff8111156129cb576129ca61214c565b5b6129d785828601612376565b9150509250929050565b600581106129f2576129f1612871565b5b50565b6000819050612a03826129e1565b919050565b6000612a13826129f5565b9050919050565b612a2381612a08565b82525050565b6000602082019050612a3e6000830184612a1a565b92915050565b7f596f7520646f6e2774206f776e20746869732070726f64756374000000000000600082015250565b6000612a7a601a836121bf565b9150612a8582612a44565b602082019050919050565b60006020820190508181036000830152612aa981612a6d565b9050919050565b7f50726f64756374206e6f74207265676973746572656400000000000000000000600082015250565b6000612ae66016836121bf565b9150612af182612ab0565b602082019050919050565b60006020820190508181036000830152612b1581612ad9565b9050919050565b7f4f6e6c792063757272656e74206f776e65722063616e20636f6e6669726d207460008201527f72616e7366657200000000000000000000000000000000000000000000000000602082015250565b6000612b786027836121bf565b9150612b8382612b1c565b604082019050919050565b60006020820190508181036000830152612ba781612b6b565b9050919050565b6000606082019050612bc360008301866124cd565b612bd06020830185612862565b612bdd6040830184612862565b949350505050565b7f4163636573732064656e6965643a2077726f6e6720726f6c6520666f7220707260008201527f6f64756374000000000000000000000000000000000000000000000000000000602082015250565b6000612c416025836121bf565b9150612c4c82612be5565b604082019050919050565b60006020820190508181036000830152612c7081612c34565b9050919050565b6000606082019050612c8c60008301866124cd565b8181036020830152612c9e8185612214565b90508181036040830152612cb28184612214565b9050949350505050565b7f4f6e6c79206f776e65722063616e20696e697469617465207472616e73666572600082015250565b6000612cf26020836121bf565b9150612cfd82612cbc565b602082019050919050565b60006020820190508181036000830152612d2181612ce5565b9050919050565b7f496e76616c696420726563697069656e74000000000000000000000000000000600082015250565b6000612d5e6011836121bf565b9150612d6982612d28565b602082019050919050565b60006020820190508181036000830152612d8d81612d51565b9050919050565b7f4d757374207472616e7366657220746f204d616e756661637475726572000000600082015250565b6000612dca601d836121bf565b9150612dd582612d94565b602082019050919050565b60006020820190508181036000830152612df981612dbd565b9050919050565b7f4d757374207472616e7366657220746f2052657461696c657200000000000000600082015250565b6000612e366019836121bf565b9150612e4182612e00565b602082019050919050565b60006020820190508181036000830152612e6581612e29565b9050919050565b7f4d757374207472616e7366657220746f20436f6e73756d657200000000000000600082015250565b6000612ea26019836121bf565b9150612ead82612e6c565b602082019050919050565b60006020820190508181036000830152612ed181612e95565b9050919050565b7f5472616e73666572206e6f7420616c6c6f776564206265747765656e20000000815250565b600081905092915050565b6000612f14826121b4565b612f1e8185612efe565b9350612f2e8185602086016121d0565b80840191505092915050565b7f20616e6420000000000000000000000000000000000000000000000000000000815250565b6000612f6b82612ed8565b601d82019150612f7b8285612f09565b9150612f8682612f3a565b600582019150612f968284612f09565b91508190509392505050565b7f4e487b7100000000000000000000000000000000000000000000000000000000600052602260045260246000fd5b60006002820490506001821680612fe957607f821691505b60208210811415612ffd57612ffc612fa2565b5b50919050565b7f4f6e6c79206f776e65722063616e2061737369676e20726f6c65730000000000600082015250565b6000613039601b836121bf565b915061304482613003565b602082019050919050565b600060208201905081810360008301526130688161302c565b9050919050565b7f4f6e6c79206f776e65722063616e206c6f67206d616e75666163747572696e67600082015250565b60006130a56020836121bf565b91506130b08261306f565b602082019050919050565b600060208201905081810360008301526130d481613098565b9050919050565b60006040820190506130f060008301856124cd565b81810360208301526131028184612214565b90509392505050565b7f4e487b7100000000000000000000000000000000000000000000000000000000600052601160045260246000fd5b600061314582612151565b91507fffffffffffffffffffffffffffffffffffffffffffffffffffffffffffffffff8214156131785761317761310b565b5b600182019050919050565b600060408201905061319860008301856124cd565b6131a56020830184612862565b9392505050565b7f4f6e6c79206f776e65722063616e20766572696679207175616c697479000000600082015250565b60006131e2601d836121bf565b91506131ed826131ac565b602082019050919050565b60006020820190508181036000830152613211816131d5565b9050919050565b7f56657269666965643a2000000000000000000000000000000000000000000000600082015250565b600061324e600a83612efe565b915061325982613218565b600a82019050919050565b600061326f82613241565b915061327b8284612f09565b91508190509291505056fea2646970667358221220d52bc55c60a15e6c54024bca88af331532104cc018c444d2c8c836d5e82e296f64736f6c634300080c0033",
					"opcodes": "PUSH1 0x80 PUSH1 0x40 MSTORE PUSH1 0x1 PUSH1 0x4 SSTORE CALLVALUE DUP1 ISZERO PUSH3 0x16 JUMPI PUSH1 0x0 DUP1 REVERT JUMPDEST POP PUSH1 0x40 MLOAD PUSH3 0x34E1 CODESIZE SUB DUP1 PUSH3 0x34E1 DUP4 CODECOPY DUP2 DUP2 ADD PUSH1 0x40 MSTORE DUP2 ADD SWAP1 PUSH3 0x3C SWAP2 SWAP1 PUSH3 0x160 JUMP JUMPDEST PUSH1 0x0 PUSH20 0xFFFFFFFFFFFFFFFFFFFFFFFFFFFFFFFFFFFFFFFF AND DUP2 PUSH20 0xFFFFFFFFFFFFFFFFFFFFFFFFFFFFFFFFFFFFFFFF AND EQ ISZERO PUSH3 0xAF JUMPI PUSH1 0x40 MLOAD PUSH32 0x8C379A000000000000000000000000000000000000000000000000000000000 DUP2 MSTORE PUSH1 0x4 ADD PUSH3 0xA6 SWAP1 PUSH3 0x1F3 JUMP JUMPDEST PUSH1 0x40 MLOAD DUP1 SWAP2 SUB SWAP1 REVERT JUMPDEST CALLER PUSH1 0x0 DUP1 PUSH2 0x100 EXP DUP2 SLOAD DUP2 PUSH20 0xFFFFFFFFFFFFFFFFFFFFFFFFFFFFFFFFFFFFFFFF MUL NOT AND SWAP1 DUP4 PUSH20 0xFFFFFFFFFFFFFFFFFFFFFFFFFFFFFFFFFFFFFFFF AND MUL OR SWAP1 SSTORE POP POP PUSH3 0x215 JUMP JUMPDEST PUSH1 0x0 DUP1 REVERT JUMPDEST PUSH1 0x0 PUSH20 0xFFFFFFFFFFFFFFFFFFFFFFFFFFFFFFFFFFFFFFFF DUP3 AND SWAP1 POP SWAP2 SWAP1 POP JUMP JUMPDEST PUSH1 0x0 PUSH3 0x128 DUP3 PUSH3 0xFB JUMP JUMPDEST SWAP1 POP SWAP2 SWAP1 POP JUMP JUMPDEST PUSH3 0x13A DUP2 PUSH3 0x11B JUMP JUMPDEST DUP2 EQ PUSH3 0x146 JUMPI PUSH1 0x0 DUP1 REVERT JUMPDEST POP JUMP JUMPDEST PUSH1 0x0 DUP2 MLOAD SWAP1 POP PUSH3 0x15A DUP2 PUSH3 0x12F JUMP JUMPDEST SWAP3 SWAP2 POP POP JUMP JUMPDEST PUSH1 0x0 PUSH1 0x20 DUP3 DUP5 SUB SLT ISZERO PUSH3 0x179 JUMPI PUSH3 0x178 PUSH3 0xF6 JUMP JUMPDEST JUMPDEST PUSH1 0x0 PUSH3 0x189 DUP5 DUP3 DUP6 ADD PUSH3 0x149 JUMP JUMPDEST SWAP2 POP POP SWAP3 SWAP2 POP POP JUMP JUMPDEST PUSH1 0x0 DUP3 DUP3 MSTORE PUSH1 0x20 DUP3 ADD SWAP1 POP SWAP3 SWAP2 POP POP JUMP JUMPDEST PUSH32 0x496E76616C6964206164647265737320696E7075747465640000000000000000 PUSH1 0x0 DUP3 ADD MSTORE POP JUMP JUMPDEST PUSH1 0x0 PUSH3 0x1DB PUSH1 0x18 DUP4 PUSH3 0x192 JUMP JUMPDEST SWAP2 POP PUSH3 0x1E8 DUP3 PUSH3 0x1A3 JUMP JUMPDEST PUSH1 0x20 DUP3 ADD SWAP1 POP SWAP2 SWAP1 POP JUMP JUMPDEST PUSH1 0x0 PUSH1 0x20 DUP3 ADD SWAP1 POP DUP2 DUP2 SUB PUSH1 0x0 DUP4 ADD MSTORE PUSH3 0x20E DUP2 PUSH3 0x1CC JUMP JUMPDEST SWAP1 POP SWAP2 SWAP1 POP JUMP JUMPDEST PUSH2 0x32BC DUP1 PUSH3 0x225 PUSH1 0x0 CODECOPY PUSH1 0x0 RETURN INVALID PUSH1 0x80 PUSH1 0x40 MSTORE CALLVALUE DUP1 ISZERO PUSH2 0x10 JUMPI PUSH1 0x0 DUP1 REVERT JUMPDEST POP PUSH1 0x4 CALLDATASIZE LT PUSH2 0x121 JUMPI PUSH1 0x0 CALLDATALOAD PUSH1 0xE0 SHR DUP1 PUSH4 0x7946BB0B GT PUSH2 0xAD JUMPI DUP1 PUSH4 0xA552811B GT PUSH2 0x71 JUMPI DUP1 PUSH4 0xA552811B EQ PUSH2 0x355 JUMPI DUP1 PUSH4 0xCB3CC377 EQ PUSH2 0x371 JUMPI DUP1 PUSH4 0xDA9A6F3E EQ PUSH2 0x3A1 JUMPI DUP1 PUSH4 0xDFD92F8A EQ PUSH2 0x3D1 JUMPI DUP1 PUSH4 0xE2F94B56 EQ PUSH2 0x3EF JUMPI PUSH2 0x121 JUMP JUMPDEST DUP1 PUSH4 0x7946BB0B EQ PUSH2 0x274 JUMPI DUP1 PUSH4 0x7ACC0B20 EQ PUSH2 0x2A4 JUMPI DUP1 PUSH4 0x7ACE341B EQ PUSH2 0x2D7 JUMPI DUP1 PUSH4 0x8DA5CB5B EQ PUSH2 0x307 JUMPI DUP1 PUSH4 0x8FC15DC3 EQ PUSH2 0x325 JUMPI PUSH2 0x121 JUMP JUMPDEST DUP1 PUSH4 0x4DE91A63 GT PUSH2 0xF4 JUMPI DUP1 PUSH4 0x4DE91A63 EQ PUSH2 0x1AA JUMPI DUP1 PUSH4 0x57A096A1 EQ PUSH2 0x1C8 JUMPI DUP1 PUSH4 0x680A9283 EQ PUSH2 0x1F8 JUMPI DUP1 PUSH4 0x6D7B7FC9 EQ PUSH2 0x228 JUMPI DUP1 PUSH4 0x6DB0168F EQ PUSH2 0x258 JUMPI PUSH2 0x121 JUMP JUMPDEST DUP1 PUSH4 0x3F6DFBC EQ PUSH2 0x126 JUMPI DUP1 PUSH4 0x2C48E7DB EQ PUSH2 0x156 JUMPI DUP1 PUSH4 0x3010CDA7 EQ PUSH2 0x172 JUMPI DUP1 PUSH4 0x3A371B8E EQ PUSH2 0x18E JUMPI JUMPDEST PUSH1 0x0 DUP1 REVERT JUMPDEST PUSH2 0x140 PUSH1 0x4 DUP1 CALLDATASIZE SUB DUP2 ADD SWAP1 PUSH2 0x13B SWAP2 SWAP1 PUSH2 0x2187 JUMP JUMPDEST PUSH2 0x40B JUMP JUMPDEST PUSH1 0x40 MLOAD PUSH2 0x14D SWAP2 SWAP1 PUSH2 0x224D JUMP JUMPDEST PUSH1 0x40 MLOAD DUP1 SWAP2 SUB SWAP1 RETURN JUMPDEST PUSH2 0x170 PUSH1 0x4 DUP1 CALLDATASIZE SUB DUP2 ADD SWAP1 PUSH2 0x16B SWAP2 SWAP1 PUSH2 0x2187 JUMP JUMPDEST PUSH2 0x4E4 JUMP JUMPDEST STOP JUMPDEST PUSH2 0x18C PUSH1 0x4 DUP1 CALLDATASIZE SUB DUP2 ADD SWAP1 PUSH2 0x187 SWAP2 SWAP1 PUSH2 0x23A4 JUMP JUMPDEST PUSH2 0x665 JUMP JUMPDEST STOP JUMPDEST PUSH2 0x1A8 PUSH1 0x4 DUP1 CALLDATASIZE SUB DUP2 ADD SWAP1 PUSH2 0x1A3 SWAP2 SWAP1 PUSH2 0x248D JUMP JUMPDEST PUSH2 0x956 JUMP JUMPDEST STOP JUMPDEST PUSH2 0x1B2 PUSH2 0xF6D JUMP JUMPDEST PUSH1 0x40 MLOAD PUSH2 0x1BF SWAP2 SWAP1 PUSH2 0x24DC JUMP JUMPDEST PUSH1 0x40 MLOAD DUP1 SWAP2 SUB SWAP1 RETURN JUMPDEST PUSH2 0x1E2 PUSH1 0x4 DUP1 CALLDATASIZE SUB DUP2 ADD SWAP1 PUSH2 0x1DD SWAP2 SWAP1 PUSH2 0x2187 JUMP JUMPDEST PUSH2 0xF73 JUMP JUMPDEST PUSH1 0x40 MLOAD PUSH2 0x1EF SWAP2 SWAP1 PUSH2 0x25B5 JUMP JUMPDEST PUSH1 0x40 MLOAD DUP1 SWAP2 SUB SWAP1 RETURN JUMPDEST PUSH2 0x212 PUSH1 0x4 DUP1 CALLDATASIZE SUB DUP2 ADD SWAP1 PUSH2 0x20D SWAP2 SWAP1 PUSH2 0x2187 JUMP JUMPDEST PUSH2 0x1017 JUMP JUMPDEST PUSH1 0x40 MLOAD PUSH2 0x21F SWAP2 SWAP1 PUSH2 0x2749 JUMP JUMPDEST PUSH1 0x40 MLOAD DUP1 SWAP2 SUB SWAP1 RETURN JUMPDEST PUSH2 0x242 PUSH1 0x4 DUP1 CALLDATASIZE SUB DUP2 ADD SWAP1 PUSH2 0x23D SWAP2 SWAP1 PUSH2 0x2790 JUMP JUMPDEST PUSH2 0x11BA JUMP JUMPDEST PUSH1 0x40 MLOAD PUSH2 0x24F SWAP2 SWAP1 PUSH2 0x224D JUMP JUMPDEST PUSH1 0x40 MLOAD DUP1 SWAP2 SUB SWAP1 RETURN JUMPDEST PUSH2 0x272 PUSH1 0x4 DUP1 CALLDATASIZE SUB DUP2 ADD SWAP1 PUSH2 0x26D SWAP2 SWAP1 PUSH2 0x27E2 JUMP JUMPDEST PUSH2 0x1476 JUMP JUMPDEST STOP JUMPDEST PUSH2 0x28E PUSH1 0x4 DUP1 CALLDATASIZE SUB DUP2 ADD SWAP1 PUSH2 0x289 SWAP2 SWAP1 PUSH2 0x2835 JUMP JUMPDEST PUSH2 0x1581 JUMP JUMPDEST PUSH1 0x40 MLOAD PUSH2 0x29B SWAP2 SWAP1 PUSH2 0x224D JUMP JUMPDEST PUSH1 0x40 MLOAD DUP1 SWAP2 SUB SWAP1 RETURN JUMPDEST PUSH2 0x2BE PUSH1 0x4 DUP1 CALLDATASIZE SUB DUP2 ADD SWAP1 PUSH2 0x2B9 SWAP2 SWAP1 PUSH2 0x2187 JUMP JUMPDEST PUSH2 0x1768 JUMP JUMPDEST PUSH1 0x40 MLOAD PUSH2 0x2CE SWAP5 SWAP4 SWAP3 SWAP2 SWAP1 PUSH2 0x28E8 JUMP JUMPDEST PUSH1 0x40 MLOAD DUP1 SWAP2 SUB SWAP1 RETURN JUMPDEST PUSH2 0x2F1 PUSH1 0x4 DUP1 CALLDATASIZE SUB DUP2 ADD SWAP1 PUSH2 0x2EC SWAP2 SWAP1 PUSH2 0x2187 JUMP JUMPDEST PUSH2 0x184D JUMP JUMPDEST PUSH1 0x40 MLOAD PUSH2 0x2FE SWAP2 SWAP1 PUSH2 0x2934 JUMP JUMPDEST PUSH1 0x40 MLOAD DUP1 SWAP2 SUB SWAP1 RETURN JUMPDEST PUSH2 0x30F PUSH2 0x188D JUMP JUMPDEST PUSH1 0x40 MLOAD PUSH2 0x31C SWAP2 SWAP1 PUSH2 0x2934 JUMP JUMPDEST PUSH1 0x40 MLOAD DUP1 SWAP2 SUB SWAP1 RETURN JUMPDEST PUSH2 0x33F PUSH1 0x4 DUP1 CALLDATASIZE SUB DUP2 ADD SWAP1 PUSH2 0x33A SWAP2 SWAP1 PUSH2 0x2187 JUMP JUMPDEST PUSH2 0x18B1 JUMP JUMPDEST PUSH1 0x40 MLOAD PUSH2 0x34C SWAP2 SWAP1 PUSH2 0x296A JUMP JUMPDEST PUSH1 0x40 MLOAD DUP1 SWAP2 SUB SWAP1 RETURN JUMPDEST PUSH2 0x36F PUSH1 0x4 DUP1 CALLDATASIZE SUB DUP2 ADD SWAP1 PUSH2 0x36A SWAP2 SWAP1 PUSH2 0x2985 JUMP JUMPDEST PUSH2 0x18D1 JUMP JUMPDEST STOP JUMPDEST PUSH2 0x38B PUSH1 0x4 DUP1 CALLDATASIZE SUB DUP2 ADD SWAP1 PUSH2 0x386 SWAP2 SWAP1 PUSH2 0x248D JUMP JUMPDEST PUSH2 0x1B44 JUMP JUMPDEST PUSH1 0x40 MLOAD PUSH2 0x398 SWAP2 SWAP1 PUSH2 0x224D JUMP JUMPDEST PUSH1 0x40 MLOAD DUP1 SWAP2 SUB SWAP1 RETURN JUMPDEST PUSH2 0x3BB PUSH1 0x4 DUP1 CALLDATASIZE SUB DUP2 ADD SWAP1 PUSH2 0x3B6 SWAP2 SWAP1 PUSH2 0x248D JUMP JUMPDEST PUSH2 0x1BB4 JUMP JUMPDEST PUSH1 0x40 MLOAD PUSH2 0x3C8 SWAP2 SWAP1 PUSH2 0x2A29 JUMP JUMPDEST PUSH1 0x40 MLOAD DUP1 SWAP2 SUB SWAP1 RETURN JUMPDEST PUSH2 0x3D9 PUSH2 0x1BE3 JUMP JUMPDEST PUSH1 0x40 MLOAD PUSH2 0x3E6 SWAP2 SWAP1 PUSH2 0x24DC JUMP JUMPDEST PUSH1 0x40 MLOAD DUP1 SWAP2 SUB SWAP1 RETURN JUMPDEST PUSH2 0x409 PUSH1 0x4 DUP1 CALLDATASIZE SUB DUP2 ADD SWAP1 PUSH2 0x404 SWAP2 SWAP1 PUSH2 0x2985 JUMP JUMPDEST PUSH2 0x1E09 JUMP JUMPDEST STOP JUMPDEST PUSH1 0x60 CALLER PUSH20 0xFFFFFFFFFFFFFFFFFFFFFFFFFFFFFFFFFFFFFFFF AND PUSH1 0x2 PUSH1 0x0 DUP5 DUP2 MSTORE PUSH1 0x20 ADD SWAP1 DUP2 MSTORE PUSH1 0x20 ADD PUSH1 0x0 KECCAK256 PUSH1 0x3 ADD PUSH1 0x0 SWAP1 SLOAD SWAP1 PUSH2 0x100 EXP SWAP1 DIV PUSH20 0xFFFFFFFFFFFFFFFFFFFFFFFFFFFFFFFFFFFFFFFF AND PUSH20 0xFFFFFFFFFFFFFFFFFFFFFFFFFFFFFFFFFFFFFFFF AND EQ PUSH2 0x4B1 JUMPI PUSH1 0x40 MLOAD PUSH32 0x8C379A000000000000000000000000000000000000000000000000000000000 DUP2 MSTORE PUSH1 0x4 ADD PUSH2 0x4A8 SWAP1 PUSH2 0x2A90 JUMP JUMPDEST PUSH1 0x40 MLOAD DUP1 SWAP2 SUB SWAP1 REVERT JUMPDEST PUSH2 0x4DD PUSH1 0x2 PUSH1 0x0 DUP5 DUP2 MSTORE PUSH1 0x20 ADD SWAP1 DUP2 MSTORE PUSH1 0x20 ADD PUSH1 0x0 KECCAK256 PUSH1 0x5 ADD PUSH1 0x0 SWAP1 SLOAD SWAP1 PUSH2 0x100 EXP SWAP1 DIV PUSH1 0xFF AND PUSH2 0x11BA JUMP JUMPDEST SWAP1 POP SWAP2 SWAP1 POP JUMP JUMPDEST PUSH1 0x3 PUSH1 0x0 DUP3 DUP2 MSTORE PUSH1 0x20 ADD SWAP1 DUP2 MSTORE PUSH1 0x20 ADD PUSH1 0x0 KECCAK256 PUSH1 0x0 SWAP1 SLOAD SWAP1 PUSH2 0x100 EXP SWAP1 DIV PUSH1 0xFF AND PUSH2 0x544 JUMPI PUSH1 0x40 MLOAD PUSH32 0x8C379A000000000000000000000000000000000000000000000000000000000 DUP2 MSTORE PUSH1 0x4 ADD PUSH2 0x53B SWAP1 PUSH2 0x2AFC JUMP JUMPDEST PUSH1 0x40 MLOAD DUP1 SWAP2 SUB SWAP1 REVERT JUMPDEST CALLER PUSH20 0xFFFFFFFFFFFFFFFFFFFFFFFFFFFFFFFFFFFFFFFF AND PUSH1 0x2 PUSH1 0x0 DUP4 DUP2 MSTORE PUSH1 0x20 ADD SWAP1 DUP2 MSTORE PUSH1 0x20 ADD PUSH1 0x0 KECCAK256 PUSH1 0x3 ADD PUSH1 0x0 SWAP1 SLOAD SWAP1 PUSH2 0x100 EXP SWAP1 DIV PUSH20 0xFFFFFFFFFFFFFFFFFFFFFFFFFFFFFFFFFFFFFFFF AND PUSH20 0xFFFFFFFFFFFFFFFFFFFFFFFFFFFFFFFFFFFFFFFF AND EQ PUSH2 0x5E8 JUMPI PUSH1 0x40 MLOAD PUSH32 0x8C379A000000000000000000000000000000000000000000000000000000000 DUP2 MSTORE PUSH1 0x4 ADD PUSH2 0x5DF SWAP1 PUSH2 0x2B8E JUMP JUMPDEST PUSH1 0x40 MLOAD DUP1 SWAP2 SUB SWAP1 REVERT JUMPDEST PUSH1 0x6 PUSH1 0x2 PUSH1 0x0 DUP4 DUP2 MSTORE PUSH1 0x20 ADD SWAP1 DUP2 MSTORE PUSH1 0x20 ADD PUSH1 0x0 KECCAK256 PUSH1 0x5 ADD PUSH1 0x0 PUSH2 0x100 EXP DUP2 SLOAD DUP2 PUSH1 0xFF MUL NOT AND SWAP1 DUP4 PUSH1 0x6 DUP2 GT ISZERO PUSH2 0x622 JUMPI PUSH2 0x621 PUSH2 0x2871 JUMP JUMPDEST JUMPDEST MUL OR SWAP1 SSTORE POP PUSH32 0x16B85F49BF01212961345D3016C9A531894ACCF62EB7680F2045D79185CC0EC0 DUP2 CALLER CALLER PUSH1 0x40 MLOAD PUSH2 0x65A SWAP4 SWAP3 SWAP2 SWAP1 PUSH2 0x2BAE JUMP JUMPDEST PUSH1 0x40 MLOAD DUP1 SWAP2 SUB SWAP1 LOG1 POP JUMP JUMPDEST DUP3 PUSH1 0x1 DUP1 PUSH1 0x4 DUP2 GT ISZERO PUSH2 0x67B JUMPI PUSH2 0x67A PUSH2 0x2871 JUMP JUMPDEST JUMPDEST PUSH1 0x1 PUSH1 0x0 DUP5 DUP2 MSTORE PUSH1 0x20 ADD SWAP1 DUP2 MSTORE PUSH1 0x20 ADD PUSH1 0x0 KECCAK256 PUSH1 0x0 CALLER PUSH20 0xFFFFFFFFFFFFFFFFFFFFFFFFFFFFFFFFFFFFFFFF AND PUSH20 0xFFFFFFFFFFFFFFFFFFFFFFFFFFFFFFFFFFFFFFFF AND DUP2 MSTORE PUSH1 0x20 ADD SWAP1 DUP2 MSTORE PUSH1 0x20 ADD PUSH1 0x0 KECCAK256 PUSH1 0x0 SWAP1 SLOAD SWAP1 PUSH2 0x100 EXP SWAP1 DIV PUSH1 0xFF AND PUSH1 0x4 DUP2 GT ISZERO PUSH2 0x6EB JUMPI PUSH2 0x6EA PUSH2 0x2871 JUMP JUMPDEST JUMPDEST EQ PUSH2 0x72B JUMPI PUSH1 0x40 MLOAD PUSH32 0x8C379A000000000000000000000000000000000000000000000000000000000 DUP2 MSTORE PUSH1 0x4 ADD PUSH2 0x722 SWAP1 PUSH2 0x2C57 JUMP JUMPDEST PUSH1 0x40 MLOAD DUP1 SWAP2 SUB SWAP1 REVERT JUMPDEST PUSH1 0x3 PUSH1 0x0 DUP7 DUP2 MSTORE PUSH1 0x20 ADD SWAP1 DUP2 MSTORE PUSH1 0x20 ADD PUSH1 0x0 KECCAK256 PUSH1 0x0 SWAP1 SLOAD SWAP1 PUSH2 0x100 EXP SWAP1 DIV PUSH1 0xFF AND PUSH2 0x78B JUMPI PUSH1 0x40 MLOAD PUSH32 0x8C379A000000000000000000000000000000000000000000000000000000000 DUP2 MSTORE PUSH1 0x4 ADD PUSH2 0x782 SWAP1 PUSH2 0x2AFC JUMP JUMPDEST PUSH1 0x40 MLOAD DUP1 SWAP2 SUB SWAP1 REVERT JUMPDEST CALLER PUSH20 0xFFFFFFFFFFFFFFFFFFFFFFFFFFFFFFFFFFFFFFFF AND PUSH1 0x2 PUSH1 0x0 DUP8 DUP2 MSTORE PUSH1 0x20 ADD SWAP1 DUP2 MSTORE PUSH1 0x20 ADD PUSH1 0x0 KECCAK256 PUSH1 0x3 ADD PUSH1 0x0 SWAP1 SLOAD SWAP1 PUSH2 0x100 EXP SWAP1 DIV PUSH20 0xFFFFFFFFFFFFFFFFFFFFFFFFFFFFFFFFFFFFFFFF AND PUSH20 0xFFFFFFFFFFFFFFFFFFFFFFFFFFFFFFFFFFFFFFFF AND EQ PUSH2 0x82F JUMPI PUSH1 0x40 MLOAD PUSH32 0x8C379A000000000000000000000000000000000000000000000000000000000 DUP2 MSTORE PUSH1 0x4 ADD PUSH2 0x826 SWAP1 PUSH2 0x2A90 JUMP JUMPDEST PUSH1 0x40 MLOAD DUP1 SWAP2 SUB SWAP1 REVERT JUMPDEST PUSH1 0x0 PUSH1 0x40 MLOAD DUP1 PUSH1 0x60 ADD PUSH1 0x40 MSTORE DUP1 DUP7 DUP2 MSTORE PUSH1 0x20 ADD DUP6 DUP2 MSTORE PUSH1 0x20 ADD TIMESTAMP DUP2 MSTORE POP SWAP1 POP PUSH1 0x2 PUSH1 0x0 DUP8 DUP2 MSTORE PUSH1 0x20 ADD SWAP1 DUP2 MSTORE PUSH1 0x20 ADD PUSH1 0x0 KECCAK256 PUSH1 0x1 ADD DUP2 SWAP1 DUP1 PUSH1 0x1 DUP2 SLOAD ADD DUP1 DUP3 SSTORE DUP1 SWAP2 POP POP PUSH1 0x1 SWAP1 SUB SWAP1 PUSH1 0x0 MSTORE PUSH1 0x20 PUSH1 0x0 KECCAK256 SWAP1 PUSH1 0x3 MUL ADD PUSH1 0x0 SWAP1 SWAP2 SWAP1 SWAP2 SWAP1 SWAP2 POP PUSH1 0x0 DUP3 ADD MLOAD DUP2 PUSH1 0x0 ADD SWAP1 DUP1 MLOAD SWAP1 PUSH1 0x20 ADD SWAP1 PUSH2 0x8AA SWAP3 SWAP2 SWAP1 PUSH2 0x209A JUMP JUMPDEST POP PUSH1 0x20 DUP3 ADD MLOAD DUP2 PUSH1 0x1 ADD SWAP1 DUP1 MLOAD SWAP1 PUSH1 0x20 ADD SWAP1 PUSH2 0x8C7 SWAP3 SWAP2 SWAP1 PUSH2 0x209A JUMP JUMPDEST POP PUSH1 0x40 DUP3 ADD MLOAD DUP2 PUSH1 0x2 ADD SSTORE POP POP PUSH1 0x1 PUSH1 0x2 PUSH1 0x0 DUP9 DUP2 MSTORE PUSH1 0x20 ADD SWAP1 DUP2 MSTORE PUSH1 0x20 ADD PUSH1 0x0 KECCAK256 PUSH1 0x5 ADD PUSH1 0x0 PUSH2 0x100 EXP DUP2 SLOAD DUP2 PUSH1 0xFF MUL NOT AND SWAP1 DUP4 PUSH1 0x6 DUP2 GT ISZERO PUSH2 0x90E JUMPI PUSH2 0x90D PUSH2 0x2871 JUMP JUMPDEST JUMPDEST MUL OR SWAP1 SSTORE POP PUSH32 0x2E9ABB49E8B9A29BA75D12B719DF776B1B523EAC921C6F1E773272FF48455BB8 DUP7 DUP7 DUP7 PUSH1 0x40 MLOAD PUSH2 0x946 SWAP4 SWAP3 SWAP2 SWAP1 PUSH2 0x2C77 JUMP JUMPDEST PUSH1 0x40 MLOAD DUP1 SWAP2 SUB SWAP1 LOG1 POP POP POP POP POP POP JUMP JUMPDEST PUSH1 0x3 PUSH1 0x0 DUP4 DUP2 MSTORE PUSH1 0x20 ADD SWAP1 DUP2 MSTORE PUSH1 0x20 ADD PUSH1 0x0 KECCAK256 PUSH1 0x0 SWAP1 SLOAD SWAP1 PUSH2 0x100 EXP SWAP1 DIV PUSH1 0xFF AND PUSH2 0x9B6 JUMPI PUSH1 0x40 MLOAD PUSH32 0x8C379A000000000000000000000000000000000000000000000000000000000 DUP2 MSTORE PUSH1 0x4 ADD PUSH2 0x9AD SWAP1 PUSH2 0x2AFC JUMP JUMPDEST PUSH1 0x40 MLOAD DUP1 SWAP2 SUB SWAP1 REVERT JUMPDEST CALLER PUSH20 0xFFFFFFFFFFFFFFFFFFFFFFFFFFFFFFFFFFFFFFFF AND PUSH1 0x2 PUSH1 0x0 DUP5 DUP2 MSTORE PUSH1 0x20 ADD SWAP1 DUP2 MSTORE PUSH1 0x20 ADD PUSH1 0x0 KECCAK256 PUSH1 0x3 ADD PUSH1 0x0 SWAP1 SLOAD SWAP1 PUSH2 0x100 EXP SWAP1 DIV PUSH20 0xFFFFFFFFFFFFFFFFFFFFFFFFFFFFFFFFFFFFFFFF AND PUSH20 0xFFFFFFFFFFFFFFFFFFFFFFFFFFFFFFFFFFFFFFFF AND EQ PUSH2 0xA5A JUMPI PUSH1 0x40 MLOAD PUSH32 0x8C379A000000000000000000000000000000000000000000000000000000000 DUP2 MSTORE PUSH1 0x4 ADD PUSH2 0xA51 SWAP1 PUSH2 0x2D08 JUMP JUMPDEST PUSH1 0x40 MLOAD DUP1 SWAP2 SUB SWAP1 REVERT JUMPDEST PUSH1 0x0 PUSH20 0xFFFFFFFFFFFFFFFFFFFFFFFFFFFFFFFFFFFFFFFF AND DUP2 PUSH20 0xFFFFFFFFFFFFFFFFFFFFFFFFFFFFFFFFFFFFFFFF AND EQ ISZERO PUSH2 0xACA JUMPI PUSH1 0x40 MLOAD PUSH32 0x8C379A000000000000000000000000000000000000000000000000000000000 DUP2 MSTORE PUSH1 0x4 ADD PUSH2 0xAC1 SWAP1 PUSH2 0x2D74 JUMP JUMPDEST PUSH1 0x40 MLOAD DUP1 SWAP2 SUB SWAP1 REVERT JUMPDEST PUSH1 0x0 PUSH1 0x1 PUSH1 0x0 DUP5 DUP2 MSTORE PUSH1 0x20 ADD SWAP1 DUP2 MSTORE PUSH1 0x20 ADD PUSH1 0x0 KECCAK256 PUSH1 0x0 CALLER PUSH20 0xFFFFFFFFFFFFFFFFFFFFFFFFFFFFFFFFFFFFFFFF AND PUSH20 0xFFFFFFFFFFFFFFFFFFFFFFFFFFFFFFFFFFFFFFFF AND DUP2 MSTORE PUSH1 0x20 ADD SWAP1 DUP2 MSTORE PUSH1 0x20 ADD PUSH1 0x0 KECCAK256 PUSH1 0x0 SWAP1 SLOAD SWAP1 PUSH2 0x100 EXP SWAP1 DIV PUSH1 0xFF AND SWAP1 POP PUSH1 0x0 PUSH1 0x1 PUSH1 0x0 DUP6 DUP2 MSTORE PUSH1 0x20 ADD SWAP1 DUP2 MSTORE PUSH1 0x20 ADD PUSH1 0x0 KECCAK256 PUSH1 0x0 DUP5 PUSH20 0xFFFFFFFFFFFFFFFFFFFFFFFFFFFFFFFFFFFFFFFF AND PUSH20 0xFFFFFFFFFFFFFFFFFFFFFFFFFFFFFFFFFFFFFFFF AND DUP2 MSTORE PUSH1 0x20 ADD SWAP1 DUP2 MSTORE PUSH1 0x20 ADD PUSH1 0x0 KECCAK256 PUSH1 0x0 SWAP1 SLOAD SWAP1 PUSH2 0x100 EXP SWAP1 DIV PUSH1 0xFF AND SWAP1 POP PUSH1 0x1 PUSH1 0x4 DUP2 GT ISZERO PUSH2 0xBA2 JUMPI PUSH2 0xBA1 PUSH2 0x2871 JUMP JUMPDEST JUMPDEST DUP3 PUSH1 0x4 DUP2 GT ISZERO PUSH2 0xBB5 JUMPI PUSH2 0xBB4 PUSH2 0x2871 JUMP JUMPDEST JUMPDEST EQ ISZERO PUSH2 0xC27 JUMPI PUSH1 0x2 PUSH1 0x4 DUP2 GT ISZERO PUSH2 0xBCF JUMPI PUSH2 0xBCE PUSH2 0x2871 JUMP JUMPDEST JUMPDEST DUP2 PUSH1 0x4 DUP2 GT ISZERO PUSH2 0xBE2 JUMPI PUSH2 0xBE1 PUSH2 0x2871 JUMP JUMPDEST JUMPDEST EQ PUSH2 0xC22 JUMPI PUSH1 0x40 MLOAD PUSH32 0x8C379A000000000000000000000000000000000000000000000000000000000 DUP2 MSTORE PUSH1 0x4 ADD PUSH2 0xC19 SWAP1 PUSH2 0x2DE0 JUMP JUMPDEST PUSH1 0x40 MLOAD DUP1 SWAP2 SUB SWAP1 REVERT JUMPDEST PUSH2 0xE21 JUMP JUMPDEST PUSH1 0x2 PUSH1 0x4 DUP2 GT ISZERO PUSH2 0xC3B JUMPI PUSH2 0xC3A PUSH2 0x2871 JUMP JUMPDEST JUMPDEST DUP3 PUSH1 0x4 DUP2 GT ISZERO PUSH2 0xC4E JUMPI PUSH2 0xC4D PUSH2 0x2871 JUMP JUMPDEST JUMPDEST EQ ISZERO PUSH2 0xCC0 JUMPI PUSH1 0x3 PUSH1 0x4 DUP2 GT ISZERO PUSH2 0xC68 JUMPI PUSH2 0xC67 PUSH2 0x2871 JUMP JUMPDEST JUMPDEST DUP2 PUSH1 0x4 DUP2 GT ISZERO PUSH2 0xC7B JUMPI PUSH2 0xC7A PUSH2 0x2871 JUMP JUMPDEST JUMPDEST EQ PUSH2 0xCBB JUMPI PUSH1 0x40 MLOAD PUSH32 0x8C379A000000000000000000000000000000000000000000000000000000000 DUP2 MSTORE PUSH1 0x4 ADD PUSH2 0xCB2 SWAP1 PUSH2 0x2E4C JUMP JUMPDEST PUSH1 0x40 MLOAD DUP1 SWAP2 SUB SWAP1 REVERT JUMPDEST PUSH2 0xE20 JUMP JUMPDEST PUSH1 0x3 PUSH1 0x4 DUP2 GT ISZERO PUSH2 0xCD4 JUMPI PUSH2 0xCD3 PUSH2 0x2871 JUMP JUMPDEST JUMPDEST DUP3 PUSH1 0x4 DUP2 GT ISZERO PUSH2 0xCE7 JUMPI PUSH2 0xCE6 PUSH2 0x2871 JUMP JUMPDEST JUMPDEST EQ ISZERO PUSH2 0xD58 JUMPI PUSH1 0x4 DUP1 DUP2 GT ISZERO PUSH2 0xD00 JUMPI PUSH2 0xCFF PUSH2 0x2871 JUMP JUMPDEST JUMPDEST DUP2 PUSH1 0x4 DUP2 GT ISZERO PUSH2 0xD13 JUMPI PUSH2 0xD12 PUSH2 0x2871 JUMP JUMPDEST JUMPDEST EQ PUSH2 0xD53 JUMPI PUSH1 0x40 MLOAD PUSH32 0x8C379A000000000000000000000000000000000000000000000000000000000 DUP2 MSTORE PUSH1 0x4 ADD PUSH2 0xD4A SWAP1 PUSH2 0x2EB8 JUMP JUMPDEST PUSH1 0x40 MLOAD DUP1 SWAP2 SUB SWAP1 REVERT JUMPDEST PUSH2 0xE1F JUMP JUMPDEST PUSH1 0x4 DUP1 DUP2 GT ISZERO PUSH2 0xD6B JUMPI PUSH2 0xD6A PUSH2 0x2871 JUMP JUMPDEST JUMPDEST DUP3 PUSH1 0x4 DUP2 GT ISZERO PUSH2 0xD7E JUMPI PUSH2 0xD7D PUSH2 0x2871 JUMP JUMPDEST JUMPDEST EQ ISZERO PUSH2 0xE1E JUMPI PUSH1 0x4 DUP1 DUP2 GT ISZERO PUSH2 0xD97 JUMPI PUSH2 0xD96 PUSH2 0x2871 JUMP JUMPDEST JUMPDEST DUP2 PUSH1 0x4 DUP2 GT ISZERO PUSH2 0xDAA JUMPI PUSH2 0xDA9 PUSH2 0x2871 JUMP JUMPDEST JUMPDEST EQ PUSH2 0xE1D JUMPI PUSH2 0xDB8 DUP3 PUSH2 0x1581 JUMP JUMPDEST PUSH2 0xDC1 DUP3 PUSH2 0x1581 JUMP JUMPDEST PUSH1 0x40 MLOAD PUSH1 0x20 ADD PUSH2 0xDD2 SWAP3 SWAP2 SWAP1 PUSH2 0x2F60 JUMP JUMPDEST PUSH1 0x40 MLOAD PUSH1 0x20 DUP2 DUP4 SUB SUB DUP2 MSTORE SWAP1 PUSH1 0x40 MSTORE PUSH1 0x40 MLOAD PUSH32 0x8C379A000000000000000000000000000000000000000000000000000000000 DUP2 MSTORE PUSH1 0x4 ADD PUSH2 0xE14 SWAP2 SWAP1 PUSH2 0x224D JUMP JUMPDEST PUSH1 0x40 MLOAD DUP1 SWAP2 SUB SWAP1 REVERT JUMPDEST JUMPDEST JUMPDEST JUMPDEST JUMPDEST PUSH1 0x4 PUSH1 0x2 PUSH1 0x0 DUP7 DUP2 MSTORE PUSH1 0x20 ADD SWAP1 DUP2 MSTORE PUSH1 0x20 ADD PUSH1 0x0 KECCAK256 PUSH1 0x5 ADD PUSH1 0x0 PUSH2 0x100 EXP DUP2 SLOAD DUP2 PUSH1 0xFF MUL NOT AND SWAP1 DUP4 PUSH1 0x6 DUP2 GT ISZERO PUSH2 0xE5B JUMPI PUSH2 0xE5A PUSH2 0x2871 JUMP JUMPDEST JUMPDEST MUL OR SWAP1 SSTORE POP DUP3 PUSH1 0x2 PUSH1 0x0 DUP7 DUP2 MSTORE PUSH1 0x20 ADD SWAP1 DUP2 MSTORE PUSH1 0x20 ADD PUSH1 0x0 KECCAK256 PUSH1 0x3 ADD PUSH1 0x0 PUSH2 0x100 EXP DUP2 SLOAD DUP2 PUSH20 0xFFFFFFFFFFFFFFFFFFFFFFFFFFFFFFFFFFFFFFFF MUL NOT AND SWAP1 DUP4 PUSH20 0xFFFFFFFFFFFFFFFFFFFFFFFFFFFFFFFFFFFFFFFF AND MUL OR SWAP1 SSTORE POP PUSH1 0x2 PUSH1 0x0 DUP6 DUP2 MSTORE PUSH1 0x20 ADD SWAP1 DUP2 MSTORE PUSH1 0x20 ADD PUSH1 0x0 KECCAK256 PUSH1 0x4 ADD DUP4 SWAP1 DUP1 PUSH1 0x1 DUP2 SLOAD ADD DUP1 DUP3 SSTORE DUP1 SWAP2 POP POP PUSH1 0x1 SWAP1 SUB SWAP1 PUSH1 0x0 MSTORE PUSH1 0x20 PUSH1 0x0 KECCAK256 ADD PUSH1 0x0 SWAP1 SWAP2 SWAP1 SWAP2 SWAP1 SWAP2 PUSH2 0x100 EXP DUP2 SLOAD DUP2 PUSH20 0xFFFFFFFFFFFFFFFFFFFFFFFFFFFFFFFFFFFFFFFF MUL NOT AND SWAP1 DUP4 PUSH20 0xFFFFFFFFFFFFFFFFFFFFFFFFFFFFFFFFFFFFFFFF AND MUL OR SWAP1 SSTORE POP PUSH32 0x16B85F49BF01212961345D3016C9A531894ACCF62EB7680F2045D79185CC0EC0 DUP5 CALLER DUP6 PUSH1 0x40 MLOAD PUSH2 0xF5F SWAP4 SWAP3 SWAP2 SWAP1 PUSH2 0x2BAE JUMP JUMPDEST PUSH1 0x40 MLOAD DUP1 SWAP2 SUB SWAP1 LOG1 POP POP POP POP JUMP JUMPDEST PUSH1 0x4 SLOAD DUP2 JUMP JUMPDEST PUSH1 0x60 PUSH1 0x2 PUSH1 0x0 DUP4 DUP2 MSTORE PUSH1 0x20 ADD SWAP1 DUP2 MSTORE PUSH1 0x20 ADD PUSH1 0x0 KECCAK256 PUSH1 0x4 ADD DUP1 SLOAD DUP1 PUSH1 0x20 MUL PUSH1 0x20 ADD PUSH1 0x40 MLOAD SWAP1 DUP2 ADD PUSH1 0x40 MSTORE DUP1 SWAP3 SWAP2 SWAP1 DUP2 DUP2 MSTORE PUSH1 0x20 ADD DUP3 DUP1 SLOAD DUP1 ISZERO PUSH2 0x100B JUMPI PUSH1 0x20 MUL DUP3 ADD SWAP2 SWAP1 PUSH1 0x0 MSTORE PUSH1 0x20 PUSH1 0x0 KECCAK256 SWAP1 JUMPDEST DUP2 PUSH1 0x0 SWAP1 SLOAD SWAP1 PUSH2 0x100 EXP SWAP1 DIV PUSH20 0xFFFFFFFFFFFFFFFFFFFFFFFFFFFFFFFFFFFFFFFF AND PUSH20 0xFFFFFFFFFFFFFFFFFFFFFFFFFFFFFFFFFFFFFFFF AND DUP2 MSTORE PUSH1 0x20 ADD SWAP1 PUSH1 0x1 ADD SWAP1 DUP1 DUP4 GT PUSH2 0xFC1 JUMPI JUMPDEST POP POP POP POP POP SWAP1 POP SWAP2 SWAP1 POP JUMP JUMPDEST PUSH1 0x60 PUSH1 0x2 PUSH1 0x0 DUP4 DUP2 MSTORE PUSH1 0x20 ADD SWAP1 DUP2 MSTORE PUSH1 0x20 ADD PUSH1 0x0 KECCAK256 PUSH1 0x1 ADD DUP1 SLOAD DUP1 PUSH1 0x20 MUL PUSH1 0x20 ADD PUSH1 0x40 MLOAD SWAP1 DUP2 ADD PUSH1 0x40 MSTORE DUP1 SWAP3 SWAP2 SWAP1 DUP2 DUP2 MSTORE PUSH1 0x20 ADD PUSH1 0x0 SWAP1 JUMPDEST DUP3 DUP3 LT ISZERO PUSH2 0x11AF JUMPI DUP4 DUP3 SWAP1 PUSH1 0x0 MSTORE PUSH1 0x20 PUSH1 0x0 KECCAK256 SWAP1 PUSH1 0x3 MUL ADD PUSH1 0x40 MLOAD DUP1 PUSH1 0x60 ADD PUSH1 0x40 MSTORE SWAP1 DUP2 PUSH1 0x0 DUP3 ADD DUP1 SLOAD PUSH2 0x1082 SWAP1 PUSH2 0x2FD1 JUMP JUMPDEST DUP1 PUSH1 0x1F ADD PUSH1 0x20 DUP1 SWAP2 DIV MUL PUSH1 0x20 ADD PUSH1 0x40 MLOAD SWAP1 DUP2 ADD PUSH1 0x40 MSTORE DUP1 SWAP3 SWAP2 SWAP1 DUP2 DUP2 MSTORE PUSH1 0x20 ADD DUP3 DUP1 SLOAD PUSH2 0x10AE SWAP1 PUSH2 0x2FD1 JUMP JUMPDEST DUP1 ISZERO PUSH2 0x10FB JUMPI DUP1 PUSH1 0x1F LT PUSH2 0x10D0 JUMPI PUSH2 0x100 DUP1 DUP4 SLOAD DIV MUL DUP4 MSTORE SWAP2 PUSH1 0x20 ADD SWAP2 PUSH2 0x10FB JUMP JUMPDEST DUP3 ADD SWAP2 SWAP1 PUSH1 0x0 MSTORE PUSH1 0x20 PUSH1 0x0 KECCAK256 SWAP1 JUMPDEST DUP2 SLOAD DUP2 MSTORE SWAP1 PUSH1 0x1 ADD SWAP1 PUSH1 0x20 ADD DUP1 DUP4 GT PUSH2 0x10DE JUMPI DUP3 SWAP1 SUB PUSH1 0x1F AND DUP3 ADD SWAP2 JUMPDEST POP POP POP POP POP DUP2 MSTORE PUSH1 0x20 ADD PUSH1 0x1 DUP3 ADD DUP1 SLOAD PUSH2 0x1114 SWAP1 PUSH2 0x2FD1 JUMP JUMPDEST DUP1 PUSH1 0x1F ADD PUSH1 0x20 DUP1 SWAP2 DIV MUL PUSH1 0x20 ADD PUSH1 0x40 MLOAD SWAP1 DUP2 ADD PUSH1 0x40 MSTORE DUP1 SWAP3 SWAP2 SWAP1 DUP2 DUP2 MSTORE PUSH1 0x20 ADD DUP3 DUP1 SLOAD PUSH2 0x1140 SWAP1 PUSH2 0x2FD1 JUMP JUMPDEST DUP1 ISZERO PUSH2 0x118D JUMPI DUP1 PUSH1 0x1F LT PUSH2 0x1162 JUMPI PUSH2 0x100 DUP1 DUP4 SLOAD DIV MUL DUP4 MSTORE SWAP2 PUSH1 0x20 ADD SWAP2 PUSH2 0x118D JUMP JUMPDEST DUP3 ADD SWAP2 SWAP1 PUSH1 0x0 MSTORE PUSH1 0x20 PUSH1 0x0 KECCAK256 SWAP1 JUMPDEST DUP2 SLOAD DUP2 MSTORE SWAP1 PUSH1 0x1 ADD SWAP1 PUSH1 0x20 ADD DUP1 DUP4 GT PUSH2 0x1170 JUMPI DUP3 SWAP1 SUB PUSH1 0x1F AND DUP3 ADD SWAP2 JUMPDEST POP POP POP POP POP DUP2 MSTORE PUSH1 0x20 ADD PUSH1 0x2 DUP3 ADD SLOAD DUP2 MSTORE POP POP DUP2 MSTORE PUSH1 0x20 ADD SWAP1 PUSH1 0x1 ADD SWAP1 PUSH2 0x104F JUMP JUMPDEST POP POP POP POP SWAP1 POP SWAP2 SWAP1 POP JUMP JUMPDEST PUSH1 0x60 PUSH1 0x0 PUSH1 0x6 DUP2 GT ISZERO PUSH2 0x11D0 JUMPI PUSH2 0x11CF PUSH2 0x2871 JUMP JUMPDEST JUMPDEST DUP3 PUSH1 0x6 DUP2 GT ISZERO PUSH2 0x11E3 JUMPI PUSH2 0x11E2 PUSH2 0x2871 JUMP JUMPDEST JUMPDEST EQ ISZERO PUSH2 0x1226 JUMPI PUSH1 0x40 MLOAD DUP1 PUSH1 0x40 ADD PUSH1 0x40 MSTORE DUP1 PUSH1 0x7 DUP2 MSTORE PUSH1 0x20 ADD PUSH32 0x4372656174656400000000000000000000000000000000000000000000000000 DUP2 MSTORE POP SWAP1 POP PUSH2 0x1471 JUMP JUMPDEST PUSH1 0x1 PUSH1 0x6 DUP2 GT ISZERO PUSH2 0x123A JUMPI PUSH2 0x1239 PUSH2 0x2871 JUMP JUMPDEST JUMPDEST DUP3 PUSH1 0x6 DUP2 GT ISZERO PUSH2 0x124D JUMPI PUSH2 0x124C PUSH2 0x2871 JUMP JUMPDEST JUMPDEST EQ ISZERO PUSH2 0x1290 JUMPI PUSH1 0x40 MLOAD DUP1 PUSH1 0x40 ADD PUSH1 0x40 MSTORE DUP1 PUSH1 0xF DUP2 MSTORE PUSH1 0x20 ADD PUSH32 0x4D6174657269616C734C6F676765640000000000000000000000000000000000 DUP2 MSTORE POP SWAP1 POP PUSH2 0x1471 JUMP JUMPDEST PUSH1 0x2 PUSH1 0x6 DUP2 GT ISZERO PUSH2 0x12A4 JUMPI PUSH2 0x12A3 PUSH2 0x2871 JUMP JUMPDEST JUMPDEST DUP3 PUSH1 0x6 DUP2 GT ISZERO PUSH2 0x12B7 JUMPI PUSH2 0x12B6 PUSH2 0x2871 JUMP JUMPDEST JUMPDEST EQ ISZERO PUSH2 0x12FA JUMPI PUSH1 0x40 MLOAD DUP1 PUSH1 0x40 ADD PUSH1 0x40 MSTORE DUP1 PUSH1 0x15 DUP2 MSTORE PUSH1 0x20 ADD PUSH32 0x4D616E75666163747572696E6756657269666965640000000000000000000000 DUP2 MSTORE POP SWAP1 POP PUSH2 0x1471 JUMP JUMPDEST PUSH1 0x3 PUSH1 0x6 DUP2 GT ISZERO PUSH2 0x130E JUMPI PUSH2 0x130D PUSH2 0x2871 JUMP JUMPDEST JUMPDEST DUP3 PUSH1 0x6 DUP2 GT ISZERO PUSH2 0x1321 JUMPI PUSH2 0x1320 PUSH2 0x2871 JUMP JUMPDEST JUMPDEST EQ ISZERO PUSH2 0x1364 JUMPI PUSH1 0x40 MLOAD DUP1 PUSH1 0x40 ADD PUSH1 0x40 MSTORE DUP1 PUSH1 0xC DUP2 MSTORE PUSH1 0x20 ADD PUSH32 0x4D616E7566616374757265640000000000000000000000000000000000000000 DUP2 MSTORE POP SWAP1 POP PUSH2 0x1471 JUMP JUMPDEST PUSH1 0x4 PUSH1 0x6 DUP2 GT ISZERO PUSH2 0x1378 JUMPI PUSH2 0x1377 PUSH2 0x2871 JUMP JUMPDEST JUMPDEST DUP3 PUSH1 0x6 DUP2 GT ISZERO PUSH2 0x138B JUMPI PUSH2 0x138A PUSH2 0x2871 JUMP JUMPDEST JUMPDEST EQ ISZERO PUSH2 0x13CE JUMPI PUSH1 0x40 MLOAD DUP1 PUSH1 0x40 ADD PUSH1 0x40 MSTORE DUP1 PUSH1 0x9 DUP2 MSTORE PUSH1 0x20 ADD PUSH32 0x496E5472616E7369740000000000000000000000000000000000000000000000 DUP2 MSTORE POP SWAP1 POP PUSH2 0x1471 JUMP JUMPDEST PUSH1 0x5 PUSH1 0x6 DUP2 GT ISZERO PUSH2 0x13E2 JUMPI PUSH2 0x13E1 PUSH2 0x2871 JUMP JUMPDEST JUMPDEST DUP3 PUSH1 0x6 DUP2 GT ISZERO PUSH2 0x13F5 JUMPI PUSH2 0x13F4 PUSH2 0x2871 JUMP JUMPDEST JUMPDEST EQ ISZERO PUSH2 0x1438 JUMPI PUSH1 0x40 MLOAD DUP1 PUSH1 0x40 ADD PUSH1 0x40 MSTORE DUP1 PUSH1 0x9 DUP2 MSTORE PUSH1 0x20 ADD PUSH32 0x44656C6976657265640000000000000000000000000000000000000000000000 DUP2 MSTORE POP SWAP1 POP PUSH2 0x1471 JUMP JUMPDEST PUSH1 0x40 MLOAD DUP1 PUSH1 0x40 ADD PUSH1 0x40 MSTORE DUP1 PUSH1 0x9 DUP2 MSTORE PUSH1 0x20 ADD PUSH32 0x46696E616C697365640000000000000000000000000000000000000000000000 DUP2 MSTORE POP SWAP1 POP JUMPDEST SWAP2 SWAP1 POP JUMP JUMPDEST PUSH1 0x0 DUP1 SLOAD SWAP1 PUSH2 0x100 EXP SWAP1 DIV PUSH20 0xFFFFFFFFFFFFFFFFFFFFFFFFFFFFFFFFFFFFFFFF AND PUSH20 0xFFFFFFFFFFFFFFFFFFFFFFFFFFFFFFFFFFFFFFFF AND CALLER PUSH20 0xFFFFFFFFFFFFFFFFFFFFFFFFFFFFFFFFFFFFFFFF AND EQ PUSH2 0x1504 JUMPI PUSH1 0x40 MLOAD PUSH32 0x8C379A000000000000000000000000000000000000000000000000000000000 DUP2 MSTORE PUSH1 0x4 ADD PUSH2 0x14FB SWAP1 PUSH2 0x304F JUMP JUMPDEST PUSH1 0x40 MLOAD DUP1 SWAP2 SUB SWAP1 REVERT JUMPDEST DUP1 PUSH1 0x1 PUSH1 0x0 DUP6 DUP2 MSTORE PUSH1 0x20 ADD SWAP1 DUP2 MSTORE PUSH1 0x20 ADD PUSH1 0x0 KECCAK256 PUSH1 0x0 DUP5 PUSH20 0xFFFFFFFFFFFFFFFFFFFFFFFFFFFFFFFFFFFFFFFF AND PUSH20 0xFFFFFFFFFFFFFFFFFFFFFFFFFFFFFFFFFFFFFFFF AND DUP2 MSTORE PUSH1 0x20 ADD SWAP1 DUP2 MSTORE PUSH1 0x20 ADD PUSH1 0x0 KECCAK256 PUSH1 0x0 PUSH2 0x100 EXP DUP2 SLOAD DUP2 PUSH1 0xFF MUL NOT AND SWAP1 DUP4 PUSH1 0x4 DUP2 GT ISZERO PUSH2 0x1577 JUMPI PUSH2 0x1576 PUSH2 0x2871 JUMP JUMPDEST JUMPDEST MUL OR SWAP1 SSTORE POP POP POP POP JUMP JUMPDEST PUSH1 0x60 PUSH1 0x1 PUSH1 0x4 DUP2 GT ISZERO PUSH2 0x1597 JUMPI PUSH2 0x1596 PUSH2 0x2871 JUMP JUMPDEST JUMPDEST DUP3 PUSH1 0x4 DUP2 GT ISZERO PUSH2 0x15AA JUMPI PUSH2 0x15A9 PUSH2 0x2871 JUMP JUMPDEST JUMPDEST EQ ISZERO PUSH2 0x15ED JUMPI PUSH1 0x40 MLOAD DUP1 PUSH1 0x40 ADD PUSH1 0x40 MSTORE DUP1 PUSH1 0x8 DUP2 MSTORE PUSH1 0x20 ADD PUSH32 0x537570706C696572000000000000000000000000000000000000000000000000 DUP2 MSTORE POP SWAP1 POP PUSH2 0x1763 JUMP JUMPDEST PUSH1 0x2 PUSH1 0x4 DUP2 GT ISZERO PUSH2 0x1601 JUMPI PUSH2 0x1600 PUSH2 0x2871 JUMP JUMPDEST JUMPDEST DUP3 PUSH1 0x4 DUP2 GT ISZERO PUSH2 0x1614 JUMPI PUSH2 0x1613 PUSH2 0x2871 JUMP JUMPDEST JUMPDEST EQ ISZERO PUSH2 0x1657 JUMPI PUSH1 0x40 MLOAD DUP1 PUSH1 0x40 ADD PUSH1 0x40 MSTORE DUP1 PUSH1 0xC DUP2 MSTORE PUSH1 0x20 ADD PUSH32 0x4D616E7566616374757265720000000000000000000000000000000000000000 DUP2 MSTORE POP SWAP1 POP PUSH2 0x1763 JUMP JUMPDEST PUSH1 0x3 PUSH1 0x4 DUP2 GT ISZERO PUSH2 0x166B JUMPI PUSH2 0x166A PUSH2 0x2871 JUMP JUMPDEST JUMPDEST DUP3 PUSH1 0x4 DUP2 GT ISZERO PUSH2 0x167E JUMPI PUSH2 0x167D PUSH2 0x2871 JUMP JUMPDEST JUMPDEST EQ ISZERO PUSH2 0x16C1 JUMPI PUSH1 0x40 MLOAD DUP1 PUSH1 0x40 ADD PUSH1 0x40 MSTORE DUP1 PUSH1 0x8 DUP2 MSTORE PUSH1 0x20 ADD PUSH32 0x52657461696C6572000000000000000000000000000000000000000000000000 DUP2 MSTORE POP SWAP1 POP PUSH2 0x1763 JUMP JUMPDEST PUSH1 0x4 DUP1 DUP2 GT ISZERO PUSH2 0x16D4 JUMPI PUSH2 0x16D3 PUSH2 0x2871 JUMP JUMPDEST JUMPDEST DUP3 PUSH1 0x4 DUP2 GT ISZERO PUSH2 0x16E7 JUMPI PUSH2 0x16E6 PUSH2 0x2871 JUMP JUMPDEST JUMPDEST EQ ISZERO PUSH2 0x172A JUMPI PUSH1 0x40 MLOAD DUP1 PUSH1 0x40 ADD PUSH1 0x40 MSTORE DUP1 PUSH1 0x8 DUP2 MSTORE PUSH1 0x20 ADD PUSH32 0x436F6E73756D6572000000000000000000000000000000000000000000000000 DUP2 MSTORE POP SWAP1 POP PUSH2 0x1763 JUMP JUMPDEST PUSH1 0x40 MLOAD DUP1 PUSH1 0x40 ADD PUSH1 0x40 MSTORE DUP1 PUSH1 0x7 DUP2 MSTORE PUSH1 0x20 ADD PUSH32 0x556E6B6E6F776E00000000000000000000000000000000000000000000000000 DUP2 MSTORE POP SWAP1 POP JUMPDEST SWAP2 SWAP1 POP JUMP JUMPDEST PUSH1 0x2 PUSH1 0x20 MSTORE DUP1 PUSH1 0x0 MSTORE PUSH1 0x40 PUSH1 0x0 KECCAK256 PUSH1 0x0 SWAP2 POP SWAP1 POP DUP1 PUSH1 0x0 ADD SLOAD SWAP1 DUP1 PUSH1 0x2 ADD DUP1 SLOAD PUSH2 0x1791 SWAP1 PUSH2 0x2FD1 JUMP JUMPDEST DUP1 PUSH1 0x1F ADD PUSH1 0x20 DUP1 SWAP2 DIV MUL PUSH1 0x20 ADD PUSH1 0x40 MLOAD SWAP1 DUP2 ADD PUSH1 0x40 MSTORE DUP1 SWAP3 SWAP2 SWAP1 DUP2 DUP2 MSTORE PUSH1 0x20 ADD DUP3 DUP1 SLOAD PUSH2 0x17BD SWAP1 PUSH2 0x2FD1 JUMP JUMPDEST DUP1 ISZERO PUSH2 0x180A JUMPI DUP1 PUSH1 0x1F LT PUSH2 0x17DF JUMPI PUSH2 0x100 DUP1 DUP4 SLOAD DIV MUL DUP4 MSTORE SWAP2 PUSH1 0x20 ADD SWAP2 PUSH2 0x180A JUMP JUMPDEST DUP3 ADD SWAP2 SWAP1 PUSH1 0x0 MSTORE PUSH1 0x20 PUSH1 0x0 KECCAK256 SWAP1 JUMPDEST DUP2 SLOAD DUP2 MSTORE SWAP1 PUSH1 0x1 ADD SWAP1 PUSH1 0x20 ADD DUP1 DUP4 GT PUSH2 0x17ED JUMPI DUP3 SWAP1 SUB PUSH1 0x1F AND DUP3 ADD SWAP2 JUMPDEST POP POP POP POP POP SWAP1 DUP1 PUSH1 0x3 ADD PUSH1 0x0 SWAP1 SLOAD SWAP1 PUSH2 0x100 EXP SWAP1 DIV PUSH20 0xFFFFFFFFFFFFFFFFFFFFFFFFFFFFFFFFFFFFFFFF AND SWAP1 DUP1 PUSH1 0x5 ADD PUSH1 0x0 SWAP1 SLOAD SWAP1 PUSH2 0x100 EXP SWAP1 DIV PUSH1 0xFF AND SWAP1 POP DUP5 JUMP JUMPDEST PUSH1 0x0 PUSH1 0x2 PUSH1 0x0 DUP4 DUP2 MSTORE PUSH1 0x20 ADD SWAP1 DUP2 MSTORE PUSH1 0x20 ADD PUSH1 0x0 KECCAK256 PUSH1 0x3 ADD PUSH1 0x0 SWAP1 SLOAD SWAP1 PUSH2 0x100 EXP SWAP1 DIV PUSH20 0xFFFFFFFFFFFFFFFFFFFFFFFFFFFFFFFFFFFFFFFF AND SWAP1 POP SWAP2 SWAP1 POP JUMP JUMPDEST PUSH1 0x0 DUP1 SLOAD SWAP1 PUSH2 0x100 EXP SWAP1 DIV PUSH20 0xFFFFFFFFFFFFFFFFFFFFFFFFFFFFFFFFFFFFFFFF AND DUP2 JUMP JUMPDEST PUSH1 0x3 PUSH1 0x20 MSTORE DUP1 PUSH1 0x0 MSTORE PUSH1 0x40 PUSH1 0x0 KECCAK256 PUSH1 0x0 SWAP2 POP SLOAD SWAP1 PUSH2 0x100 EXP SWAP1 DIV PUSH1 0xFF AND DUP2 JUMP JUMPDEST DUP2 PUSH1 0x2 DUP1 PUSH1 0x4 DUP2 GT ISZERO PUSH2 0x18E7 JUMPI PUSH2 0x18E6 PUSH2 0x2871 JUMP JUMPDEST JUMPDEST PUSH1 0x1 PUSH1 0x0 DUP5 DUP2 MSTORE PUSH1 0x20 ADD SWAP1 DUP2 MSTORE PUSH1 0x20 ADD PUSH1 0x0 KECCAK256 PUSH1 0x0 CALLER PUSH20 0xFFFFFFFFFFFFFFFFFFFFFFFFFFFFFFFFFFFFFFFF AND PUSH20 0xFFFFFFFFFFFFFFFFFFFFFFFFFFFFFFFFFFFFFFFF AND DUP2 MSTORE PUSH1 0x20 ADD SWAP1 DUP2 MSTORE PUSH1 0x20 ADD PUSH1 0x0 KECCAK256 PUSH1 0x0 SWAP1 SLOAD SWAP1 PUSH2 0x100 EXP SWAP1 DIV PUSH1 0xFF AND PUSH1 0x4 DUP2 GT ISZERO PUSH2 0x1957 JUMPI PUSH2 0x1956 PUSH2 0x2871 JUMP JUMPDEST JUMPDEST EQ PUSH2 0x1997 JUMPI PUSH1 0x40 MLOAD PUSH32 0x8C379A000000000000000000000000000000000000000000000000000000000 DUP2 MSTORE PUSH1 0x4 ADD PUSH2 0x198E SWAP1 PUSH2 0x2C57 JUMP JUMPDEST PUSH1 0x40 MLOAD DUP1 SWAP2 SUB SWAP1 REVERT JUMPDEST PUSH1 0x3 PUSH1 0x0 DUP6 DUP2 MSTORE PUSH1 0x20 ADD SWAP1 DUP2 MSTORE PUSH1 0x20 ADD PUSH1 0x0 KECCAK256 PUSH1 0x0 SWAP1 SLOAD SWAP1 PUSH2 0x100 EXP SWAP1 DIV PUSH1 0xFF AND PUSH2 0x19F7 JUMPI PUSH1 0x40 MLOAD PUSH32 0x8C379A000000000000000000000000000000000000000000000000000000000 DUP2 MSTORE PUSH1 0x4 ADD PUSH2 0x19EE SWAP1 PUSH2 0x2AFC JUMP JUMPDEST PUSH1 0x40 MLOAD DUP1 SWAP2 SUB SWAP1 REVERT JUMPDEST CALLER PUSH20 0xFFFFFFFFFFFFFFFFFFFFFFFFFFFFFFFFFFFFFFFF AND PUSH1 0x2 PUSH1 0x0 DUP7 DUP2 MSTORE PUSH1 0x20 ADD SWAP1 DUP2 MSTORE PUSH1 0x20 ADD PUSH1 0x0 KECCAK256 PUSH1 0x3 ADD PUSH1 0x0 SWAP1 SLOAD SWAP1 PUSH2 0x100 EXP SWAP1 DIV PUSH20 0xFFFFFFFFFFFFFFFFFFFFFFFFFFFFFFFFFFFFFFFF AND PUSH20 0xFFFFFFFFFFFFFFFFFFFFFFFFFFFFFFFFFFFFFFFF AND EQ PUSH2 0x1A9B JUMPI PUSH1 0x40 MLOAD PUSH32 0x8C379A000000000000000000000000000000000000000000000000000000000 DUP2 MSTORE PUSH1 0x4 ADD PUSH2 0x1A92 SWAP1 PUSH2 0x30BB JUMP JUMPDEST PUSH1 0x40 MLOAD DUP1 SWAP2 SUB SWAP1 REVERT JUMPDEST DUP3 PUSH1 0x2 PUSH1 0x0 DUP7 DUP2 MSTORE PUSH1 0x20 ADD SWAP1 DUP2 MSTORE PUSH1 0x20 ADD PUSH1 0x0 KECCAK256 PUSH1 0x2 ADD SWAP1 DUP1 MLOAD SWAP1 PUSH1 0x20 ADD SWAP1 PUSH2 0x1AC5 SWAP3 SWAP2 SWAP1 PUSH2 0x209A JUMP JUMPDEST POP PUSH1 0x3 PUSH1 0x2 PUSH1 0x0 DUP7 DUP2 MSTORE PUSH1 0x20 ADD SWAP1 DUP2 MSTORE PUSH1 0x20 ADD PUSH1 0x0 KECCAK256 PUSH1 0x5 ADD PUSH1 0x0 PUSH2 0x100 EXP DUP2 SLOAD DUP2 PUSH1 0xFF MUL NOT AND SWAP1 DUP4 PUSH1 0x6 DUP2 GT ISZERO PUSH2 0x1B00 JUMPI PUSH2 0x1AFF PUSH2 0x2871 JUMP JUMPDEST JUMPDEST MUL OR SWAP1 SSTORE POP PUSH32 0xEC3AE4350812C56655D3AC5AEA7ECC17434D05FB3571ECA3E293B924FF187332 DUP5 DUP5 PUSH1 0x40 MLOAD PUSH2 0x1B36 SWAP3 SWAP2 SWAP1 PUSH2 0x30DB JUMP JUMPDEST PUSH1 0x40 MLOAD DUP1 SWAP2 SUB SWAP1 LOG1 POP POP POP POP JUMP JUMPDEST PUSH1 0x60 PUSH2 0x1BAC PUSH1 0x1 PUSH1 0x0 DUP6 DUP2 MSTORE PUSH1 0x20 ADD SWAP1 DUP2 MSTORE PUSH1 0x20 ADD PUSH1 0x0 KECCAK256 PUSH1 0x0 DUP5 PUSH20 0xFFFFFFFFFFFFFFFFFFFFFFFFFFFFFFFFFFFFFFFF AND PUSH20 0xFFFFFFFFFFFFFFFFFFFFFFFFFFFFFFFFFFFFFFFF AND DUP2 MSTORE PUSH1 0x20 ADD SWAP1 DUP2 MSTORE PUSH1 0x20 ADD PUSH1 0x0 KECCAK256 PUSH1 0x0 SWAP1 SLOAD SWAP1 PUSH2 0x100 EXP SWAP1 DIV PUSH1 0xFF AND PUSH2 0x1581 JUMP JUMPDEST SWAP1 POP SWAP3 SWAP2 POP POP JUMP JUMPDEST PUSH1 0x1 PUSH1 0x20 MSTORE DUP2 PUSH1 0x0 MSTORE PUSH1 0x40 PUSH1 0x0 KECCAK256 PUSH1 0x20 MSTORE DUP1 PUSH1 0x0 MSTORE PUSH1 0x40 PUSH1 0x0 KECCAK256 PUSH1 0x0 SWAP2 POP SWAP2 POP SWAP1 SLOAD SWAP1 PUSH2 0x100 EXP SWAP1 DIV PUSH1 0xFF AND DUP2 JUMP JUMPDEST PUSH1 0x0 DUP1 PUSH1 0x4 PUSH1 0x0 DUP2 SLOAD DUP1 SWAP3 SWAP2 SWAP1 PUSH2 0x1BF9 SWAP1 PUSH2 0x313A JUMP JUMPDEST SWAP2 SWAP1 POP SSTORE SWAP1 POP DUP1 PUSH1 0x2 PUSH1 0x0 DUP4 DUP2 MSTORE PUSH1 0x20 ADD SWAP1 DUP2 MSTORE PUSH1 0x20 ADD PUSH1 0x0 KECCAK256 PUSH1 0x0 ADD DUP2 SWAP1 SSTORE POP CALLER PUSH1 0x2 PUSH1 0x0 DUP4 DUP2 MSTORE PUSH1 0x20 ADD SWAP1 DUP2 MSTORE PUSH1 0x20 ADD PUSH1 0x0 KECCAK256 PUSH1 0x3 ADD PUSH1 0x0 PUSH2 0x100 EXP DUP2 SLOAD DUP2 PUSH20 0xFFFFFFFFFFFFFFFFFFFFFFFFFFFFFFFFFFFFFFFF MUL NOT AND SWAP1 DUP4 PUSH20 0xFFFFFFFFFFFFFFFFFFFFFFFFFFFFFFFFFFFFFFFF AND MUL OR SWAP1 SSTORE POP PUSH1 0x2 PUSH1 0x0 DUP3 DUP2 MSTORE PUSH1 0x20 ADD SWAP1 DUP2 MSTORE PUSH1 0x20 ADD PUSH1 0x0 KECCAK256 PUSH1 0x4 ADD CALLER SWAP1 DUP1 PUSH1 0x1 DUP2 SLOAD ADD DUP1 DUP3 SSTORE DUP1 SWAP2 POP POP PUSH1 0x1 SWAP1 SUB SWAP1 PUSH1 0x0 MSTORE PUSH1 0x20 PUSH1 0x0 KECCAK256 ADD PUSH1 0x0 SWAP1 SWAP2 SWAP1 SWAP2 SWAP1 SWAP2 PUSH2 0x100 EXP DUP2 SLOAD DUP2 PUSH20 0xFFFFFFFFFFFFFFFFFFFFFFFFFFFFFFFFFFFFFFFF MUL NOT AND SWAP1 DUP4 PUSH20 0xFFFFFFFFFFFFFFFFFFFFFFFFFFFFFFFFFFFFFFFF AND MUL OR SWAP1 SSTORE POP PUSH1 0x0 PUSH1 0x2 PUSH1 0x0 DUP4 DUP2 MSTORE PUSH1 0x20 ADD SWAP1 DUP2 MSTORE PUSH1 0x20 ADD PUSH1 0x0 KECCAK256 PUSH1 0x5 ADD PUSH1 0x0 PUSH2 0x100 EXP DUP2 SLOAD DUP2 PUSH1 0xFF MUL NOT AND SWAP1 DUP4 PUSH1 0x6 DUP2 GT ISZERO PUSH2 0x1D20 JUMPI PUSH2 0x1D1F PUSH2 0x2871 JUMP JUMPDEST JUMPDEST MUL OR SWAP1 SSTORE POP PUSH1 0x1 PUSH1 0x3 PUSH1 0x0 DUP4 DUP2 MSTORE PUSH1 0x20 ADD SWAP1 DUP2 MSTORE PUSH1 0x20 ADD PUSH1 0x0 KECCAK256 PUSH1 0x0 PUSH2 0x100 EXP DUP2 SLOAD DUP2 PUSH1 0xFF MUL NOT AND SWAP1 DUP4 ISZERO ISZERO MUL OR SWAP1 SSTORE POP PUSH1 0x1 DUP1 PUSH1 0x0 DUP4 DUP2 MSTORE PUSH1 0x20 ADD SWAP1 DUP2 MSTORE PUSH1 0x20 ADD PUSH1 0x0 KECCAK256 PUSH1 0x0 CALLER PUSH20 0xFFFFFFFFFFFFFFFFFFFFFFFFFFFFFFFFFFFFFFFF AND PUSH20 0xFFFFFFFFFFFFFFFFFFFFFFFFFFFFFFFFFFFFFFFF AND DUP2 MSTORE PUSH1 0x20 ADD SWAP1 DUP2 MSTORE PUSH1 0x20 ADD PUSH1 0x0 KECCAK256 PUSH1 0x0 PUSH2 0x100 EXP DUP2 SLOAD DUP2 PUSH1 0xFF MUL NOT AND SWAP1 DUP4 PUSH1 0x4 DUP2 GT ISZERO PUSH2 0x1DC4 JUMPI PUSH2 0x1DC3 PUSH2 0x2871 JUMP JUMPDEST JUMPDEST MUL OR SWAP1 SSTORE POP PUSH32 0x73E014C0A076665D9511A27E878FADCCB6D7171F5754BA1167A670023760B015 DUP2 CALLER PUSH1 0x40 MLOAD PUSH2 0x1DFA SWAP3 SWAP2 SWAP1 PUSH2 0x3183 JUMP JUMPDEST PUSH1 0x40 MLOAD DUP1 SWAP2 SUB SWAP1 LOG1 DUP1 SWAP2 POP POP SWAP1 JUMP JUMPDEST DUP2 PUSH1 0x2 DUP1 PUSH1 0x4 DUP2 GT ISZERO PUSH2 0x1E1F JUMPI PUSH2 0x1E1E PUSH2 0x2871 JUMP JUMPDEST JUMPDEST PUSH1 0x1 PUSH1 0x0 DUP5 DUP2 MSTORE PUSH1 0x20 ADD SWAP1 DUP2 MSTORE PUSH1 0x20 ADD PUSH1 0x0 KECCAK256 PUSH1 0x0 CALLER PUSH20 0xFFFFFFFFFFFFFFFFFFFFFFFFFFFFFFFFFFFFFFFF AND PUSH20 0xFFFFFFFFFFFFFFFFFFFFFFFFFFFFFFFFFFFFFFFF AND DUP2 MSTORE PUSH1 0x20 ADD SWAP1 DUP2 MSTORE PUSH1 0x20 ADD PUSH1 0x0 KECCAK256 PUSH1 0x0 SWAP1 SLOAD SWAP1 PUSH2 0x100 EXP SWAP1 DIV PUSH1 0xFF AND PUSH1 0x4 DUP2 GT ISZERO PUSH2 0x1E8F JUMPI PUSH2 0x1E8E PUSH2 0x2871 JUMP JUMPDEST JUMPDEST EQ PUSH2 0x1ECF JUMPI PUSH1 0x40 MLOAD PUSH32 0x8C379A000000000000000000000000000000000000000000000000000000000 DUP2 MSTORE PUSH1 0x4 ADD PUSH2 0x1EC6 SWAP1 PUSH2 0x2C57 JUMP JUMPDEST PUSH1 0x40 MLOAD DUP1 SWAP2 SUB SWAP1 REVERT JUMPDEST PUSH1 0x3 PUSH1 0x0 DUP6 DUP2 MSTORE PUSH1 0x20 ADD SWAP1 DUP2 MSTORE PUSH1 0x20 ADD PUSH1 0x0 KECCAK256 PUSH1 0x0 SWAP1 SLOAD SWAP1 PUSH2 0x100 EXP SWAP1 DIV PUSH1 0xFF AND PUSH2 0x1F2F JUMPI PUSH1 0x40 MLOAD PUSH32 0x8C379A000000000000000000000000000000000000000000000000000000000 DUP2 MSTORE PUSH1 0x4 ADD PUSH2 0x1F26 SWAP1 PUSH2 0x2AFC JUMP JUMPDEST PUSH1 0x40 MLOAD DUP1 SWAP2 SUB SWAP1 REVERT JUMPDEST CALLER PUSH20 0xFFFFFFFFFFFFFFFFFFFFFFFFFFFFFFFFFFFFFFFF AND PUSH1 0x2 PUSH1 0x0 DUP7 DUP2 MSTORE PUSH1 0x20 ADD SWAP1 DUP2 MSTORE PUSH1 0x20 ADD PUSH1 0x0 KECCAK256 PUSH1 0x3 ADD PUSH1 0x0 SWAP1 SLOAD SWAP1 PUSH2 0x100 EXP SWAP1 DIV PUSH20 0xFFFFFFFFFFFFFFFFFFFFFFFFFFFFFFFFFFFFFFFF AND PUSH20 0xFFFFFFFFFFFFFFFFFFFFFFFFFFFFFFFFFFFFFFFF AND EQ PUSH2 0x1FD3 JUMPI PUSH1 0x40 MLOAD PUSH32 0x8C379A000000000000000000000000000000000000000000000000000000000 DUP2 MSTORE PUSH1 0x4 ADD PUSH2 0x1FCA SWAP1 PUSH2 0x31F8 JUMP JUMPDEST PUSH1 0x40 MLOAD DUP1 SWAP2 SUB SWAP1 REVERT JUMPDEST PUSH1 0x2 DUP1 PUSH1 0x0 DUP7 DUP2 MSTORE PUSH1 0x20 ADD SWAP1 DUP2 MSTORE PUSH1 0x20 ADD PUSH1 0x0 KECCAK256 PUSH1 0x5 ADD PUSH1 0x0 PUSH2 0x100 EXP DUP2 SLOAD DUP2 PUSH1 0xFF MUL NOT AND SWAP1 DUP4 PUSH1 0x6 DUP2 GT ISZERO PUSH2 0x200C JUMPI PUSH2 0x200B PUSH2 0x2871 JUMP JUMPDEST JUMPDEST MUL OR SWAP1 SSTORE POP DUP3 PUSH1 0x2 PUSH1 0x0 DUP7 DUP2 MSTORE PUSH1 0x20 ADD SWAP1 DUP2 MSTORE PUSH1 0x20 ADD PUSH1 0x0 KECCAK256 PUSH1 0x2 ADD SWAP1 DUP1 MLOAD SWAP1 PUSH1 0x20 ADD SWAP1 PUSH2 0x203B SWAP3 SWAP2 SWAP1 PUSH2 0x209A JUMP JUMPDEST POP PUSH32 0xEC3AE4350812C56655D3AC5AEA7ECC17434D05FB3571ECA3E293B924FF187332 DUP5 DUP5 PUSH1 0x40 MLOAD PUSH1 0x20 ADD PUSH2 0x206F SWAP2 SWAP1 PUSH2 0x3264 JUMP JUMPDEST PUSH1 0x40 MLOAD PUSH1 0x20 DUP2 DUP4 SUB SUB DUP2 MSTORE SWAP1 PUSH1 0x40 MSTORE PUSH1 0x40 MLOAD PUSH2 0x208C SWAP3 SWAP2 SWAP1 PUSH2 0x30DB JUMP JUMPDEST PUSH1 0x40 MLOAD DUP1 SWAP2 SUB SWAP1 LOG1 POP POP POP POP JUMP JUMPDEST DUP3 DUP1 SLOAD PUSH2 0x20A6 SWAP1 PUSH2 0x2FD1 JUMP JUMPDEST SWAP1 PUSH1 0x0 MSTORE PUSH1 0x20 PUSH1 0x0 KECCAK256 SWAP1 PUSH1 0x1F ADD PUSH1 0x20 SWAP1 DIV DUP2 ADD SWAP3 DUP3 PUSH2 0x20C8 JUMPI PUSH1 0x0 DUP6 SSTORE PUSH2 0x210F JUMP JUMPDEST DUP3 PUSH1 0x1F LT PUSH2 0x20E1 JUMPI DUP1 MLOAD PUSH1 0xFF NOT AND DUP4 DUP1 ADD OR DUP6 SSTORE PUSH2 0x210F JUMP JUMPDEST DUP3 DUP1 ADD PUSH1 0x1 ADD DUP6 SSTORE DUP3 ISZERO PUSH2 0x210F JUMPI SWAP2 DUP3 ADD JUMPDEST DUP3 DUP2 GT ISZERO PUSH2 0x210E JUMPI DUP3 MLOAD DUP3 SSTORE SWAP2 PUSH1 0x20 ADD SWAP2 SWAP1 PUSH1 0x1 ADD SWAP1 PUSH2 0x20F3 JUMP JUMPDEST JUMPDEST POP SWAP1 POP PUSH2 0x211C SWAP2 SWAP1 PUSH2 0x2120 JUMP JUMPDEST POP SWAP1 JUMP JUMPDEST JUMPDEST DUP1 DUP3 GT ISZERO PUSH2 0x2139 JUMPI PUSH1 0x0 DUP2 PUSH1 0x0 SWAP1 SSTORE POP PUSH1 0x1 ADD PUSH2 0x2121 JUMP JUMPDEST POP SWAP1 JUMP JUMPDEST PUSH1 0x0 PUSH1 0x40 MLOAD SWAP1 POP SWAP1 JUMP JUMPDEST PUSH1 0x0 DUP1 REVERT JUMPDEST PUSH1 0x0 DUP1 REVERT JUMPDEST PUSH1 0x0 DUP2 SWAP1 POP SWAP2 SWAP1 POP JUMP JUMPDEST PUSH2 0x2164 DUP2 PUSH2 0x2151 JUMP JUMPDEST DUP2 EQ PUSH2 0x216F JUMPI PUSH1 0x0 DUP1 REVERT JUMPDEST POP JUMP JUMPDEST PUSH1 0x0 DUP2 CALLDATALOAD SWAP1 POP PUSH2 0x2181 DUP2 PUSH2 0x215B JUMP JUMPDEST SWAP3 SWAP2 POP POP JUMP JUMPDEST PUSH1 0x0 PUSH1 0x20 DUP3 DUP5 SUB SLT ISZERO PUSH2 0x219D JUMPI PUSH2 0x219C PUSH2 0x2147 JUMP JUMPDEST JUMPDEST PUSH1 0x0 PUSH2 0x21AB DUP5 DUP3 DUP6 ADD PUSH2 0x2172 JUMP JUMPDEST SWAP2 POP POP SWAP3 SWAP2 POP POP JUMP JUMPDEST PUSH1 0x0 DUP2 MLOAD SWAP1 POP SWAP2 SWAP1 POP JUMP JUMPDEST PUSH1 0x0 DUP3 DUP3 MSTORE PUSH1 0x20 DUP3 ADD SWAP1 POP SWAP3 SWAP2 POP POP JUMP JUMPDEST PUSH1 0x0 JUMPDEST DUP4 DUP2 LT ISZERO PUSH2 0x21EE JUMPI DUP1 DUP3 ADD MLOAD DUP2 DUP5 ADD MSTORE PUSH1 0x20 DUP2 ADD SWAP1 POP PUSH2 0x21D3 JUMP JUMPDEST DUP4 DUP2 GT ISZERO PUSH2 0x21FD JUMPI PUSH1 0x0 DUP5 DUP5 ADD MSTORE JUMPDEST POP POP POP POP JUMP JUMPDEST PUSH1 0x0 PUSH1 0x1F NOT PUSH1 0x1F DUP4 ADD AND SWAP1 POP SWAP2 SWAP1 POP JUMP JUMPDEST PUSH1 0x0 PUSH2 0x221F DUP3 PUSH2 0x21B4 JUMP JUMPDEST PUSH2 0x2229 DUP2 DUP6 PUSH2 0x21BF JUMP JUMPDEST SWAP4 POP PUSH2 0x2239 DUP2 DUP6 PUSH1 0x20 DUP7 ADD PUSH2 0x21D0 JUMP JUMPDEST PUSH2 0x2242 DUP2 PUSH2 0x2203 JUMP JUMPDEST DUP5 ADD SWAP2 POP POP SWAP3 SWAP2 POP POP JUMP JUMPDEST PUSH1 0x0 PUSH1 0x20 DUP3 ADD SWAP1 POP DUP2 DUP2 SUB PUSH1 0x0 DUP4 ADD MSTORE PUSH2 0x2267 DUP2 DUP5 PUSH2 0x2214 JUMP JUMPDEST SWAP1 POP SWAP3 SWAP2 POP POP JUMP JUMPDEST PUSH1 0x0 DUP1 REVERT JUMPDEST PUSH1 0x0 DUP1 REVERT JUMPDEST PUSH32 0x4E487B7100000000000000000000000000000000000000000000000000000000 PUSH1 0x0 MSTORE PUSH1 0x41 PUSH1 0x4 MSTORE PUSH1 0x24 PUSH1 0x0 REVERT JUMPDEST PUSH2 0x22B1 DUP3 PUSH2 0x2203 JUMP JUMPDEST DUP2 ADD DUP2 DUP2 LT PUSH8 0xFFFFFFFFFFFFFFFF DUP3 GT OR ISZERO PUSH2 0x22D0 JUMPI PUSH2 0x22CF PUSH2 0x2279 JUMP JUMPDEST JUMPDEST DUP1 PUSH1 0x40 MSTORE POP POP POP JUMP JUMPDEST PUSH1 0x0 PUSH2 0x22E3 PUSH2 0x213D JUMP JUMPDEST SWAP1 POP PUSH2 0x22EF DUP3 DUP3 PUSH2 0x22A8 JUMP JUMPDEST SWAP2 SWAP1 POP JUMP JUMPDEST PUSH1 0x0 PUSH8 0xFFFFFFFFFFFFFFFF DUP3 GT ISZERO PUSH2 0x230F JUMPI PUSH2 0x230E PUSH2 0x2279 JUMP JUMPDEST JUMPDEST PUSH2 0x2318 DUP3 PUSH2 0x2203 JUMP JUMPDEST SWAP1 POP PUSH1 0x20 DUP2 ADD SWAP1 POP SWAP2 SWAP1 POP JUMP JUMPDEST DUP3 DUP2 DUP4 CALLDATACOPY PUSH1 0x0 DUP4 DUP4 ADD MSTORE POP POP POP JUMP JUMPDEST PUSH1 0x0 PUSH2 0x2347 PUSH2 0x2342 DUP5 PUSH2 0x22F4 JUMP JUMPDEST PUSH2 0x22D9 JUMP JUMPDEST SWAP1 POP DUP3 DUP2 MSTORE PUSH1 0x20 DUP2 ADD DUP5 DUP5 DUP5 ADD GT ISZERO PUSH2 0x2363 JUMPI PUSH2 0x2362 PUSH2 0x2274 JUMP JUMPDEST JUMPDEST PUSH2 0x236E DUP5 DUP3 DUP6 PUSH2 0x2325 JUMP JUMPDEST POP SWAP4 SWAP3 POP POP POP JUMP JUMPDEST PUSH1 0x0 DUP3 PUSH1 0x1F DUP4 ADD SLT PUSH2 0x238B JUMPI PUSH2 0x238A PUSH2 0x226F JUMP JUMPDEST JUMPDEST DUP2 CALLDATALOAD PUSH2 0x239B DUP5 DUP3 PUSH1 0x20 DUP7 ADD PUSH2 0x2334 JUMP JUMPDEST SWAP2 POP POP SWAP3 SWAP2 POP POP JUMP JUMPDEST PUSH1 0x0 DUP1 PUSH1 0x0 PUSH1 0x60 DUP5 DUP7 SUB SLT ISZERO PUSH2 0x23BD JUMPI PUSH2 0x23BC PUSH2 0x2147 JUMP JUMPDEST JUMPDEST PUSH1 0x0 PUSH2 0x23CB DUP7 DUP3 DUP8 ADD PUSH2 0x2172 JUMP JUMPDEST SWAP4 POP POP PUSH1 0x20 DUP5 ADD CALLDATALOAD PUSH8 0xFFFFFFFFFFFFFFFF DUP2 GT ISZERO PUSH2 0x23EC JUMPI PUSH2 0x23EB PUSH2 0x214C JUMP JUMPDEST JUMPDEST PUSH2 0x23F8 DUP7 DUP3 DUP8 ADD PUSH2 0x2376 JUMP JUMPDEST SWAP3 POP POP PUSH1 0x40 DUP5 ADD CALLDATALOAD PUSH8 0xFFFFFFFFFFFFFFFF DUP2 GT ISZERO PUSH2 0x2419 JUMPI PUSH2 0x2418 PUSH2 0x214C JUMP JUMPDEST JUMPDEST PUSH2 0x2425 DUP7 DUP3 DUP8 ADD PUSH2 0x2376 JUMP JUMPDEST SWAP2 POP POP SWAP3 POP SWAP3 POP SWAP3 JUMP JUMPDEST PUSH1 0x0 PUSH20 0xFFFFFFFFFFFFFFFFFFFFFFFFFFFFFFFFFFFFFFFF DUP3 AND SWAP1 POP SWAP2 SWAP1 POP JUMP JUMPDEST PUSH1 0x0 PUSH2 0x245A DUP3 PUSH2 0x242F JUMP JUMPDEST SWAP1 POP SWAP2 SWAP1 POP JUMP JUMPDEST PUSH2 0x246A DUP2 PUSH2 0x244F JUMP JUMPDEST DUP2 EQ PUSH2 0x2475 JUMPI PUSH1 0x0 DUP1 REVERT JUMPDEST POP JUMP JUMPDEST PUSH1 0x0 DUP2 CALLDATALOAD SWAP1 POP PUSH2 0x2487 DUP2 PUSH2 0x2461 JUMP JUMPDEST SWAP3 SWAP2 POP POP JUMP JUMPDEST PUSH1 0x0 DUP1 PUSH1 0x40 DUP4 DUP6 SUB SLT ISZERO PUSH2 0x24A4 JUMPI PUSH2 0x24A3 PUSH2 0x2147 JUMP JUMPDEST JUMPDEST PUSH1 0x0 PUSH2 0x24B2 DUP6 DUP3 DUP7 ADD PUSH2 0x2172 JUMP JUMPDEST SWAP3 POP POP PUSH1 0x20 PUSH2 0x24C3 DUP6 DUP3 DUP7 ADD PUSH2 0x2478 JUMP JUMPDEST SWAP2 POP POP SWAP3 POP SWAP3 SWAP1 POP JUMP JUMPDEST PUSH2 0x24D6 DUP2 PUSH2 0x2151 JUMP JUMPDEST DUP3 MSTORE POP POP JUMP JUMPDEST PUSH1 0x0 PUSH1 0x20 DUP3 ADD SWAP1 POP PUSH2 0x24F1 PUSH1 0x0 DUP4 ADD DUP5 PUSH2 0x24CD JUMP JUMPDEST SWAP3 SWAP2 POP POP JUMP JUMPDEST PUSH1 0x0 DUP2 MLOAD SWAP1 POP SWAP2 SWAP1 POP JUMP JUMPDEST PUSH1 0x0 DUP3 DUP3 MSTORE PUSH1 0x20 DUP3 ADD SWAP1 POP SWAP3 SWAP2 POP POP JUMP JUMPDEST PUSH1 0x0 DUP2 SWAP1 POP PUSH1 0x20 DUP3 ADD SWAP1 POP SWAP2 SWAP1 POP JUMP JUMPDEST PUSH2 0x252C DUP2 PUSH2 0x244F JUMP JUMPDEST DUP3 MSTORE POP POP JUMP JUMPDEST PUSH1 0x0 PUSH2 0x253E DUP4 DUP4 PUSH2 0x2523 JUMP JUMPDEST PUSH1 0x20 DUP4 ADD SWAP1 POP SWAP3 SWAP2 POP POP JUMP JUMPDEST PUSH1 0x0 PUSH1 0x20 DUP3 ADD SWAP1 POP SWAP2 SWAP1 POP JUMP JUMPDEST PUSH1 0x0 PUSH2 0x2562 DUP3 PUSH2 0x24F7 JUMP JUMPDEST PUSH2 0x256C DUP2 DUP6 PUSH2 0x2502 JUMP JUMPDEST SWAP4 POP PUSH2 0x2577 DUP4 PUSH2 0x2513 JUMP JUMPDEST DUP1 PUSH1 0x0 JUMPDEST DUP4 DUP2 LT ISZERO PUSH2 0x25A8 JUMPI DUP2 MLOAD PUSH2 0x258F DUP9 DUP3 PUSH2 0x2532 JUMP JUMPDEST SWAP8 POP PUSH2 0x259A DUP4 PUSH2 0x254A JUMP JUMPDEST SWAP3 POP POP PUSH1 0x1 DUP2 ADD SWAP1 POP PUSH2 0x257B JUMP JUMPDEST POP DUP6 SWAP4 POP POP POP POP SWAP3 SWAP2 POP POP JUMP JUMPDEST PUSH1 0x0 PUSH1 0x20 DUP3 ADD SWAP1 POP DUP2 DUP2 SUB PUSH1 0x0 DUP4 ADD MSTORE PUSH2 0x25CF DUP2 DUP5 PUSH2 0x2557 JUMP JUMPDEST SWAP1 POP SWAP3 SWAP2 POP POP JUMP JUMPDEST PUSH1 0x0 DUP2 MLOAD SWAP1 POP SWAP2 SWAP1 POP JUMP JUMPDEST PUSH1 0x0 DUP3 DUP3 MSTORE PUSH1 0x20 DUP3 ADD SWAP1 POP SWAP3 SWAP2 POP POP JUMP JUMPDEST PUSH1 0x0 DUP2 SWAP1 POP PUSH1 0x20 DUP3 ADD SWAP1 POP SWAP2 SWAP1 POP JUMP JUMPDEST PUSH1 0x0 DUP3 DUP3 MSTORE PUSH1 0x20 DUP3 ADD SWAP1 POP SWAP3 SWAP2 POP POP JUMP JUMPDEST PUSH1 0x0 PUSH2 0x261F DUP3 PUSH2 0x21B4 JUMP JUMPDEST PUSH2 0x2629 DUP2 DUP6 PUSH2 0x2603 JUMP JUMPDEST SWAP4 POP PUSH2 0x2639 DUP2 DUP6 PUSH1 0x20 DUP7 ADD PUSH2 0x21D0 JUMP JUMPDEST PUSH2 0x2642 DUP2 PUSH2 0x2203 JUMP JUMPDEST DUP5 ADD SWAP2 POP POP SWAP3 SWAP2 POP POP JUMP JUMPDEST PUSH2 0x2656 DUP2 PUSH2 0x2151 JUMP JUMPDEST DUP3 MSTORE POP POP JUMP JUMPDEST PUSH1 0x0 PUSH1 0x60 DUP4 ADD PUSH1 0x0 DUP4 ADD MLOAD DUP5 DUP3 SUB PUSH1 0x0 DUP7 ADD MSTORE PUSH2 0x2679 DUP3 DUP3 PUSH2 0x2614 JUMP JUMPDEST SWAP2 POP POP PUSH1 0x20 DUP4 ADD MLOAD DUP5 DUP3 SUB PUSH1 0x20 DUP7 ADD MSTORE PUSH2 0x2693 DUP3 DUP3 PUSH2 0x2614 JUMP JUMPDEST SWAP2 POP POP PUSH1 0x40 DUP4 ADD MLOAD PUSH2 0x26A8 PUSH1 0x40 DUP7 ADD DUP3 PUSH2 0x264D JUMP JUMPDEST POP DUP1 SWAP2 POP POP SWAP3 SWAP2 POP POP JUMP JUMPDEST PUSH1 0x0 PUSH2 0x26BF DUP4 DUP4 PUSH2 0x265C JUMP JUMPDEST SWAP1 POP SWAP3 SWAP2 POP POP JUMP JUMPDEST PUSH1 0x0 PUSH1 0x20 DUP3 ADD SWAP1 POP SWAP2 SWAP1 POP JUMP JUMPDEST PUSH1 0x0 PUSH2 0x26DF DUP3 PUSH2 0x25D7 JUMP JUMPDEST PUSH2 0x26E9 DUP2 DUP6 PUSH2 0x25E2 JUMP JUMPDEST SWAP4 POP DUP4 PUSH1 0x20 DUP3 MUL DUP6 ADD PUSH2 0x26FB DUP6 PUSH2 0x25F3 JUMP JUMPDEST DUP1 PUSH1 0x0 JUMPDEST DUP6 DUP2 LT ISZERO PUSH2 0x2737 JUMPI DUP5 DUP5 SUB DUP10 MSTORE DUP2 MLOAD PUSH2 0x2718 DUP6 DUP3 PUSH2 0x26B3 JUMP JUMPDEST SWAP5 POP PUSH2 0x2723 DUP4 PUSH2 0x26C7 JUMP JUMPDEST SWAP3 POP PUSH1 0x20 DUP11 ADD SWAP10 POP POP PUSH1 0x1 DUP2 ADD SWAP1 POP PUSH2 0x26FF JUMP JUMPDEST POP DUP3 SWAP8 POP DUP8 SWAP6 POP POP POP POP POP POP SWAP3 SWAP2 POP POP JUMP JUMPDEST PUSH1 0x0 PUSH1 0x20 DUP3 ADD SWAP1 POP DUP2 DUP2 SUB PUSH1 0x0 DUP4 ADD MSTORE PUSH2 0x2763 DUP2 DUP5 PUSH2 0x26D4 JUMP JUMPDEST SWAP1 POP SWAP3 SWAP2 POP POP JUMP JUMPDEST PUSH1 0x7 DUP2 LT PUSH2 0x2778 JUMPI PUSH1 0x0 DUP1 REVERT JUMPDEST POP JUMP JUMPDEST PUSH1 0x0 DUP2 CALLDATALOAD SWAP1 POP PUSH2 0x278A DUP2 PUSH2 0x276B JUMP JUMPDEST SWAP3 SWAP2 POP POP JUMP JUMPDEST PUSH1 0x0 PUSH1 0x20 DUP3 DUP5 SUB SLT ISZERO PUSH2 0x27A6 JUMPI PUSH2 0x27A5 PUSH2 0x2147 JUMP JUMPDEST JUMPDEST PUSH1 0x0 PUSH2 0x27B4 DUP5 DUP3 DUP6 ADD PUSH2 0x277B JUMP JUMPDEST SWAP2 POP POP SWAP3 SWAP2 POP POP JUMP JUMPDEST PUSH1 0x5 DUP2 LT PUSH2 0x27CA JUMPI PUSH1 0x0 DUP1 REVERT JUMPDEST POP JUMP JUMPDEST PUSH1 0x0 DUP2 CALLDATALOAD SWAP1 POP PUSH2 0x27DC DUP2 PUSH2 0x27BD JUMP JUMPDEST SWAP3 SWAP2 POP POP JUMP JUMPDEST PUSH1 0x0 DUP1 PUSH1 0x0 PUSH1 0x60 DUP5 DUP7 SUB SLT ISZERO PUSH2 0x27FB JUMPI PUSH2 0x27FA PUSH2 0x2147 JUMP JUMPDEST JUMPDEST PUSH1 0x0 PUSH2 0x2809 DUP7 DUP3 DUP8 ADD PUSH2 0x2172 JUMP JUMPDEST SWAP4 POP POP PUSH1 0x20 PUSH2 0x281A DUP7 DUP3 DUP8 ADD PUSH2 0x2478 JUMP JUMPDEST SWAP3 POP POP PUSH1 0x40 PUSH2 0x282B DUP7 DUP3 DUP8 ADD PUSH2 0x27CD JUMP JUMPDEST SWAP2 POP POP SWAP3 POP SWAP3 POP SWAP3 JUMP JUMPDEST PUSH1 0x0 PUSH1 0x20 DUP3 DUP5 SUB SLT ISZERO PUSH2 0x284B JUMPI PUSH2 0x284A PUSH2 0x2147 JUMP JUMPDEST JUMPDEST PUSH1 0x0 PUSH2 0x2859 DUP5 DUP3 DUP6 ADD PUSH2 0x27CD JUMP JUMPDEST SWAP2 POP POP SWAP3 SWAP2 POP POP JUMP JUMPDEST PUSH2 0x286B DUP2 PUSH2 0x244F JUMP JUMPDEST DUP3 MSTORE POP POP JUMP JUMPDEST PUSH32 0x4E487B7100000000000000000000000000000000000000000000000000000000 PUSH1 0x0 MSTORE PUSH1 0x21 PUSH1 0x4 MSTORE PUSH1 0x24 PUSH1 0x0 REVERT JUMPDEST PUSH1 0x7 DUP2 LT PUSH2 0x28B1 JUMPI PUSH2 0x28B0 PUSH2 0x2871 JUMP JUMPDEST JUMPDEST POP JUMP JUMPDEST PUSH1 0x0 DUP2 SWAP1 POP PUSH2 0x28C2 DUP3 PUSH2 0x28A0 JUMP JUMPDEST SWAP2 SWAP1 POP JUMP JUMPDEST PUSH1 0x0 PUSH2 0x28D2 DUP3 PUSH2 0x28B4 JUMP JUMPDEST SWAP1 POP SWAP2 SWAP1 POP JUMP JUMPDEST PUSH2 0x28E2 DUP2 PUSH2 0x28C7 JUMP JUMPDEST DUP3 MSTORE POP POP JUMP JUMPDEST PUSH1 0x0 PUSH1 0x80 DUP3 ADD SWAP1 POP PUSH2 0x28FD PUSH1 0x0 DUP4 ADD DUP8 PUSH2 0x24CD JUMP JUMPDEST DUP2 DUP2 SUB PUSH1 0x20 DUP4 ADD MSTORE PUSH2 0x290F DUP2 DUP7 PUSH2 0x2214 JUMP JUMPDEST SWAP1 POP PUSH2 0x291E PUSH1 0x40 DUP4 ADD DUP6 PUSH2 0x2862 JUMP JUMPDEST PUSH2 0x292B PUSH1 0x60 DUP4 ADD DUP5 PUSH2 0x28D9 JUMP JUMPDEST SWAP6 SWAP5 POP POP POP POP POP JUMP JUMPDEST PUSH1 0x0 PUSH1 0x20 DUP3 ADD SWAP1 POP PUSH2 0x2949 PUSH1 0x0 DUP4 ADD DUP5 PUSH2 0x2862 JUMP JUMPDEST SWAP3 SWAP2 POP POP JUMP JUMPDEST PUSH1 0x0 DUP2 ISZERO ISZERO SWAP1 POP SWAP2 SWAP1 POP JUMP JUMPDEST PUSH2 0x2964 DUP2 PUSH2 0x294F JUMP JUMPDEST DUP3 MSTORE POP POP JUMP JUMPDEST PUSH1 0x0 PUSH1 0x20 DUP3 ADD SWAP1 POP PUSH2 0x297F PUSH1 0x0 DUP4 ADD DUP5 PUSH2 0x295B JUMP JUMPDEST SWAP3 SWAP2 POP POP JUMP JUMPDEST PUSH1 0x0 DUP1 PUSH1 0x40 DUP4 DUP6 SUB SLT ISZERO PUSH2 0x299C JUMPI PUSH2 0x299B PUSH2 0x2147 JUMP JUMPDEST JUMPDEST PUSH1 0x0 PUSH2 0x29AA DUP6 DUP3 DUP7 ADD PUSH2 0x2172 JUMP JUMPDEST SWAP3 POP POP PUSH1 0x20 DUP4 ADD CALLDATALOAD PUSH8 0xFFFFFFFFFFFFFFFF DUP2 GT ISZERO PUSH2 0x29CB JUMPI PUSH2 0x29CA PUSH2 0x214C JUMP JUMPDEST JUMPDEST PUSH2 0x29D7 DUP6 DUP3 DUP7 ADD PUSH2 0x2376 JUMP JUMPDEST SWAP2 POP POP SWAP3 POP SWAP3 SWAP1 POP JUMP JUMPDEST PUSH1 0x5 DUP2 LT PUSH2 0x29F2 JUMPI PUSH2 0x29F1 PUSH2 0x2871 JUMP JUMPDEST JUMPDEST POP JUMP JUMPDEST PUSH1 0x0 DUP2 SWAP1 POP PUSH2 0x2A03 DUP3 PUSH2 0x29E1 JUMP JUMPDEST SWAP2 SWAP1 POP JUMP JUMPDEST PUSH1 0x0 PUSH2 0x2A13 DUP3 PUSH2 0x29F5 JUMP JUMPDEST SWAP1 POP SWAP2 SWAP1 POP JUMP JUMPDEST PUSH2 0x2A23 DUP2 PUSH2 0x2A08 JUMP JUMPDEST DUP3 MSTORE POP POP JUMP JUMPDEST PUSH1 0x0 PUSH1 0x20 DUP3 ADD SWAP1 POP PUSH2 0x2A3E PUSH1 0x0 DUP4 ADD DUP5 PUSH2 0x2A1A JUMP JUMPDEST SWAP3 SWAP2 POP POP JUMP JUMPDEST PUSH32 0x596F7520646F6E2774206F776E20746869732070726F64756374000000000000 PUSH1 0x0 DUP3 ADD MSTORE POP JUMP JUMPDEST PUSH1 0x0 PUSH2 0x2A7A PUSH1 0x1A DUP4 PUSH2 0x21BF JUMP JUMPDEST SWAP2 POP PUSH2 0x2A85 DUP3 PUSH2 0x2A44 JUMP JUMPDEST PUSH1 0x20 DUP3 ADD SWAP1 POP SWAP2 SWAP1 POP JUMP JUMPDEST PUSH1 0x0 PUSH1 0x20 DUP3 ADD SWAP1 POP DUP2 DUP2 SUB PUSH1 0x0 DUP4 ADD MSTORE PUSH2 0x2AA9 DUP2 PUSH2 0x2A6D JUMP JUMPDEST SWAP1 POP SWAP2 SWAP1 POP JUMP JUMPDEST PUSH32 0x50726F64756374206E6F74207265676973746572656400000000000000000000 PUSH1 0x0 DUP3 ADD MSTORE POP JUMP JUMPDEST PUSH1 0x0 PUSH2 0x2AE6 PUSH1 0x16 DUP4 PUSH2 0x21BF JUMP JUMPDEST SWAP2 POP PUSH2 0x2AF1 DUP3 PUSH2 0x2AB0 JUMP JUMPDEST PUSH1 0x20 DUP3 ADD SWAP1 POP SWAP2 SWAP1 POP JUMP JUMPDEST PUSH1 0x0 PUSH1 0x20 DUP3 ADD SWAP1 POP DUP2 DUP2 SUB PUSH1 0x0 DUP4 ADD MSTORE PUSH2 0x2B15 DUP2 PUSH2 0x2AD9 JUMP JUMPDEST SWAP1 POP SWAP2 SWAP1 POP JUMP JUMPDEST PUSH32 0x4F6E6C792063757272656E74206F776E65722063616E20636F6E6669726D2074 PUSH1 0x0 DUP3 ADD MSTORE PUSH32 0x72616E7366657200000000000000000000000000000000000000000000000000 PUSH1 0x20 DUP3 ADD MSTORE POP JUMP JUMPDEST PUSH1 0x0 PUSH2 0x2B78 PUSH1 0x27 DUP4 PUSH2 0x21BF JUMP JUMPDEST SWAP2 POP PUSH2 0x2B83 DUP3 PUSH2 0x2B1C JUMP JUMPDEST PUSH1 0x40 DUP3 ADD SWAP1 POP SWAP2 SWAP1 POP JUMP JUMPDEST PUSH1 0x0 PUSH1 0x20 DUP3 ADD SWAP1 POP DUP2 DUP2 SUB PUSH1 0x0 DUP4 ADD MSTORE PUSH2 0x2BA7 DUP2 PUSH2 0x2B6B JUMP JUMPDEST SWAP1 POP SWAP2 SWAP1 POP JUMP JUMPDEST PUSH1 0x0 PUSH1 0x60 DUP3 ADD SWAP1 POP PUSH2 0x2BC3 PUSH1 0x0 DUP4 ADD DUP7 PUSH2 0x24CD JUMP JUMPDEST PUSH2 0x2BD0 PUSH1 0x20 DUP4 ADD DUP6 PUSH2 0x2862 JUMP JUMPDEST PUSH2 0x2BDD PUSH1 0x40 DUP4 ADD DUP5 PUSH2 0x2862 JUMP JUMPDEST SWAP5 SWAP4 POP POP POP POP JUMP JUMPDEST PUSH32 0x4163636573732064656E6965643A2077726F6E6720726F6C6520666F72207072 PUSH1 0x0 DUP3 ADD MSTORE PUSH32 0x6F64756374000000000000000000000000000000000000000000000000000000 PUSH1 0x20 DUP3 ADD MSTORE POP JUMP JUMPDEST PUSH1 0x0 PUSH2 0x2C41 PUSH1 0x25 DUP4 PUSH2 0x21BF JUMP JUMPDEST SWAP2 POP PUSH2 0x2C4C DUP3 PUSH2 0x2BE5 JUMP JUMPDEST PUSH1 0x40 DUP3 ADD SWAP1 POP SWAP2 SWAP1 POP JUMP JUMPDEST PUSH1 0x0 PUSH1 0x20 DUP3 ADD SWAP1 POP DUP2 DUP2 SUB PUSH1 0x0 DUP4 ADD MSTORE PUSH2 0x2C70 DUP2 PUSH2 0x2C34 JUMP JUMPDEST SWAP1 POP SWAP2 SWAP1 POP JUMP JUMPDEST PUSH1 0x0 PUSH1 0x60 DUP3 ADD SWAP1 POP PUSH2 0x2C8C PUSH1 0x0 DUP4 ADD DUP7 PUSH2 0x24CD JUMP JUMPDEST DUP2 DUP2 SUB PUSH1 0x20 DUP4 ADD MSTORE PUSH2 0x2C9E DUP2 DUP6 PUSH2 0x2214 JUMP JUMPDEST SWAP1 POP DUP2 DUP2 SUB PUSH1 0x40 DUP4 ADD MSTORE PUSH2 0x2CB2 DUP2 DUP5 PUSH2 0x2214 JUMP JUMPDEST SWAP1 POP SWAP5 SWAP4 POP POP POP POP JUMP JUMPDEST PUSH32 0x4F6E6C79206F776E65722063616E20696E697469617465207472616E73666572 PUSH1 0x0 DUP3 ADD MSTORE POP JUMP JUMPDEST PUSH1 0x0 PUSH2 0x2CF2 PUSH1 0x20 DUP4 PUSH2 0x21BF JUMP JUMPDEST SWAP2 POP PUSH2 0x2CFD DUP3 PUSH2 0x2CBC JUMP JUMPDEST PUSH1 0x20 DUP3 ADD SWAP1 POP SWAP2 SWAP1 POP JUMP JUMPDEST PUSH1 0x0 PUSH1 0x20 DUP3 ADD SWAP1 POP DUP2 DUP2 SUB PUSH1 0x0 DUP4 ADD MSTORE PUSH2 0x2D21 DUP2 PUSH2 0x2CE5 JUMP JUMPDEST SWAP1 POP SWAP2 SWAP1 POP JUMP JUMPDEST PUSH32 0x496E76616C696420726563697069656E74000000000000000000000000000000 PUSH1 0x0 DUP3 ADD MSTORE POP JUMP JUMPDEST PUSH1 0x0 PUSH2 0x2D5E PUSH1 0x11 DUP4 PUSH2 0x21BF JUMP JUMPDEST SWAP2 POP PUSH2 0x2D69 DUP3 PUSH2 0x2D28 JUMP JUMPDEST PUSH1 0x20 DUP3 ADD SWAP1 POP SWAP2 SWAP1 POP JUMP JUMPDEST PUSH1 0x0 PUSH1 0x20 DUP3 ADD SWAP1 POP DUP2 DUP2 SUB PUSH1 0x0 DUP4 ADD MSTORE PUSH2 0x2D8D DUP2 PUSH2 0x2D51 JUMP JUMPDEST SWAP1 POP SWAP2 SWAP1 POP JUMP JUMPDEST PUSH32 0x4D757374207472616E7366657220746F204D616E756661637475726572000000 PUSH1 0x0 DUP3 ADD MSTORE POP JUMP JUMPDEST PUSH1 0x0 PUSH2 0x2DCA PUSH1 0x1D DUP4 PUSH2 0x21BF JUMP JUMPDEST SWAP2 POP PUSH2 0x2DD5 DUP3 PUSH2 0x2D94 JUMP JUMPDEST PUSH1 0x20 DUP3 ADD SWAP1 POP SWAP2 SWAP1 POP JUMP JUMPDEST PUSH1 0x0 PUSH1 0x20 DUP3 ADD SWAP1 POP DUP2 DUP2 SUB PUSH1 0x0 DUP4 ADD MSTORE PUSH2 0x2DF9 DUP2 PUSH2 0x2DBD JUMP JUMPDEST SWAP1 POP SWAP2 SWAP1 POP JUMP JUMPDEST PUSH32 0x4D757374207472616E7366657220746F2052657461696C657200000000000000 PUSH1 0x0 DUP3 ADD MSTORE POP JUMP JUMPDEST PUSH1 0x0 PUSH2 0x2E36 PUSH1 0x19 DUP4 PUSH2 0x21BF JUMP JUMPDEST SWAP2 POP PUSH2 0x2E41 DUP3 PUSH2 0x2E00 JUMP JUMPDEST PUSH1 0x20 DUP3 ADD SWAP1 POP SWAP2 SWAP1 POP JUMP JUMPDEST PUSH1 0x0 PUSH1 0x20 DUP3 ADD SWAP1 POP DUP2 DUP2 SUB PUSH1 0x0 DUP4 ADD MSTORE PUSH2 0x2E65 DUP2 PUSH2 0x2E29 JUMP JUMPDEST SWAP1 POP SWAP2 SWAP1 POP JUMP JUMPDEST PUSH32 0x4D757374207472616E7366657220746F20436F6E73756D657200000000000000 PUSH1 0x0 DUP3 ADD MSTORE POP JUMP JUMPDEST PUSH1 0x0 PUSH2 0x2EA2 PUSH1 0x19 DUP4 PUSH2 0x21BF JUMP JUMPDEST SWAP2 POP PUSH2 0x2EAD DUP3 PUSH2 0x2E6C JUMP JUMPDEST PUSH1 0x20 DUP3 ADD SWAP1 POP SWAP2 SWAP1 POP JUMP JUMPDEST PUSH1 0x0 PUSH1 0x20 DUP3 ADD SWAP1 POP DUP2 DUP2 SUB PUSH1 0x0 DUP4 ADD MSTORE PUSH2 0x2ED1 DUP2 PUSH2 0x2E95 JUMP JUMPDEST SWAP1 POP SWAP2 SWAP1 POP JUMP JUMPDEST PUSH32 0x5472616E73666572206E6F7420616C6C6F776564206265747765656E20000000 DUP2 MSTORE POP JUMP JUMPDEST PUSH1 0x0 DUP2 SWAP1 POP SWAP3 SWAP2 POP POP JUMP JUMPDEST PUSH1 0x0 PUSH2 0x2F14 DUP3 PUSH2 0x21B4 JUMP JUMPDEST PUSH2 0x2F1E DUP2 DUP6 PUSH2 0x2EFE JUMP JUMPDEST SWAP4 POP PUSH2 0x2F2E DUP2 DUP6 PUSH1 0x20 DUP7 ADD PUSH2 0x21D0 JUMP JUMPDEST DUP1 DUP5 ADD SWAP2 POP POP SWAP3 SWAP2 POP POP JUMP JUMPDEST PUSH32 0x20616E6420000000000000000000000000000000000000000000000000000000 DUP2 MSTORE POP JUMP JUMPDEST PUSH1 0x0 PUSH2 0x2F6B DUP3 PUSH2 0x2ED8 JUMP JUMPDEST PUSH1 0x1D DUP3 ADD SWAP2 POP PUSH2 0x2F7B DUP3 DUP6 PUSH2 0x2F09 JUMP JUMPDEST SWAP2 POP PUSH2 0x2F86 DUP3 PUSH2 0x2F3A JUMP JUMPDEST PUSH1 0x5 DUP3 ADD SWAP2 POP PUSH2 0x2F96 DUP3 DUP5 PUSH2 0x2F09 JUMP JUMPDEST SWAP2 POP DUP2 SWAP1 POP SWAP4 SWAP3 POP POP POP JUMP JUMPDEST PUSH32 0x4E487B7100000000000000000000000000000000000000000000000000000000 PUSH1 0x0 MSTORE PUSH1 0x22 PUSH1 0x4 MSTORE PUSH1 0x24 PUSH1 0x0 REVERT JUMPDEST PUSH1 0x0 PUSH1 0x2 DUP3 DIV SWAP1 POP PUSH1 0x1 DUP3 AND DUP1 PUSH2 0x2FE9 JUMPI PUSH1 0x7F DUP3 AND SWAP2 POP JUMPDEST PUSH1 0x20 DUP3 LT DUP2 EQ ISZERO PUSH2 0x2FFD JUMPI PUSH2 0x2FFC PUSH2 0x2FA2 JUMP JUMPDEST JUMPDEST POP SWAP2 SWAP1 POP JUMP JUMPDEST PUSH32 0x4F6E6C79206F776E65722063616E2061737369676E20726F6C65730000000000 PUSH1 0x0 DUP3 ADD MSTORE POP JUMP JUMPDEST PUSH1 0x0 PUSH2 0x3039 PUSH1 0x1B DUP4 PUSH2 0x21BF JUMP JUMPDEST SWAP2 POP PUSH2 0x3044 DUP3 PUSH2 0x3003 JUMP JUMPDEST PUSH1 0x20 DUP3 ADD SWAP1 POP SWAP2 SWAP1 POP JUMP JUMPDEST PUSH1 0x0 PUSH1 0x20 DUP3 ADD SWAP1 POP DUP2 DUP2 SUB PUSH1 0x0 DUP4 ADD MSTORE PUSH2 0x3068 DUP2 PUSH2 0x302C JUMP JUMPDEST SWAP1 POP SWAP2 SWAP1 POP JUMP JUMPDEST PUSH32 0x4F6E6C79206F776E65722063616E206C6F67206D616E75666163747572696E67 PUSH1 0x0 DUP3 ADD MSTORE POP JUMP JUMPDEST PUSH1 0x0 PUSH2 0x30A5 PUSH1 0x20 DUP4 PUSH2 0x21BF JUMP JUMPDEST SWAP2 POP PUSH2 0x30B0 DUP3 PUSH2 0x306F JUMP JUMPDEST PUSH1 0x20 DUP3 ADD SWAP1 POP SWAP2 SWAP1 POP JUMP JUMPDEST PUSH1 0x0 PUSH1 0x20 DUP3 ADD SWAP1 POP DUP2 DUP2 SUB PUSH1 0x0 DUP4 ADD MSTORE PUSH2 0x30D4 DUP2 PUSH2 0x3098 JUMP JUMPDEST SWAP1 POP SWAP2 SWAP1 POP JUMP JUMPDEST PUSH1 0x0 PUSH1 0x40 DUP3 ADD SWAP1 POP PUSH2 0x30F0 PUSH1 0x0 DUP4 ADD DUP6 PUSH2 0x24CD JUMP JUMPDEST DUP2 DUP2 SUB PUSH1 0x20 DUP4 ADD MSTORE PUSH2 0x3102 DUP2 DUP5 PUSH2 0x2214 JUMP JUMPDEST SWAP1 POP SWAP4 SWAP3 POP POP POP JUMP JUMPDEST PUSH32 0x4E487B7100000000000000000000000000000000000000000000000000000000 PUSH1 0x0 MSTORE PUSH1 0x11 PUSH1 0x4 MSTORE PUSH1 0x24 PUSH1 0x0 REVERT JUMPDEST PUSH1 0x0 PUSH2 0x3145 DUP3 PUSH2 0x2151 JUMP JUMPDEST SWAP2 POP PUSH32 0xFFFFFFFFFFFFFFFFFFFFFFFFFFFFFFFFFFFFFFFFFFFFFFFFFFFFFFFFFFFFFFFF DUP3 EQ ISZERO PUSH2 0x3178 JUMPI PUSH2 0x3177 PUSH2 0x310B JUMP JUMPDEST JUMPDEST PUSH1 0x1 DUP3 ADD SWAP1 POP SWAP2 SWAP1 POP JUMP JUMPDEST PUSH1 0x0 PUSH1 0x40 DUP3 ADD SWAP1 POP PUSH2 0x3198 PUSH1 0x0 DUP4 ADD DUP6 PUSH2 0x24CD JUMP JUMPDEST PUSH2 0x31A5 PUSH1 0x20 DUP4 ADD DUP5 PUSH2 0x2862 JUMP JUMPDEST SWAP4 SWAP3 POP POP POP JUMP JUMPDEST PUSH32 0x4F6E6C79206F776E65722063616E20766572696679207175616C697479000000 PUSH1 0x0 DUP3 ADD MSTORE POP JUMP JUMPDEST PUSH1 0x0 PUSH2 0x31E2 PUSH1 0x1D DUP4 PUSH2 0x21BF JUMP JUMPDEST SWAP2 POP PUSH2 0x31ED DUP3 PUSH2 0x31AC JUMP JUMPDEST PUSH1 0x20 DUP3 ADD SWAP1 POP SWAP2 SWAP1 POP JUMP JUMPDEST PUSH1 0x0 PUSH1 0x20 DUP3 ADD SWAP1 POP DUP2 DUP2 SUB PUSH1 0x0 DUP4 ADD MSTORE PUSH2 0x3211 DUP2 PUSH2 0x31D5 JUMP JUMPDEST SWAP1 POP SWAP2 SWAP1 POP JUMP JUMPDEST PUSH32 0x56657269666965643A2000000000000000000000000000000000000000000000 PUSH1 0x0 DUP3 ADD MSTORE POP JUMP JUMPDEST PUSH1 0x0 PUSH2 0x324E PUSH1 0xA DUP4 PUSH2 0x2EFE JUMP JUMPDEST SWAP2 POP PUSH2 0x3259 DUP3 PUSH2 0x3218 JUMP JUMPDEST PUSH1 0xA DUP3 ADD SWAP1 POP SWAP2 SWAP1 POP JUMP JUMPDEST PUSH1 0x0 PUSH2 0x326F DUP3 PUSH2 0x3241 JUMP JUMPDEST SWAP2 POP PUSH2 0x327B DUP3 DUP5 PUSH2 0x2F09 JUMP JUMPDEST SWAP2 POP DUP2 SWAP1 POP SWAP3 SWAP2 POP POP JUMP INVALID LOG2 PUSH5 0x6970667358 0x22 SLT KECCAK256 0xD5 0x2B 0xC5 0x5C PUSH1 0xA1 0x5E PUSH13 0x54024BCA88AF331532104CC018 0xC4 DIFFICULTY 0xD2 0xC8 0xC8 CALLDATASIZE 0xD5 0xE8 0x2E 0x29 PUSH16 0x64736F6C634300080C00330000000000 "
				},
				"gasEstimates": {
					"creation": {
						"codeDepositCost": "2597600",
						"executionCost": "infinite",
						"totalCost": "infinite"
					},
					"external": {
						"assignRole(uint256,address,uint8)": "27488",
						"confirmTransfer(uint256)": "infinite",
						"getCurrentOwner(uint256)": "2938",
						"getMaterials(uint256)": "infinite",
						"getProductHistory(uint256)": "infinite",
						"getProductStatusString(uint256)": "infinite",
						"getRoleString(uint256,address)": "infinite",
						"initiateTransfer(uint256,address)": "infinite",
						"isProductRegistered(uint256)": "2907",
						"logManufacturing(uint256,string)": "infinite",
						"logMaterialInput(uint256,string,string)": "infinite",
						"nextProductId()": "2452",
						"owner()": "2600",
						"productRoles(uint256,address)": "3242",
						"products(uint256)": "infinite",
						"registerProduct()": "infinite",
						"roleToString(uint8)": "infinite",
						"statusToString(uint8)": "infinite",
						"verifyMaterialQuality(uint256,string)": "infinite"
					}
				},
				"methodIdentifiers": {
					"assignRole(uint256,address,uint8)": "6db0168f",
					"confirmTransfer(uint256)": "2c48e7db",
					"getCurrentOwner(uint256)": "7ace341b",
					"getMaterials(uint256)": "680a9283",
					"getProductHistory(uint256)": "57a096a1",
					"getProductStatusString(uint256)": "03f6dfbc",
					"getRoleString(uint256,address)": "cb3cc377",
					"initiateTransfer(uint256,address)": "3a371b8e",
					"isProductRegistered(uint256)": "8fc15dc3",
					"logManufacturing(uint256,string)": "a552811b",
					"logMaterialInput(uint256,string,string)": "3010cda7",
					"nextProductId()": "4de91a63",
					"owner()": "8da5cb5b",
					"productRoles(uint256,address)": "da9a6f3e",
					"products(uint256)": "7acc0b20",
					"registerProduct()": "dfd92f8a",
					"roleToString(uint8)": "7946bb0b",
					"statusToString(uint8)": "6d7b7fc9",
					"verifyMaterialQuality(uint256,string)": "e2f94b56"
				}
			},
			"storageLayout": {
				"storage": [
					{
						"astId": 3,
						"contract": "ProductContract.sol:ProductContract",
						"label": "owner",
						"offset": 0,
						"slot": "0",
						"type": "t_address"
					},
					{
						"astId": 48,
						"contract": "ProductContract.sol:ProductContract",
						"label": "productRoles",
						"offset": 0,
						"slot": "1",
						"type": "t_mapping(t_uint256,t_mapping(t_address,t_enum(Role)9))"
					},
					{
						"astId": 53,
						"contract": "ProductContract.sol:ProductContract",
						"label": "products",
						"offset": 0,
						"slot": "2",
						"type": "t_mapping(t_uint256,t_struct(Product)41_storage)"
					},
					{
						"astId": 57,
						"contract": "ProductContract.sol:ProductContract",
						"label": "isProductRegistered",
						"offset": 0,
						"slot": "3",
						"type": "t_mapping(t_uint256,t_bool)"
					},
					{
						"astId": 60,
						"contract": "ProductContract.sol:ProductContract",
						"label": "nextProductId",
						"offset": 0,
						"slot": "4",
						"type": "t_uint256"
					}
				],
				"types": {
					"t_address": {
						"encoding": "inplace",
						"label": "address",
						"numberOfBytes": "20"
					},
					"t_array(t_address)dyn_storage": {
						"base": "t_address",
						"encoding": "dynamic_array",
						"label": "address[]",
						"numberOfBytes": "32"
					},
					"t_array(t_struct(Material)24_storage)dyn_storage": {
						"base": "t_struct(Material)24_storage",
						"encoding": "dynamic_array",
						"label": "struct ProductContract.Material[]",
						"numberOfBytes": "32"
					},
					"t_bool": {
						"encoding": "inplace",
						"label": "bool",
						"numberOfBytes": "1"
					},
					"t_enum(ProductStatus)17": {
						"encoding": "inplace",
						"label": "enum ProductContract.ProductStatus",
						"numberOfBytes": "1"
					},
					"t_enum(Role)9": {
						"encoding": "inplace",
						"label": "enum ProductContract.Role",
						"numberOfBytes": "1"
					},
					"t_mapping(t_address,t_enum(Role)9)": {
						"encoding": "mapping",
						"key": "t_address",
						"label": "mapping(address => enum ProductContract.Role)",
						"numberOfBytes": "32",
						"value": "t_enum(Role)9"
					},
					"t_mapping(t_uint256,t_bool)": {
						"encoding": "mapping",
						"key": "t_uint256",
						"label": "mapping(uint256 => bool)",
						"numberOfBytes": "32",
						"value": "t_bool"
					},
					"t_mapping(t_uint256,t_mapping(t_address,t_enum(Role)9))": {
						"encoding": "mapping",
						"key": "t_uint256",
						"label": "mapping(uint256 => mapping(address => enum ProductContract.Role))",
						"numberOfBytes": "32",
						"value": "t_mapping(t_address,t_enum(Role)9)"
					},
					"t_mapping(t_uint256,t_struct(Product)41_storage)": {
						"encoding": "mapping",
						"key": "t_uint256",
						"label": "mapping(uint256 => struct ProductContract.Product)",
						"numberOfBytes": "32",
						"value": "t_struct(Product)41_storage"
					},
					"t_string_storage": {
						"encoding": "bytes",
						"label": "string",
						"numberOfBytes": "32"
					},
					"t_struct(Material)24_storage": {
						"encoding": "inplace",
						"label": "struct ProductContract.Material",
						"members": [
							{
								"astId": 19,
								"contract": "ProductContract.sol:ProductContract",
								"label": "name",
								"offset": 0,
								"slot": "0",
								"type": "t_string_storage"
							},
							{
								"astId": 21,
								"contract": "ProductContract.sol:ProductContract",
								"label": "origin",
								"offset": 0,
								"slot": "1",
								"type": "t_string_storage"
							},
							{
								"astId": 23,
								"contract": "ProductContract.sol:ProductContract",
								"label": "timestamp",
								"offset": 0,
								"slot": "2",
								"type": "t_uint256"
							}
						],
						"numberOfBytes": "96"
					},
					"t_struct(Product)41_storage": {
						"encoding": "inplace",
						"label": "struct ProductContract.Product",
						"members": [
							{
								"astId": 26,
								"contract": "ProductContract.sol:ProductContract",
								"label": "productId",
								"offset": 0,
								"slot": "0",
								"type": "t_uint256"
							},
							{
								"astId": 30,
								"contract": "ProductContract.sol:ProductContract",
								"label": "materials",
								"offset": 0,
								"slot": "1",
								"type": "t_array(t_struct(Material)24_storage)dyn_storage"
							},
							{
								"astId": 32,
								"contract": "ProductContract.sol:ProductContract",
								"label": "manufacturerNote",
								"offset": 0,
								"slot": "2",
								"type": "t_string_storage"
							},
							{
								"astId": 34,
								"contract": "ProductContract.sol:ProductContract",
								"label": "currentOwner",
								"offset": 0,
								"slot": "3",
								"type": "t_address"
							},
							{
								"astId": 37,
								"contract": "ProductContract.sol:ProductContract",
								"label": "ownershipHistory",
								"offset": 0,
								"slot": "4",
								"type": "t_array(t_address)dyn_storage"
							},
							{
								"astId": 40,
								"contract": "ProductContract.sol:ProductContract",
								"label": "status",
								"offset": 0,
								"slot": "5",
								"type": "t_enum(ProductStatus)17"
							}
						],
						"numberOfBytes": "192"
					},
					"t_uint256": {
						"encoding": "inplace",
						"label": "uint256",
						"numberOfBytes": "32"
					}
				}
			},
			"userdoc": {
				"events": {
					"ManufacturingLogged(uint256,string)": {
						"notice": "Emitted when a manufacturer logs production or quality"
					},
					"MaterialLogged(uint256,string,string)": {
						"notice": "Emitted when a material is logged"
					},
					"OwnershipTransferred(uint256,address,address)": {
						"notice": "Emitted when product ownership changes"
					},
					"ProductRegistered(uint256,address)": {
						"notice": "Emitted when a product is registered"
					}
				},
				"kind": "user",
				"methods": {
					"assignRole(uint256,address,uint8)": {
						"notice": "Assigns a role to a specific address"
					},
					"confirmTransfer(uint256)": {
						"notice": "Confirms transfer of ownership (e.g., by recipient)"
					},
					"getCurrentOwner(uint256)": {
						"notice": "Returns the current owner of a product"
					},
					"getMaterials(uint256)": {
						"notice": "Retrieves all materials logged for a product"
					},
					"getProductHistory(uint256)": {
						"notice": "Returns the full ownership history of a product"
					},
					"getRoleString(uint256,address)": {
						"notice": "Retrieves the role of a user in human-readable format"
					},
					"initiateTransfer(uint256,address)": {
						"notice": "Initiates transfer of product ownership"
					},
					"logManufacturing(uint256,string)": {
						"notice": "Logs manufacturing or processing details"
					},
					"logMaterialInput(uint256,string,string)": {
						"notice": "Logs material input details for a product"
					},
					"registerProduct()": {
						"notice": "Registers a new product on the blockchain"
					},
					"verifyMaterialQuality(uint256,string)": {
						"notice": "Verifies the quality of received materials"
					}
				},
				"version": 1
			}
		}
	}
}